:020000040800F2
:10000000D8190020D1010008314B00088B3B0008B3
:100010002D4B00082D0700080D5A000800000000B5
:10002000000000000000000000000000F94E000881
:100030002D0A000800000000474B0008BD520008D0
:10004000EB010008EB010008EB010008EB010008E0
:10005000EB010008EB010008EB010008EB010008D0
:10006000EB010008EB010008EB010008EB010008C0
:10007000EB010008EB010008EB010008EB010008B0
:10008000EB010008EB010008EB010008EB010008A0
:10009000EB010008EB010008EB010008EB01000890
:1000A000EB010008EB010008EB010008EB01000880
:1000B0004D5300085D5300086D530008EB01000824
:1000C000EB010008EB010008EB010008EB01000860
:1000D000EB010008DD590008ED590008FD59000842
:1000E0002F0A0008EB010008EB01000800F002F8FD
:1000F00000F05FF80AA090E8000C82448344AAF163
:100100000107DA4501D100F054F8AFF2090EBAE860
:100110000F0013F0010F18BFFB1A43F0010318473B
:1001200058B8000078B800000A444FF0000C10F8EE
:10013000013B13F0070408BF10F8014B1D1108BF65
:1001400010F8015B641E05D010F8016B641E01F805
:10015000016BF9D113F0080F1EBF10F8014BAD1C55
:100160000C1B09D16D1E58BF01F801CBFAD505E073
:1001700014F8016B01F8016B6D1EF9D59142D6D3CD
:10018000704700000023002400250026103A28BFF5
:1001900078C1FBD8520728BF30C148BF0B607047F9
:1001A000642900F09980002070471FB51FBD10B56D
:1001B00010BD00F05FFA1146FFF7F7FF07F0FAFCF9
:1001C00000F07DFA03B4FFF7F2FF03BC05F0B0FDC9
:1001D0000948804709480047FEE7FEE7FEE7FEE7DB
:1001E000FEE7FEE7FEE7FEE7FEE7FEE70448054917
:1001F000054A064B7047000049530008ED0000080F
:10020000D8130020D8190020D8150020D8150020B8
:1002100010B54C1084EA530404D54042C1F10001EA
:1002200038BF491E1B4204D55242C3F1000338BFF8
:100230005B1E00F00DF914F0804F04D04042C1F174
:10024000000138BF491E14F0004F04D05242C3F1E0
:10025000000338BF5B1E10BD0FB4044910B503AADC
:10026000029800F0D1F910BC5DF814FB7800002072
:100270002DE9F0410E460446002020622046E16848
:10028000884730B3252805D0D4E901219047206A5A
:10029000401CF2E7E168204600278847050018D097
:1002A000A5F14100192802D820354FF400673246E5
:1002B000294620462760FFF773FF40B1012804D08C
:1002C000F61D26F007060836D8E7361DD6E728467D
:1002D000DAE7206ABDE8F0812DE9F0410646002406
:1002E00010687529314616A510D0AFF3008000289C
:1002F00002DA404213A507E031688A0701D512A54A
:1003000002E0490704D511A5012401E0AFF3008004
:1003100000210A2206F1240709E0B0FBF2FCB0FB41
:10032000F2F302FB1C00303078541846491C0028B8
:10033000F3D123462A463046BDE8F04100F00AB921
:10034000000000002D0000002B0000002000000035
:1003500040EA010310B59B070FD1042A0DD310C842
:1003600008C9121F9C42F8D020BA19BA884201D994
:10037000012010BD4FF0FF3010BD1AB1D30703D0DC
:10038000521C07E0002010BD10F8013B11F8014B92
:100390001B1B07D110F8013B11F8014B1B1B01D1AE
:1003A000921EF1D1184610BD02F0FF0343EA03226A
:1003B00042EA024200F002B84FF000020429C0F005
:1003C000128010F0030C00F01B80CCF1040CBCF187
:1003D000020F18BF00F8012BA8BF20F8022BA1EBD9
:1003E0000C0100F00DB85FEAC17C24BF00F8012BBE
:1003F00000F8012B48BF00F8012B70474FF00002B6
:1004000000B5134694469646203922BFA0E80C500A
:10041000A0E80C50B1F12001BFF4F7AF090728BFE5
:10042000A0E80C5048BF0CC05DF804EB890028BF61
:1004300040F8042B08BF704748BF20F8022B11F08A
:10044000804F18BF00F8012B704770477047704706
:1004500053EA020C00F069802DE9F04B4FF00006E2
:10046000002B1FBFB3FA83F503FA05F424FA05F64F
:100470005E4012BF1643B2FA82F502FA05F4C5F1E6
:1004800020051EBF22FA05FC44EA0C04203556EA7A
:10049000044C4FEA144418BF641C4FF000084FF09E
:1004A0000009904271EB030C39D3002919BFB1FA4E
:1004B00081F701FA07F6B0FA80F700FA07F6C7F1FC
:1004C00020071EBF20FA07FC46EA0C062037B6FBC1
:1004D000F4FCA7EB0507103F07F01F0BCBF120063C
:1004E0000CFA0BFB2CFA06F644BFB3460026202F6D
:1004F000A4BF5E464FF0000B5BEA060C08BF4FF04E
:10050000010B19EB0B09ABFB027C48EB0608C01B87
:1005100006FB02CC0BFB03CC71EB0C01C1E70B46D5
:10052000024641464846BDE8F08B13B54FF0000047
:100530004FF00001AFF30080BDE81C40704710B5DC
:1005400000F074F8006810BD10B5044600F06EF8B5
:10055000046010BD2DE9F0470D46994692460446C9
:1005600000F124080168880604D5E06921F0100133
:10057000216000E00120A84201DD471B00E00027C8
:10058000A1697A1902EB0900081AA0612078C00657
:1005900002D42046AFF30080002608E0D4E9012110
:1005A0001AF806009047206A401C761C20624E45CF
:1005B000F4DB2078C0060AD52046AFF3008006E0C1
:1005C000D4E9012130209047206A401C2062381E67
:1005D000A7F10107F4DC07E0D4E9012118F80500D0
:1005E0009047206A401C2062281EA5F10105F3DC1B
:1005F0002046AFF300802078000602D50220BDE837
:10060000F0870120FBE70000074B70B50D467B44E7
:1006100000F015F80446284600F024F810B14FF019
:10062000FF3070BD204670BDDF6D00000048704790
:100630007813002001694A1C02610878704700B5F0
:100640008FB0CDE901310021059105497944CDE90B
:10065000031011466846FFF70BFE0FB000BD000007
:10066000E5FFFFFF007B00F0800070470048704707
:10067000781300207546FFF7F9FFAE46050069467E
:10068000534620F00700854618B020B5FFF7AEFDB1
:10069000BDE820404FF000064FF000074FF0000883
:1006A0004FF0000B21F00701AC46ACE8C009ACE804
:1006B000C009ACE8C009ACE8C0098D46704710B568
:1006C0000446AFF300802046BDE81040FFF77ABD36
:1006D00070B5044600252068806800F0010018B35A
:1006E0002068806820F001002168886001F0BEF871
:1006F000054613E001F0BAF8401B02280ED9206825
:10070000806800F0010048B1A06A40F01000A062CB
:10071000E06A40F00100E062012070BD206880685E
:1007200000F001000028E5D10020F6E700BFFEE759
:100730002DE9F05F05460C46124E1348016820462D
:100740000AF006F8834611480168584609F000FE91
:10075000804631464FF07E500AF002F9824641460B
:1007600009F0F6FF07463146284609F0F1FF8146B9
:10077000394609F0EDFD0549086008460068BDE806
:10078000F09F00000AD7A33C480100208801002008
:100790002DE9F05F05460C46124E134801682046CD
:1007A00009F0D6FF834611480168584609F0D0FD8C
:1007B000804631464FF07E500AF0D2F882464146DC
:1007C00009F0C6FF07463146284609F0C1FF8146B9
:1007D000394609F0BDFD0549086008460068BDE8D6
:1007E000F09F00000AD7A33C48010020C801002068
:1007F00038B5002000900120384908706B4601226E
:100800007521682007F030F935A0FFF725FD9DF828
:10081000000068281DD000BF00BF00BF00BF00BFA0
:10082000BFF34F8F00BF00BF00BF3648006800F421
:10083000E06035490843001D3249086000BF00BF31
:1008400000BFBFF34F8F00BF00BF00BF00BF00BF9E
:10085000FDE707F00FFB00283CD1782008F014F9E1
:1008600010B91FA0FFF7F8FC782007F0F1F910B9D4
:1008700026A0FFF7F1FCC82008F0B8F810B92DA0A9
:10088000FFF7EAFC06F050F910B934A0FFF7E4FCDA
:100890003F4807F054F9044606F0A0FB10B93DA00C
:1008A000FFF7DAFC40F2731005F0E6FF10B943A041
:1008B000FFF7D2FCC82006F0C1FA10B949A0FFF733
:1008C000CBFC08F07DFE012007F08CFF10B94EA094
:1008D000FFF7C2FC01200149087038BD0700002065
:1008E0006D70755F7365745F73656E736F7220638F
:1008F0006F6D706C657465202E2E2E2E2E2E0D0AB7
:10090000000000000CED00E00000FA056D70755F5E
:10091000636F6E6669677572655F6669666F20638F
:100920006F6D706C657465202E2E2E2E2E2E0D0A86
:10093000000000006D70755F7365745F73616D70AA
:100940006C655F7261746520636F6D706C65746552
:10095000202E2E2E2E2E2E0D0A000000646D705FAC
:100960006C6F61645F6D6F74696F6E5F64726976DE
:1009700065725F6669726D7761726520636F6D7015
:100980006C657465202E2E2E2E2E2E0D0A00000072
:1009900024020020646D705F7365745F6F72696517
:1009A0006E746174696F6E20636F6D706C657465D1
:1009B000202E2E2E2E2E2E0D0A000000646D705F4C
:1009C000656E61626C655F666561747572652063F2
:1009D0006F6D706C657465202E2E2E2E2E2E0D0AD6
:1009E00000000000646D705F7365745F6669666F18
:1009F0005F7261746520636F6D706C657465202E25
:100A00002E2E2E2E2E0D0A006D70755F7365745F8D
:100A1000646D705F737461746520636F6D706C6575
:100A20007465202E2E2E2E2E2E0D0A00704710B526
:100A30004FF4805000F06EFD10BD72B600BFFEE7AF
:100A40002DE9F04F91B0804604F016FAB4490860E1
:100A5000B8F1010F1BD104F08BF8B2480068B2491D
:100A60000860B249B1F9000009F012FEB04908600F
:100A7000AE49B1F9040009F00BFEAE490860AE4979
:100A8000B1F9040009F004FEAC49086044E14421D6
:100A9000D02003F07CF883464321D02003F077F880
:100AA0000BEB0020099009F0F3FD06464621D0200B
:100AB00003F06DF883464521D02003F068F80BEB76
:100AC0000020099009F0E4FD0A904821D02003F0AD
:100AD0005EF883464721D02003F059F80BEB002045
:100AE000099009F0D5FD07463C21D02003F04FF8CE
:100AF00083463B21D02003F04AF80BEB00200990FD
:100B000009F0C6FD0D903E21D02003F040F8834649
:100B10003D21D02003F03BF80BEB0020099009F0B9
:100B2000B7FD82464021D02003F031F883463F21B3
:100B3000D02003F02CF80BEB0020099009F0A8FD61
:100B400005464FF08E41304609F0CEFE05D24FF0FB
:100B50008F41304609F004FF06464FF08E410A9857
:100B600009F0C2FE05D24FF08F410A9809F0F8FE55
:100B70000A904FF08E41384609F0B6FE05D24FF08C
:100B80008F41384609F0ECFE07464FF08E410D9834
:100B900009F0AAFE05D24FF08F410D9809F0E0FE52
:100BA0000D904FF08E41504609F09EFE05D24FF059
:100BB0008F41504609F0D4FE82464FF08E412846C0
:100BC00009F092FE05D24FF08F41284609F0C8FE89
:100BD000054686F0004056490860284609F08CFB1F
:100BE000CDE90201504609F087FBCDE90001DDE9BE
:100BF000022305F03BFB0022514BCDE9040109F033
:100C00006BF8504A504BCDE9060108F07DFECDE966
:100C1000080108F08BFD0C90284609F06DFBCDE92A
:100C200002010D9809F068FBCDE90001DDE902231E
:100C300005F01CFB0022424BCDE9040109F04CF801
:100C4000404A414BCDE9060108F05EFECDE90801BE
:100C500008F06CFD0B904FF08D410D9809F0E6FB0C
:100C600010904FF08D41504609F0E0FB0F904FF08F
:100C70008D41284609F0DAFB0E90304609F03CFB26
:100C80004FF06632314BCDE9060108F03DFECDE96B
:100C9000080108F04BFD81460A9809F02DFB4FF042
:100CA00066322A4BCDE9060108F02EFECDE9080197
:100CB00008F03CFD044626480078022810D1494639
:100CC0000C9803F0E3F980F00040164908602146D3
:100CD0000B9803F013FB80F000401E49086013E0FE
:100CE0001B48007803280FD149460C98FFF720FDD8
:100CF00080F000400B49086021460B98FFF748FD43
:100D000080F0004013490860064800680649086002
:100D1000084807600948056011B0BDE8F08F000081
:100D2000100000200C0200201C000020F801002010
:100D30002000002024000020FE01002040000020B0
:100D400000806640F1D4C853FB21094066663040FC
:100D500000000020080200202DE9F04100250026B7
:100D60000027A8460121344800F072FD3349344A77
:100D7000127888544FF40051324800F069FD2F4931
:100D8000091D2F4A127888544FF480412D4800F0F5
:100D90005FFD2A4908312A4A127888544FF40041ED
:100DA000284800F055FD25490C31254A1278885411
:100DB00023490978481CC11700EB91718910A0EBF9
:100DC00081011F4A1170002415E01C48005D284471
:100DD000C5B21A48001D005D3044C6B2174808303D
:100DE000005D3844C7B215480C30005D404400F047
:100DF000FF08601CC4B2042CE7DB022D01DD0120DA
:100E000000E0002010490870022E01DD012000E002
:100E100000200E490870022F01DD012000E00020B3
:100E20000B490870B8F1020F01DD012000E000203D
:100E300008490870BDE8F0810008014068130020EF
:100E400044020020001001406000002061000020EA
:100E500062000020630000202DE9F04F87B0834638
:100E60008A46584608F0E4FE00222E4BCDE90001E8
:100E700008F032FF064600222B4B08F045FD804665
:100E800000222A4B08F040FD04460022284B08F0BF
:100E90003BFDCDE9020108F049FC0590059809F0F9
:100EA0002BFA8046234A244B08F016FF0646002200
:100EB000224B08F011FF044608F038FC2049086076
:100EC000504608F0B5FE0022164BCDE9000108F0AF
:100ED00003FF80460022144B08F016FD0646002250
:100EE000124B08F011FD0022114BCDE9020108F070
:100EF0000BFD044608F01AFC0490049809F0FCF974
:100F000006460C4A0C4B08F0E7FE044600220B4B49
:100F100008F0E2FE804608F009FC0A49086007B0C4
:100F2000BDE8F08F000069400000104000003E4026
:100F300000002A40F1D4C853FB21094000C05040B2
:100F4000340200203802002038B502460023002079
:100F5000009000BF92F82400012801D1022038BD82
:100F6000012082F8240000BF4868072812D21068C8
:100F7000406B0C79641E04EB84051F24AC40A04335
:100F80000D796D1E05EB85050C68AC402043146897
:100F9000606327E048680D2812D21068006B0C7956
:100FA000E41F04EB84051F24AC40A0430D79ED1F22
:100FB00005EB85050C68AC4020431468206311E004
:100FC0001068C06A0C790D3C04EB84051F24AC400A
:100FD000A0430D790D3D05EB85050C68AC40204321
:100FE0001468E06208680A2812D31068C0680C7898
:100FF0000A3C04EB44050724AC40A0430D780A3DAD
:1010000005EB45058C68AC4020431468E0600FE0B8
:10101000106800690C7804EB44050724AC40A04339
:101020000D7805EB45058C68AC40204314682061C1
:101030000868102802D00868112827D1174C1068BA
:10104000A0421ED11068806800F40000F0B910685A
:10105000806840F400001468A0600868102815D16A
:101060000F4800680F4CB0FBF4F000EB800040002C
:10107000009002E00098401E009000980028F9D1EE
:1010800004E0906A40F020009062012300BF00203D
:1010900082F8240000BF184661E7000000240140E8
:1010A0008800002040420F002DE9F041044600274F
:1010B00000250026A84614B90120BDE8F081A068EB
:1010C00010B1207D00B100BFA06A30B90020E062FD
:1010D00084F82400204600F089F82046FFF7F8FA4B
:1010E0000746A06A00F01000002873D1002F71D1CC
:1010F000A06A20F4885040F00200A062E1696068B4
:101100000843217B40EA41000643A068B0F5807F98
:1011100002D0A068012802D14FF4807000E00020C6
:101120000543207D012811D1207B38B9A069401EDC
:101130004FF4006141EA4030054307E0A06A40F007
:101140002000A062E06A40F00100E0622068406890
:1011500020F469402843216848602068806821495C
:101160000840304321688860A068B0F5807F02D0D5
:10117000A068012802D14FF4807000E00020B0F593
:10118000807F03D1208A401E4FEA00582068C06A41
:1011900020F4700040EA08002168C8622068806876
:1011A00011490840B04208D10020E062A06A20F056
:1011B000020040F00100A06211E0A06A20F00200ED
:1011C00040F01000A062E06A40F00100E0620127F8
:1011D00005E0FFE7A06A40F01000A0620127384652
:1011E0006BE70000FDF7E1FFFE0E1FFF10B586B0B4
:1011F000044600200290039004900590284920683E
:10120000884223D100BF2748806940F400702549F7
:1012100088610846806900F40070019000BF00BF3B
:1012200000BF0846806940F0080088610846806970
:1012300000F00800019000BF00BF022002900320D0
:10124000039002A9184800F073F926E017492068B6
:10125000884222D100BF1348806940F48060114960
:1012600088610846806900F48060019000BF00BF7B
:1012700000BF0846806940F0080088610846806920
:1012800000F00800019000BF00BF01200290032081
:10129000039002A9044800F04BF906B010BD00000D
:1012A0000024014000100240000C014000280140D1
:1012B0000146002291F82100022808D0042088630A
:1012C00000BF002081F8200000BF0120704708689F
:1012D000006820F00E000B6818600868006820F0B5
:1012E00001000B68186091F8403001209840CB6BEA
:1012F0005860012081F8210000BF002081F8200003
:1013000000BF1046E2E7000070B50446002594F8DF
:101310002100022803D00420A063012548E02068B2
:10132000006820F00E00216808602068006820F046
:101330000100216808601F492068884201D101200E
:1013400026E01C4914312068884201D110201FE09A
:10135000184928312068884201D1801518E01549C4
:101360003C312068884201D1801411E0114950318C
:101370002068884202D14FF4803009E00D49643181
:101380002068884202D14FF4801001E04FF0807055
:10139000084908394860012084F8210000BF002076
:1013A00084F8200000BF606B10B12046616B884755
:1013B000284670BD0800024010B50446B4F5805FB1
:1013C0007DD14448007808B9012000E0002041495F
:1013D000087041480078FFF733FB032003F030FD2D
:1013E0003E490860042003F02BFD40423C49086060
:1013F0000846016839480068FFF72EFD3948007833
:1014000001280ED138480078401C3749087008463A
:1014100000780A2805D10020087032490870334945
:10142000087033480078012803D03148007802283A
:1014300001D103F0CBFC2F48007828B92E48007862
:1014400010B9642003F0B0F82A480078012803D0CE
:1014500029480078012802D1002003F0A5F803F004
:1014600085F81F4801681D48006804F0D1FA03F0B0
:1014700045FD22490860224800680968401A214950
:1014800008601F4800681D49096808441E49086033
:101490001E4A51421B48006803F04CFB1949086082
:1014A0001A4A51421848006803F044FB1649086084
:1014B00017480078012806D10021084600E008E01E
:1014C00003F0C2FE05E0104801680E48006803F012
:1014D000BBFE10BD0401002000000020F000002031
:1014E000F4000020440000204500002028000020D7
:1014F000290000203D0000203E00002000010020C7
:10150000FC000020080000200C0000200CE5FFFF7C
:101510000600002010B5044604480068204020B1B1
:10152000024804602046FFF747FF10BD1404014045
:101530002DE9F8470346002294466EE14FF001087A
:1015400008FA02F4D1F8008008EA0400A0427DD134
:10155000DFF8DCA2D1F80480A8EB0A09D0453AD024
:1015600014DCB8F1030F50D009DCB8F1000F31D012
:10157000B8F1010F1CD0B8F1020F49D120E0B8F149
:10158000110F18D0B8F1120F42D11EE0B9F5881F23
:1015900025D006DCB9F5803F20D0B9F5801F37D1C2
:1015A0001AE0B9F5001F18D0B9F5041F30D117E0C3
:1015B000D1F80CC02DE0D1F80C8008F1040C28E023
:1015C000D1F80C8008F1080C23E0D1F80C8008F168
:1015D0000C0C1EE000BF00BF00BF00BF00BF00BF7B
:1015E000D1F80880B8F1000F02D14FF0040C0BE0E5
:1015F000D1F80880B8F1010F03D14FF0080C1C613D
:1016000002E04FF0080C5C6103E04FF0000C00E0DA
:1016100000BF00BFFF2801D8984601E003F104088D
:101620004646FF2802D84FEA820803E0A2F10808E4
:101630004FEA88084746D6F800804FF00F0909FAAC
:1016400007F928EA09080CFA07F900E088E048EAF7
:101650000908C6F80080D1F8048008F08058B8F175
:10166000805F7DD100BFDFF8CC81D8F8188048F0CA
:101670000108DFF8C091C9F81880C846D8F818806A
:1016800008F00108CDF8008000BF00BF4FEAB9386C
:101690004FEA920958F829504FEA82784FEA1879B0
:1016A0004FF00F0808FA09F825EA0805DFF88881E5
:1016B000434502D14FF0000816E0DFF88081434532
:1016C00002D14FF001080FE0DFF87481434502D1E9
:1016D0004FF0020808E0DFF86C81434502D14FF07B
:1016E000030801E04FF004084FEA82794FEA1979C4
:1016F00008FA09F848EA0505DFF84C814FEA920933
:1017000048F82950D1F8048008F48018B8F5801FF3
:101710000AD1DFF83881D8F8008048EA0008DFF8FD
:101720002C91C9F8008009E0DFF82081D8F800800A
:1017300028EA0008DFF81491C9F80080D1F8048085
:1017400008F40018B8F5001F10D1DFF8008108F187
:101750000408D8F8008048EA0008DFF8F09000E0BC
:101760005AE009F10409C9F800800DE0DFF8DC80D7
:1017700008F10408D8F8008028EA0008DFF8CC90C7
:1017800009F10409C9F80080D1F8048008F4003890
:10179000B8F5003F0ED1DFF8B480A8F10408D8F8FE
:1017A000008048EA0008DFF8A490A9F10409C9F80C
:1017B00000800DE0DFF89480A8F10408D8F80080DC
:1017C00028EA0008DFF88490A9F10409C9F800802C
:1017D000D1F8048008F48038B8F5803F0ED1DFF8E6
:1017E0006C80A8F10808D8F8008048EA0008DFF803
:1017F0005C90A9F10809C9F800800DE0DFF84C8081
:10180000A8F10808D8F8008028EA0008DFF83C9022
:10181000A9F10809C9F80080521CD1F8008028FA03
:1018200002F8B8F1000F7FF489AEBDE8F887000038
:10183000000011100010024000080140000C01409F
:10184000001001400014014008000140080401405C
:10185000024693680B400BB1012000E00020704766
:101860000AB1016101E00B0403617047014800689F
:10187000704700007C000020034800680349097895
:1018800008440149086070477C0000208400002063
:1018900010B50848006840F01000064908600320B1
:1018A00000F0CEF8002000F007F800F02BF8002040
:1018B00010BD00000020024070B504460E480078BC
:1018C0004FF47A71B1FBF0F00C490968B1FBF0F507
:1018D000284600F0B7FC08B1012070BD102C07D2DB
:1018E00000222146501E00F06DF80548046001E01A
:1018F0000120F2E70020F0E78400002088000020AB
:101900008000002008B500BF1348806940F0010046
:10191000114988610846806900F00100009000BF0D
:1019200000BF00BF0846C06940F08050C86108464B
:10193000C06900F08050009000BF00BF052000F09B
:101940007FF800BF0549486820F0E06040F0806003
:10195000486000BF08BD00000010024000000140C8
:1019600010B501460846002817DB00F01F030122CE
:101970009A400B4B440943F8242000BF00BF00BF2E
:10198000BFF34F8F00BF00BF00BF00BF00BF00BF4D
:10199000BFF36F8F00BF00BF00BF00BF10BD0000CE
:1019A00080E100E001460846002809DB00F01F0343
:1019B00001229A4043099B0003F1E023C3F8002170
:1019C00000BF70472DE9F05F80460D4616460027A0
:1019D00004F01AF9074639462A46334601F0070053
:1019E000C0F1070ABAF1040F02D94FF0040A01E06E
:1019F000C0F1070AD14600F1040ABAF1070F02D27A
:101A00004FF0000A01E0A0F1030AD4464FF0010AAA
:101A10000AFA09FAAAF1010A0AEA020A0AFA0CFA0F
:101A20004FF0010B0BFA0CFBABF1010B0BEA030BB4
:101A30004AEA0B042146404604F0EEF8BDE8F09F68
:101A400000BF00F00702064B19684FF6FF0319406C
:101A5000044B0B4343EA0221014B196000BF70475E
:101A60000CED00E00000FA05F8B50446002600255C
:101A7000207800F0010000286BD000274348C0699F
:101A800000F0805070B900BF4048C06940F08050FD
:101A90003E49C8610846C06900F08050009000BF10
:101AA00000BF01273A48006800F48070B0B9384898
:101AB000006840F4807036490860FFF7D7FE06469C
:101AC00006E0FFF7D3FE801B642801D90320F8BD90
:101AD0002F48006800F480700028F2D02B48006A7C
:101AE00000F440752DB3A08800F44070A84220D0C7
:101AF0002648006A20F4407501202649086000202D
:101B000008602248056205F0010090B1FFF7AEFEC3
:101B1000064608E0FFF7AAFE801B41F288318842A2
:101B200001D90320D3E71948006A00F00200002819
:101B3000F0D01648006A20F44070616808431349E9
:101B40000862012F04D10846C06920F08050C861A6
:101B500000BF207800F00200022807D10B4840683F
:101B600020F44040A168084308494860207800F00C
:101B70001000102807D10548406820F48000E16873
:101B80000843024948600020A1E70000001002401D
:101B9000007000404004424270B504460D460CB946
:101BA000012070BD5A48006800F00700A8420ED21C
:101BB0005748006820F00700284355490860084648
:101BC000006800F00700A84201D00120E9E7207872
:101BD00000F0020002281DD1207800F00400042843
:101BE00005D14C48406840F4E0604A49486020789C
:101BF00000F00800082805D14648406840F46050CD
:101C0000444948604348406820F0F000A168084318
:101C100040494860207800F0010078B360680128EE
:101C200006D13C48006800F4003090B90120B8E7C4
:101C30006068022806D13748006800F0007040B99B
:101C40000120AEE73348006800F0020008B9012027
:101C5000A7E73048406820F00300616808432D4939
:101C60004860FFF703FE064609E0FFF7FFFD801B13
:101C700041F28831884202D9032092E707E02548E3
:101C8000406800F00C006168B0EB810FEDD1204896
:101C9000006800F00700A8420ED91D48006820F037
:101CA000070028431A4908600846006800F007004A
:101CB000A84201D0012074E7207800F00400042835
:101CC00007D11448406820F4E060E16808431149F6
:101CD0004860207800F00800082808D10D484068C6
:101CE00020F46050216940EAC1000A49486000F0D0
:101CF0003FF808494968C1F30311074A515CC840DD
:101D00000649086006480068FFF7D6FD002048E74E
:101D100000200240001002404CAB00088800002068
:101D20008000002001480068704700008800002003
:101D300000B5FFF7F7FF04494968C1F30221034AE0
:101D4000515CC84000BD0000001002405CAB0008C0
:101D500000B5FFF7E7FF04494968C1F3C221034A10
:101D6000515CC84000BD0000001002405CAB0008A0
:101D700070B500210022002400230020134D696863
:101D800001F00C05F5B1042D02D0082D19D101E0A8
:101D90000F4819E00F4DC1F38346AB5D01F4803568
:101DA00055B10A4D6D68C5F340450B4E725D084D47
:101DB0005D43B5FBF2F402E0084D03FB05F4204659
:101DC00002E000BF024800BF00BF70BD001002402B
:101DD00000127A003AAB00084AAB000800093D0047
:101DE000F8B504460CB90120F8BD207800F00100D8
:101DF000002878D0F848406800F00C0004280CD087
:101E0000F548406800F00C00082811D1F2484068FD
:101E100000F48030B0F5803F0AD1EF48006800F44C
:101E2000003000285FD0606800285CD10120DBE72B
:101E300000BF6068B0F5803F06D1E748006840F415
:101E40008030E549086028E0606858B9E2480068D9
:101E500020F48030E04908600846006820F48020C3
:101E600008601AE06068B0F5A02F0BD1DA4800686E
:101E700040F48020D84908600846006840F480306B
:101E800008600AE0D448006820F48030D249086035
:101E90000846006820F48020086000BF606888B1B0
:101EA000FFF7E4FC054606E0FFF7E0FC401B642872
:101EB00001D9032098E7C848006800F400300028E2
:101EC000F2D010E0FFF7D2FC054606E0FFF7CEFCAB
:101ED000401B642801D9032086E7BF48006800F44E
:101EE00000300028F2D1207800F00200022857D1FB
:101EF000B948406800F00C0050B1B748406800F0A5
:101F00000C00082818D1B448406800F4803098B913
:101F1000B148006800F0020020B12069012801D01A
:101F2000012061E7AC48006820F0F800616940EAF0
:101F3000C100A949086033E02069E8B10120A74940
:101F40000860FFF793FC054606E0FFF78FFC401B97
:101F5000022801D9032047E79F48006800F00200EB
:101F60000028F2D09C48006820F0F800616940EA3F
:101F7000C1009949086013E0002098490860FFF704
:101F800075FC054606E0FFF771FC401B022801D9ED
:101F9000032029E79048006800F002000028F2D1F1
:101FA000207800F0080008282DD1A069B8B10120E0
:101FB0008B490860FFF75AFC054606E0FFF756FC20
:101FC000401B022801D903200EE78348406A00F035
:101FD00002000028F2D0012002F0B6FD13E000203C
:101FE0007F490860FFF742FC054606E0FFF73EFC2C
:101FF000401B022801D90320F6E67748406A00F02A
:1020000002000028F2D1207800F00400042873D1E7
:1020100000277148C06900F0805070B900BF6E4859
:10202000C06940F080506C49C8610846C06900F042
:102030008050009000BF00BF01276A48006800F48C
:102040008070B0B96748006840F4807065490860E6
:10205000FFF70CFC054606E0FFF708FC401B642870
:1020600001D90320C0E65F48006800F480700028B2
:10207000F2D000BFE068012806D15748006A40F05E
:1020800001005549086227E0E06858B95248006AE3
:1020900020F00100504908620846006A20F0040060
:1020A000086219E0E06805280BD14B48006A40F04F
:1020B0000400494908620846006A40F001000862CD
:1020C0000AE04548006A20F00100434908620846DA
:1020D000006A20F00400086200BFE068A0B1FFF7CA
:1020E000C5FB054609E0FFF7C1FB401B41F2883103
:1020F000884202D9032077E622E03748006A00F0E0
:1021000002000028EFD012E0FFF7B0FB054608E020
:10211000FFF7ACFB401B41F28831884201D9032014
:1021200062E62D48006A00F002000028F0D1012F7D
:1021300005D12948C06920F080502749C86100BFF7
:10214000E069C8B32448406800F00C00082860D05B
:10215000E069022848D1002020490866FFF786FB85
:10216000054606E0FFF782FB401B022801D9032049
:102170003AE61948006800F000700028F2D1206AA1
:10218000B0F5803F07D11448406820F40030A168C2
:10219000084311494860D4E9080108430E494968D9
:1021A00021F4741108430C49486001200B4908666A
:1021B000FFF75CFB054607E03DE0FFF757FB401BE0
:1021C000022801D903200FE60348006800F00070E0
:1021D0000028F2D02FE00000001002400000424230
:1021E0008004424200700040002014490866FFF756
:1021F0003DFB054606E0FFF739FB401B022801D9ED
:102200000320F1E50E48006800F000700028F2D1CC
:1022100011E0E069012800D1E6E50948466806F4C6
:102220008031206A814204D106F47011606A8142D3
:1022300001D00120D8E50020D6E500000000424290
:102240000010024070B504462546681EB0F1807F3C
:1022500001D301200FE0681E4FF0E02148610F21FB
:102260004FF0FF3003F0D8FC00204FF0E0218861F0
:1022700007200861002070BD7047704710B5034605
:10228000002200BF93F83C00012801D1022010BDBC
:10229000012083F83C0000BF22F0FF00CC6840EA38
:1022A000040222F440708C6840EA040222F4806048
:1022B0004C6840EA040222F400600C6840EA040220
:1022C00022F480500C6940EA040222F400504C6968
:1022D00040EA040222F48040CC6940EA0402186813
:1022E000426400BF002083F83C0000BF00BFCEE77F
:1022F00030B502460B4600BF92F83C00012801D1E0
:10230000022030BD012082F83C0000BF022082F88C
:102310003D00106844681068816824F070041868F3
:10232000044310684460104D1068A8420BD0106838
:10233000B0F1804F07D00D4D1068A84203D00C4D6E
:102340001068A84205D121F0800158680143106847
:102350008160012082F83D0000BF002082F83C002F
:1023600000BF00BFCDE70000002C0140000400408A
:1023700000080040014691F83D00012801D00120ED
:102380007047022081F83D000868C06840F00100F5
:102390000B68D860124B086898420BD00868B0F1FF
:1023A000804F07D00F4B0868984203D00E4B086847
:1023B00098420CD10868806800F00702062A0CD009
:1023C0000868006840F001000B68186005E00868C4
:1023D000006840F001000B6818600020D0E70000A2
:1023E000002C014000040040000800402DE9F041AD
:1023F00004460D4614B90120BDE8F08194F83D0073
:1024000028B9002084F83C00204600F051F8022052
:1024100084F83D002068806844F207018843216801
:102420008860211D206802F0A9FF2068D0F808808C
:10243000206886692068076A286840EA080840F230
:1024400003308643A969A86840EA0120064340F6A4
:102450000C4086434FF2F0008643E969E86840EAA1
:102460000120064328690001296A40EA0130064339
:1024700027F022076969686840EA0110074320686D
:10248000C0F808802068866120680762012084F80F
:10249000460084F83E0001213F200155012084F8C8
:1024A000420043200155012084F83D000020A3E7AD
:1024B00010B586B004460020029003900490059069
:1024C0003149206888422CD100BF3048C06940F0B3
:1024D00002002E49C8610846C06900F00200019060
:1024E00000BF00BF00BF0846806940F0040088615B
:1024F0000846806900F00400019000BF00BFC020C2
:10250000029000200390049002A92148FFF710F8E0
:10251000012211461D20FFF755FA1D20FFF742FA50
:102520002FE01C49206888422BD100BF1748C069A2
:1025300040F004001549C8610846C06900F0040075
:10254000019000BF00BF00BF0846806940F008004E
:1025500088610846806900F00800019000BF00BF54
:10256000C020029000200390049002A90A48FEF7C0
:10257000DFFF012211461E20FFF724FA1E20FFF77D
:1025800011FA06B010BD0000000400400010024027
:102590000008014000080040000C01402DE9F04314
:1025A00004460D4694F83E603F20075D94F8428053
:1025B000432010F804906DB9012E02D1B8F1010F3B
:1025C00002D00120BDE8F083022084F83E0084F8A8
:1025D000420025E0042D0CD1012F02D1B9F1010FE9
:1025E00001D00120EEE702213F2001554320015593
:1025F00016E0012E07D1012F05D1B8F1010F02D14C
:10260000B9F1010F01D00120DCE7022084F83E007F
:1026100002213F200155022084F842004320015549
:1026200015B1042D0CD105E001220021206802F033
:10263000DFFE10E001220421206802F0D9FE0AE04A
:1026400001220021206802F0D3FE0122042120682B
:1026500002F0CEFE00BF00BF2068006840F001001D
:10266000216808600020ADE710B504464348844265
:1026700043D14348007800F0800000287DD14048D5
:10268000007800F04000C8B33D48008840F080006A
:102690003B4908800421394800F06EFC3949088024
:1026A00000BF36480068006A41F21111084068B95D
:1026B00032480068006A8910084038B92F4800681D
:1026C000006820F001002D490968086000BF2B4810
:1026D0000068006A20F0A0002849096808622748BD
:1026E0000068006A25490968086224480068006893
:1026F00040F001002149096808603EE0FFE7002042
:102700001F4908801F4908801D48008840F040008C
:102710001B49088000BF19480068006A41F2111186
:10272000084068B915480068006A8910084038B93F
:1027300012480068006820F001001049096808602C
:1027400000BF00200D49096848620C480068006A13
:1027500020F0A00009490968086208480068006A7A
:1027600040F02000054909680862044800680068D4
:1027700040F0010001490968086010BD080300200D
:1027800074000020760000202DE9F04104460D463B
:102790001646002700BF94F83C00012802D1022011
:1027A000BDE8F081012084F83C0000BF96B9EB68D9
:1027B000D5E90012206802F0E9FE2068806920F067
:1027C0000C002168886120688069A9680843216835
:1027D000886141E0042E13D1EB68D5E9001220682E
:1027E00002F008FF2068806920F440602168886159
:1027F00020688069A96840EA0120216888612BE08F
:10280000082E12D1EB68D5E90012206802F00FFF04
:102810002068C06920F00C002168C8612068C06988
:10282000A96808432168C86116E00C2E13D1EB6833
:10283000D5E90012206802F016FF2068C06920F474
:1028400040602168C8612068C069A96840EA012029
:102850002168C86100E0012700BF002084F83C0027
:1028600000BF38469CE710B504460CB9012010BDE6
:1028700094F83D0028B9002084F83C00204600F080
:1028800025F8022084F83D00211D206802F076FD25
:10289000012084F8460000BF84F83E0001213F205B
:1028A0000155402001554120015500BF00BF0120C6
:1028B00084F842004320015544200155452001552C
:1028C00000BF012084F83D000020D0E710B586B09D
:1028D0000446002002900390049005902068B0F117
:1028E000804F37D100BF1C48C06940F001001A4931
:1028F000C8610846C06900F00100019000BF00BF38
:1029000000BF0846806940F004008861084680697D
:1029100000F00400019000BF00BF022002900020E0
:102920000390049002A90D48FEF702FE0122114611
:102930001C20FFF747F81C20FFF734F8082002900E
:1029400001200390002004900320059002A9034871
:10295000FEF7EEFD06B010BD001002400008014079
:102960002DE9F04304460D46002615B994F83E00C3
:102970000BE0042D02D13F20005D06E0082D02D1BE
:102980004020005D01E04120005D804615B994F8CB
:1029900042000BE0042D02D14320005D06E0082D2B
:1029A00002D14420005D01E04520005D8146B8F180
:1029B000010F02D1B9F1010F02D00120BDE8F0836F
:1029C0001DB9022084F83E000EE0042D03D102213F
:1029D0003F20015508E0082D03D102214020015578
:1029E00002E00221412001551DB9022084F8420075
:1029F0000EE0042D03D102214320015508E0082DEB
:102A000003D102214420015502E002214520015555
:102A100035B1042D0BD0082D10D00C2D1CD114E095
:102A20002068C06840F002002168C86016E0206895
:102A3000C06840F004002168C8600FE02068C068EA
:102A400040F008002168C86008E02068C06840F0D5
:102A500010002168C86001E0012600BF00BF06BB6E
:102A600001222946206802F0C3FC124920688842EE
:102A70000BD02068B0F1804F07D00F492068884202
:102A800003D00E49206888420CD12068806800F08D
:102A90000707062F0CD02068006840F0010021686D
:102AA000086005E02068006840F0010021680860C7
:102AB000304683E7002C014000040040000800403D
:102AC00010B5044620680069C0F34000D8B1206802
:102AD000C068C0F34000B0B16FF002002168086127
:102AE000012020772068806900F0030018B120469B
:102AF000FFF7BAFD05E0204600F0DAF8204600F0C6
:102B0000A5F90020207720680069C0F38000D8B1C3
:102B10002068C068C0F38000B0B16FF00400216885
:102B20000861022020772068806900F4407018B1A5
:102B30002046FFF799FD05E0204600F0B9F8204651
:102B400000F084F90020207720680069C0F3C000FD
:102B5000D8B12068C068C0F3C000B0B16FF0080001
:102B600021680861042020772068C06900F0030014
:102B700018B12046FFF778FD05E0204600F098F8F0
:102B8000204600F063F90020207720680069C0F338
:102B90000010D8B12068C068C0F30010B0B16FF069
:102BA000100021680861082020772068C06900F4BF
:102BB000407018B12046FFF757FD05E0204600F0B1
:102BC00077F8204600F042F900202077206800695D
:102BD00000F0010058B12068C06800F0010030B179
:102BE0006FF0010021680861204600F09BF9206821
:102BF0000069C0F3C01058B12068C068C0F3C010AD
:102C000030B16FF08000216808612046FFF734FB87
:102C100020680069C0F3801058B12068C068C0F314
:102C2000801030B16FF0400021680861204600F04C
:102C3000BCF920680069C0F3401058B12068C06832
:102C4000C0F3401030B16FF02000216808612046C9
:102C5000FFF713FB10BD000010B586B0044600203E
:102C600002900390049005900E492068884217D185
:102C700000BF0D48806940F004000B498861084698
:102C8000806900F00400019000BF00BF4FF41060A5
:102C9000029002200390059002A90448FEF748FC28
:102CA00006B010BD002C0140001002400008014099
:102CB00070472DE9F04104460D461646002700BF37
:102CC00094F83C00012802D10220BDE8F0810120E7
:102CD00084F83C0000BF36B1042E1BD0082E31D042
:102CE0000C2E5ED145E02946206802F093FB206857
:102CF000806940F00800216888612068806920F0C0
:102D00000400216888612068806929690843216876
:102D1000886148E02946206802F0ACFB20688069A1
:102D200040F40060216888612068806920F4806038
:102D30002168886120688069296940EA012021684A
:102D4000886130E02946206802F0C8FB2068C0692D
:102D500040F008002168C8612068C06920F00400C4
:102D60002168C8612068C069296908432168C86171
:102D700019E02946206802F0E5FB2068C06940F4AC
:102D800000602168C8612068C06920F48060216803
:102D9000C8612068C069296940EA01202168C861CA
:102DA00001E0012700BF00BF00BF002084F83C0005
:102DB00000BF384689E710B504460CB9012010BDA4
:102DC00094F83D0028B9002084F83C00204600F02B
:102DD00025F8022084F83D00211D206802F0CEFA7B
:102DE000012084F8460000BF84F83E0001213F2006
:102DF0000155402001554120015500BF00BF012071
:102E000084F84200432001554420015545200155D6
:102E100000BF012084F83D000020D0E708B5094A32
:102E2000016891420DD100BF0749896941F40061F1
:102E3000054A91611146896901F40061009100BF62
:102E400000BF08BD002C0140001002407047000088
:102E500070B504460D4615B994F83E000BE0042DFC
:102E600002D13F20005D06E0082D02D14020005D28
:102E700001E04120005D012801D0012070BD1DB995
:102E8000022084F83E000EE0042D03D102213F20F1
:102E9000015508E0082D03D102214020015502E030
:102EA00002214120015501222946206802F0A0FAA2
:102EB00019492068884201D1012000E0002028B192
:102EC0002068406C40F40040216848641249206842
:102ED00088420BD02068B0F1804F07D00F4920689E
:102EE000884203D00E49206888420CD1206880684F
:102EF00000F00706062E0CD02068006840F00100A4
:102F00002168086005E02068006840F00100216841
:102F100008600020B2E70000002C014000040040DF
:102F200000080040114988421FD11149097801F079
:102F30008001D1B90E49097801F04001A9B10C49CD
:102F4000097801F03F013F290AD10949098841F078
:102F50008001074A11804FF6FF71064A118004E094
:102F600003490988491C024A118070470803002060
:102F700074000020760000200246002031B10429B0
:102F800007D0082908D00C290CD108E01368586B29
:102F900009E01368986B06E01368D86B03E01368C8
:102FA000186C00E000BF00BF704770477047704763
:102FB0002DE9F84F0446206805682068C668206837
:102FC00047694FF00009CA4605F00F09B9F1000F33
:102FD0000AD105F0200038B106F0200020B12046CB
:102FE00002F0AFFBBDE8F88FB9F1000F7BD007F01E
:102FF000010018B906F49070002874D005F00100A3
:1030000030B106F4807018B1606C40F0010060646B
:1030100005F0040030B107F0010018B1606C40F019
:103020000200606405F0020030B107F0010018B141
:10303000606C40F00400606405F0080048B106F0E0
:10304000200010B907F0010018B1606C40F00800D2
:103050006064606C002845D005F0200028B106F0BF
:10306000200010B1204602F06CFB20684069C0F3DC
:10307000801A606C00F0080010B9BAF1000F2CD073
:10308000204602F018FB2068406900F0400000B3C1
:1030900000BF00BF2168143151E8001F21F040003B
:1030A0002168143141E80002002AF3D100BFE06B2F
:1030B00050B17748E16B4863E06BFEF725F988B1C2
:1030C000E06B416B88470DE02046FFF770FF09E099
:1030D00009E02046FFF76BFF04E02046FFF767FF9B
:1030E000002060647EE7206B012877D105F0100096
:1030F000002873D006F010000028FAD000BF00208E
:10310000009020680068009020684068009000BF30
:1031100000BF2068406900F0400000285FD0E06BED
:10312000006840681FFA80F8B8F1000F55D0A08DF4
:10313000404552DDA4F82E80E06B8069202843D002
:1031400000BF00BF21680C3151E8001F21F48070DE
:1031500021680C3141E80002002AF3D100BF00BF12
:1031600000BF2168143151E8001F21F001002168DF
:10317000143141E80002002AF3D100BF00BF00BFB4
:103180002168143151E8001F21F0400021681431FA
:1031900041E80002002AF3D100BF202084F8420059
:1031A0000020206300BF00BF21680C3151E8001FE0
:1031B00021F0100021680C3141E80002002AF3D10F
:1031C00000BFE06BFEF774F802206063A08DE28D13
:1031D000801A81B22046FFF7E9FE03E742E0A08DA6
:1031E000E18D401A1FFA80F8E08DD0B3B8F1000FDE
:1031F00037D000BF00BF21680C3151E8001F21F417
:10320000907021680C3141E80002002AF3D100BF20
:1032100000BF00BF2168143151E8001F21F00100F8
:103220002168143141E80002002AF3D100BF2020B8
:1032300084F842000020206300BF00BF21680C31E9
:1032400051E8001F21F0100021680C3141E8000214
:10325000002AF3D100BF0220606341462046FFF7F9
:10326000A5FEBFE605F0800030B106F0800018B181
:10327000204602F083FBB5E605F0400030B106F0D1
:10328000400018B1204602F04CFAABE600BFA9E6B8
:10329000A356000810B504460CB9012010BDA06962
:1032A00000B100E000BF94F8410028B9002084F884
:1032B0004000204600F02AF8242084F841002068CD
:1032C000C06820F400502168C860204602F0B8FAB7
:1032D0002068006920F490402168086120684069F6
:1032E00020F02A00216848612068C06840F400503E
:1032F0002168C86000206064202084F8410084F8C0
:1033000042000020606300BFC8E7000010B586B02F
:1033100004460020029003900490059059492068CB
:10332000884237D100BF5848806940F480405649F0
:1033300088610846806900F48040019000BF00BFAA
:1033400000BF0846806940F0040088610846806933
:1033500000F00400019000BF00BF48150290022059
:1033600003900320059002A94848FEF7E1F84FF4C6
:103370008060029000200390049002A94348FEF769
:10338000D7F8012211462520FEF71CFB2520FEF769
:1033900009FB75E03E492068884236D100BF3A48B3
:1033A000C06940F400303849C8610846C06900F47B
:1033B0000030019000BF00BF00BF0846806940F0A8
:1033C000040088610846806900F00400019000BF95
:1033D00000BF04200290022003900320059002A960
:1033E0002A48FEF7A5F808200290002003900490D8
:1033F00002A92648FEF79CF8012211462620FEF776
:10340000E1FA2620FEF7CEFA3AE022492068884207
:1034100036D100BF1C48C06940F480201A49C861F9
:103420000846C06900F48020019000BF00BF00BFC3
:103430000846806940F0080088610846806900F00D
:103440000800019000BF00BF081502900220039001
:103450000320059002A91048FEF76AF84FF40060B7
:10346000029000200390049002A90B48FEF760F838
:10347000012211462720FEF7A5FA2720FEF792FA2F
:1034800006B010BD003801400010024000080140A5
:103490000044004000480040000C014070B5044664
:1034A0000D46164694F8420020280BD105B10EB9FE
:1034B000012070BD0020206332462946204602F0DC
:1034C0003DFAF6E70220F4E72DE9F04786B08246A0
:1034D000F749DAF80000884275D1F6480078F649D5
:1034E000086008460078F5490870F34800685928D4
:1034F00002D10220F2490870EF480068582802D132
:103500000120EF490870EC4800680A2865DDEA48A8
:1035100000685A2809D10020EA490870EA49087071
:10352000EA490870EA49087057E0E3480068412812
:103530000AD10120E34908700020E3490870E349FB
:103540000870E349087048E0DB48006845280BD163
:103550000020DC4908700120DB4908700020DB49AD
:103560000870DB49087038E0D3480068422807D06B
:10357000D1480068432803D0CF48006844280AD1C6
:103580000020D0490870D0490870D0490870012047
:10359000CF49087021E0C8480068462807D0C648CF
:1035A0000068472803D0C448006848280CD1002090
:1035B000C4490870C44908700120C449087000203B
:1035C000C349087009E01DE10020BE490870BE49EA
:1035D0000870BE490870BE490870B74800680A28DC
:1035E00062DAB548006848B90020B6490870B649A3
:1035F0000870B6490870B649087055E0AE480068D2
:10360000012809D1AF4908700020AF490870AF49BF
:103610000870AF49087047E0A748006805280BD13B
:103620000020A84908700120A74908700020A74978
:103630000870A749087037E09F480068022807D043
:103640009D480068032803D09B48006804280AD1DD
:1036500000209C4908709C4908709C490870012012
:103660009B49087020E094480068062807D09248DB
:103670000068072803D09048006808280BD1002074
:103680009049087090490870012090490870002006
:103690008F49087008E000208A4908708A4908703C
:1036A0008A4908708A490870844800787B2802D1CA
:1036B000012088490870814800787D2802D10220C5
:1036C000844908708348007801280AD17B48007833
:1036D0008149824A1278885480480078401C7F498A
:1036E00008707C48007802286FD17B48C078502849
:1036F00003D101207A49087071E077484078232887
:103700006DD0764800787749087035E073490978BC
:10371000744A1278881A06F08BFA02460B46CDE9F5
:1037200000010020704905F05FFA06460F466D491A
:103730000978491E684A515CA1F1300006F078FA18
:1037400032463B46CDE9020106F0C6FA04460D4674
:103750006648006806F0D0FD804622462B4606F0FB
:1037600017F8CDE9040105F0E1FF604908605D4804
:103770000078401E5B4908705A4800780428C5DA72
:10378000554840783038092828D2DFE800F0050A8B
:103790000F14191F24252600544800685449086056
:1037A0001CE0524800685349086017E04F48006821
:1037B0005149086012E04D480068504908600DE02A
:1037C0004A4800684E49086008E015E0474800682C
:1037D0004C49086002E001E000E000BF00BF0020AB
:1037E0003C4908703D4908703E4908703F490860EF
:1037F00032213948FCF7E0FD01222E494248FFF70B
:103800004DFEB2E14149DAF800008842F9D1404862
:103810000478404800783A2848D2DFE800F01D32AA
:103820008196A3B0F1FEEEEDFFEBEAE9E8E7E6E50D
:10383000E4E3E2E1E0DFDEDDDCDBDAD9D8D7D6D5C0
:10384000D4D3D2D1D0CFCECDCCCBCAC9C8C7C6C5B0
:10385000C4C3C2C1C0BFBEBDA52C0CD12E480470CC
:103860002C480078401C2B4908702C4800782044D4
:103870002A49087004E0002026490870274908708A
:103880006CE15A2C0CD12448447022480078401C2A
:10389000204908702148007820442049087004E03D
:1038A00000201C4908701D49087057E155E10000CF
:1038B00000480040A2000020A4000020A300002037
:1038C000050000200100002002000020030000206D
:1038D00004000020A8000020B8040020A900002057
:1038E0003C000020AA00002000002440AC00002082
:1038F000480000204C000020500000205400002010
:10390000580000205C0000207004002000440040AB
:10391000A0000020B0000020F40B0020B100002027
:103920003A2C0CD19248847092480078401C9149FE
:1039300008709148007820448F49087004E0002006
:103940008C4908708C49087008E18948C47089481E
:103950000078401C874908708748007820448649D1
:103960000870FBE08248047182480078401C81495D
:1039700008708148007820447F490870EEE07C4858
:1039800044717C480078401C7A4908707A48007875
:10399000204479490870E1E0C5E0B6E0A7E08EE098
:1039A0006BE049E08AE067E045E086E063E041E003
:1039B00082E05FE03DE07EE05BE039E07AE057E006
:1039C00035E076E053E031E072E04FE02DE06EE06C
:1039D0004BE029E06AE047E025E066E043E021E0D3
:1039E00062E03FE01DE05EE03BE019E05AE037E0D6
:1039F00015E056E033E011E052E02FE00DE0FFE784
:103A00005B4884715B480078401C5A4908705A48EA
:103A10000078204458490870A0E000BF00BF00BFF4
:103A200000BF00BF00BF00BF00BF00BF00BF00BF9E
:103A300000BF00BF00BF00BF5048007800EB40014E
:103A40004B48C01D44544B480078401C49490870FD
:103A5000494800782044484908707FE000BF00BF13
:103A600000BF00BF00BF00BF00BF00BF00BF00BF5E
:103A700000BF00BF00BF00BF00BF4048007800EBA0
:103A800040013B48C01D084444703A480078401C3F
:103A900038490870384800782044374908705DE09C
:103AA00000BF00BF00BF00BF00BF00BF00BF00BF1E
:103AB00000BF00BF00BF00BF00BF00BF00BF2F4856
:103AC000007800EB40012A48C01D08448470294852
:103AD0000078401C27490870274800782044264970
:103AE000087026480078401C2449087036E02048B9
:103AF00080F837401F480078401C1E4908701E4857
:103B0000007820441C49087028E0194880F83840A3
:103B100018480078401C174908701748007820445E
:103B2000154908701AE0124880F839400020114900
:103B30000870124908700E4890F839000E4909784B
:103B4000884202D102F078FC03E03A210848FCF7F1
:103B500033FC00200849087000E000BF00BF0122CC
:103B600007490848FFF79AFC00BF06B0BDE8F08798
:103B7000F40B0020B0000020B1000020B2000020B3
:103B8000A000002028040020704700BFFEE770B5A9
:103B900005460E46002400F0D3F8284600F09EF8B3
:103BA000641C00F025F9304600F098F8641C00F021
:103BB0001FF900F0C5F8691CC8B200F08FF8641C4A
:103BC00000F016F9002000F051F8044600F0ECF87F
:103BD000204670BD10B500200E4908600E480068F0
:103BE00020F0F0000C4908600846006840F0300002
:103BF000086000200949C1F8A401012002F0F8FD85
:103C000001200449086002F0F3FD00200349C1F8D7
:103C1000A00110BDA0812142040C0140008021427E
:103C200010B500200E4908600E48006820F0F00032
:103C30000C4908600846006840F030000860012028
:103C40000949C1F8A40102F0D3FD0120044908602C
:103C500002F0CEFD00200449C1F8A00110BD000013
:103C6000A0812142040C01400080214270B505462C
:103C700000241748006820F0F00015490860084645
:103C8000006840F080000860002616E0002011491E
:103C90000860022002F0ACFD01200F49C1F8A0012C
:103CA0006006040E0B487C38006808B1601CC4B282
:103CB000022002F09DFD701CC6B2082EE6DB15B195
:103CC000FFF788FF01E0FFF7ABFF204670BD000063
:103CD000040C0140A08121420080214270B50446BD
:103CE0001448006820F0F000124908600846006897
:103CF00040F03000086000200F490860002516E001
:103D0000E0090D49091D08606006040E012002F05B
:103D10006FFD01200949C1F8A00102F069FD0020F2
:103D200005490860012002F063FD681CC5B2082D3A
:103D3000E6DB70BD040C0140A081214200802142DD
:103D400010B51648006820F0F000144908600846D5
:103D5000006840F0300008600120114908601148F7
:103D6000D0F8240108B9002010BD01200C49091F1A
:103D7000086002F03DFD00200A49C1F8A40108488E
:103D80008038006808B10020EEE7012002F030FD25
:103D900000200349091F08600120E5E7040C0140E9
:103DA000A48121420080214210B50E48006820F015
:103DB000F0000C4908600846006840F030000860D8
:103DC0000020094908600949C1F8A401012002F056
:103DD0000FFD0120044908600449C1F8A40102F064
:103DE00007FD10BD040C0140A0812142008021424A
:103DF00010B500241548006820F0F0001349086051
:103E00000846006840F08000086001201049086002
:103E100002F0EEFC01200F49C1F8A00102F0E8FC1D
:103E20000AE0601CC4B2322C03DDFFF7BDFF0020A6
:103E300010BD012002F0DCFC054880380068002835
:103E4000EFD10349091F08600120F1E7040C01408C
:103E5000A48121420080214270B505460E461446D9
:103E600031462846FFF793FE2070012070BDF8B55B
:103E700006460F4614461D466A4639463046FFF749
:103E8000EBFF2DB10120A0409DF80010084305E094
:103E90000120A0409DF8001021EA0000C0B200906F
:103EA0009DF800203946304600F036F8F8BD2DE97F
:103EB000F8430746884614461D46089E6A46414612
:103EC0003846FFF7C9FF28B3601CFF2101FA00F054
:103ED000C4F108012944491EFF220A41104300F0A1
:103EE000FF09C5F1080006FA00F0C6B2C4F10700E8
:103EF00006419DF8000000EA090000909DF80000CE
:103F0000304300909DF800204146384600F004F808
:103F1000BDE8F8830020FBE737B504460D4602AB49
:103F200001222946204600F001F83EBD2DE9F0416E
:103F300080460D4616461F460024FFF701FF404607
:103F4000FFF7CCFEFFF754FF2846FFF7C7FEFFF749
:103F50004FFF00BF06E0385DFFF7C0FEFFF748FFE8
:103F6000601CC4B2B442F6DBFFF71EFF0120BDE8BF
:103F7000F081000000B585B0002001900290039010
:103F8000049000BF1E48806940F008001C49886109
:103F90000846806900F00800009000BF00BF00BF25
:103FA0000846806940F0100088610846806900F08A
:103FB0001000009000BF00BF01200190002002907F
:103FC000012003900220049001A90E48FDF7B0FAE9
:103FD0004FF40050019001A90B48FDF7A9FA4FF4E6
:103FE0008040019001A90848FDF7A2FA4FF4004073
:103FF000019001A90448FDF79BFA05B000BD00003F
:10400000001002400008014000100140014649062E
:10401000084A926942F00102064B9A61064A5268C8
:1040200022F0E062044B5A601A4652680A435A6012
:1040300070470000001002400000014000B585B04C
:104040000020019002900390049000BF0D48806909
:1040500040F004000B4988610846806900F00400C4
:10406000009000BF00BF202001900020029001209E
:1040700003900220049001A90348FDF759FA05B006
:1040800000BD000000100240000801402DE9F05F73
:1040900005460C46894E8A4F4FF07C584FF0010977
:1040A00088480168204606F05BFC83468648016824
:1040B000584606F04DFB824684480168504606F09B
:1040C00047F98249086082484168304606F048FC5A
:1040D00082467F488168504606F042FC7D49086070
:1040E0007B48C06880F0004048607948C06880F034
:1040F000004088600846C76008687349096806F090
:1041000027FB824672480168504606F021F9704943
:104110000860704948686C49096806F019FB8246D6
:104120006B484168504606F013F96949486069498F
:1041300088686549096806F00BFB82466448816817
:10414000504606F005F9624988606249C8685E49D0
:10415000096806F0FDFA82465D48C168504606F0DF
:10416000F7F85B49C86059480168284606F0F8FB33
:1041700059490860484606F0A3FA82465448016847
:10418000504606F0E5FA55490860484606F098FAA8
:1041900082464F488168504606F0DAFA5049086076
:1041A000484606F08DFA83464C480168584606F0AA
:1041B000CFFA8246414606F0CBF84A4908600846E5
:1041C00001684648006806F031F9474908604548EB
:1041D00001684348006806F029F9444908603F48EF
:1041E000006843490860484606F06AFA8246384843
:1041F0004168504606F0ACFA3E4908603C48016808
:104200003948006806F0A4FA8246314801685046F1
:1042100006F09BFB2E49086036480168324800686A
:1042200006F096FA82462A484168504606F08DFB11
:10423000274948602E4801682C48006806F088FA33
:10424000824623488168504606F07FFB20498860FB
:10425000284801682548006806F07AFA82461C481A
:10426000C168504606F071FB1949C8601A480168D8
:104270001D48006806F06CFA8246144801685046F2
:1042800006F066F81149086013480168174800688D
:1042900006F05EFA82460B480168504606F058F870
:1042A0000849086008460168204606F059FB124993
:1042B000086006480068BDE8F09F00006F12833A6E
:1042C000A69B443B540100204801002050010020DF
:1042D0007801002038130020580100205C010020E4
:1042E0006001002064010020680100206C010020B2
:1042F00070010020740100204C0100202DE9F05FC6
:1043000005460C46894E8A4F4FF07C584FF0010904
:1043100088480168204606F023FB834686480168EA
:10432000584606F015FA824684480168504606F061
:104330000FF88249086082484168304606F010FB59
:1043400082467F488168504606F00AFB7D49086036
:104350007B48C06880F0004048607948C06880F0C1
:10436000004088600846C76008687349096806F01D
:10437000EFF9824672480168504605F0E9FF70493E
:104380000860704948686C49096806F0E1F982469E
:104390006B484168504605F0DBFF69494860694950
:1043A00088686549096806F0D3F9824664488168DF
:1043B000504605F0CDFF624988606249C8685E4991
:1043C000096806F0C5F982465D48C168504605F0A7
:1043D000BFFF5B49C86059480168284606F0C0FA2B
:1043E00059490860484606F06BF98246544801680E
:1043F000504606F0ADF955490860484606F060F9A8
:1044000082464F488168504606F0A2F9504908603C
:10441000484606F055F983464C480168584606F070
:1044200097F98246414605F093FF4A4908600846DD
:1044300001684648006805F0F9FF474908604548AB
:1044400001684348006805F0F1FF444908603F48AF
:10445000006843490860484606F032F98246384809
:104460004168504606F074F93E4908603C480168CE
:104470003948006806F06CF98246314801685046B8
:1044800006F063FA2E490860364801683248006831
:1044900006F05EF982462A484168504606F055FA11
:1044A000274948602E4801682C48006806F050F9FA
:1044B000824623488168504606F047FA20498860C2
:1044C000284801682548006806F042F982461C48E1
:1044D000C168504606F039FA1949C8601A4801689F
:1044E0001D48006806F034F98246144801685046B9
:1044F00005F02EFF1149086013480168174800684D
:1045000006F026F982460B480168504605F020FF68
:104510000849086008460168204606F021FA124959
:10452000086006480068BDE8F09F00006F12833AFB
:10453000A69B443B940100204801002090010020EC
:10454000B801002048130020980100209C010020A1
:10455000A0010020A4010020A8010020AC0100203F
:10456000B0010020B40100208C01002010B501F042
:104570004BFF0446012C0CD10648007808B90120F5
:1045800000E00020034908700846017802A0FBF70C
:1045900063FE10BD06000020466C61675F53746FB8
:1045A000703A25640D0A000018B90021094A11600B
:1045B0000FE009490968491C074A1160814208D186
:1045C00004490968C943054AC2F8B4110021024AE6
:1045D00011607047B40122429C000020000022427A
:1045E00010B5022000F010F8032000F021F80020A0
:1045F00000F014F8002000F037F8002000F02BF84D
:10460000002000F01FF810BD38B504460323022235
:104610006B21D0200094FFF74AFC38BD38B5044622
:10462000022304221C21D0200094FFF740FC38BD57
:1046300038B50446022304221B21D0200094FFF742
:1046400036FC38BD10B50446234601223721D02060
:10465000FFF70DFC10BD10B50446234605226A2164
:10466000D020FFF704FC10BD10B5044623460622F7
:104670006B21D020FFF7FBFB10BD00000EB5002022
:1046800000900190029012481249086000211148E0
:104690008160017301754FF46021C16100200D49F3
:1046A000486001210B480161FCF7FEFC08B1FCF7F2
:1046B000C4F9092000900120019000200290694671
:1046C0000448FCF741FC08B1FCF7B7F90EBD000047
:1046D00000240140600200200EB5002000900190EF
:1046E000029012481249086000211148816001734C
:1046F00001754FF46021C16100200D49486001211E
:104700000B480161FCF7D0FC08B1FCF796F90820D2
:104710000090012001900020029069460448FCF7B7
:1047200013FC08B1FCF789F90EBD00000028014018
:104730009002002000B585B0002001900290039007
:10474000049000BF3A48806940F010003849886101
:104750000846806900F01000009000BF00BF00BF55
:104760000846806940F0200088610846806900F0B2
:104770002000009000BF00BF00BF0846806940F0E5
:10478000040088610846806900F00400009000BFC2
:1047900000BF00BF0846806940F0080088610846F5
:1047A000806900F00800009000BF00BF00224FF4B5
:1047B00060412048FDF754F8002248F210011E48DD
:1047C000FDF74EF800224FF238311C48FDF748F84B
:1047D00048F2100001900120029000200390022076
:1047E000049001A91448FCF7A3FE4FF23830019061
:1047F00001200290002003900220049001A90F489C
:10480000FCF796FE4FF4805001900D480290002076
:10481000039001A90848FCF78BFE01220221282001
:10482000FDF7D0F82820FDF79BF805B000BD00008B
:10483000001002400010014000080140000C01403F
:104840000000111000B591B000200F9010901C21B5
:1048500008A8FBF7D3FD20216846FBF7CFFD2B48C6
:104860002B4908600020486000212948816041F6FA
:104870001F41C16000210161416180218161FEF71A
:104880009AFA08B1FCF7D9F800200F9010900FA900
:104890001F48FDF72DFD08B1FCF7CFF86020089008
:1048A000002009900A900B900C900D900E90002221
:1048B00008A91748FEF7FDF908B1FCF7BEF80C226D
:1048C00008A91348FEF7F5F908B1FCF7B6F800207F
:1048D000009001900290039004904FF400500590D6
:1048E0000020079069460A48FDF7C8FC08B1FCF7AC
:1048F000A4F800210648FEF7ABFA0C210448FEF7A5
:10490000A7FA0348FEF7A8F911B000BD002C01403A
:10491000C002002000B587B00020059006900190ED
:104920000290039004904FF080401A49086047209D
:1049300048600021174881604FF6FF71C160002177
:1049400001618161FDF78FFF08B1FCF776F8002067
:104950000590069005A90F48FDF7CAFC08B1FCF7C1
:104960006CF8002001900120029000200390049038
:10497000042201A90748FDF707FF08B1FCF75DF81D
:1049800004210448FDF7ECFF0248FDF7F3FC07B0F3
:1049900000BD00000803002000B58BB0242102A850
:1049A000FBF72CFD0020009001901C481C4908607A
:1049B0000020486000211A4881604FF6FF71C160F5
:1049C00000210161816103200290002003900120F9
:1049D0000490002005900690079001200890002088
:1049E00009900A9002A90E48FDF700FD08B1FCF7F6
:1049F00024F800200090019069460948FDF778FCF2
:104A000008B1FCF71AF800210548FDF7C7FD04219D
:104A10000348FDF7C3FD0BB000BD000000040040DB
:104A20005003002000B58BB0242102A8FBF7E6FC60
:104A30000020009001901C481C490860002048603C
:104A400000211A4881604FF6FF71C16000210161A9
:104A50008161032002900020039001200490002037
:104A600005900690079001200890002009900A9078
:104A700002A90E48FDF7BAFC08B1FBF7DEFF0020E3
:104A80000090019069460948FDF732FC08B1FBF738
:104A9000D4FF00210548FDF781FD04210348FDF7FF
:104AA0007DFD0BB000BD0000000800409803002011
:104AB00010B50B480B4908604FF4E1304860002105
:104AC00008488160C16001610C2141610021816160
:104AD000C161FEF7DFFB08B1FBF7AFFF10BD0000BF
:104AE00000380140E003002010B50D480D49086072
:104AF0004FF41650486000210A488160C16001618E
:104B00000C21416100218161C161FEF7C3FB08B145
:104B1000FBF793FF012204490248FEF7BFFC10BDDA
:104B20000048004070040020A200002000BFFEE703
:104B300000BFFEE703461846884200DD0846904263
:104B400000DA10467047704708B508490968C90877
:104B50004FF47A72B1FBF2F14143009100BF00BF04
:104B600000994A1E00920029F9D108BD8800002052
:104B70002DE9F04F8FB00CA889490DAB08AACDE9FB
:104B800000108849884801F0DBFF8548008800F460
:104B9000807000287ED0089805F07AFD04464FF01A
:104BA0009D4105F043FC81490860099805F070FDBE
:104BB00004464FF09D4105F039FC7D4908600A9894
:104BC00005F066FD04464FF09D4105F02FFC794944
:104BD00008600B9805F05CFD04464FF09D4105F020
:104BE00025FC75490860714801684FF0804005F068
:104BF000AFFD06906F480168069805F0A9FD824652
:104C00006B4801684FF0404005F0A2FD06906A48ED
:104C10000168069805F09CFD8346514605F098FB17
:104C2000079005F069FB804601F0D8F806464FF082
:104C30006632624B05F050F8044604F077FD604997
:104C400008605C4801684FF0804005F081FD0390EA
:104C500058480168039805F07BFD82465448016876
:104C60004FF0404005F074FD0390514801680398EF
:104C700005F06EFD8346514605F072FE81464FF009
:104C80007E5105F065FB044605F036FBCDE90401D5
:104C9000464800E081E001684FF0804005F058FD93
:104CA000834643480168584605F052FD8146414815
:104CB00001684FF0804005F04BFD83463E48016897
:104CC000584605F045FD8246494605F041FB04463D
:104CD00005F012FB0746DDE9042301F0C7FA4FF0A7
:104CE0006632364BCDE9060104F0F6FF054604F0C6
:104CF0001DFD3449086030480168006805F028FD52
:104D000003902C480168006805F022FD02902848B5
:104D10000168006805F01CFD8346244801680068AE
:104D200005F016FD5946019005F012FB82460299E6
:104D300005F016FE8146039905F012FE044605F0C3
:104D4000DBFACDE904011C4801681848006805F049
:104D5000FFFC8246174801681548006805F0F8FC1A
:104D60008346514605F0F4FA81464FF0804105F044
:104D7000EFFC044605F0C0FA0746DDE9042301F024
:104D800075FA4FF066320D4BCDE9060104F0A4FF31
:104D9000054604F0CBFC0C4908600FB0BDE8F08F6D
:104DA00004020020FE010020F8010020140200206F
:104DB000180200201C0200202002002066A64C40A1
:104DC000080200200C0200201002002010B5012073
:104DD000164908600F2001F00BFD00201449C1F8AE
:104DE0008C011448007800F08000E8B11148007888
:104DF00000F03F0010490860084600880004086081
:104E0000084600680D49098808440B4908600846AF
:104E10000068AA2148434FF47A71B0FBF1F00649CB
:104E2000086000200349088010BD00008C01214269
:104E3000000021427400002038000020760000208D
:104E40000146032902D004290ED106E0084A12685F
:104E500010B20022064B1A6008E0064A126810B22F
:104E60000022044B1A6001E0002000BF00BF704721
:104E700024040040240800402DE9F05F4221D020A6
:104E8000FEF785FE05464121D020FEF780FE05EBAA
:104E90000024204605F0FCFB82464FF08E41504630
:104EA00005F022FD05D24FF08F41504605F058FD28
:104EB00082460D49504605F0B9FA834605F01CFAC2
:104EC00080460A4A0A4B04F063FC06460022094B5E
:104ED00004F002FF044604F029FC8246504605F027
:104EE0009BFBBDE8F09F00000000AA43A4703D0AB0
:104EF000D743424000002440704700002DE9F04FA6
:104F000089B000200890FBF727FFB548007860B90A
:104F1000B448007848B9B448007830B9B34800784C
:104F200018B90020B24908608DE0AD48007801282A
:104F30000CD1AC48007848B9AB48007830B9AB48E0
:104F4000007818B9AB48AA4908607CE0A44800780A
:104F500068B9A4480078012809D1A348007830B97D
:104F6000A248007818B9A448A14908606BE09C48A1
:104F7000007868B99B48007850B99B4800780128B0
:104F800006D19A48007818B99C48994908605AE0B7
:104F90009348007868B99348007850B992480078EF
:104FA00038B992480078012803D1954890490860A3
:104FB00049E08B48007801280ED18A480078012802
:104FC0000AD18948007838B98848007820B94FF06C
:104FD00040408749086036E08148007870B98148D0
:104FE000007858B980480078012807D17F480078B8
:104FF000012803D180077E49086024E078480078C2
:1050000070B97848007801280AD1774800780128DB
:1050100006D17648007818B900207549086012E07A
:105020006F48007801280ED16E48007801280AD117
:105030006D480078012806D16C480078012802D11B
:1050400000206B4908606A4800686E49086068483B
:1050500001686D48006805F07BF96B4908606B4892
:1050600001686348006805F07BFC6949086069498C
:105070006548006805F038FC02D26648624908605D
:1050800065496148006805F02FFB02D262485E491D
:1050900008605F48006805F02FF904460D465F4838
:1050A000006805F029F9804600225D4B04F02CFCD5
:1050B000064622462B4604F00FFECDE90401524875
:1050C000006805F019F904460D465648006805F0D9
:1050D00013F980460022524B04F016FC0646224685
:1050E0002B4604F0F9FD82468B464648006805F0E1
:1050F00003F904460D464C48006805F0FDF80646E5
:105100000022474B04F000FC804622462B4604F068
:10511000E3FD52465B46CDE9000104F039FBCDE9E1
:105120000201DDE9042304F033FBCDE9060104F0BC
:10513000FDFA08902E480068344908602C48006841
:1051400005F0DAF821F00041044600224FF08043D8
:1051500004F0C0FE18D83548007860BB34480068B9
:10516000344908600846006805F0C6F80646324A29
:10517000324B04F0B1FD044604F0D8FA2C49086023
:1051800001202A49087016E01948006805F0B4F8B3
:1051900021F00041044600224FF0804304F060FDFE
:1051A00009D22248007830B12248006820490860BE
:1051B00000201E4908702249089805F095FB01D28D
:1051C0001F4808901F49089805F08EFA01D21D4823
:1051D0000890089805F020FA09B0BDE8F08F0000AB
:1051E00060000020610000206200002063000020B9
:1051F00048020020333333C09A9999BF9A99993F56
:105200003333334050020020540200204C0200206F
:10521000580200200000C8410000C8C16C000020F6
:105220000000594068000020640000205C0200205B
:1052300070000020400200208FC2F5285C8FEA3FFA
:1052400000007A4400007AC400B503460A46002BE9
:1052500007DD00201649086001201649C1F8BC018D
:1052600006E001201249086000201249C1F8BC0183
:10527000184603F0B1FC10490860002A08DD002040
:105280000B49091F086001200A49C1F8B00107E075
:1052900001200749091F086000200649C1F8B00134
:1052A000104603F099FC04490C31086000BD000071
:1052B000B881214200802142342C014010B5FCF716
:1052C000DBFA10BD00B593B0282109A8FBF796F8CA
:1052D000142104A8FBF792F800200090019002909E
:1052E00003900120099000040A9000200B900120F7
:1052F0000D9002201090C10311914FF4E011129112
:1053000009A8FCF76DFD08B1FBF797FB0F2004908F
:1053100002200590002006904FF480600790002046
:105320000890022104A8FCF737FC08B1FBF785FBC5
:1053300002200090800302906846FCF795FB08B1BC
:10534000FBF77BFB13B000BD7047000010B50248AF
:10535000FDF7B6FB10BD00000803002010B50248A1
:10536000FDF7AEFB10BD00005003002010B5024851
:10537000FDF7A6FB10BD00009803002010B50268E1
:10538000184B984208D0B0F1804F05D0164B984288
:1053900002D0164B984203D122F070024B681A4398
:1053A000104B984208D0B0F1804F05D00E4B984278
:1053B00002D00E4B984203D122F44072CB681A43BC
:1053C00022F080034C6943EA040202608B68C362E6
:1053D0000B688362034B984201D10B69036301237D
:1053E000436110BD002C0140000400400008004053
:1053F00030B501F01F05012404FA05F3046A9C434B
:105400000462046A01F01F0502FA05F52C430462E8
:1054100030BD000030B5026A056A25F0010505625D
:105420004368846924F0700424F003040D682C435D
:1054300022F002028D682A430D4DA84206D100BF1A
:1054400022F00802CD682A4322F00402084DA84247
:1054500007D123F4807323F400734D692B438D69C6
:105460002B43436084614D684563026230BD000098
:10547000002C014030B5026A056A25F0100505626E
:105480004368846924F4E04424F440740D6844EAD9
:10549000052422F020028D6842EA05120E4DA84232
:1054A00007D100BF22F08002CD6842EA051222F047
:1054B0004002094DA84209D123F4806323F400631C
:1054C0004D6943EA85038D6943EA8503436084613E
:1054D0004D688563026230BD002C014030B5026A20
:1054E000056A25F4807505624368C46924F0700478
:1054F00024F003040D682C4322F400728D6842EA04
:1055000005220F4DA84207D100BF22F40062CD68EA
:1055100042EA052222F48062094DA84209D123F40F
:10552000805323F400534D6943EA05138D6943EA20
:1055300005134360C4614D68C563026230BD00005D
:10554000002C014030B5036A056A25F480550562D8
:105550004468C26922F4E04222F440720D6842EAD3
:10556000052223F400538D6843EA0533064DA84213
:1055700004D124F480444D6944EA85144460C26136
:105580004D680564036230BD002C014070B50C46C7
:105590001546026A066A26F0010606628169124E05
:1055A000B04208D0B0F1804F05D0104EB04202D0CA
:1055B0000F4EB04201D1012600E000261EB121F0BD
:1055C0000301294301E041F0010121F0F001F0263F
:1055D00006EA0316314322F00A0204F00A063243B7
:1055E0008161026270BD0000002C01400004004097
:1055F0000008004070B50C461546026A066A26F09F
:1056000010060662816921F4407141EA052121F406
:1056100070414FF4704606EA0336314322F0A0028F
:10562000A02606EA041632438161026270BD70B59D
:105630000C461546026A066A26F480760662C1693F
:1056400021F00301294321F0F001F02606EA0316B8
:10565000314322F400724FF4007606EA0426324306
:10566000C161026270BD70B50C461546026A066AD9
:1056700026F480560662C16921F4407141EA052191
:1056800021F470414FF4704606EA0336314322F4A8
:1056900000524FF4005606EA04363243C1610262FA
:1056A00070BD70B505466C6A0020E085E084204638
:1056B000FDF77DFC70BD00BF00BF02680C3252E8F0
:1056C000002F22F4907102680C3242E80013002B84
:1056D000F3D100BF00BF00BF0268143252E8002FB0
:1056E00022F001010268143242E80013002BF3D1CA
:1056F00000BF016B01290ED100BF00BF02680C3250
:1057000052E8002F22F0100102680C3242E8001328
:10571000002BF3D100BF202180F84210002101634B
:10572000704710B504462068C06820F0400021682A
:10573000C860202084F841002046FEF725FA0020AA
:1057400010BDF8B5044694F84200222875D1A0682F
:10575000B0F5805F0CD1206950B90025A66A206899
:105760004068C0F308003080A06A801CA06215E089
:10577000A56A0026A068B0F5805F03D0A06828B9AC
:10578000206918B920684068287004E020684068E3
:1057900000F07F002870A06A401CA062E08D401ECF
:1057A00080B2E085002846D12068C06820F0200043
:1057B0002168C8602068C06820F480702168C860D3
:1057C0002068406920F0010021684861202084F8A9
:1057D000420000206063206B012826D10020206356
:1057E00000BF00BF21680C3151E8001F21F01000FC
:1057F00021680C3141E80002002AF3D100BF206883
:10580000006800F0100010280AD100BF00200090AE
:1058100020680068009020684068009000BF00BFCA
:10582000A18D2046FDF7C2FB02E02046FDF74CFEAD
:105830000020F8BD01E00020FBE70220F9E70000AE
:1058400070B504462168096921F44051E2681143AA
:10585000226811612269A1681143626941EA020567
:105860002168C96841F20C62914329432268D160E2
:105870002168496921F44071A2691143226851618C
:105880002D4A2168914202D1FCF762FA01E0FCF74F
:105890004FFA00EBC00101EB001162689200B1FB0E
:1058A000F2F100EBC00202EB001263689B00B2FB56
:1058B000F3F26423B2FBF3F202EBC20303EB021236
:1058C000A1EB8201322202EB01116422B1FBF2F161
:1058D00001F0F00100EBC00202EB001263689B00D4
:1058E000B2FBF3F26423B2FBF3F201EB021200EB22
:1058F000C00101EB001163689B00B1FBF3F100EB09
:10590000C00303EB00136668B600B3FBF6F364262E
:10591000B3FBF6F303EBC30606EB0313A1EB830122
:10592000322303EB01116423B1FBF3F101F00F010A
:1059300011442268916070BD0038014010B50346E3
:1059400099629A85DA8500205864222083F8420003
:10595000186928B11868C06840F480701C68E0605D
:105960001868406940F001001C6860611868C068F0
:1059700040F020001C68E060002010BD014691F856
:105980004100212828D18868B0F5805F0BD10869D3
:1059900048B90A6A1088C0F308000B685860086AA2
:1059A000801C086205E00B6A581C086218780B68B6
:1059B0005860C88C401E80B2C88458B90868C06856
:1059C00020F080000B68D8600868C06840F0400094
:1059D0000B68D860002070470220FCE710B5024831
:1059E000FDF7E6FA10BD0000E003002010B5024804
:1059F000FDF7DEFA10BD00002804002010B50248B3
:105A0000FDF7D6FA10BD00007004002000BFFEE7CD
:105A10002DE9FC5F044689465D480078022814D1D0
:105A20005C480068C82810D95A480068B0F5FA7F69
:105A30000BD25948007804F043FE054629465748E2
:105A4000006804F0F3FC56490860514800780228C9
:105A500012D150480068C8280ED24F48007804F090
:105A60002FFE06464D48006880F000453146284626
:105A700004F0DCFC4A49086004EB090004F008FE6D
:105A800005464FF080414548006804F061FE064637
:105A9000294604F065FF434908604348006804F064
:105AA0002BFC0746414A424B04F016F9054603F029
:105AB0003DFE3D4908603B48006804F01DFC05467A
:105AC0003C4A3D4B04F008F90746884636480068D2
:105AD00004F012FC82463A46434603F059FECDE9F3
