:020000040800F2
:1000000060190020E9010008C7460008F33A00081B
:10001000C546000863150008E14E00080000000016
:10002000000000000000000000000000554900082A
:100030001D18000800000000D7460008AD49000860
:10004000030200080302000803020008030200087C
:10005000030200080302000803020008030200086C
:10006000030200080302000803020008030200085C
:10007000030200080302000803020008030200084C
:10008000030200080302000803020008030200083C
:10009000030200080302000803020008030200082C
:1000A000030200080302000803020008030200081C
:1000B0002D4A0008394A0008454A00080302000892
:1000C00003020008030200080302000803020008FC
:1000D00003020008BD4E0008C94E0008D54E0008B6
:1000E0001F180008030200080302000800F002F8CD
:1000F00000F06AF80AA090E8000C82448344AAF158
:100100000107DA4501D100F05FF8AFF2090EBAE855
:100110000F0013F0010F18BFFB1A43F0010318473B
:10012000DCA20000FCA200000A444FF0000C10F812
:10013000013B13F0070408BF10F8014B1D1108BF65
:1001400010F8015B641E05D010F8016B641E01F805
:10015000016BF9D113F0080F1EBF10F8014BAD1C55
:100160000C1B09D16D1E58BF01F801CBFAD505E073
:1001700014F8016B01F8016B6D1EF9D59142D6D3CD
:10018000704700000023002400250026103A28BFF5
:1001900078C1FBD8520728BF30C148BF0B607047F9
:1001A000662909F02281642900F0A28000207047AE
:1001B0001FB500F055FC04000020002107F0FEFFF1
:1001C000E0601FBD10B510BD00F06AFD1146FFF7DD
:1001D000EFFF06F01DFC00F088FD03B4FFF7F2FF0F
:1001E00003BC04F0C7FF00000948804709480047E6
:1001F000FEE7FEE7FEE7FEE7FEE7FEE7FEE7FEE7D7
:10020000FEE7FEE704480549054A064B7047000033
:10021000294A0008ED000008601300206019002042
:10022000601500206015002010B54C1084EA5304BE
:1002300004D54042C1F1000138BF491E1B4204D51C
:100240005242C3F1000338BF5B1E00F00DF914F0F9
:10025000804F04D04042C1F1000138BF491E14F064
:10026000004F04D05242C3F1000338BF5B1E10BDE3
:100270000FB4044910B503AA029800F0DFFB10BCCC
:100280005DF814FB540000202DE9F0410E460446B1
:10029000002020622046E168884730B3252805D039
:1002A000D4E901219047206A401CF2E7E16820462A
:1002B00000278847050018D0A5F14100192802D869
:1002C00020354FF400673246294620462760FFF765
:1002D00067FF40B1012804D0F61D26F00706083656
:1002E000D8E7361DD6E72846DAE7206ABDE8F08170
:1002F0002DE9F0410646002410687529314616A5FF
:1003000010D0AFF30080002802DA404213A507E0C6
:1003100031688A0701D512A502E0490704D511A565
:10032000012401E0AFF3008000210A2206F1240736
:1003300009E0B0FBF2FCB0FBF2F302FB1C00303032
:1003400078541846491C0028F3D123462A463046E3
:10035000BDE8F04100F00AB9000000002D000000E7
:100360002B0000002000000040EA010310B59B07AD
:100370000FD1042A0DD310C808C9121F9C42F8D00F
:1003800020BA19BA884201D9012010BD4FF0FF30C0
:1003900010BD1AB1D30703D0521C07E0002010BDD6
:1003A00010F8013B11F8014B1B1B07D110F8013B62
:1003B00011F8014B1B1B01D1921EF1D1184610BD43
:1003C00002F0FF0343EA032242EA024200F002B8CD
:1003D0004FF000020429C0F0128010F0030C00F06E
:1003E0001B80CCF1040CBCF1020F18BF00F8012BEC
:1003F000A8BF20F8022BA1EB0C0100F00DB85FEABA
:10040000C17C24BF00F8012B00F8012B48BF00F885
:10041000012B70474FF0000200B5134694469646F4
:10042000203922BFA0E80C50A0E80C50B1F1200107
:10043000BFF4F7AF090728BFA0E80C5048BF0CC0B5
:100440005DF804EB890028BF40F8042B08BF704713
:1004500048BF20F8022B11F0804F18BF00F8012B85
:10046000704770477047704753EA020C00F069808C
:100470002DE9F04B4FF00006002B1FBFB3FA83F5B8
:1004800003FA05F424FA05F65E4012BF1643B2FAE9
:1004900082F502FA05F4C5F120051EBF22FA05FC1B
:1004A00044EA0C04203556EA044C4FEA144418BFC1
:1004B000641C4FF000084FF00009904271EB030CF0
:1004C00039D3002919BFB1FA81F701FA07F6B0FA5A
:1004D00080F700FA07F6C7F120071EBF20FA07FCD5
:1004E00046EA0C062037B6FBF4FCA7EB0507103FE5
:1004F00007F01F0BCBF120060CFA0BFB2CFA06F6CB
:1005000044BFB3460026202FA4BF5E464FF0000B29
:100510005BEA060C08BF4FF0010B19EB0B09ABFBB4
:10052000027C48EB0608C01B06FB02CC0BFB03CC8D
:1005300071EB0C01C1E70B46024641464846BDE857
:10054000F08B13B54FF000004FF00001AFF30080C7
:10055000BDE81C40704710B500F086FA006810BD79
:1005600010B5044600F080FA046010BD2DE9F04794
:100570000D4699469246044600F124080168880613
:1005800004D5E06921F01001216000E00120A842BB
:1005900001DD471B00E00027A1697A1902EB090081
:1005A000081AA0612078C00602D42046AFF300806C
:1005B000002608E0D4E901211AF806009047206AD5
:1005C000401C761C20624E45F4DB2078C0060AD51C
:1005D0002046AFF3008006E0D4E9012130209047A7
:1005E000206A401C2062381EA7F10107F4DC07E0F6
:1005F000D4E9012118F805009047206A401C2062C8
:10060000281EA5F10105F3DC2046AFF30080207819
:10061000000602D50220BDE8F0870120FBE7704705
:100620002DE9FF4F0C461E464FF0FF378BB0D2E945
:100630000001DDF860800A908A46C1F30A5505B9C9
:100640003D46002108464FF00000BAF1000F00F4CB
:10065000400005DA00EB80004FF4400101EA500051
:100660004FEA9059B9F1010F00DDB9460A9850EAF6
:100670004A000ED044F61050A5F2FF3545432F1422
:10068000B8F1000F1ED07542291E1EDDC9F100020F
:100690001CE0B8F1010F4FF0000001D0302103E061
:1006A000F24305E02154401CB042FBDB30460022FF
:1006B000002121540B99C1F80880C1E900200FB036
:1006C000BDE8F08FBD1B6D1CDEE74A4600DA6942CB
:1006D00006A800F06BFA06AB93E8070003AB83E8CB
:1006E000070050460A9900F049FB8DE80700A0F585
:1006F00000501F3800900398002D0ADD42F21F01C0
:100700004A460844002303A90390684600F0B2FD5E
:1007100009E0A0F500504A461F38002303A90390C2
:10072000684600F0BCFD8DE807000004000C03D013
:100730004FF0FF30410800E01046B8F1000F03D041
:100740000022009215461EE0751E05D400F090F9B7
:10075000303262556D1EF9D5B3460122084302D0EE
:1007600000227F1C04E02078302801D100227F1E67
:10077000002A099784D01DE0112D07DA00F078F9DE
:10078000303262556D1C50EA0102F5D1084302D0A7
:100790000098C8B10EE00021681E05E0235C625C91
:1007A00063542254401E491C8142F7DBAB46A81B10
:1007B000401E0990002004F80B000B98099AC0F81D
:1007C0000880C0E9002B7AE711264FF0000857E7B0
:1007D0002DE9F04F88460446D21D22F0070191B062
:1007E000D1E90001CDE90A0104F028FC02460B988A
:1007F000C00F01D02D2007E02068810701D52B20F4
:1008000002E0202101EAC000032A099001D0072A52
:1008100005DB03464146204600F088F90BE12078CD
:10082000800601D5E06900E00620B8F1650F814639
:1008300006D0B8F1660F18D0B8F1670F70D131E06B
:100840000020B9F1110F009001DB112301E009F143
:1008500001030AAA01A90CA8FFF7E2FEDDE90C706A
:10086000002609F10105834647E001204B46009030
:100870004FF000470AAA01A90CA8FFF7D1FEDDE955
:100880000DB00C995D46002610B909F101000D1854
:10089000B9EB050003D4C0F1FF3609F10105A5EB62
:1008A00009002BE0B9F1010F01DA4FF00109002036
:1008B000B9F1110F0090484601DD112300E0034615
:1008C0000AAA01A90CA8FFF7ABFEDDE90C704D46A2
:1008D00000268346207800070AD4AB4500DA5D463F
:1008E00001A8012D04DD411911F8011C302907D0A0
:1008F0004F4502DA17F1040F04DA012082460FE0B7
:100900006D1EEEE7002F02DCED1B3E4403E0781C79
:10091000A84200DD7D1CB81B00F1010A4FF0004722
:100920002078000703D4AA4501DB4FF0FF3A0021ED
:10093000B7F1004F0DF143088DF8431024D0022089
:100940002B23002F01DA7F422D230A21021EA0F162
:10095000010000DC5FB197FBF1FC97FBF1F201FBBA
:100960001C7C17460CF1300C08F801CDEEE7A8F11D
:10097000010003702188090501D5452100E06521AA
:10098000A0F1010800F8011C09980FA9A1EB0807C4
:10099000FF1D00B10120411901EBEA70A169384443
:1009A000081A401EA0612078C00602D42046AFF38A
:1009B0000080099828B1D4E901219047206A401CA1
:1009C00020622078C00622D52046AFF300801EE0CA
:1009D000002E04DBB34502DD01A8805D00E030207D
:1009E000D4E901219047206A401C2062761CAAF1BC
:1009F00001005FEA000A0AD100F032F8C06801681D
:100A0000405CD4E901219047206A401C2062281EE6
:100A1000A5F10105DCDC07E0D4E9012118F8010BA0
:100A20009047206A401C2062381EA7F10107F3DCC2
:100A30002046AFF30080032011B041E6074B70B5AC
:100A40000D467B4400F05FF80446284600F020F98C
:100A500010B14FF0FF3070BD204670BDF35900005B
:100A60000048704720130020004870470013002002
:100A700030B5B0F10A024FEA900E71F100034EEA70
:100A8000817EB0EB0E0061EB91014FEA101E4EEA41
:100A9000017E10EB0E0041EB11114FEA102E4EEAD1
:100AA000016E10EB0E0041EB11214FEA104E4EEAA1
:100AB000014E10EB0E0041EB1141401841F10001D5
:100AC0004FEAD00040EA41704FEAD10110EB8005B7
:100AD0004FEA810444EA907444EB01046D1944EB3D
:100AE0000404521BA3414FF0000348BF0A3200D553
:100AF00030BD401C41F1000130BD000001694A1CBD
:100B000002610878704700B58FB0CDE9013100214E
:100B1000059105497944CDE9031011466846FFF770
:100B2000B3FB0FB000BD0000E5FFFFFF2DE9F04172
:100B30001F46044603260168072A01F4006004DB0F
:100B400008B116A505E016A503E008B115A500E05B
:100B500015A521F010002060A069C01EA0610FB192
:100B6000401EA0612046AFF300804FB1D4E90121BF
:100B700038469047206A401C2062C01C206206E074
:100B8000206AFAE7D4E9012115F8010B9047761E97
:100B9000F8D22046AFF30080BDE8F0814E414E0010
:100BA0006E616E00494E4600696E66002DE9F047A1
:100BB000814616468AB0354878440DC88DE80D0048
:100BC00032487844801C03AC0DC884E80D0041F61F
:100BD0009B300844372190FBF1F290FBF1F5A5F131
:100BE000800501FB12041B3C02D56442012000E099
:100BF0000020DFF898A080460027FA44AAF1BE0A38
:100C00000EE0E0070AD03246684607EB47010123B1
:100C10000AEB810100F043FB8DE8070064107F1CA4
:100C2000002CEED1194F7F44AE3F19E0E80715D0F4
:100C300007EB04100DF1180A90E80E008AE80E0088
:100C4000C068F04201D1981908903246012306A9E4
:100C500003A800F024FB03AB83E807006D10641CBD
:100C6000002DE3D14FF0010332466946B8F1000F81
:100C700003A802D000F0FEFA01E000F010FBC9E981
:100C80000001C9F808200AB0BDE8F087D897000035
:100C9000007B00F080007047004870470013002080
:100CA0007546FFF7F9FFAE4605006946534620F04A
:100CB0000700854618B020B5FFF7A4FABDE820402C
:100CC0004FF000064FF000074FF000084FF0000B08
:100CD00021F00701AC46ACE8C009ACE8C009ACE8BB
:100CE000C009ACE8C0098D46704710B50446AFF3A3
:100CF00000802046BDE81040FFF76FBA4FF0013C7E
:100D000050F8042B51F8043B9A4221D1A2EB0C037A
:100D1000934313EACC1317D150F8042B51F8043B3A
:100D20009A4215D1A2EB0C03934313EACC130BD1D7
:100D300050F8042B51F8043B9A4209D1A2EB0C0362
:100D4000934313EACC13DBD04FF00000704700BF91
:100D5000D01A01BAB1FA81F101F0180122FA01F0BA
:100D6000CB40C1F12001DBB2C0B2C01A2CFA01F3B2
:100D7000D11A914311EAC311E6D170475FEA400CE2
:100D800008BF91F0000F4FEA8C234FEAC12243EADB
:100D900051514FEA1C5018BF00F5F0404FEA3000A7
:100DA00018BF41F000415FEA6C5C00F02980BCF1A3
:100DB000FF3F08BF40F080407047130C06BF12048D
:100DC0004FF0100C4FF0000C130E04BF12020CF188
:100DD000080C130F04BF12010CF1040C930F04BF95
:100DE00092000CF1020CD30F04BF52000CF1010C65
:100DF00011464FF00002A0F11F00A0EB0C0070475D
:100E000011F0004F08BF704731F000413FF4D5AFFB
:100E10000B0C06BF09044FF0100C4FF0000C0B0E2A
:100E200004BF09020CF1080C0B0F04BF09010CF1FF
:100E3000040C8B0F04BF89000CF1020CCB0F04BF14
:100E400049000CF1010CCCF12003A0EB0C0022FABC
:100E500003F302FA0CF241EA030100F101007047CA
:100E600020F07F4C80EA030023F07F47ACEB0703C0
:100E700003F57C5300F0004003F1FF032DE98049A6
:100E80004FEA154B09B44FEA144325EA0B4E24EA06
:100E900003480FF2042606EB132749083E785FEA61
:100EA000320203FB0667C7F5000707FB06F64FEAA9
:100EB00054374FEAD64606F1020607FB066CCCF122
:100EC000005C4FEA1C472CEA074C07FB06F40CFBBE
:100ED00006F504EB15464FEA961634BF00204FF096
:100EE00000404FEAD13706FB07FC4FEA1C4C0CFBD5
:100EF0000BF7D21B03FB0CF761EB07010CFB0EF7A2
:100F0000B0EB074072EB17420CFB08F734BFA2EBC3
:100F10000742B2EB074261EB17414FEA0C444FEA3C
:100F2000910706FB07FC4FEA1C4C0CFB0BF7B0EBE0
:100F3000C74072EB573203FB0CF734BFA2EBC7423A
:100F4000B2EBC74261EB57310CFB0EF7B0EBC700B9
:100F500072EB57720CFB08F734BFA2EBC702B2EB7F
:100F6000C70261EB5771039F4FEA816141EA921119
:100F700004EBCC044FEAD1374FEA826206FB07FC50
:100F800042EA90124FEA80604FEA1C4C0CFB0BF7D0
:100F9000D21B03FB0CF761EB07010CFB0EF7B0EB68
:100FA000074072EB17420CFB08F734BFA2EB074275
:100FB000B2EB074261EB17414FEA8C554FEA9107BC
:100FC00004EB9C2406FB07FC4FEA1C4C0CFB0BF7C4
:100FD000B0EBC74072EB573203FB0CF734BFA2EB08
:100FE000C742B2EBC74261EB57310CFB0EF7B0EBD7
:100FF000C70072EB57720CFB08F734BFA2EBC702B5
:10100000B2EBC70261EB577115EB4C254FEA8161DA
:1010100041EA92114FEA82624FEAD13742EA9012D6
:1010200006FB07FC44F100044FEA80604FEA1C4CC9
:101030000CFB0BF7D21B03FB0CF761EB07010CFB5E
:101040000EF7B0EB074072EB17420CFB08F734BF0A
:10105000A2EB0742B2EB074261EB174115EB1C15FF
:101060004FEA813141EA92414FEA823242EA9042AC
:101070004FEA80304FEA0C7644F1000448EA03431B
:101080004EEA0B484FF0000EB2EB080C71EB030771
:1010900024BF624639464EEB0E0E4FF0000B00188F
:1010A000524149414BEB0B0BB2EB080C71EB0307C0
:1010B0007BF1000B24BF624639464EEB0E0E4FF01B
:1010C000000B0018524149414BEB0B0BB2EB080CE3
:1010D00071EB03077BF1000B24BF624639464EEBF0
:1010E0000E0E51EA020718BF46F0010616EB0E7607
:1010F00055F1000254F1000103D5BDE88901BDE8B6
:101100000088BDE88901BDE80048B619524141EBAD
:101110000101A3F10103704780807F7E7D7C7B7A93
:101120007978777676757473727171706F6E6E6D93
:101130006C6C6B6A6A696868676666656464636339
:1011400062616160605F5F5E5E5D5D5C5C5B5B5ABF
:101150005A5959585857575656555555545453532C
:1011600052525251515050504F4F4F4E4E4D4D4D87
:101170004C4C4C4B4B4B4A4A4A49494948484847D2
:101180004747474646464545454444444443434310
:101190004342424242414141002B9C4630D47700B9
:1011A0002BD01CB54FEA370703B44FF010004FF0B7
:1011B0001001BAF1000F06D0BCF1000FDCBF40F007
:1011C000080040F008014FF000000FBCBDE81040DF
:1011D0000BF1010BBBF1010F08BF5FEA170722BF3C
:1011E00012F1010211F101014FF0004143F100033E
:1011F00000F0004043EA00007047F9D35708D0E7F9
:1012000046EA064613F1400F4FEA16461FDD13F17A
:10121000200FDFBF16430A46002120335B42BED0B9
:10122000C3F1200746EA064602FA07F74FEA1646D8
:1012300046EA0706C3F1200722FA03F201FA07F78C
:1012400021FA03F14FF0000342EA0702A7E746EA5A
:10125000020646EA06464FEA164646EA0106BCBFC3
:1012600046EA0646360C4FF000034FF000024FF0FE
:10127000000194E72DE9804C9A46934670B491E8BA
:10128000380007C831EA400C48BF34EA430C03D5A4
:10129000FFF7E6FDFFF780FFF0BCBDE8008C2DE90D
:1012A000804C9A46934670B491E8380007C810F015
:1012B000804F08BF13F0804F03D100F005F8FFF70F
:1012C0006BFFF0BCBDE8008C20F07F4780EA030094
:1012D00023F07F4C07EB0C03A3F57C5300F0004098
:1012E000A3F1FE0392F0000F00F0B38095F0000F21
:1012F00000F077802DE901494FEA11404FEA14468A
:1013000021EA004800FB06FC24EA064708FB06F633
:1013100007FB08F800FB07F718EB06484CEB164CE8
:101320004FEA124B18EB07484FEA15464CEB1740B3
:1013300022EA0B4E0BFB06FC25EA06470EFB06F6DF
:1013400007FB0EFE0BFB07F71EEB064E4CEB164C95
:101350004FF000061EEB074E4CEB174B18EB0B083B
:1013600040F1000018EB0E0B58EB000840F10000B4
:101370008F1A4FF000013CBFC943661B14BFB5EB89
:10138000040C00213CBFC943F61B4FEA17444EEA48
:101390008E0E27EA04454FEA1C4704FB07622CEA3D
:1013A000074C05FB07F70CFB05F604FB0CFC16EBE2
:1013B000074642EB174216EB0C4642EB1C421BEB76
:1013C000060658EB0202414146EA9E0601D5BDE8F9
:1013D0000189B619524141EB0101A3F10103BDE8B6
:1013E00001894FEA14454FEA114724EA054621EAEC
:1013F000074C05FB07F406FB07F70CFB06F105FBA2
:101400000CFC11EB074144EB17444FEA124711EB78
:101410000C4144EB1C4422EA074C05FB07F206FB97
:1014200007F70CFB06F605FB0CFC16EB074642EB38
:10143000174216EB0C4642EB1C456A1854F10001AA
:1014400048BF7047B619524141EB0101A3F10103B6
:10145000704795F0000F37D04FEA11424FEA14471A
:1014600021EA024624EA074C02FB07F106FB07F7D4
:101470000CFB06F402FB0CFC14EB074441EB174198
:101480004FEA154714EB0C4441EB1C4125EA074C8D
:1014900002FB07F506FB07F70CFB06F602FB0CFC4C
:1014A00016EB074645EB174516EB0C4645EB1C4281
:1014B000121951F1000148BF7047B619524141EB72
:1014C0000101A3F1010370474FEA14454FEA1147A8
:1014D00024EA054621EA074C05FB07F106FB07F75E
:1014E0000CFB06F24FF0000605FB0CFC12EB07426A
:1014F00041EB174112EB0C4251EB1C4148BF7047C6
:10150000921841EB0101A3F10103704770B5044645
:1015100000688168C943C90717D1816821F00101BA
:10152000816000F055FE05460AE000BF00F050FE65
:10153000401B022804D920688068C043C00706D039
:1015400020688068C043C007F0D0002070BDA06A4A
:1015500040F01000A062E06A40F00100E06201206B
:1015600070BDFEE72DE9F0410D4C0A4607460B4ED3
:101570001046216807F0EEFD216B07F059FC01468B
:10158000084807F0E7FD05463146384607F0E2FD1A
:10159000294607F04DFC2063BDE8F0810AD7A33C43
:1015A0000401002048E17A3F2DE9F0410D4C0A4644
:1015B00007460B4E1046216807F0CCFD216E07F060
:1015C00037FC0146084807F0C5FD05463146384658
:1015D00007F0C0FD294607F02BFC2066BDE8F0812E
:1015E0000AD7A33C0401002048E17A3FF8B5002067
:1015F000364F012600903E706B46324675216820BA
:1016000005F080F932A0FEF733FE9DF8000068284F
:101610000CD0BFF34F8F37480168374A01F4E061BF
:1016200011430160BFF34F8F00BFFDE705F000FBE2
:10163000002848D1782005F0B9FF10B924A0FEF7A2
:1016400017FE782005F026FA10B92CA0FEF710FE40
:10165000C82005F06BFF10B932A0FEF709FE04F0B8
:1016600087FB10B939A0FEF703FE4548044605F094
:10167000ABF90546E01C05F0A7F945EAC005A01D39
:1016800005F0A2F945EA801080B204F031FD10B9EE
:101690003CA0FEF7EDFD40F2731004F041FA10B9E2
:1016A00042A0FEF7E5FDC82004F08AFC10B949A06D
:1016B000FEF7DEFD06F0F2FC012005F05DFE10B93C
:1016C0004DA0FEF7D5FD3E70F8BD000003000020E0
:1016D0006D70755F7365745F73656E736F72206391
:1016E0006F6D706C657465202E2E2E2E2E2E0D0AB9
:1016F000000000000CED00E00400FA056D70755F5D
:10170000636F6E6669677572655F6669666F206391
:101710006F6D706C657465202E2E2E2E2E2E0D0A88
:10172000000000006D70755F7365745F73616D70AC
:101730006C655F7261746520636F6D706C65746554
:10174000202E2E2E2E2E2E0D0A000000646D705FAE
:101750006C6F61645F6D6F74696F6E5F64726976E0
:1017600065725F6669726D7761726520636F6D7017
:101770006C657465202E2E2E2E2E2E0D0A00000074
:10178000E0010020646D705F7365745F6F7269655E
:101790006E746174696F6E20636F6D706C657465D3
:1017A000202E2E2E2E2E2E0D0A000000646D705F4E
:1017B000656E61626C655F666561747572652063F4
:1017C0006F6D706C657465202E2E2E2E2E2E0D0AD8
:1017D00000000000646D705F7365745F6669666F1A
:1017E0005F7261746520636F6D706C657465202E27
:1017F0002E2E2E2E2E0D0A006D70755F7365745F90
:10180000646D705F737461746520636F6D706C6577
:101810007465202E2E2E2E2E2E0D0A0070474FF4AA
:10182000805000F0D3BB72B6FEE700002DE9FC5FEC
:10183000044603F05FF88E49DFF838828E4F086067
:10184000012C7DD04421D02002F054F904464321DC
:10185000D02002F04FF904EB002007F067FC0646A9
:101860004621D02002F046F904464521D02002F05E
:1018700041F904EB002007F059FC00904821D020EA
:1018800002F038F904464721D02002F033F904EB86
:10189000002007F04BFC05463C21D02002F02AF93D
:1018A00004463B21D02002F025F904EB002007F08C
:1018B0003DFC83463E21D02002F01CF904463D2128
:1018C000D02002F017F904EB002007F02FFC82462D
:1018D0004021D02002F00EF904463F21D02002F032
:1018E00009F904EB002007F021FC4FF08E49044673
:1018F0004E4505DD4FF08F41304607F001FD0646AD
:101900000098484504DD4FF08F4107F0F9FC009046
:101910004D4505DD4FF08F41284607F0F1FC0546A7
:101920005846CB4504DD4FF08F4107F0E9FC834674
:101930005046CA4506DD4FF08F4107F0E1FC00E05C
:1019400058E082464C4505DD4FF08F41204607F0B8
:10195000D7FC044686F000412046C8F8001007F086
:101960003BFA80468946504607F036FA42464B46D7
:1019700003F08AFEDFF804A10022534606F01CFFA4
:101980003F4A404B06F01EFD06F02EFC01905846E3
:1019900007F022FA42464B4603F076FE00225346F9
:1019A00006F00AFF364A374B06F00CFD06F01CFC29
:1019B0008246304607F010FADFF8CC804FF06636EA
:1019C0003246434606F0FEFC06F00EFC81460098C7
:1019D00007F002FA3246434606F0F4FC06F004FC37
:1019E00006462A48DFF8A880007802281DD0032880
:1019F00027D035E002F070FE2648274C3968016098
:101A0000B4F9000007F07AFBC8F80000B4F904004C
:101A100007F074FB214908602148B0F9040007F081
:101A20006DFB20490860BDE8FC9F4946019802F023
:101A30007BFA80F0004038603146504602F022FBCD
:101A40000AE049460198FFF78DFD80F000403860BC
:101A500031465046FFF7A8FD80F00041C8F800105D
:101A60000C48396801600D4805600E480460DAE7EB
:101A70003000002038000020CC01002000806640AB
:101A8000F1D4C853FB2109406666304000000020B5
:101A9000C801002034000020D40100203C000020B8
:101AA000DA0100204C0000202DE9F05F8B4606F0A3
:101AB0001DFE274C0022234606F07EFE6FF0010536
:101AC0002A4607F0C6FC234E0022334606F07AFC75
:101AD000214F00223B4606F075FC06F085FB07F01F
:101AE0007BF9DFF87880DFF878A04246534606F0AD
:101AF00063FEDFF8709000224B4606F05DFE06F0B4
:101B000073FB19490860584606F0F0FD0022234691
:101B100006F052FE2A4607F09CFC0022334606F0EF
:101B200051FC00223B4606F04DFC06F05DFB07F041
:101B300053F94246534606F03FFE00224B4606F05C
:101B40003BFE06F051FB09490860BDE8F09F00002C
:101B50000000694000003E4000002A40F1D4C85314
:101B6000FB21094000C05040F0010020F40100209A
:101B7000F8B50024009490F824202546012A12D0BC
:101B8000012280F824204A681F23072A0DD2066804
:101B9000776B521E02EB820293409F430B68934087
:101BA0001F43776319E00220F8BD06680D2A0AD2A8
:101BB000376BD21F02EB820293409F430B68934026
:101BC0001F43376309E0F76A0D3A02EB8202934044
:101BD0009F430B6893401F43F7620A680723066818
:101BE0000A2A0AD3F7680A3A02EB420293409F435B
:101BF0008B6893401F43F76008E0376902EB4202AD
:101C000093409F438B6893401F4337610A68102AB3
:101C100001D0112A20D1124B02689A4217D1936841
:101C20001B0219D4936843F40003936009681029D8
:101C300012D10C490C4A0968B1FBF2F101EB8101A8
:101C4000490000E0491E00910029FBD104E0816AAF
:101C500041F020018162012480F824502046F8BD23
:101C6000002401406400002040420F002DE9F041B3
:101C70004FF0000704003D467ED0A06A002628B938
:101C8000E66284F82460204600F07EF82046FFF7E4
:101C90003DFCA16AC90600D420B1A06A40F0100042
:101CA000A06269E0A16A21F4885141F00201A162B9
:101CB0006268E169237B0A4347EA43010A43A1685A
:101CC0004FF48077B94209D0012907D05FF00001B5
:101CD00094F814C0BCF1010F02D00AE03946F7E7CE
:101CE000F3B1A36A43F02003A362E36A43F0010364
:101CF000E3622368D3F804C02CF4694C4CEA010C6D
:101D0000C3F804C021688B68DFF870C003EA0C03D5
:101D100013438B60A168B9420BD0012909D00CE0B4
:101D2000DFF85CC0A3690CEB43330B4343F4006161
:101D3000DFE7218A0D05A5F580152168CB6A23F41C
:101D400070032B43CB62216889680E4B1940914286
:101D500008D1E662A16A21F0020141F00101A1620D
:101D6000BDE8F081A06A20F0020040F01000A062FF
:101D7000E06A40F00100E0620120F1E7FDF7E1FFD9
:101D800000E0FFFFFE0E1FFF10B586B0002100919E
:101D90000191029103911A4C03681A4903221A48CF
:101DA000A34211D18B6943F400738B618B6903F4F7
:101DB000007304938B6943F008038B61896901F018
:101DC00008010491022113E0104CA34215D18B6944
:101DD00043F480638B618B6903F4806304938B69A4
:101DE00043F008038B61896901F008010491012126
:101DF000CDE90012694600F0F5F806B010BD00000C
:101E00000024014000100240000C01400028014065
:101E100010B590F821100022022905D00421816319
:101E200080F82020012010BD01680B6823F00E030C
:101E30000B6001680B6823F001030B6090F84030E1
:101E4000C46B012101FA03F3636080F8211080F86C
:101E50002020104610BD000010B590F8211000247D
:101E6000022903D00421816301243DE001680A684E
:101E700022F00E020A6001680A6822F001020A607C
:101E80001A4A0168914201D1012121E0174A143216
:101E9000914201D110211BE0144A2832914201D114
:101EA000891515E0114A3C32914201D189140FE0A5
:101EB0000E4A5032914202D14FF4803108E00B4A71
:101EC0006432914202D14FF4801101E04FF08071F1
:101ED000064A083A5160012180F82110002180F85B
:101EE0002010416B01B18847204610BD0800024018
:101EF00070B5B0F5805F53D12A480178B1B10021A7
:101F0000017029480078FFF791FC032002F0E0FC03
:101F10004542042002F0DCFC444221462846FFF7FB
:101F2000C3FD22480178012902D00DE00121E7E735
:101F30001F4A1178491C117011780A2904D1002315
:101F4000137003701B4803701B480078012801D0F0
:101F5000022801D102F098FC02F042F921462846FD
:101F600002F0C0FF154C174D154B20606E422A46FB
:101F70003146186002F0A8FB20602A4631461868F6
:101F800002F0A2FB014618600F480078012804D037
:101F90002068BDE8704002F0DFBC00210846F8E789
:101FA00070BD0000C40000200000002005000020DB
:101FB000060000204000002004000020280000202F
:101FC0002C0000200CE5FFFF02000020044910B5A2
:101FD0000A68024202D00860FFF78AFF10BD0000C5
:101FE000140401402DE9F84FDFF8B8910024A9F15D
:101FF000040B23460F2709F1040AABF1040EC9E0D4
:102000000125A5402A40AA427DD1674ED1F804C0DF
:10201000ACEB0608B44532D014DCBCF1030F3AD067
:1020200009DCBCF1000F2AD0BCF1010F1CD0BCF1BF
:10203000020F31D11DE0BCF1110F17D0BCF1120F0E
:102040002AD119E0B8F5881F19D006DCB8F5803F11
:1020500015D0B8F5801F1FD111E0B8F5001F0ED0C4
:10206000B8F5041F18D10AE0CB6815E0CB681B1D3A
:1020700012E0CB6808330FE0CB680C330CE08B68C0
:102080002BB1012B4FF0080303D0456104E004237A
:1020900002E0056100E00023FF2A01D8064601E0C6
:1020A00000F104064FEA840501D9A5F12005D6F810
:1020B000008007FA05FC28EA0C0803FA05F548EA4F
:1020C0000508C6F800804D68ED0062D5374DAE6951
:1020D00046F00106AE61AD6924F0030605F0010586
:1020E0000095334D06EB050CDCF80850A607360FBB
:1020F00007FA06F825EA0805DFF8B880404503D15D
:102100004FF0000817E044E0DFF8AC80404502D112
:102110004FF001080FE0DFF8A480404502D14FF0F6
:10212000020808E0DFF89880404502D14FF003082C
:1021300001E04FF0040808FA06F848EA0508CCF870
:1021400008804D68D9F80060ED024D4601D5164370
:1021500000E096432E604D68DAF80060AD02554607
:1021600001D5164300E096432E604D68DBF8006011
:10217000AD035D4601D5164300E096432E604D68E1
:10218000DEF80060ED03754601D5164300E0964386
:102190002E60641C0D682A46E5407FF431AFBDE82F
:1021A000F88F0000080401400000111000100240E8
:1021B0000000014000080140000C014000100140F7
:1021C000001401400AB1016170470904FBE70000F7
:1021D000014880687047000058000020024881686C
:1021E000027811448160704758000020074810B5FC
:1021F000016841F010010160032000F089F800201F
:1022000000F006F800F024F8002010BD0020024085
:1022100070B50D4D04464FF47A712878B1FBF0F09B
:102220000A490968B1FBF0F000F066FB48B9102CD0
:1022300007D200222146501E00F04AF800206C60B0
:1022400070BD012070BD0000580000206400002017
:102250000E4808B5816941F001018161816901F091
:1022600001010091C16941F08051C161C06900F074
:1022700080500090052000F04BF80548416821F09F
:10228000E06141F08061416008BD00000010024043
:102290000000014000280DDB00F01F0201219140E9
:1022A0004009800000F1E020C0F88011BFF34F8F9B
:1022B000BFF36F8F7047002809DB00F01F02012178
:1022C00091404009800000F1E020C0F80011704703
:1022D000F0B40E4B1B680C46C3F30223C3F1070591
:1022E000042D00D90425191D072901D2002300E07F
:1022F000DB1E012606FA05F1491E214099409E4049
:10230000761E16403143F0BC02F0ACBE0CED00E08E
:10231000064900F0070208684FF6FF03184040EA3C
:102320000220034A10430860704700000CED00E0F3
:102330000000FA052DE9F84305460078354CC00742
:1023400054D0E0690026C00008D4E06940F0805015
:10235000E061E069012600F0805000902E4801689D
:10236000C90512D40168804641F480710160FFF70D
:102370002FFF074605E000BFFFF72AFFC01B6428B8
:1023800023D8D8F80000C005F6D5206A10F44070B4
:1023900021D0A98801F4407181421CD0206A1F49D4
:1023A000012220F440700A6000220A602062C00707
:1023B00011D0FFF70DFF074641F2883808E000BF53
:1023C000FFF706FFC11B414502D90320BDE8F88392
:1023D000206A8007F4D5206A696820F440700843B9
:1023E00020621EB1E06920F08050E061287880070B
:1023F00005D56068A96820F44040084360602878EB
:10240000C00605D56068E96820F480000843606074
:102410000020DBE700100240007000404004424210
:102420002DE9F0470F46050061D0434E306800F0BB
:102430000700B84209D2306820F007003843306006
:10244000306800F00700B84251D128683B4C810742
:1024500012D5400703D5606840F4E06060602878DA
:10246000000703D5606840F4605060606068A96848
:1024700020F0F000084360602878C00728D0686822
:10248000012810D02168022810D0890700292EDAEF
:10249000616821F0030101436160FFF799FE804606
:1024A00041F288390DE021688903EFE78901EDE702
:1024B000FFF78EFEA0EB0801494502D90320BDE8D5
:1024C000F0876068696800F00C00B0EB810FEFD115
:1024D000306800F00700B8420BD9306820F00700E0
:1024E00038433060306800F00700B84201D0012066
:1024F000E5E72878400705D56068E96820F4E060E2
:10250000084360602878000706D56068296920F4D0
:10251000605040EAC100606000F038F86168084A25
:10252000C1F30311515CC8400649086006480068C1
:10253000FFF76EFE0020C2E70020024000100240BC
:102540003C950008640000205C0000200448054918
:1025500000684968044AC1F30221515CC8407047D1
:1025600064000020001002404C9500080448054912
:1025700000684968044AC1F3C221515CC8407047F1
:1025800064000020001002404C9500080E4A51687B
:102590000E4801F00C03042B11D0082B0FD10C486E
:1025A000C1F38343C903C05C0AD55168084AC1F32B
:1025B0004041921E515C054A5043B0FBF1F0704718
:1025C00004494843704700000010024000127A009E
:1025D0002C95000800093D002DE9F84F040070D04B
:1025E0002078C04DC00749D06868C0F38100012839
:1025F00007D06868C0F38100022809D16868C00369
:1026000006D52868800339D560680028E7D035E012
:102610006068B0F5803F0BD010B1B0F5A02F11D09D
:10262000286820F480302860286820F4802002E0A8
:10263000286840F480302860606890B1FFF7C8FDDA
:1026400006460AE0286840F480202860F0E700BFD2
:10265000FFF7BEFD801B642873D828688003F7D578
:102660000CE0FFF7B5FD064605E000BFFFF7B0FD43
:10267000801B6428F0D828688003F7D420789A4E0D
:1026800080074FF001094FF0000839D5686810F055
:102690000C0F07D06868C0F38100022809D1686870
:1026A000C00306D42868800714D52069012808D102
:1026B00010E02069B0B1C6F80090FFF789FD074629
:1026C00005E00AE1FFF784FDC01B0228C4D8286892
:1026D0008007F7D52868616920F0F80040EAC1005A
:1026E00028600DE0C6F80080FFF772FD074604E0A1
:1026F000FFF76EFDC01B022823D828688007F7D497
:10270000207800072CD57948A169D9B1C0F800908C
:10271000FFF75EFD074604E0FFF75AFDC01B0228E5
:102720000FD8686A8007F7D571484FF4FA510068EE
:10273000B0FBF1F0009000BF0098411E0091FAD26A
:102740000EE080E0C0F80080FFF742FD074604E09D
:10275000FFF73EFDC01B022875D8686A8007F7D4D2
:102760002078400760D5E8690027C00008D4E869F0
:1027700040F08050E861E869012700F08050009047
:102780005C480168C90513D40168834641F480712F
:102790000160FFF71DFD824606E000BFFFF718FD50
:1027A000A0EB0A0064284ED8DBF80000C005F5D580
:1027B000E06801280AD008B1052813D0286A20F063
:1027C00001002862286A20F0040002E0286A40F034
:1027D00001002862E06841F2883B98B1FFF7F8FCFD
:1027E00082460BE0286A40F004002862EEE700BF52
:1027F000FFF7EEFCA0EB0A0159455AD8286A80077A
:10280000F6D50CE0FFF7E4FC824605E0FFF7E0FCBC
:10281000A0EB0A0159454CD8286A8007F6D41FB1AD
:10282000E86920F08050E861E06988B36968C1F325
:102830008101022944D00228C6F8608004D0FFF745
:10284000C7FC044638E034E0FFF7C2FC074604E06A
:10285000FFF7BEFCC01B02282BD828688001F7D4E4
:10286000206AB0F5803F05D16868A16820F4003087
:1028700008436860D4E908010843696821F47411C9
:1028800008436860C6F86090FFF7A2FC044606E0C3
:1028900025E000BFFFF79CFC001B022809D8286830
:1028A0008001F7D51BE000BFFFF792FC001B022858
:1028B00002D90320BDE8F88F28688001F4D40EE027
:1028C0000128F7D06868226A00F48031914204D16F
:1028D000616A00F47010884201D00120EAE700200C
:1028E000E8E700000010024000004242800442423B
:1028F000640000200070004010B5401EB0F1807FE1
:1029000001D3012010BD4FF0E02460610F2160175A
:1029100002F0A8FB0020A06107202061002010BD6C
:102920007047704710B590F83C20012A22D0012250
:1029300080F83C20CA688C6822F4407222434C68BC
:1029400022F4806222430C6822F4006222430C6964
:1029500022F4805222434C6922F400522243C96976
:10296000002322F480420A4301684A6480F83C3024
:10297000002010BD022010BD70B590F83C20012A47
:1029800026D0012480F83C40022280F83D200368D4
:102990005A689D6822F070060A6832435A600D4BEF
:1029A00002689A4208D0B2F1804F05D00A4B9A4291
:1029B00002D00A4B9A4204D1496825F0800319439A
:1029C000916080F83D40002180F83C10084670BDC1
:1029D000022070BD002C01400004004000080040AF
:1029E00090F83D10012901D001207047022180F8A4
:1029F0003D100168CA6842F00102CA6000680B49D4
:102A0000884208D0B0F1804F05D00949884202D0F1
:102A10000849884204D1816801F00701062903D0E2
:102A2000016841F00101016000207047002C014065
:102A300000040040000800402DE9F0410D4604006C
:102A400003D094F83D0018B108E00120BDE8F08102
:102A5000002084F83C00204600F040F8022084F872
:102A60003D002068816844F2070291438160211D86
:102A7000206801F0EDFF226890689169166A2B6862
:102A8000AF69034340F20330814341EA0721A8685C
:102A9000EF6908434FF6FC418843E96840EA0720A4
:102AA000014328692F6A000140EA0730084369683A
:102AB0006D6926F0220646EA0515294393602268CF
:102AC000906154F8460B0162012004F81F09E0757B
:102AD0002076E0762077A0750020B7E700B585B0B6
:102AE00000210091019102910391224B026822483A
:102AF000C0219A421BD1C26942F00202C261C2697E
:102B000002F002020492826942F00402826180694A
:102B1000009100F00400049069461848FFF762FA3B
:102B2000012211461D20FFF7D3FB1D201DE0144B91
:102B30009A421CD1C26942F00402C261C26902F029
:102B400004020492826942F0080282618069009165
:102B500000F00800049069460A48FFF743FA012292
:102B600011461E20FFF7B4FB1E20FFF7A4FB05B0A3
:102B700000BD0000000400400010024000080140B9
:102B800000080040000C014070B590F83E6004461B
:102B900090F83F5090F8423090F84320022021B145
:102BA00004290ED0012E1BD114E0012E18D1012BC7
:102BB00016D184F83E0084F84200012200212068EA
:102BC00020E0012D0CD1012A0AD184F83F0084F8BD
:102BD000430014E0012D03D1012B01D1012A01D0C2
:102BE000012070BD84F83E0084F83F0084F8420064
:102BF00084F8430001220021206801F05FFF0122D8
:102C00000421206801F05AFF2068016841F00101A9
:102C10000160002070BD00002DE9F041254CA0426C
:102C200045D1254D2888010641D4410641F21116AF
:102C300040F244471BD540F0800028800421204604
:102C400000F096FB68802068016A314206D1016A73
:102C5000394203D1016821F0010101602068016A55
:102C600021F0A00101622068016A01621BE00021DD
:102C70006980402028802068026A324206D1026AB8
:102C80003A4203D1026822F00102026020684162E8
:102C90002068016A21F0A00101622068016A41F008
:102CA000200101622068016841F001010160BDE876
:102CB000F0810000A0020020500000202DE9F0412A
:102CC000054690F83C0000260C46012810D0012053
:102CD00085F83C0072B1042A1CD0082A2CD00C2A9A
:102CE00050D00126002085F83C003046BDE8F08138
:102CF0000220FBE7D4E90012E368286801F08EFFA8
:102D00002868816921F00C01816128688169A268C5
:102D100011430FE0D4E90012E368286801F0AAFF2C
:102D20002868816921F44061816128688169A2680D
:102D300041EA02218161D5E72868D4E9002C277B8C
:102D4000036A016A21F480710162C16923F400738E
:102D500021F0030141EA0C0121F0F00C39074FF496
:102D600000774CEA116107EA02221A43C16102624C
:102D70002868C16921F00C01C1612868C169A26895
:102D800011432BE02868D4E90021E768036AD0F8F2
:102D900020C02CF4805CC0F820C0D0F81CC023F404
:102DA00000532CF4407C4CEA012121F4704C4FF686
:102DB000FF7101EA07314FF4005741EA0C0107EABD
:102DC00002321A43C16102622868C16921F440617C
:102DD000C1612868C169A26841EA0221C16181E735
:102DE00010B5040003D094F83D0010B107E00120B5
:102DF00010BD002084F83C00204600F01FF802209F
:102E000084F83D00211D206801F022FE012084F895
:102E1000460084F83E0084F83F0084F8400084F8BF
:102E2000410084F8420084F8430084F8440084F8A8
:102E3000450084F83D00002010BD000030B585B08D
:102E4000002400940194029403940068B0F1804F30
:102E50002AD11648C16941F00101C161C16901F07F
:102E600001010491816941F0040181618069104D83
:102E700000F0040004900220009069462846FFF705
:102E8000B1F8012211461C20FFF722FA1C20FFF79F
:102E900012FA082000900120CDE9010403200390DC
:102EA00069462846FFF79EF805B030BD0010024085
:102EB0000008014030B50446002551B104290DD069
:102EC000082910D094F8410094F84520012811D128
:102ED0000EE094F83E0094F84220F7E794F83F00A3
:102EE00094F84320F2E794F8400094F84420EDE78A
:102EF000012A01D0012030BD022059B1042912D08D
:102F0000082919D084F8410084F845000C2938D0EC
:102F1000012534E084F83E0084F842002068C2684D
:102F200042F0020210E084F83F0084F84300206879
:102F3000C26842F0040207E084F8400084F84400CC
:102F40002068C26842F00802C2600122206801F0D5
:102F5000B5FD0E492068884208D0B0F1804F05D0F9
:102F60000B49884202D00B49884204D1816801F0A4
:102F70000701062903D0016841F0010101602846DC
:102F800030BD2068C26842F01002DDE7002C01402D
:102F9000000400400008004070B504460068016964
:102FA0004FF00005C943890715D4C168C943890793
:102FB00011D4E91E01610120207720688069800713
:102FC000204602D0FFF728FE04E000F0BFF82046BC
:102FD00000F064F9257720680169C943490717D4CF
:102FE000C168C943490713D46FF00401016102208D
:102FF00020772068806910F4407F204602D0FFF7D8
:103000000BFE04E000F0A2F8204600F047F9257717
:1030100020680169C943090716D4C168C943090773
:1030200012D46FF008010161042020772068C06984
:103030008007204602D0FFF7EFFD04E000F086F89D
:10304000204600F02BF9257720680169C943C9069D
:1030500017D4C168C943C90613D46FF010010161C8
:10306000082020772068C06910F4407F204602D0F5
:10307000FFF7D2FD04E000F069F8204600F00EF9F9
:10308000257720680169C943C90708D1C168C943C8
:10309000C90704D1891E0161204600F04FF920685C
:1030A0000169C943090609D4C168C943090605D4A1
:1030B0006FF0800101612046FFF732FC2068016952
:1030C000C943490609D4C168C943490605D46FF00C
:1030D00040010161204600F060F920680169C943A0
:1030E00089060BD4C168C943890607D46FF0200153
:1030F00001612046BDE87040FFF713BC70BD0000C1
:1031000000B585B000210091019102910391006802
:103110000B49884212D10B48816941F00401816159
:103120008069694600F0040004904FF4106000903C
:103130000220019003900448FEF754FF05B000BD43
:10314000002C01400010024000080140704770B59B
:10315000044690F83C0000260D4601280FD00120BF
:1031600084F83C006AB1042A1DD0082A2FD00C2A0A
:103170003FD00126002084F83C00304670BD02207C
:1031800070BD206801F0A8FC2068816941F0080149
:1031900081612068816921F0040181612068816971
:1031A0002A69114311E0206801F0BEFC20688169A2
:1031B00041F4006181612068816921F4806181614D
:1031C000206881692A6941EA02218161D2E7206889
:1031D00001F0D6FC2068C16941F00801C161206896
:1031E000C16921F00401C1612068C1692A691143E4
:1031F00011E0206801F0F0FC2068C16941F4006131
:10320000C1612068C16921F48061C1612068C16920
:103210002A6941EA0221C161ACE710B5040003D07C
:1032200094F83D0010B107E0012010BD002084F8A3
:103230003C00204600F01EF8022084F83D00211DCD
:10324000206801F005FC012084F8460084F83E0067
:1032500084F83F0084F8400084F8410084F842007C
:1032600084F8430084F8440084F8450084F83D0065
:10327000002010BD08B500680649884208D10648FC
:10328000816941F400618161806900F4006000900F
:1032900008BD0000002C01400010024070470000F3
:1032A00010B50446022249B104290ED0082913D0D2
:1032B00094F84100012816D0012010BD94F83E007A
:1032C0000128F9D184F83E200FE094F83F0001284E
:1032D000F2D184F83F2008E094F840000128EBD1B7
:1032E00084F8402001E084F841200122206801F0A8
:1032F000E5FB0F492068884203D1426C42F400424A
:1033000042642068884208D0B0F1804F05D0094956
:10331000884202D00849884204D1816801F007013F
:10332000062903D0016841F001010160002010BDB1
:10333000002C014000040040000800400A49884277
:103340000AD10A4801880A0606D44A0604D5CA43A7
:10335000920602D0491C0180704741F08001018033
:103360004FF6FF7141807047A002002050000020FE
:103370000246002041B1042909D008290AD00C29AD
:1033800001D11068006C70471068406B704710687E
:10339000806B70471068C06B70477047704770470C
:1033A000F8B5016804460868CA684B6910F00F0F49
:1033B0004FF0000559D003F0010602F4907737432F
:1033C00065D0C10705D0D10503D5616C41F001017D
:1033D0006164410705D5D90703D0616C41F0020152
:1033E0006164810705D5D90703D0616C41F0040100
:1033F0006164010707D502F02001314303D0616CFD
:1034000041F008016164616C00293AD0800604D55E
:10341000900602D5204601F077FC20684069616C77
:10342000C0F38010090700D460B3204601F045FCCA
:1034300020684069400621D52068143050E8001FFC
:1034400021F0400140E80012002AF5D1E06BA8B15C
:103450006D494163E06BFEF7FFFC002811D0E06B83
:10346000416B01B0BDE8F040084783060FD59306D5
:103470000DD52046BDE8F84001F046BC2046FFF7D8
:103480008EFFF8BD2046FFF78AFF6564F8BD266B06
:103490002023012E7CD1C6067AD5D60678D50868B9
:1034A0004868009048694FF00206400640D5E16B3D
:1034B000086840680004000CE8D0A28D8242E5D97B
:1034C000E085886920282DD020680C3050E8001F46
:1034D00021F4807140E80012002AF5D120681430F0
:1034E00050E8001F21F0010140E80012002AF5D148
:1034F0002068143050E8001F21F0400140E800121D
:10350000002AF5D184F84230256320680C3050E859
:10351000001F21F0100140E80012002AF5D1E06BF5
:10352000FEF776FC6663A08DE18D401A81B22AE039
:10353000A08DE18D401A81B2E08D0028A6D000292F
:10354000A4D022680C3252E8000F20F4907042E8B8
:103550000007002FF5D12068143050E8002F22F02A
:10356000010240E80027002FF5D184F8423025639E
:1035700020680C3050E8002F22F0100240E80023B1
:10358000002BF5D166632046FFF708FFF8BDFFE783
:1035900005062BD5150629D594F841002128F5D12B
:1035A000A068B0F5805F01D12069B0B1206A411CEC
:1035B0002162216800784860E08C401E0004000C05
:1035C000E084E3D12068C16821F08001C1602068F7
:1035D000C16841F04001C160D8E7206A0088C0F3AB
:1035E00008004860206A801C2062E5E74006CDD5CF
:1035F0005006CBD5CA68204622F04002CA6084F843
:10360000413000F075FAC1E7AB4C000870B504001A
:1036100004D094F84100002510B106E0012070BDEF
:1036200084F84050204600F023F8242084F841001C
:103630002068C16821F40051C160204601F0C6FB3A
:103640002068016921F4904101612068416921F0FD
:103650002A0141612068C16841F40051C16065647C
:10366000202084F8410084F842006563002070BD8A
:10367000F0B585B00024009401940294039403688B
:10368000424F022042490322424D4602BB4225D10D
:103690008B6943F480438B618B6903F4804304930B
:1036A0008B6943F004038B618969039201F0040183
:1036B00004910102CDE9001069462846FEF792FC0C
:1036C000CDE90064694628460294FEF78BFC01228E
:1036D00011462520FEF7FCFD252028E02E4FBB4299
:1036E00029D1CB6943F40033CB61CB6903F40033B8
:1036F00004938B6943F004038B618969039201F0A1
:10370000040104910421CDE9001069462846FEF722
:1037100069FC0820CDE90004694628460294FEF7BA
:1037200061FC012211462620FEF7D2FD2620FEF77D
:10373000C2FD05B0F0BD194DAB42FAD1CB6943F4DF
:103740008023CB61CB6903F4802304938B6943F01E
:1037500008038B618969124D01F00801CDE903214D
:10376000CDE9006069462846FEF73CFCE814CDE947
:103770000004694628460294FEF734FC01221146F3
:103780002720FEF7A5FD2720D1E7000000380140E3
:103790000010024000080140004400400048004082
:1037A000000C014090F84230202B01D002207047DD
:1037B00021B11AB10023036301F064BB01207047FB
:1037C0002DE9F05F0068B64A01210025B54C4FF0A5
:1037D000020A904279D1E01DDFF8CCC20078E060A7
:1037E000B24AB34BB34EB44F2072592816D0582862
:1037F00017D00A281BDD5A282ED041283ED0452854
:103800002FD0422831D043282FD044282DD046280D
:1038100030D047282ED048282CD004E08CF800A0C7
:1038200001E08CF8001015701D7035703D700A288D
:103830002ADA5FEA000C0FD001281FD0052810D02B
:1038400002281DD003281BD0042819D0062828D010
:10385000072826D0082824D015701D7003E03D707D
:1038600012E0157019703570F9E715701D7035701C
:103870003970DCE715701D703170D7E71170ECE717
:1038800015701D7035703970864A8C4B7B285278C4
:103890000BD07D280ED02678012E07D0022E0BD01B
:1038A00065E015701D703170D9E721709854521C75
:1038B00062705CE084F800A0D878502806D0587870
:1038C00023284CD0A27099462AE055E07C4801702C
:1038D00045E06178081A04F009FF02460B46002013
:1038E000784903F0EFFE0646A0780F46804648442C
:1038F00010F8010C303804F0F9FE32463B4604F073
:103900005BFF06460F46206905F066FA32463B46E5
:1039100004F09CFC04F068FC2061A8F10100A07098
:10392000A0780428D5D299F801003038062816D29C
:10393000DFE800F00306090C0F12634920690DE06F
:10394000624920690AE06249206907E0614920690B
:1039500004E06149206901E0604920690860257040
:103960006570A570322155482561FCF731FD4D4940
:103970000122C91D5A488DE05A4A904272D1DFF89F
:1039800024C148480CF106069CF804209CF805B0B8
:10399000E778554B801D36780BEB4B0C0CEB03098D
:1039A0000078164407F1010CF6B20CF0FF0C3A2F28
:1039B0006CD2DFE807F01D232A34373C3F42454AEA
:1039C00042454A42454A42454A42454A42454A42A0
:1039D000454A42454A42454A42454A42454A42458D
:1039E0004A42454A42454A42454A42454A53585D41
:1039F000A5280CD11870E170A5320EE05A2806D126
:103A0000587084F803A05A3207E03A2801D0E570D4
:103A10003BE098700320E0703A32227136E0D870B3
:103A2000042023E01871052020E026712EE0587153
:103A300006201BE09871072018E089F8070001E0D4
:103A400089F8080084F803C0EFE789F8090084F8D2
:103A500003C026710BF10100607117E083F8370095
:103A6000382003E01AE083F838003920E070DCE702
:103A700083F83900E5706571904202D101F0EAFEE9
:103A800003E03A211848FCF7A3FC257105490122FF
:103A90001648891DBDE8F05FFFF784BEBDE8F09FC2
:103AA0000048004074000020010000202400002095
:103AB00025000020260000202700002050040020C0
:103AC0004800002000002440080000200C000020D6
:103AD0001000002014000020180000201C0000200E
:103AE00008040020004400408C0B0020C00300208C
:103AF0007047FEE770B50D46044600F0C1F8204659
:103B000000F08EF800F004F9284600F089F800F083
:103B1000FFF800F0B5F8641CE0B200F081F800F0A6
:103B2000F7F8002000F046F8044600F0D1F82046EF
:103B300070BD000070B50D4C0025C4F8A0510C48B4
:103B4000016821F0F0010160016841F0300101607D
:103B5000C4F8A451012004F5D07401F0A9FF01209C
:103B6000206001F0A5FF256070BD000000802142AB
:103B7000040C014070B50D4C0025C4F8A0510C4850
:103B8000016821F0F0010160016841F0300101603D
:103B90000126C4F8A461304604F5D07401F088FF12
:103BA0002660012001F084FF256070BD0080214265
:103BB000040C01402DE9F0478146174800240168B4
:103BC00021F0F0010160016841F080010160134EB5
:103BD000254627464FF00108C6F8A071022001F0E3
:103BE00067FFC6F8A0816006040ED6F8240108B16C
:103BF000641CE4B2022001F05BFF6D1CEDB2082DE5
:103C0000EAD3B9F1000F02D0FFF794FF01E0FFF70C
:103C1000B1FF2046BDE8F087040C0140008021423E
:103C20002DE9F04106461448016821F0F0010160D9
:103C3000016841F030010160104C0027C4F8A07108
:103C40003D464FF00108F009C4F8A4017006060EC5
:103C5000012001F02DFFC4F8A081012001F028FF10
:103C6000C4F8A071012001F023FF6D1CEDB2082DF6
:103C7000E9D3BDE8F0810000040C0140008021423E
:103C800070B51148016821F0F0010160016841F050
:103C9000300101600D4C0120C4F8A401D4F82411B6
:103CA00049B1C4F8A00101F003FF0025C4F8A451F4
:103CB000D4F8240108B1002070BD012001F0F8FE05
:103CC000C4F8A051012070BD040C014000802142C5
:103CD0000D4810B5016821F0F0010160016841F064
:103CE00030010160094C0020C4F8A001C4F8A4010F
:103CF000012004F5D07401F0DBFE0120206060603B
:103D0000BDE8104001F0D4BE040C01400080214207
:103D100070B513480024016821F0F00101600168CA
:103D200041F0800101600F4D0126C5F8A4613046C5
:103D300001F0BEFEC5F8A06107E0641CE4B2322CBD
:103D400003D9FFF7C5FF002070BD012001F0B0FED0
:103D5000D5F824010028F0D1C5F8A001012070BDDC
:103D6000040C01400080214210B51446FFF7C2FE4A
:103D70002070012010BDF8B515461C460E460746BA
:103D80006A46FFF7F1FF01209DF80010A8400CB132
:103D9000084301E021EA0000C2B28DF8002031465C
:103DA000384600F02BF8F8BD2DE9F84314461D46BF
:103DB0000F4680466A46089EFFF7D6FF00281BD0B4
:103DC000611CFF20C4F1080200FA01F12A44521ECE
:103DD000D0400143C5F108008640F2B2C4F10700AB
:103DE000C2409DF80000084010438DF80000C2B2A8
:103DF0003946404600F002F8BDE8F88307B502AB4B
:103E0000012200F001F80EBD2DE9F0411E461546D5
:103E1000884607460024FFF733FF3846FFF700FFC8
:103E2000FFF776FF4046FFF7FBFEFFF771FF06E066
:103E3000305DFFF7F5FEFFF76BFF641CE4B2AC42A8
:103E4000F6D3FFF745FF0120BDE8F08110B586B03D
:103E5000002001901848816941F008018161816961
:103E600001F008010491816941F0100181618069CC
:103E7000694600F01000049001200090029002209A
:103E800003900E48FEF7AEF84FF400500C4C009033
:103E900069462046FEF7A6F84FF480400090694638
:103EA0002046FEF79FF84FF40040009069462046F8
:103EB000FEF798F806B010BD00100240000801405F
:103EC0000010014041060748826942F00102826108
:103ED0000548426822F0E062426042680A4342605C
:103EE00070470000001002400000014000B585B09E
:103EF000002001900A48816941F0040181618069D4
:103F0000694600F0040004902020009001200290F7
:103F1000022003900348FEF765F805B000BD0000DD
:103F200000100240000801402DE9F34F524D8DB0C2
:103F30000846E9684F4E089105F0E2F929680091BA
:103F400005F008F9A96804F073FF05F16404069010
:103F500067683046394605F0D3F9D4F808904946E9
:103F600005F0CEF945490860E268904682F00046C7
:103F7000434A4E60C1E90262009905F0EBF82168FE
:103F800004F056FF83463046009905F0E3F80646F4
:103F9000394604F04DFF82463046494604F048FF5A
:103FA00081463748009905F0D5F8414604F040FFB6
:103FB000804606990D9805F0A3F9039059464FF0F5
:103FC0007E5005F0C7F8064649464FF07E5005F092
:103FD000C1F8049031464FF07E5005F0BBF84FF029
:103FE0007C5104F025FF07460146304604F088FF67
:103FF00001903946049804F083FF009051464FF039
:104000007E5005F0A7F807463146019805F0A2F862
:10401000594605F06BF920603946019805F09AF889
:10402000514605F063F960603146009805F092F85A
:10403000494605F05BF9A0603946009805F08AF81A
:10404000414605F053F9E0600399019805F082F8C4
:10405000069904F0EDFEA86004460399009805F067
:1040600079F8089904F0E4FEE8600FB02046BDE856
:10407000F08F00006F12833A04010020D01200205C
:10408000A69B443B2DE9F34F524D8DB00846E96B9A
:104090004F4E089105F034F92968009105F05AF85F
:1040A000A96B04F0C5FE05F17404069067683046FC
:1040B000394605F025F9D4F80890494605F020F96D
:1040C00045490860E268904682F00046434A4E60E7
:1040D000C1E90262009905F03DF8216804F0A8FEEC
:1040E00083463046009905F035F80646394604F017
:1040F0009FFE82463046494604F09AFE8146374884
:10410000009905F027F8414604F092FE8046069992
:104110000D9805F0F5F8039059464FF07E5005F0E4
:1041200019F8064649464FF07E5005F013F8049002
:1041300031464FF07E5005F00DF84FF07C5104F001
:1041400077FE07460146304604F0DAFE0190394614
:10415000049804F0D5FE009051464FF07E5004F0D4
:10416000F9FF07463146019804F0F4FF594605F07F
:10417000BDF820603946019804F0ECFF514605F087
:10418000B5F860603146009804F0E4FF494605F058
:10419000ADF8A0603946009804F0DCFF414605F018
:1041A000A5F8E0600399019804F0D4FF069904F0A3
:1041B0003FFEA86304460399009804F0CBFF0899DA
:1041C00004F036FEE8630FB02046BDE8F08F000033
:1041D0006F12833A04010020E0120020A69B443BAA
:1041E00010B501F01FFB01280BD10648017831B151
:1041F00000210170BDE8104003A0FCF739B801218F
:10420000F7E710BD02000020466C61675F53746FD2
:10421000703A25640D0A000010B5022000F011F874
:10422000032000F020F8002000F014F8002000F037
:104230002FF8002000F026F8BDE81040002000F024
:104240001BB808B50323009002226B21D020FFF792
:10425000ABFD08BD08B50223009004221C21D0202C
:10426000FFF7A2FD08BD08B50223009004221B2120
:10427000D020FFF799FD08BD034601223721D02049
:10428000FFF779BD034605226A21D020FFF773BDF1
:10429000034606226B21D020FFF76DBD3EB50024FA
:1042A00011480094019402940E49846001600473E3
:1042B0000475012505614FF460214460C161FDF77B
:1042C000D5FC08B1FDF7AFFA0920CDE90005694634
:1042D00002940548FDF74CFC002801D0FDF7A3FA35
:1042E0003EBD000000240140F80100203EB500243E
:1042F00011480094019402940E4984600160047393
:104300000475012505614FF460214460C161FDF72A
:10431000ADFC08B1FDF787FA0820CDE90005694634
:1043200002940548FDF724FC002801D0FDF77BFA34
:104330003EBD000000280140280200202DE9F04386
:1043400085B000243148009401940294039481695B
:1043500041F010018161816901F0100104918169CE
:1043600041F020018161816901F02001049181699E
:1043700041F004018161816901F0040104918169C6
:1043800041F0080181618069002200F0080004907A
:104390004FF460411E48FDF715FFDFF8789048F2B2
:1043A0001005002229464846FDF70CFFDFF868801B
:1043B0004FF23837002239464046FDF703FF00959B
:1043C000022601250396CDE9015469464846FDF7CA
:1043D00009FE00970396CDE9015469464046FDF772
:1043E00001FE280300900D48CDE9010469464846C6
:1043F000FDF7F8FD012202212820FDF769FF2820A2
:10440000FDF748FF05B0BDE8F08300000010024052
:104410000010014000080140000C01400000111094
:1044200010B592B000240F941C2168461094FBF73D
:10443000F1FF202107A8FBF7EDFF28482649C0E936
:10444000001441F61F41C0E9024180210461C0E926
:104450000541FEF7E2FE08B1FDF7E5F90F940FA95B
:104460001E481094FEF788FA08B1FDF7DCF96020C9
:10447000CDE9000402940394049405940022694653
:1044800016480694FEF763FE08B1FDF7CCF90C223E
:1044900069461248FEF75BFE08B1FDF7C4F90794C0
:1044A000089409944FF400500A94CDE90B4007A9F1
:1044B0000A480E94FEF736FA08B1FDF7B4F9002168
:1044C0000648FEF7EDFE0C210448FEF7E9FE03481E
:1044D000FEF716FE12B010BD002C0140580200205D
:1044E00010B586B000241B480594049400940194F0
:1044F00002944FF08041039401604721C0E9011408
:104500004FF6FF71C0E903148461FEF769FC08B13E
:10451000FDF789F9049404A90E480594FEF72CFAD6
:1045200008B1FDF780F90120CDE900400294042292
:10453000694608480394FEF7C1FB08B1FDF773F91B
:1045400004210448FEF7B6FC0248FEF749FA06B01B
:1045500010BD0000A002002010B58CB024216846D8
:10456000FBF758FF00241948099417490A94C0E939
:1045700000144FF6FF71C0E9024104618461032019
:10458000CDE900040120CDE902040494CDE9054001
:10459000079469460D480894FEF74EFA08B1FDF7F6
:1045A00042F9099409A909480A94FEF7E5F908B106
:1045B000FDF739F900210548FEF7E6FA0421034822
:1045C000FEF7E2FA0CB010BD00040040E802002043
:1045D00010B58CB024216846FBF71CFF0024194855
:1045E000099417490A94C0E900144FF6FF71C0E915
:1045F0000241046184610320CDE900040120CDE97A
:1046000002040494CDE90540079469460D480894D6
:10461000FEF712FA08B1FDF706F9099409A909484D
:104620000A94FEF7A9F908B1FDF7FDF80021054845
:10463000FEF7AAFA04210348FEF7A6FA0CB010BD53
:1046400000080040300300200C4810B50A49016002
:104650004FF4E1314160002181600C22C160C0E96A
:1046600004128161C161FEF7D1FF002803D0BDE8CB
:104670001040FDF7D8B810BD003801407803002085
:104680000E4810B50C4901604FF4165141600021ED
:1046900081600C22C160C0E904128161C161FEF732
:1046A000B5FF08B1FDF7BFF8BDE81040012204498D
:1046B0000248FFF777B800000048004008040020D7
:1046C0007B000020FEE7FEE7884200DD08469042BE
:1046D00000DA1046704770472DE9F04F89B0684CFA
:1046E00007A8CDE9004004F1260106AB02AA881F05
:1046F00001F048FB2088C0057ED5029804F0FEFC3E
:104700006FF01D06314604F0D2FE804660600398CB
:1047100004F0F4FC314604F0CAFE0746A060049899
:1047200004F0ECFC314604F0C2FE0546E06005985A
:1047300004F0E4FC314604F0BAFE06462061012193
:10474000404604F0B4FE294604F004FD05464FF04F
:1047500040484146384604F0FDFC314604F0FAFC7E
:10476000294604F065FB04F037FB00F045FDDFF857
:1047700014A14FF066394A46534604F01DF803F081
:1047800033FD6061E0680121054604F090FE834638
:10479000294604F0DFFC0546A0684146064604F0C1
:1047A000D9FC314604F0D6FC294604F0A9FD4FF0AF
:1047B0007E5104F03DFB04F00FFB07460D4601213E
:1047C000606804F074FE314604F0C4FC06465846A6
:1047D000216904F0BFFC314604F02AFB04F0FCFA26
:1047E0003A462B4600F050FF4A46534603F0E4FF9A
:1047F00003F0FAFCA06100E03FE021690191084666
:1048000004F0A8FCE16807460846009104F0A2FC09
:10481000A16806468B46584604F09CFC6168054634
:104820008846404604F096FC294604F001FB3146D8
:1048300004F066FD394604F063FD04F0CDFA064647
:104840000D464046019904F085FC074658460099FC
:1048500004F080FC394604F0EBFA012104F027FE55
:1048600004F0BAFA32462B4600F00EFF4A46534691
:1048700003F0A2FF03F0B8FCE06109B0BDE8F08FDF
:10488000B401002066A64C4010B50E4C0120C4F8BF
:104890008C010F2004F5C67401F00AF90022226091
:1048A000094801880B060CD54488890604EB912140
:1048B000AA2461434FF47A74B1FBF4F1034B1960FD
:1048C000028010BD00002142500000204400002062
:1048D0000021032803D0042803D000207047034A96
:1048E00000E0034A1068116000B2704724040040E1
:1048F0002408004010B54221D020FFF7FBF8044601
:104900004121D020FFF7F6F804EB002004F00EFC64
:10491000B0F18E4F03DD4FF08F4104F0F1FC0949F7
:1049200004F0EEFA04F058FA074A084B03F08EFC44
:104930000022074B03F040FF03F056FCBDE8104097
:1049400004F0A0BB0000AA43A4703D0AD743424034
:10495000000024407047000030B500230124114AB4
:10496000002804DDC2F8B841C2F8BC3103E0C2F847
:10497000B831C2F8BC4102F09FFE0B4D28600029FF
:1049800004DDC2F8B441C2F8B03103E0C2F8B4317A
:10499000C2F8B041084602F08FFE03490C310860AE
:1049A00030BD000000802142342C0140FDF716BCD0
:1049B00030B593B028216846FBF72CFD14210AA8D6
:1049C000FBF728FD002501200F9510951195010496
:1049D00012958DE8230004904FF4E010CDE9081003
:1049E000022407946846FDF7F7FD08B172B6FEE7AA
:1049F0000AA90F2081E831004FF48060CDE90D0550
:104A000002210AA8FDF70CFD08B172B6FEE74FF4CB
:104A1000004011900F940FA8FDF78CFC002801D0E6
:104A200072B6FEE713B030BD704700000148FEF7D4
:104A3000B3BA0000A00200200148FEF7ADBA0000A2
:104A4000E80200200148FEF7A7BA0000300300206A
:104A5000F0B50268164B174C174D4FF0804798423F
:104A600005D0B84203D0A04201D0A84203D122F021
:104A700070064A683243984205D0B84203D0A0423B
:104A800001D0A84203D122F44074CA6822434C6981
:104A900022F08002224302608A68C2620A6882624F
:104AA000984201D10969016301214161F0BD000013
:104AB000002C0140000400400008004010B501F047
:104AC0001F030121046A99408C430462016A9A40E1
:104AD0001143016210BD000030B5036A026A22F082
:104AE000010202624268846924F073050C682C4359
:104AF00023F002058B682B430A4DA8420BD123F00B
:104B00000805CB6822F440722B434D6923F004035F
:104B100015438A692A43426084614968416303629C
:104B200030BD0000002C014030B5026A036A23F05A
:104B300010030362436884690D6824F4E64444EA80
:104B400005248D6822F0200242EA05120B4DA8428E
:104B50000ED1CD6822F0800242EA05124D6923F49D
:104B6000406343EA85038D6922F0400243EA8503EE
:104B70004360846149688163026230BD002C01405A
:104B800030B5036A026A22F4807202624268C46924
:104B900023F4007324F073050C682C438D6843EAFA
:104BA00005230C4DA8420ED1CD6823F4006343EADF
:104BB00005234D6922F4405242EA05128D6923F41F
:104BC000806342EA05124260C4614968C1630362BE
:104BD00030BD0000002C014030B5046A026A22F4A6
:104BE000805202624268C3690D6823F4E64343EAD7
:104BF00005238D6824F4005444EA0534064DA84288
:104C000004D14D6922F4804242EA85124260C361B8
:104C100049680164046230BD002C014070B5056A2A
:104C2000046A24F00104046284690F4EB04208D083
:104C3000B0F1804F05D00D4EB04202D00C4EB042C4
:104C400003D124F00304144301E044F001041A07E3
:104C500024F0F00444EA126225F00A0301F00A018C
:104C600019438261016270BD002C014000040040C4
:104C70000008004030B5046A056A25F01005056299
:104C8000856925F4407545EA022222F470454FF605
:104C9000FF7202EA033224F0A0032A43A02404EAAC
:104CA000011119438261016230BD10B5406A0021D3
:104CB000C185C184FEF773FB10BD01680C3151E85A
:104CC000002F22F4907241E80023002BF5D10168F7
:104CD000143151E8002F22F0010241E80023002B9B
:104CE000F5D1016B012909D101680C3151E8002F80
:104CF00022F0100241E80023002BF5D1202180F89A
:104D0000421000210163704708B590F84210222933
:104D100001D0022008BD82684FF480539A4201D12D
:104D2000016921B1816A9A421BD04AB10AE0026846
:104D3000816A5268C2F308020A80816A891C08E00D
:104D4000026972B10268526802F07F020A70816AD9
:104D5000491C8162C18D491E0904090CC18503D01B
:104D60001BE002685268F1E70168CA6822F020027D
:104D7000CA600168CA6822F48072CA6001684A6920
:104D800022F001024A61202180F842100021416393
:104D9000026B012A03D0FEF713FD002008BD01635A
:104DA00001680C3151E8002F22F0100241E8002385
:104DB000002BF5D101680A68D20602D50A68496855
:104DC0000091818DFEF7EAFAE7E7000070B504462E
:104DD00000680169E26821F44051114301612169D1
:104DE000A0680843616908432168CA6841F20C63FE
:104DF0009A430243CA6020684169A26921F4407164
:104E0000114341611E492068884202D1FDF7AEFB83
:104E100001E0FDF79BFB00EBC00101EB00126068B5
:104E200064218000B2FBF0F3B3FBF1F36FF01806DE
:104E30007343B2FBF0F5B2FBF0F605EB83053223CA
:104E400003EB0515B5FBF1F5B6FBF1F605F0F00542
:104E500005EB0615B2FBF0F6B2FBF0F0B0FBF1F09B
:104E60006FF01802504306EB800003EB0010B0FB1C
:104E7000F1F0216800F00F002844886070BD000048
:104E80000038014081628285C2850021416422216F
:104E900080F84210016921B10168CA6842F4807249
:104EA000CA6001684A6942F001024A610068C1684B
:104EB00041F02001C1600020704700000148FEF76A
:104EC0006FBA0000780300200148FEF769BA0000BD
:104ED000C00300200148FEF763BA00000804002068
:104EE000FEE700002DE9FF41084404F007F90446FD
:104EF00037480121006804F0DAFA214604F000FA8C
:104F0000344C6062A06A03F067FF334A334B03F00E
:104F100053FC03F069F9A062606A03F05DFF304A58
:104F2000304B03F049FC05460E46A06A03F054FFDF
:104F30002A46334603F08AF903F056F9A062A16AC3
:104F4000206B03F075FF2063E16A206B03F070FFB4
:104F50002063216B2448814200DD2063216B2348BC
:104F6000814200D9206322480168206B04F0F2F8E6
:104F7000204903F0C5FF05461F480168A06A04F0F8
:104F8000E9F81E4903F0BCFF294604F0B9F9206294
:104F90001B480078012801D100202063206A03F01B
:104FA0001BFF07468846206B03F016FF05460E469A
:104FB000A06A03F011FF8DE8E00102460B4611A044
:104FC000FBF756F9206A04B0BDE8F04104F05AB886
:104FD00020000020C400002085EB51B81E85EB3F67
:104FE000EC51B81E85EBC13F00007A4500007AC540
:104FF000140000200000C842100000200000C8C2B9
:1050000002000020456E636F6465725F62696173C0
:105010003A2025662C20456E636F6465725F496E89
:1050200074656772616C3A2025662C2076656C6F1A
:10503000636974793A2025660D0A0000490050EA38
:10504000C12018BF04204A0D18BF40F0010040F2F3
:10505000FF72B2EB515F08BF40F00200012808BFA9
:10506000052070470907090E002804DB00F1E02045
:1050700080F80014704700F00F0000F1E02080F885
:10508000141D70472DE9F0414F1E00EBC701044687
:10509000D1E9000115461E4637F006020DD02A461A
:1050A000334603F089FB7F1E04EBC703D3E90023DB
:1050B00003F0CCF837F00602F1D1022F25D0042FEF
:1050C00013D0062F18BFBDE8F0812A46334603F0FF
:1050D00073FBD4E90A2303F0B9F82A46334603F0F8
:1050E0006BFBD4E9082303F0B1F82A46334603F0FA
:1050F00063FBD4E9062303F0A9F82A46334603F0FC
:105100005BFBD4E9042303F0A1F82A46334603F0FD
:1051100053FBD4E9022303F099F82A46334603F0FF
:105120004BFBD4E90023BDE8F04103F08FB8000049
:10513000002213461046014903F044B90000F03F35
:10514000012204F086B903F081B80022134610460C
:10515000114603F037B940F2013200204FF0E04130
:1051600004F077B9024A0020110704F072B9000078
:1051700001FDFFFF704700002DE9FE4F07460E4678
:105180000025684601F074F900246FF00F0AE84624
:105190004FF0010957F8240056F82410401A00D5A2
:1051A000404203F0ABFF514604F081F958F8241057
:1051B00011F0FF4F0BD003F0A3FE4FF07E5104F02F
:1051C0009FF80A4920F00040884205DC07E00849C2
:1051D00008440849884202D309FA04F00543641CD4
:1051E000032CD7DB2846BDE8FE8F0000295C0F3E6C
:1051F000666666C19A99D9002DE9F04D8D4F21F070
:10520000004A86B005460C46BA452ADBAAEB0700E1
:1052100028430AD08848824501DC1AD1CDB106B0B6
:105220002846BDE8F04DFFF78BBF844A844B2846E3
:1052300003F0C2FA07460E46824A834B28462146AF
:1052400003F0BAFA06B03A463346BDE8F04D02F034
:10525000FDBF0120FBF784F906B0BDE8F04DFFF774
:1052600074BF7A48824542DABAF1795F0BDA284690
:10527000FFF7E4FE042808BFFFF774FF284606B0D6
:105280002146BDE8F08D2A460B46104603F094FAFD
:10529000834602466E480E460B4606217844FFF7C9
:1052A000F1FE5A46334603F087FA804669488A463B
:1052B0005A46334604217844FFF7E4FE5A46334603
:1052C00003F07AFA00223B4602F0C0FF02460B468A
:1052D0004046514603F076F82A46234603F06CFA1E
:1052E00006B02A462346BDE8F04D02F0AFBF28467F
:1052F00024F0004100223D463B4603F091FB4FF075
:10530000FF3204F0A6F80646024653480F460B4605
:1053100006217844FFF7B6FE32463B4603F04CFACE
:10532000CDE900014D4832463B4604217844FFF761
:10533000A9FE32463B4603F03FFA00222B4602F01C
:1053400085FF834602913046394602F011FF8046C0
:1053500043480D46504517DCDDE900015A46029BE3
:1053600003F030F842462B4603F026FA42462B461D
:1053700002F06CFF012204F06CF8304A304B03F06D
:1053800041FC304A304B4CE04FF0000A52460B468D
:10539000404602F05BFFCDE9031052462B46104613
:1053A000194603F009FA32463B4603F039FBDDE9C2
:1053B000033203F007F806460F46DDE900015A46BE
:1053C000029B02F0FFFF83460091012230463946DE
:1053D00004F03FF8194A1A4B03F022FB06460F4629
:1053E00001224046294604F034F85A46009B03F057
:1053F000E3F932463B4603F005FC06460F46012220
:105400005046294604F025F80E4DDFF858802A460C
:10541000434603F005FB32463B4603F001FB2A46B8
:10542000434603F0FDFA002CD8BF81F0004106B0DE
:10543000BDE8F08D0000F03F0000F07F075C143302
:1054400026A6913C182D4454FB21F93F0000E03F73
:10545000004F0000164F00008A4E0000A04E0000D2
:105460003333EF3FFB21E93F2DE9F84F04460D466A
:1054700021F0004000917349814211DC7249884259
:1054800001DC06D12CB120462946BDE8F84FFFF7D4
:1054900057BE6E48002DCCBF6D496E49BDE8F88FF0
:1054A0006D49814211DD6D498142D8BF4FF0FF3611
:1054B0006DDD20462946FFF7C1FD042808BFFFF730
:1054C00051FE20462946BDE8F88F6549654F25F015
:1054D0000045814233DD6449814219DD00263246B0
:1054E0004FF080432046294602F0B0FE80468A46AF
:1054F00001222046294603F0ACFF00223B4603F080
:1055000081FB4246534602F05DFF04460D463EE0F5
:1055100001260022BA463B462046294602F096FE66
:1055200080460F46002253462046294603F06AFB78
:1055300042463B4602F046FF04460D4627E04B49F3
:1055400081421BDDDFF828A10226002253462046B7
:10555000294603F031F900223B4602F077FE8046EF
:105560000F46002253462046294603F04BFB424695
:105570003B4602F027FF04460D4608E0032622467C
:105580002B4600203B4902F01DFF04460D462246F3
:105590002B461046194603F00FF98B468246024609
:1055A0000B4603F009F907460246334888460B4686
:1055B00006217844FFF766FD52465B4603F0FCF88F
:1055C00082462E488B463A46434605217844FFF7EB
:1055D00059FD3A46434603F0EFF802460B46002ECB
:1055E000504659460CDA02F031FE22462B4603F0B3
:1055F000E3F801B022462B46BDE8F04F03F010BAA5
:1056000002F024FE22462B4603F0D6F81C4A7A44C8
:1056100002EBC603D3E9002303F0F4FA22462B463B
:1056200003F0F0FA174A7A4402EBC603D3E90023E9
:1056300003F0F6F9009A002AB8BF81F00041BDE8F6
:10564000F88F0000000010440000F07F182D445433
:10565000FB21F93FFB21F9BF0000DC3F0000203EA9
:105660000000F33F0000F03F0000E63F00800340F1
:105670000000F83F0000F0BF2A4D0000E84C000099
:10568000864C00004E4C00002DE9F04D9446CCF1C4
:10569000000423F000464CEA0404594F46EAD4744F
:1056A0009A46884621F00042BC4206D8454240EA6C
:1056B000050442EAD474BC4204D9BDE8F04D624608
:1056C000FFF741BDAAF14055A5F17F6555EA0C04ED
:1056D0000BD0022404EAAA744A4DDFF82CE144EA14
:1056E000D87452EA000B04D00CE0BDE8F04DFFF78F
:1056F000BBBE002C14BF012CBDE8F08D022C30D0B5
:10570000032C32D056EA0C0B0AD0BE4220D1BA424A
:1057100009D126F0804622F080423346114617E038
:1057200000291ADB25E0DFF8E4B0FB44002C04BFBD
:10573000DBE90001BDE8F08D012C02BFDBE90001CF
:1057400081F00041BDE8F08D022C0AD0032C0CD072
:10575000BA4212D1B8F1000F0BDA2A482C49BDE841
:10576000F08D28462B49BDE8F08D28467146BDE8EE
:10577000F08D24482849BDE8F08D921B12153C2A73
:10578000C4BF204F244E10DCBAF1000FBEBF12F18F
:105790003C0F00273E4608DB624602F013FE21F074
:1057A0000041FFF761FE07460E4694B1012C08BF89
:1057B00086F000460DD0194A194B022C3846314666
:1057C00015D003F01FFA2A46BDE8F04D114B03F047
:1057D00019BA002213463846314602F04BFF04BF87
:1057E0000220FAF7BDFE38463146BDE8F08D03F0E1
:1057F00009FA2A46BDE8F04D064B03F011B9000046
:105800000000F07F182D4454FB2109C0E24B00003A
:10581000FB21F9BFFB210940FB21F93F075C143351
:1058200026A6A13C09480A49C27812B1D1F8142130
:1058300022B1D1F81411012904D005E00021C17072
:10584000012070470121C1700020704768000020CE
:10585000000021422DE9F04391B020216846FAF77B
:10586000D9FD7649764D01200870A879697900EB59
:10587000012002F052FF734C0022234602F0A2FDE9
:1058800002F0B2FC074695F8380095F8371000EBA7
:10589000012002F042FF0022234602F093FD02F0B5
:1058A000A3FC0446202108A8FAF7B4FD6648DFF8F7
:1058B0009C81874207DD6648844204DA41462046DF
:1058C00003F0B6FA044600262046394603F018FDD8
:1058D000F11E03F0ECFD814608AC304603F026FCD7
:1058E0000146484603F036FC394603F0A1FA41462A
:1058F00044F82600884203DD03F002FD44F8260048
:10590000761CF6B2082EE8D300200BE0102860D2F7
:10591000DFE800F0080813131E1E292934343F3F26
:105920004A4A555500EB40012944009A0B7AC9793F
:105930001A4402EB012100914BE000EB40012944A5
:10594000019A0B7AC9791A4402EB0121019140E0D6
:1059500000EB40012944029A0B7AC9791A4402EB00
:105960000121029135E000EB40012944039A0B7AB2
:10597000C9791A4402EB012103912AE000EB4001AE
:105980002944049A0B7AC9791A4402EB0121049143
:105990001FE000EB40012944059A0B7AC9791A44AB
:1059A00002EB0121059114E000EB40012944069A25
:1059B0000B7AC9791A4402EB0121069109E000EB48
:1059C00040012944079A0B7AC9791A4402EB012154
:1059D0000791401CC0B2102898D31E4A1E490020CF
:1059E0001378EC461D1801EBC50754F820607E6063
:1059F0005CF82060401C7608C0B221F835600828A9
:105A0000F0D30833D8B21070E12813D30C4B002028
:105A100013F13C0301EBC00403EBC00564686C6048
:105A200031F8304023F83040401CC0B2E128F1D3B7
:105A30000020107011B0BDE8F0830000400000208D
:105A40008C0B0020000059400000AF430000B4431D
:105A50000000504188000020840400204FF0E02026
:105A6000016921F00401016103480921017042F23A
:105A70002831418070470000C00000200B49498850
:105A800048434FF0E021486100228A61086940F0F4
:105A9000010008610869C30701D0C003FAD508698D
:105AA00020F0010008618A6170470000C0000020FA
:105AB0000B49097848434FF0E021486100228A6190
:105AC000086940F0010008610869C30701D0C003FC
:105AD000FAD5086920F0010008618A61704700006A
