:020000040800F2
:10000000E0190020D1010008354B00088F3B0008A3
:10001000314B00082D070008255A00080000000099
:10002000000000000000000000000000FD4E00087D
:100030002D0A0008000000004B4B0008D5520008B4
:10004000EB010008EB010008EB010008EB010008E0
:10005000EB010008EB010008EB010008EB010008D0
:10006000EB010008EB010008EB010008EB010008C0
:10007000EB010008EB010008EB010008EB010008B0
:10008000EB010008EB010008EB010008EB010008A0
:10009000EB010008EB010008EB010008EB01000890
:1000A000EB010008EB010008EB010008EB01000880
:1000B000655300087553000885530008EB010008DC
:1000C000EB010008EB010008EB010008EB01000860
:1000D000EB010008F5590008055A0008155A0008F8
:1000E0002F0A0008EB010008EB01000800F002F8FD
:1000F00000F05FF80AA090E8000C82448344AAF163
:100100000107DA4501D100F054F8AFF2090EBAE860
:100110000F0013F0010F18BFFB1A43F0010318473B
:1001200010B8000030B800000A444FF0000C10F87E
:10013000013B13F0070408BF10F8014B1D1108BF65
:1001400010F8015B641E05D010F8016B641E01F805
:10015000016BF9D113F0080F1EBF10F8014BAD1C55
:100160000C1B09D16D1E58BF01F801CBFAD505E073
:1001700014F8016B01F8016B6D1EF9D59142D6D3CD
:10018000704700000023002400250026103A28BFF5
:1001900078C1FBD8520728BF30C148BF0B607047F9
:1001A000642900F09980002070471FB51FBD10B56D
:1001B00010BD00F05FFA1146FFF7F7FF07F0D0FC23
:1001C00000F07DFA03B4FFF7F2FF03BC05F086FDF3
:1001D0000948804709480047FEE7FEE7FEE7FEE7DB
:1001E000FEE7FEE7FEE7FEE7FEE7FEE70448054917
:1001F000054A064B7047000061530008ED000008F7
:10020000E0130020E0190020E0150020E015002098
:1002100010B54C1084EA530404D54042C1F10001EA
:1002200038BF491E1B4204D55242C3F1000338BFF8
:100230005B1E00F00DF914F0804F04D04042C1F174
:10024000000138BF491E14F0004F04D05242C3F1E0
:10025000000338BF5B1E10BD0FB4044910B503AADC
:10026000029800F0D1F910BC5DF814FB7800002072
:100270002DE9F0410E460446002020622046E16848
:10028000884730B3252805D0D4E901219047206A5A
:10029000401CF2E7E168204600278847050018D097
:1002A000A5F14100192802D820354FF400673246E5
:1002B000294620462760FFF773FF40B1012804D08C
:1002C000F61D26F007060836D8E7361DD6E728467D
:1002D000DAE7206ABDE8F0812DE9F0410646002406
:1002E00010687529314616A510D0AFF3008000289C
:1002F00002DA404213A507E031688A0701D512A54A
:1003000002E0490704D511A5012401E0AFF3008004
:1003100000210A2206F1240709E0B0FBF2FCB0FB41
:10032000F2F302FB1C00303078541846491C0028B8
:10033000F3D123462A463046BDE8F04100F00AB921
:10034000000000002D0000002B0000002000000035
:1003500040EA010310B59B070FD1042A0DD310C842
:1003600008C9121F9C42F8D020BA19BA884201D994
:10037000012010BD4FF0FF3010BD1AB1D30703D0DC
:10038000521C07E0002010BD10F8013B11F8014B92
:100390001B1B07D110F8013B11F8014B1B1B01D1AE
:1003A000921EF1D1184610BD02F0FF0343EA03226A
:1003B00042EA024200F002B84FF000020429C0F005
:1003C000128010F0030C00F01B80CCF1040CBCF187
:1003D000020F18BF00F8012BA8BF20F8022BA1EBD9
:1003E0000C0100F00DB85FEAC17C24BF00F8012BBE
:1003F00000F8012B48BF00F8012B70474FF00002B6
:1004000000B5134694469646203922BFA0E80C500A
:10041000A0E80C50B1F12001BFF4F7AF090728BFE5
:10042000A0E80C5048BF0CC05DF804EB890028BF61
:1004300040F8042B08BF704748BF20F8022B11F08A
:10044000804F18BF00F8012B704770477047704706
:1004500053EA020C00F069802DE9F04B4FF00006E2
:10046000002B1FBFB3FA83F503FA05F424FA05F64F
:100470005E4012BF1643B2FA82F502FA05F4C5F1E6
:1004800020051EBF22FA05FC44EA0C04203556EA7A
:10049000044C4FEA144418BF641C4FF000084FF09E
:1004A0000009904271EB030C39D3002919BFB1FA4E
:1004B00081F701FA07F6B0FA80F700FA07F6C7F1FC
:1004C00020071EBF20FA07FC46EA0C062037B6FBC1
:1004D000F4FCA7EB0507103F07F01F0BCBF120063C
:1004E0000CFA0BFB2CFA06F644BFB3460026202F6D
:1004F000A4BF5E464FF0000B5BEA060C08BF4FF04E
:10050000010B19EB0B09ABFB027C48EB0608C01B87
:1005100006FB02CC0BFB03CC71EB0C01C1E70B46D5
:10052000024641464846BDE8F08B13B54FF0000047
:100530004FF00001AFF30080BDE81C40704710B5DC
:1005400000F074F8006810BD10B5044600F06EF8B5
:10055000046010BD2DE9F0470D46994692460446C9
:1005600000F124080168880604D5E06921F0100133
:10057000216000E00120A84201DD471B00E00027C8
:10058000A1697A1902EB0900081AA0612078C00657
:1005900002D42046AFF30080002608E0D4E9012110
:1005A0001AF806009047206A401C761C20624E45CF
:1005B000F4DB2078C0060AD52046AFF3008006E0C1
:1005C000D4E9012130209047206A401C2062381E67
:1005D000A7F10107F4DC07E0D4E9012118F80500D0
:1005E0009047206A401C2062281EA5F10105F3DC1B
:1005F0002046AFF300802078000602D50220BDE837
:10060000F0870120FBE70000074B70B50D467B44E7
:1006100000F015F80446284600F024F810B14FF019
:10062000FF3070BD204670BD8B6D000000487047E4
:100630007C13002001694A1C02610878704700B5EC
:100640008FB0CDE901310021059105497944CDE90B
:10065000031011466846FFF70BFE0FB000BD000007
:10066000E5FFFFFF007B00F0800070470048704707
:100670007C1300207546FFF7F9FFAE46050069467A
:10068000534620F00700854618B020B5FFF7AEFDB1
:10069000BDE820404FF000064FF000074FF0000883
:1006A0004FF0000B21F00701AC46ACE8C009ACE804
:1006B000C009ACE8C009ACE8C0098D46704710B568
:1006C0000446AFF300802046BDE81040FFF77ABD36
:1006D00070B5044600252068806800F0010018B35A
:1006E0002068806820F001002168886001F0C0F86F
:1006F000054613E001F0BCF8401B02280ED9206823
:10070000806800F0010048B1A06A40F01000A062CB
:10071000E06A40F00100E062012070BD206880685E
:1007200000F001000028E5D10020F6E700BFFEE759
:100730002DE9F05F05460C46124E1348016820462D
:1007400009F0E2FF834611480168584609F0DCFDD4
:10075000804631464FF07E500AF0DEF88246414630
:1007600009F0D2FF07463146284609F0CDFF814601
:10077000394609F0C9FD0549086008460068BDE82A
:10078000F09F00000AD7A33C480100208801002008
:100790002DE9F05F05460C46124E134801682046CD
:1007A00009F0B2FF834611480168584609F0ACFDD4
:1007B000804631464FF07E500AF0AEF88246414600
:1007C00009F0A2FF07463146284609F09DFF814601
:1007D000394609F099FD0549086008460068BDE8FA
:1007E000F09F00000AD7A33C48010020C801002068
:1007F00038B5002000900120384908706B4601226E
:100800007521682007F006F935A0FFF725FD9DF852
:10081000000068281DD000BF00BF00BF00BF00BFA0
:10082000BFF34F8F00BF00BF00BF3648006800F421
:10083000E06035490843001D3249086000BF00BF31
:1008400000BFBFF34F8F00BF00BF00BF00BF00BF9E
:10085000FDE707F0EBFA00283CD1782008F0F0F82B
:1008600010B91FA0FFF7F8FC782007F0CDF910B9F8
:1008700026A0FFF7F1FCC82008F094F810B92DA0CD
:10088000FFF7EAFC06F026F910B934A0FFF7E4FC04
:100890003F4807F02AF9044606F076FB10B93DA060
:1008A000FFF7DAFC40F2731005F0BCFF10B943A06B
:1008B000FFF7D2FCC82006F097FA10B949A0FFF75D
:1008C000CBFC08F059FE012007F068FF10B94EA0DC
:1008D000FFF7C2FC01200149087038BD0700002065
:1008E0006D70755F7365745F73656E736F7220638F
:1008F0006F6D706C657465202E2E2E2E2E2E0D0AB7
:10090000000000000CED00E00000FA056D70755F5E
:10091000636F6E6669677572655F6669666F20638F
:100920006F6D706C657465202E2E2E2E2E2E0D0A86
:10093000000000006D70755F7365745F73616D70AA
:100940006C655F7261746520636F6D706C65746552
:10095000202E2E2E2E2E2E0D0A000000646D705FAC
:100960006C6F61645F6D6F74696F6E5F64726976DE
:1009700065725F6669726D7761726520636F6D7015
:100980006C657465202E2E2E2E2E2E0D0A00000072
:1009900024020020646D705F7365745F6F72696517
:1009A0006E746174696F6E20636F6D706C657465D1
:1009B000202E2E2E2E2E2E0D0A000000646D705F4C
:1009C000656E61626C655F666561747572652063F2
:1009D0006F6D706C657465202E2E2E2E2E2E0D0AD6
:1009E00000000000646D705F7365745F6669666F18
:1009F0005F7261746520636F6D706C657465202E25
:100A00002E2E2E2E2E0D0A006D70755F7365745F8D
:100A1000646D705F737461746520636F6D706C6575
:100A20007465202E2E2E2E2E2E0D0A00704710B526
:100A30004FF4805000F070FD10BD72B600BFFEE7AD
:100A40002DE9F04F91B0804604F018FAB4490860DF
:100A5000B8F1010F1BD104F08DF8B2480068B2491B
:100A60000860B249B1F9000009F0EEFDB049086034
:100A7000AE49B1F9040009F0E7FDAE490860AE499E
:100A8000B1F9040009F0E0FDAC49086044E14421FB
:100A9000D02003F07EF883464321D02003F079F87C
:100AA0000BEB0020099009F0CFFD06464621D0202F
:100AB00003F06FF883464521D02003F06AF80BEB72
:100AC0000020099009F0C0FD0A904821D02003F0D1
:100AD00060F883464721D02003F05BF80BEB002041
:100AE000099009F0B1FD07463C21D02003F051F8F0
:100AF00083463B21D02003F04CF80BEB00200990FB
:100B000009F0A2FD0D903E21D02003F042F883466B
:100B10003D21D02003F03DF80BEB0020099009F0B7
:100B200093FD82464021D02003F033F883463F21D5
:100B3000D02003F02EF80BEB0020099009F084FD83
:100B400005464FF08E41304609F0AAFE05D24FF01F
:100B50008F41304609F0E0FE06464FF08E410A987C
:100B600009F09EFE05D24FF08F410A9809F0D4FE9D
:100B70000A904FF08E41384609F092FE05D24FF0B0
:100B80008F41384609F0C8FE07464FF08E410D9858
:100B900009F086FE05D24FF08F410D9809F0BCFE9A
:100BA0000D904FF08E41504609F07AFE05D24FF07D
:100BB0008F41504609F0B0FE82464FF08E412846E4
:100BC00009F06EFE05D24FF08F41284609F0A4FED1
:100BD000054686F0004056490860284609F068FB43
:100BE000CDE90201504609F063FBCDE90001DDE9E2
:100BF000022305F011FB0022514BCDE9040109F05D
:100C000047F8504A504BCDE9060108F059FECDE9AE
:100C1000080108F067FD0C90284609F049FBCDE972
:100C200002010D9809F044FBCDE90001DDE9022342
:100C300005F0F2FA0022424BCDE9040109F028F850
:100C4000404A414BCDE9060108F03AFECDE90801E2
:100C500008F048FD0B904FF08D410D9809F0C2FB54
:100C600010904FF08D41504609F0BCFB0F904FF0B3
:100C70008D41284609F0B6FB0E90304609F018FB6E
:100C80004FF06632314BCDE9060108F019FECDE98F
:100C9000080108F027FD81460A9809F009FB4FF08A
:100CA00066322A4BCDE9060108F00AFECDE90801BB
:100CB00008F018FD044626480078022810D149465D
:100CC0000C9803F0E5F980F00040164908602146D1
:100CD0000B9803F015FB80F000401E49086013E0FC
:100CE0001B48007803280FD149460C98FFF720FDD8
:100CF00080F000400B49086021460B98FFF748FD43
:100D000080F0004013490860064800680649086002
:100D1000084807600948056011B0BDE8F08F000081
:100D2000100000200C0200201C000020F801002010
:100D30002000002024000020FE01002040000020B0
:100D400000806640F1D4C853FB21094066663040FC
:100D500000000020080200202DE9F04100250026B7
:100D60000027A8460121344800F074FD3349344A75
:100D7000127888544FF40051324800F06BFD2F492F
:100D8000491D2F4A127888544FF480412D4800F0B5
:100D900061FD2A490A312A4A127888544FF40041E9
:100DA000284800F057FD25490F31254A127888540C
:100DB00023480078401C052190FBF1F201FB120052
:100DC0001F490870002415E01C48005D2844C5B286
:100DD0001A48401D005D3044C6B218480A30005D14
:100DE0003844C7B215480F30005D404400F0FF089A
:100DF000601CC4B2052CE7DB022D01DD012000E000
:100E0000002011490870022E01DD012000E00020C1
:100E10000E490870022F01DD012000E000200C497E
:100E20000870B8F1020F01DD012000E0002009493F
:100E30000870BDE8F0810000000801406813002040
:100E400046020020001001406000002061000020E8
:100E500062000020630000202DE9F04F87B0834638
:100E60008A46584608F0C0FE00222E4BCDE900010C
:100E700008F00EFF064600222B4B08F021FD8046AD
:100E800000222A4B08F01CFD04460022284B08F0E3
:100E900017FDCDE9020108F025FC0590059809F041
:100EA00007FA8046234A244B08F0F2FE0646002249
:100EB000224B08F0EDFE044608F014FC20490860BF
:100EC000504608F091FE0022164BCDE9000108F0D3
:100ED000DFFE80460022144B08F0F2FC064600229A
:100EE000124B08F0EDFC0022114BCDE9020108F095
:100EF000E7FC044608F0F6FB0490049809F0D8F9E2
:100F000006460C4A0C4B08F0C3FE044600220B4B6D
:100F100008F0BEFE804608F0E5FB0A49086007B00D
:100F2000BDE8F08F000069400000104000003E4026
:100F300000002A40F1D4C853FB21094000C05040B2
:100F4000340200203802002038B502460023002079
:100F5000009000BF92F82400012801D1022038BD82
:100F6000012082F8240000BF4868072812D21068C8
:100F7000406B0C79641E04EB84051F24AC40A04335
:100F80000D796D1E05EB85050C68AC402043146897
:100F9000606327E048680D2812D21068006B0C7956
:100FA000E41F04EB84051F24AC40A0430D79ED1F22
:100FB00005EB85050C68AC4020431468206311E004
:100FC0001068C06A0C790D3C04EB84051F24AC400A
:100FD000A0430D790D3D05EB85050C68AC40204321
:100FE0001468E06208680A2812D31068C0680C7898
:100FF0000A3C04EB44050724AC40A0430D780A3DAD
:1010000005EB45058C68AC4020431468E0600FE0B8
:10101000106800690C7804EB44050724AC40A04339
:101020000D7805EB45058C68AC40204314682061C1
:101030000868102802D00868112827D1174C1068BA
:10104000A0421ED11068806800F40000F0B910685A
:10105000806840F400001468A0600868102815D16A
:101060000F4800680F4CB0FBF4F000EB800040002C
:10107000009002E00098401E009000980028F9D1EE
:1010800004E0906A40F020009062012300BF00203D
:1010900082F8240000BF184661E7000000240140E8
:1010A0008800002040420F002DE9F041044600274F
:1010B00000250026A84614B90120BDE8F081A068EB
:1010C00010B1207D00B100BFA06A30B90020E062FD
:1010D00084F82400204600F089F82046FFF7F8FA4B
:1010E0000746A06A00F01000002873D1002F71D1CC
:1010F000A06A20F4885040F00200A062E1696068B4
:101100000843217B40EA41000643A068B0F5807F98
:1011100002D0A068012802D14FF4807000E00020C6
:101120000543207D012811D1207B38B9A069401EDC
:101130004FF4006141EA4030054307E0A06A40F007
:101140002000A062E06A40F00100E0622068406890
:1011500020F469402843216848602068806821495C
:101160000840304321688860A068B0F5807F02D0D5
:10117000A068012802D14FF4807000E00020B0F593
:10118000807F03D1208A401E4FEA00582068C06A41
:1011900020F4700040EA08002168C8622068806876
:1011A00011490840B04208D10020E062A06A20F056
:1011B000020040F00100A06211E0A06A20F00200ED
:1011C00040F01000A062E06A40F00100E0620127F8
:1011D00005E0FFE7A06A40F01000A0620127384652
:1011E0006BE70000FDF7E1FFFE0E1FFF10B586B0B4
:1011F000044600200290039004900590284920683E
:10120000884223D100BF2748806940F400702549F7
:1012100088610846806900F40070019000BF00BF3B
:1012200000BF0846806940F0080088610846806970
:1012300000F00800019000BF00BF022002900320D0
:10124000039002A9184800F075F926E017492068B4
:10125000884222D100BF1348806940F48060114960
:1012600088610846806900F48060019000BF00BF7B
:1012700000BF0846806940F0080088610846806920
:1012800000F00800019000BF00BF01200290032081
:10129000039002A9044800F04DF906B010BD00000B
:1012A0000024014000100240000C014000280140D1
:1012B0000146002291F82100022808D0042088630A
:1012C00000BF002081F8200000BF0120704708689F
:1012D000006820F00E000B6818600868006820F0B5
:1012E00001000B68186091F8403001209840CB6BEA
:1012F0005860012081F8210000BF002081F8200003
:1013000000BF1046E2E7000070B50446002594F8DF
:101310002100022803D00420A063012548E02068B2
:10132000006820F00E00216808602068006820F046
:101330000100216808601F492068884201D101200E
:1013400026E01C4914312068884201D110201FE09A
:10135000184928312068884201D1801518E01549C4
:101360003C312068884201D1801411E0114950318C
:101370002068884202D14FF4803009E00D49643181
:101380002068884202D14FF4801001E04FF0807055
:10139000084908394860012084F8210000BF002076
:1013A00084F8200000BF606B10B12046616B884755
:1013B000284670BD0800024010B50446B4F5805FB1
:1013C0007ED14548007808B9012000E0002042495C
:1013D000087042480078FFF733FB032003F032FD2A
:1013E00040423F490860042003F02CFD3D4908605D
:1013F000084601683A480068FFF72EFD3A48007831
:1014000001280ED139480078401C38490870084638
:1014100000780A2805D10020087033490870344943
:10142000087034480078012803D032480078022838
:1014300001D103F0CDFC3048007828B92F4800785E
:1014400010B9642003F0B2F82B480078012803D0CB
:101450002A480078012802D1002003F0A7F803F001
:1014600087F8204801681E48006804F0DDFA03F0A0
:1014700047FD642148432249086022480068096802
:101480000844214908601F4800681D490968401A3E
:101490001E4908601E4A51421B48006803F04CFB7D
:1014A000194908601A4A51421848006803F044FB81
:1014B0001649086017480078012806D1002100E08D
:1014C00009E0084603F0CCFE05E0104801680E482C
:1014D000006803F0C5FE10BD0401002000000020DC
:1014E000F0000020F400002044000020450000200F
:1014F00028000020290000203D0000203E000020A0
:1015000000010020FC000020080000200C0000204A
:101510000CE5FFFF0600002010B5044604480068F3
:10152000204020B1024804602046FFF745FF10BD6F
:10153000140401402DE9F8470346002294466EE169
:101540004FF0010808FA02F4D1F8008008EA04001C
:10155000A0427DD1DFF8DCA2D1F80480A8EB0A0913
:10156000D0453AD014DCB8F1030F50D009DCB8F103
:10157000000F31D0B8F1010F1CD0B8F1020F49D1E2
:1015800020E0B8F1110F18D0B8F1120F42D11EE0CF
:10159000B9F5881F25D006DCB9F5803F20D0B9F514
:1015A000801F37D11AE0B9F5001F18D0B9F5041F14
:1015B00030D117E0D1F80CC02DE0D1F80C8008F143
:1015C000040C28E0D1F80C8008F1080C23E0D1F8D5
:1015D0000C8008F10C0C1EE000BF00BF00BF00BF74
:1015E00000BF00BFD1F80880B8F1000F02D14FF062
:1015F000040C0BE0D1F80880B8F1010F03D14FF0D3
:10160000080C1C6102E04FF0080C5C6103E04FF035
:10161000000C00E000BF00BFFF2801D8984601E0A1
:1016200003F104084646FF2802D84FEA820803E087
:10163000A2F108084FEA88084746D6F800804FF024
:101640000F0909FA07F928EA09080CFA07F900E076
:1016500088E048EA0908C6F80080D1F8048008F05C
:101660008058B8F1805F7DD100BFDFF8CC81D8F819
:10167000188048F00108DFF8C091C9F81880C84602
:10168000D8F8188008F00108CDF8008000BF00BF2E
:101690004FEAB9384FEA920958F829504FEA827850
:1016A0004FEA18794FF00F0808FA09F825EA0805FB
:1016B000DFF88881434502D14FF0000816E0DFF8DB
:1016C0008081434502D14FF001080FE0DFF87481BB
:1016D000434502D14FF0020808E0DFF86C81434532
:1016E00002D14FF0030801E04FF004084FEA82797D
:1016F0004FEA197908FA09F848EA0505DFF84C813C
:101700004FEA920948F82950D1F8048008F480186B
:10171000B8F5801F0AD1DFF83881D8F8008048EA90
:101720000008DFF82C91C9F8008009E0DFF820817B
:10173000D8F8008028EA0008DFF81491C9F8008082
:10174000D1F8048008F40018B8F5001F10D1DFF8B4
:10175000008108F10408D8F8008048EA0008DFF8A2
:10176000F09000E05AE009F10409C9F800800DE0AA
:10177000DFF8DC8008F10408D8F8008028EA0008C7
:10178000DFF8CC9009F10409C9F80080D1F8048091
:1017900008F40038B8F5003F0ED1DFF8B480A8F1A6
:1017A0000408D8F8008048EA0008DFF8A490A9F1FE
:1017B0000409C9F800800DE0DFF89480A8F104085E
:1017C000D8F8008028EA0008DFF88490A9F104091D
:1017D000C9F80080D1F8048008F48038B8F5803F5B
:1017E0000ED1DFF86C80A8F10808D8F8008048EA2C
:1017F0000008DFF85C90A9F10809C9F800800DE045
:10180000DFF84C80A8F10808D8F8008028EA000822
:10181000DFF83C90A9F10809C9F80080521CD1F802
:10182000008028FA02F8B8F1000F7FF489AEBDE815
:10183000F88700000000111000100240000801406D
:10184000000C01400010014000140140080001405C
:1018500008040140024693680B400BB1012000E0F0
:10186000002070470AB1016101E00B040361704779
:1018700001480068704700007C00002003480068B1
:101880000349097808440149086070477C0000203A
:101890008400002010B50848006840F01000064998
:1018A0000860032000F0CEF8002000F007F800F0F8
:1018B0002BF8002010BD00000020024070B5044647
:1018C0000E4800784FF47A71B1FBF0F00C490968CA
:1018D000B1FBF0F5284600F0B7FC08B1012070BD5F
:1018E000102C07D200222146501E00F06DF805484A
:1018F000046001E00120F2E70020F0E7840000200E
:10190000880000208000002008B500BF13488069CF
:1019100040F00100114988610846806900F001002B
:10192000009000BF00BF00BF0846C06940F0805073
:10193000C8610846C06900F08050009000BF00BF39
:10194000052000F07FF800BF0549486820F0E060FE
:1019500040F08060486000BF08BD000000100240F9
:101960000000014010B501460846002817DB00F0D2
:101970001F0301229A400B4B440943F8242000BF67
:1019800000BF00BFBFF34F8F00BF00BF00BF00BF4D
:1019900000BF00BFBFF36F8F00BF00BF00BF00BF1D
:1019A00010BD000080E100E001460846002809DB88
:1019B00000F01F0301229A4043099B0003F1E0233A
:1019C000C3F8002100BF70472DE9F05F80460D4647
:1019D0001646002704F0EEF8074639462A463346F5
:1019E00001F00700C0F1070ABAF1040F02D94FF065
:1019F000040A01E0C0F1070AD14600F1040ABAF175
:101A0000070F02D24FF0000A01E0A0F1030AD4460A
:101A10004FF0010A0AFA09FAAAF1010A0AEA020ACF
:101A20000AFA0CFA4FF0010B0BFA0CFBABF1010BAD
:101A30000BEA030B4AEA0B042146404604F0C2F8C5
:101A4000BDE8F09F00BF00F00702064B19684FF693
:101A5000FF031940044B0B4343EA0221014B196079
:101A600000BF70470CED00E00000FA05F8B5044631
:101A700000260025207800F0010000286BD0002708
:101A80004348C06900F0805070B900BF4048C06949
:101A900040F080503E49C8610846C06900F080505F
:101AA000009000BF00BF01273A48006800F4807032
:101AB000B0B93848006840F4807036490860FFF7D4
:101AC000D7FE064606E0FFF7D3FE801B642801D947
:101AD0000320F8BD2F48006800F480700028F2D081
:101AE0002B48006A00F440752DB3A08800F44070C4
:101AF000A84220D02648006A20F4407501202649DB
:101B00000860002008602248056205F0010090B1DD
:101B1000FFF7AEFE064608E0FFF7AAFE801B41F283
:101B20008831884201D90320D3E71948006A00F0C0
:101B300002000028F0D01648006A20F44070616866
:101B4000084313490862012F04D10846C06920F0F8
:101B50008050C86100BF207800F00200022807D141
:101B60000B48406820F44040A16808430849486099
:101B7000207800F01000102807D10548406820F4B4
:101B80008000E1680843024948600020A1E70000A6
:101B900000100240007000404004424270B504460C
:101BA0000D460CB9012070BD5A48006800F00700CE
:101BB000A8420ED25748006820F007002843554934
:101BC00008600846006800F00700A84201D0012024
:101BD000E9E7207800F0020002281DD1207800F00B
:101BE0000400042805D14C48406840F4E0604A49AC
:101BF0004860207800F00800082805D14648406871
:101C000040F46050444948604348406820F0F00088
:101C1000A168084340494860207800F0010078B38B
:101C20006068012806D13C48006800F4003090B993
:101C30000120B8E76068022806D13748006800F044
:101C4000007040B90120AEE73348006800F00200A0
:101C500008B90120A7E73048406820F00300616818
:101C600008432D494860FFF703FE064609E0FFF7E9
:101C7000FFFD801B41F28831884202D9032092E7A0
:101C800007E02548406800F00C006168B0EB810F68
:101C9000EDD12048006800F00700A8420ED91D4889
:101CA000006820F0070028431A49086008460068C9
:101CB00000F00700A84201D0012074E7207800F06E
:101CC0000400042807D11448406820F4E060E1686B
:101CD000084311494860207800F00800082808D11E
:101CE0000D48406820F46050216940EAC1000A496B
:101CF000486000F03FF808494968C1F30311074AFA
:101D0000515CC8400649086006480068FFF7D6FDE8
:101D1000002048E7002002400010024004AB000809
:101D20008800002080000020014800687047000003
:101D30008800002000B5FFF7F7FF04494968C1F3A8
:101D40000221034A515CC84000BD0000001002405F
:101D500014AB000800B5FFF7E7FF04494968C1F379
:101D6000C221034A515CC84000BD0000001002407F
:101D700014AB000870B500210022002400230020CD
:101D8000134D696801F00C05F5B1042D02D0082D42
:101D900019D101E00F4819E00F4DC1F38346AB5D47
:101DA00001F4803555B10A4D6D68C5F340450B4EC1
:101DB000725D084D5D43B5FBF2F402E0084D03FB94
:101DC00005F4204602E000BF024800BF00BF70BD1E
:101DD0000010024000127A00F2AA000802AB0008CC
:101DE00000093D00F8B504460CB90120F8BD207883
:101DF00000F00100002878D0F848406800F00C009E
:101E000004280CD0F548406800F00C00082811D1D7
:101E1000F248406800F48030B0F5803F0AD1EF48C6
:101E2000006800F4003000285FD0606800285CD1B2
:101E30000120DBE700BF6068B0F5803F06D1E748CE
:101E4000006840F48030E549086028E0606858B9CF
:101E5000E248006820F48030E049086008460068E5
:101E600020F4802008601AE06068B0F5A02F0BD144
:101E7000DA48006840F48020D849086008460068C5
:101E800040F4803008600AE0D448006820F48030D4
:101E9000D24908600846006820F48020086000BF2E
:101EA000606888B1FFF7E4FC054606E0FFF7E0FC58
:101EB000401B642801D9032098E7C848006800F453
:101EC00000300028F2D010E0FFF7D2FC054606E013
:101ED000FFF7CEFC401B642801D9032086E7BF48EA
:101EE000006800F400300028F2D1207800F00200F1
:101EF000022857D1B948406800F00C0050B1B748EB
:101F0000406800F00C00082818D1B448406800F47C
:101F1000803098B9B148006800F0020020B1206913
:101F2000012801D0012061E7AC48006820F0F800EA
:101F3000616940EAC100A949086033E02069E8B15D
:101F40000120A7490860FFF793FC054606E0FFF76C
:101F50008FFC401B022801D9032047E79F480068F7
:101F600000F002000028F2D09C48006820F0F80041
:101F7000616940EAC1009949086013E0002098496E
:101F80000860FFF775FC054606E0FFF771FC401B93
:101F9000022801D9032029E79048006800F00200D8
:101FA0000028F2D1207800F0080008282DD1A0697F
:101FB000B8B101208B490860FFF75AFC054606E0DE
:101FC000FFF756FC401B022801D903200EE7834887
:101FD000406A00F002000028F2D0012002F0B6FDB5
:101FE00013E000207F490860FFF742FC054606E049
:101FF000FFF73EFC401B022801D90320F6E6774894
:10200000406A00F002000028F2D1207800F00400BD
:10201000042873D100277148C06900F0805070B95E
:1020200000BF6E48C06940F080506C49C8610846E6
:10203000C06900F08050009000BF00BF01276A48CF
:10204000006800F48070B0B96748006840F48070A0
:1020500065490860FFF70CFC054606E0FFF708FC41
:10206000401B642801D90320C0E65F48006800F4E3
:1020700080700028F2D000BFE068012806D15748E0
:10208000006A40F001005549086227E0E06858B94D
:102090005248006A20F00100504908620846006A70
:1020A00020F00400086219E0E06805280BD14B48D5
:1020B000006A40F00400494908620846006A40F09E
:1020C000010008620AE04548006A20F00100434927
:1020D00008620846006A20F00400086200BFE06859
:1020E000A0B1FFF7C5FB054609E0FFF7C1FB401BA8
:1020F00041F28831884202D9032077E622E037484E
:10210000006A00F002000028EFD012E0FFF7B0FBF9
:10211000054608E0FFF7ACFB401B41F288318842DE
:1021200001D9032062E62D48006A00F00200002871
:10213000F0D1012F05D12948C06920F080502749EE
:10214000C86100BFE069C8B32448406800F00C00D3
:10215000082860D0E069022848D10020204908669C
:10216000FFF786FB054606E0FFF782FB401B0228CF
:1021700001D903203AE61948006800F000700028F1
:10218000F2D1206AB0F5803F07D11448406820F4AE
:102190000030A168084311494860D4E908010843A8
:1021A0000E49496821F4741108430C494860012024
:1021B0000B490866FFF75CFB054607E03DE0FFF7CB
:1021C00057FB401B022801D903200FE60348006893
:1021D00000F000700028F2D02FE000000010024054
:1021E0000000424280044242007000400020144936
:1021F0000866FFF73DFB054606E0FFF739FB401B8D
:10220000022801D90320F1E50E48006800F00070B3
:102210000028F2D111E0E069012800D1E6E5094883
:10222000466806F48031206A814204D106F47011B8
:10223000606A814201D00120D8E50020D6E5000087
:10224000000042420010024070B504462546681E58
:10225000B0F1807F01D301200FE0681E4FF0E02134
:1022600048610F214FF0FF3003F0ACFC00204FF02D
:10227000E021886107200861002070BD7047704729
:1022800010B50346002200BF93F83C00012801D19D
:10229000022010BD012083F83C0000BF22F0FF00A7
:1022A000CC6840EA040222F440708C6840EA0402E0
:1022B00022F480604C6840EA040222F400600C685A
:1022C00040EA040222F480500C6940EA040222F43D
:1022D00000504C6940EA040222F48040CC6940EA94
:1022E00004021868426400BF002083F83C0000BF6D
:1022F00000BFCEE730B502460B4600BF92F83C0067
:10230000012801D1022030BD012082F83C0000BF2D
:10231000022082F83D00106844681068816824F04B
:1023200070041868044310684460104D1068A84297
:102330000BD01068B0F1804F07D00D4D1068A84247
:1023400003D00C4D1068A84205D121F080015868D7
:10235000014310688160012082F83D0000BF002029
:1023600082F83C0000BF00BFCDE70000002C014018
:102370000004004000080040014691F83D0001289B
:1023800001D001207047022081F83D000868C06834
:1023900040F001000B68D860124B086898420BD0DF
:1023A0000868B0F1804F07D00F4B0868984203D0FF
:1023B0000E4B086898420CD10868806800F007024C
:1023C000062A0CD00868006840F001000B6818600D
:1023D00005E00868006840F001000B681860002004
:1023E000D0E70000002C014000040040000800403D
:1023F0002DE9F04104460D4614B90120BDE8F081F5
:1024000094F83D0028B9002084F83C00204600F0F4
:1024100051F8022084F83D002068806844F20701EA
:10242000884321688860211D206802F0B3FF20687E
:10243000D0F80880206886692068076A286840EA22
:10244000080840F203308643A969A86840EA0120E1
:10245000064340F60C4086434FF2F0008643E9699C
:10246000E86840EA0120064328690001296A40EA39
:102470000130064327F022076969686840EA0110C5
:1024800007432068C0F808802068866120680762DA
:10249000012084F8460084F83E0001213F200155C8
:1024A000012084F8420043200155012084F83D00BA
:1024B0000020A3E710B586B00446002002900390E8
:1024C000049005903149206888422CD100BF3048E3
:1024D000C06940F002002E49C8610846C06900F09A
:1024E0000200019000BF00BF00BF0846806940F0B5
:1024F000040088610846806900F00400019000BF74
:1025000000BFC020029000200390049002A921483F
:10251000FFF710F8012211461D20FFF755FA1D2084
:10252000FFF742FA2FE01C49206888422BD100BFF8
:102530001748C06940F004001549C8610846C069E1
:1025400000F00400019000BF00BF00BF0846806992
:1025500040F0080088610846806900F0080001909A
:1025600000BF00BFC020029000200390049002A989
:102570000A48FEF7DFFF012211461E20FFF724FA6A
:102580001E20FFF711FA06B010BD00000004004045
:10259000001002400008014000080040000C01400B
:1025A0002DE9F04304460D4694F83E603F20075D58
:1025B00094F84280432010F804906DB9012E02D1A6
:1025C000B8F1010F02D00120BDE8F083022084F8A9
:1025D0003E0084F8420025E0042D0CD1012F02D1E9
:1025E000B9F1010F01D00120EEE702213F20015592
:1025F0004320015516E0012E07D1012F05D1B8F176
:10260000010F02D1B9F1010F01D00120DCE7022056
:1026100084F83E0002213F200155022084F8420048
:102620004320015515B1042D0CD105E001220021F4
:10263000206802F0E9FE10E001220421206802F087
:10264000E3FE0AE001220021206802F0DDFE012203
:102650000421206802F0D8FE00BF00BF2068006897
:1026600040F00100216808600020ADE710B5044685
:102670004348844243D14348007800F0800000285A
:102680007DD14048007800F04000C8B33D48008844
:1026900040F080003B4908800421394800F06EFC7E
:1026A0003949088000BF36480068006A41F21111BC
:1026B000084068B932480068006A8910084038B993
:1026C0002F480068006820F001002D490968086063
:1026D00000BF2B480068006A20F0A0002849096864
:1026E000086227480068006A25490968086224488A
:1026F0000068006840F001002149096808603EE078
:10270000FFE700201F4908801F4908801D480088F6
:1027100040F040001B49088000BF19480068006A6B
:1027200041F21111084068B915480068006A891023
:10273000084038B912480068006820F001001049CC
:102740000968086000BF00200D49096848620C480C
:102750000068006A20F0A00009490968086208487A
:102760000068006A40F020000549096808620448D2
:102770000068006840F0010001490968086010BD68
:102780000803002074000020760000202DE9F041AD
:1027900004460D461646002700BF94F83C00012869
:1027A00002D10220BDE8F081012084F83C0000BF86
:1027B00096B9EB68D5E90012206802F0F3FE2068B4
:1027C000806920F00C002168886120688069A96810
:1027D00008432168886141E0042E13D1EB68D5E9F4
:1027E0000012206802F012FF2068806920F4406027
:1027F0002168886120688069A96840EA0120216811
:1028000088612BE0082E12D1EB68D5E90012206810
:1028100002F019FF2068C06920F00C002168C8612F
:102820002068C069A96808432168C86116E00C2EB9
:1028300013D1EB68D5E90012206802F020FF206870
:10284000C06920F440602168C8612068C069A96837
:1028500040EA01202168C86100E0012700BF002094
:1028600084F83C0000BF38469CE710B504460CB91C
:10287000012010BD94F83D0028B9002084F83C00E8
:10288000204600F025F8022084F83D00211D206834
:1028900002F080FD012084F8460000BF84F83E006D
:1028A00001213F200155402001554120015500BF25
:1028B00000BF012084F84200432001554420015507
:1028C0004520015500BF012084F83D000020D0E7DD
:1028D00010B586B004460020029003900490059045
:1028E0002068B0F1804F37D100BF1C48C06940F06C
:1028F00001001A49C8610846C06900F00100019052
:1029000000BF00BF00BF0846806940F00400886136
:102910000846806900F00400019000BF00BF02205B
:10292000029000200390049002A90D48FEF702FED9
:10293000012211461C20FFF747F81C20FFF734F84E
:1029400008200290012003900020049003200590AD
:1029500002A90348FEF7EEFD06B010BD00100240CC
:10296000000801402DE9F04304460D46002615B944
:1029700094F83E000BE0042D02D13F20005D06E0FC
:10298000082D02D14020005D01E04120005D80461D
:1029900015B994F842000BE0042D02D14320005DEC
:1029A00006E0082D02D14420005D01E04520005DD5
:1029B0008146B8F1010F02D1B9F1010F02D0012017
:1029C000BDE8F0831DB9022084F83E000EE0042D1E
:1029D00003D102213F20015508E0082D03D1022137
:1029E0004020015502E00221412001551DB902207D
:1029F00084F842000EE0042D03D10221432001554A
:102A000008E0082D03D102214420015502E00221F3
:102A10004520015535B1042D0BD0082D10D00C2DBB
:102A20001CD114E02068C06840F002002168C86032
:102A300016E02068C06840F004002168C8600FE01C
:102A40002068C06840F008002168C86008E020687D
:102A5000C06840F010002168C86001E0012600BF96
:102A600000BF06BB01222946206802F0CDFC1249B6
:102A7000206888420BD02068B0F1804F07D00F4902
:102A80002068884203D00E49206888420CD1206813
:102A9000806800F00707062F0CD02068006840F01F
:102AA00001002168086005E02068006840F001002E
:102AB00021680860304683E7002C01400004004094
:102AC0000008004010B5044620680069C0F34000CB
:102AD000D8B12068C068C0F34000B0B16FF0020008
:102AE00021680861012020772068806900F00300D8
:102AF00018B12046FFF7BAFD05E0204600F0DAF8ED
:102B0000204600F0A5F90020207720680069C0F376
:102B10008000D8B12068C068C0F38000B0B16FF009
:102B2000040021680861022020772068806900F491
:102B3000407018B12046FFF799FD05E0204600F0EF
:102B4000B9F8204600F084F9002020772068006959
:102B5000C0F3C000D8B12068C068C0F3C000B0B1F5
:102B60006FF0080021680861042020772068C069A0
:102B700000F0030018B12046FFF778FD05E020467D
:102B800000F098F8204600F063F9002020772068D4
:102B90000069C0F30010D8B12068C068C0F300100D
:102BA000B0B16FF01000216808610820207720681C
:102BB000C06900F4407018B12046FFF757FD05E0EA
:102BC000204600F077F8204600F042F900202077F8
:102BD0002068006900F0010058B12068C06800F06A
:102BE000010030B16FF0010021680861204600F05B
:102BF0009BF920680069C0F3C01058B12068C06814
:102C0000C0F3C01030B16FF0800021680861204629
:102C1000FFF734FB20680069C0F3801058B12068CA
:102C2000C068C0F3801030B16FF0400021680861C7
:102C3000204600F0BCF920680069C0F3401058B18C
:102C40002068C068C0F3401030B16FF020002168E8
:102C500008612046FFF713FB10BD000010B586B0D9
:102C60000446002002900390049005900E492068CD
:102C7000884217D100BF0D48806940F004000B491D
:102C800088610846806900F00400019000BF00BF21
:102C90004FF41060029002200390059002A90448AE
:102CA000FEF748FC06B010BD002C014000100240A9
:102CB0000008014070472DE9F04104460D461646D4
:102CC000002700BF94F83C00012802D10220BDE893
:102CD000F081012084F83C0000BF36B1042E1BD0E7
:102CE000082E31D00C2E5ED145E02946206802F036
:102CF0009DFB2068806940F0080021688861206899
:102D0000806920F004002168886120688069296951
:102D100008432168886148E02946206802F0B6FB34
:102D20002068806940F400602168886120688069BB
:102D300020F480602168886120688069296940EA00
:102D400001202168886130E02946206802F0D2FB2A
:102D50002068C06940F008002168C8612068C06927
:102D600020F004002168C8612068C069296908430F
:102D70002168C86119E02946206802F0EFFB20684D
:102D8000C06940F400602168C8612068C06920F40F
:102D900080602168C8612068C069296940EA012013
:102DA0002168C86101E0012700BF00BF00BF00200B
:102DB00084F83C0000BF384689E710B504460CB9DA
:102DC000012010BD94F83D0028B9002084F83C0093
:102DD000204600F025F8022084F83D00211D2068DF
:102DE00002F0D8FA012084F8460000BF84F83E00C3
:102DF00001213F200155402001554120015500BFD0
:102E000000BF012084F842004320015544200155B1
:102E10004520015500BF012084F83D000020D0E787
:102E200008B5094A016891420DD100BF0749896977
:102E300041F40061054A91611146896901F400611C
:102E4000009100BF00BF08BD002C014000100240EF
:102E50007047000070B504460D4615B994F83E0061
:102E60000BE0042D02D13F20005D06E0082D02D1C9
:102E70004020005D01E04120005D012801D00120DB
:102E800070BD1DB9022084F83E000EE0042D03D170
:102E900002213F20015508E0082D03D102214020E6
:102EA000015502E0022141200155012229462068F6
:102EB00002F0AAFA19492068884201D1012000E0F5
:102EC000002028B12068406C40F40040216848642C
:102ED0001249206888420BD02068B0F1804F07D09B
:102EE0000F492068884203D00E49206888420CD1DF
:102EF0002068806800F00706062E0CD02068006865
:102F000040F001002168086005E02068006840F09A
:102F10000100216808600020B2E70000002C014099
:102F20000004004000080040114988421FD11149A7
:102F3000097801F08001D1B90E49097801F040010A
:102F4000A9B10C49097801F03F013F290AD109498B
:102F5000098841F08001074A11804FF6FF71064A47
:102F6000118004E003490988491C024A1180704716
:102F70000803002074000020760000200246002094
:102F800031B1042907D0082908D00C290CD108E058
:102F90001368586B09E01368986B06E01368D86BE8
:102FA00003E01368186C00E000BF00BF7047704773
:102FB000704770472DE9F84F04462068056820687F
:102FC000C668206847694FF00009CA4605F00F0936
:102FD000B9F1000F0AD105F0200038B106F0200049
:102FE00020B1204602F0B9FBBDE8F88FB9F1000F1F
:102FF0007BD007F0010018B906F49070002874D057
:1030000005F0010030B106F4807018B1606C40F03A
:103010000100606405F0040030B107F0010018B150
:10302000606C40F00200606405F0020030B107F00F
:10303000010018B1606C40F00400606405F0080005
:1030400048B106F0200010B907F0010018B1606C1B
:1030500040F008006064606C002845D005F0200056
:1030600028B106F0200010B1204602F076FB20685F
:103070004069C0F3801A606C00F0080010B9BAF122
:10308000000F2CD0204602F022FB2068406900F09F
:10309000400000B300BF00BF2168143151E8001F99
:1030A00021F040002168143141E80002002AF3D1E8
:1030B00000BFE06B50B17748E16B4863E06BFEF70F
:1030C00023F988B1E06B416B88470DE02046FFF79C
:1030D00070FF09E009E02046FFF76BFF04E020469F
:1030E000FFF767FF002060647EE7206B012877D13F
:1030F00005F01000002873D006F010000028FAD068
:1031000000BF0020009020680068009020684068A0
:10311000009000BF00BF2068406900F04000002818
:103120005FD0E06B006840681FFA80F8B8F1000FCC
:1031300055D0A08D404552DDA4F82E80E06B80690B
:10314000202843D000BF00BF21680C3151E8001F88
:1031500021F4807021680C3141E80002002AF3D18B
:1031600000BF00BF00BF2168143151E8001F21F0EB
:1031700001002168143141E80002002AF3D100BFA8
:1031800000BF00BF2168143151E8001F21F040004A
:103190002168143141E80002002AF3D100BF202049
:1031A00084F842000020206300BF00BF21680C317A
:1031B00051E8001F21F0100021680C3141E80002A5
:1031C000002AF3D100BFE06BFEF772F802206063C3
:1031D000A08DE28D801A81B22046FFF7E9FE03E759
:1031E00042E0A08DE18D401A1FFA80F8E08DD0B347
:1031F000B8F1000F37D000BF00BF21680C3151E893
:10320000001F21F4907021680C3141E80002002A6F
:10321000F3D100BF00BF00BF2168143151E8001F87
:1032200021F001002168143141E80002002AF3D1A5
:1032300000BF202084F842000020206300BF00BFB0
:1032400021680C3151E8001F21F0100021680C3179
:1032500041E80002002AF3D100BF0220606341462A
:103260002046FFF7A5FEBFE605F0800030B106F06E
:10327000800018B1204602F08DFBB5E605F0400055
:1032800030B106F0400018B1204602F056FAABE625
:1032900000BFA9E6BB56000810B504460CB90120D2
:1032A00010BDA06900B100E000BF94F8410028B94A
:1032B000002084F84000204600F02AF8242084F8FA
:1032C00041002068C06820F400502168C860204692
:1032D00002F0C2FA2068006920F490402168086179
:1032E0002068406920F02A00216848612068C06891
:1032F00040F400502168C86000206064202084F8F9
:10330000410084F842000020606300BFC8E700006D
:1033100010B586B0044600200290039004900590FA
:1033200059492068884237D100BF5848806940F425
:103330008040564988610846806900F480400190C9
:1033400000BF00BF00BF0846806940F004008861EC
:103350000846806900F00400019000BF00BF4815D6
:103360000290022003900320059002A94848FEF72E
:10337000E1F84FF48060029000200390049002A9CD
:103380004348FEF7D7F8012211462520FEF71CFB23
:103390002520FEF709FB75E03E492068884236D1BA
:1033A00000BF3A48C06940F400303849C861084657
:1033B000C06900F40030019000BF00BF00BF0846A4
:1033C000806940F0040088610846806900F00400CC
:1033D000019000BF00BF0420029002200390032050
:1033E000059002A92A48FEF7A5F8082002900020BF
:1033F0000390049002A92648FEF79CF8012211468A
:103400002620FEF7E1FA2620FEF7CEFA3AE022491E
:103410002068884236D100BF1C48C06940F4802033
:103420001A49C8610846C06900F48020019000BFB5
:1034300000BF00BF0846806940F008008861084668
:10344000806900F00800019000BF00BF08150290DD
:10345000022003900320059002A91048FEF76AF8A5
:103460004FF40060029000200390049002A90B48E2
:10347000FEF760F8012211462720FEF7A5FA272063
:10348000FEF792FA06B010BD00380140001002406D
:10349000000801400044004000480040000C01408A
:1034A00070B504460D46164694F8420020280BD10C
:1034B00005B10EB9012070BD0020206332462946B7
:1034C000204602F047FAF6E70220F4E72DE9F0473C
:1034D00086B08246F749DAF80000884275D1F6488E
:1034E0000078F649086008460078F5490870F34806
:1034F0000068592802D10220F2490870EF4800689C
:10350000582802D10120EF490870EC4800680A28C9
:1035100065DDEA4800685A2809D10020EA490870A8
:10352000EA490870EA490870EA49087057E0E34838
:10353000006841280AD10120E34908700020E349CE
:103540000870E3490870E349087048E0DB48006808
:1035500045280BD10020DC4908700120DB490870A8
:103560000020DB490870DB49087038E0D348006868
:10357000422807D0D1480068432803D0CF480068CC
:1035800044280AD10020D0490870D0490870D04999
:1035900008700120CF49087021E0C848006846281B
:1035A00007D0C6480068472803D0C44800684828A8
:1035B0000CD10020C4490870C44908700120C449D6
:1035C00008700020C349087009E01DE10020BE49D1
:1035D0000870BE490870BE490870BE490870B748F7
:1035E00000680A2862DAB548006848B90020B64980
:1035F0000870B6490870B6490870B649087055E0B9
:10360000AE480068012809D1AF4908700020AF49D1
:103610000870AF490870AF49087047E0A7480068D4
:1036200005280BD10020A84908700120A74908707F
:103630000020A7490870A749087037E09F48006834
:10364000022807D09D480068032803D09B480068E3
:1036500004280AD100209C4908709C4908709C49A4
:10366000087001209B49087020E0944800680628F3
:1036700007D092480068072803D0904800680828BF
:103680000BD10020904908709049087001209049A2
:10369000087000208F49087008E000208A490870EF
:1036A0008A4908708A4908708A49087084480078F5
:1036B0007B2802D1012088490870814800787D2844
:1036C00002D10220844908708348007801280AD179
:1036D0007B4800788149824A127888548048007873
:1036E000401C7F4908707C48007802286FD17B48D5
:1036F000C078502803D101207A49087071E07748DA
:10370000407823286DD0764800787749087035E0F6
:1037100073490978744A1278881A06F065FA0246E5
:103720000B46CDE900010020704905F039FA064644
:103730000F466D490978491E684A515CA1F1300075
:1037400006F052FA32463B46CDE9020106F0A0FAF5
:1037500004460D466648006806F0AAFD80462246EB
:103760002B4605F0F1FFCDE9040105F0BBFF6049F0
:1037700008605D480078401E5B4908705A48007830
:103780000428C5DA554840783038092828D2DFE8BF
:1037900000F0050A0F14191F24252600544800685C
:1037A000544908601CE0524800685349086017E01B
:1037B0004F4800685149086012E04D480068504980
:1037C00008600DE04A4800684E49086008E015E0CE
:1037D000474800684C49086002E001E000E000BF93
:1037E00000BF00203C4908703D4908703E49087000
:1037F0003F49086032213948FCF7DEFD01222E499D
:103800004248FFF74DFEB2E14149DAF80000884234
:10381000F9D140480478404800783A2848D2DFE897
:1038200000F01D328196A3B0F1FEEEEDFFEBEAE968
:10383000E8E7E6E5E4E3E2E1E0DFDEDDDCDBDAD980
:10384000D8D7D6D5D4D3D2D1D0CFCECDCCCBCAC970
:10385000C8C7C6C5C4C3C2C1C0BFBEBDA52C0CD19C
:103860002E4804702C480078401C2B4908702C48C6
:10387000007820442A49087004E000202649087096
:10388000274908706CE15A2C0CD124484470224816
:103890000078401C204908702148007820442049C5
:1038A000087004E000201C4908701D49087057E1A9
:1038B00055E1000000480040A2000020A4000020C4
:1038C000A3000020050000200100002002000020CD
:1038D0000300002004000020A8000020B8040020FD
:1038E000A90000203C000020AA0000200000244085
:1038F000AC000020480000204C00002050000020B8
:1039000054000020580000205C00002070040020BB
:1039100000440040A0000020B0000020F40B002074
:10392000B10000203A2C0CD1924884709248007863
:10393000401C914908709148007820448F490870D4
:1039400004E000208C4908708C49087008E189481F
:10395000C47089480078401C8749087087480078FF
:10396000204486490870FBE0824804718248007850
:10397000401C814908708148007820447F490870C4
:10398000EEE07C4844717C480078401C7A4908701D
:103990007A480078204479490870E1E0C5E0B6E053
:1039A000A7E08EE06BE049E08AE067E045E086E072
:1039B00063E041E082E05FE03DE07EE05BE039E033
:1039C0007AE057E035E076E053E031E072E04FE036
:1039D0002DE06EE04BE029E06AE047E025E066E09C
:1039E00043E021E062E03FE01DE05EE03BE019E003
:1039F0005AE037E015E056E033E011E052E02FE006
:103A00000DE0FFE75B4884715B480078401C5A4931
:103A100008705A480078204458490870A0E000BF58
:103A200000BF00BF00BF00BF00BF00BF00BF00BF9E
:103A300000BF00BF00BF00BF00BF00BF50480078FC
:103A400000EB40014B48C01D44544B480078401CDB
:103A500049490870494800782044484908707FE087
:103A600000BF00BF00BF00BF00BF00BF00BF00BF5E
:103A700000BF00BF00BF00BF00BF00BF00BF404885
:103A8000007800EB40013B48C01D084444703A48B0
:103A90000078401C3849087038480078204437497D
:103AA00008705DE000BF00BF00BF00BF00BF00BFE7
:103AB00000BF00BF00BF00BF00BF00BF00BF00BF0E
:103AC00000BF2F48007800EB40012A48C01D084481
:103AD000847029480078401C2749087027480078DE
:103AE00020442649087026480078401C2449087064
:103AF00036E0204880F837401F480078401C1E49B7
:103B000008701E48007820441C49087028E01948B5
:103B100080F8384018480078401C1749087017484A
:103B200000782044154908701AE0124880F839409E
:103B3000002011490870124908700E4890F83900A9
:103B40000E490978884202D102F04CFC03E03A2188
:103B50000848FCF731FC00200849087000E000BF6D
:103B600000BF012207490848FFF79AFC00BF06B0D2
:103B7000BDE8F087F40B0020B0000020B100002069
:103B8000B2000020A000002028040020704700BFE1
:103B9000FEE770B505460E46002400F0D3F828462F
:103BA00000F09EF8641C00F025F9304600F098F80B
:103BB000641C00F01FF900F0C5F8691CC8B200F0E1
:103BC0008FF8641C00F016F9002000F051F804464C
:103BD00000F0ECF8204670BD10B500200E490860DA
:103BE0000E48006820F0F0000C49086008460068A4
:103BF00040F03000086000200949C1F8A40101200C
:103C000002F0CCFD01200449086002F0C7FD00204D
:103C10000349C1F8A00110BDA0812142040C01405C
:103C20000080214210B500200E4908600E4800684F
:103C300020F0F0000C4908600846006840F03000B1
:103C4000086001200949C1F8A40102F0A7FD012084
:103C50000449086002F0A2FD00200449C1F8A00157
:103C600010BD0000A0812142040C014000802142CF
:103C700070B5054600241748006820F0F00015498B
:103C800008600846006840F080000860002616E0E2
:103C9000002011490860022002F080FD01200F4938
:103CA000C1F8A0016006040E0B487C38006808B11A
:103CB000601CC4B2022002F071FD701CC6B2082E56
:103CC000E6DB15B1FFF788FF01E0FFF7ABFF204609
:103CD00070BD0000040C0140A081214200802142FF
:103CE00070B504461448006820F0F00012490860DE
:103CF0000846006840F03000086000200F49086066
:103D0000002516E0E0090D49091D08606006040E53
:103D1000012002F043FD01200949C1F8A00102F091
:103D20003DFD002005490860012002F037FD681CB8
:103D3000C5B2082DE6DB70BD040C0140A081214214
:103D40000080214210B51648006820F0F0001449A8
:103D500008600846006840F0300008600120114902
:103D600008601148D0F8240108B9002010BD0120D6
:103D70000C49091F086002F011FD00200A49C1F832
:103D8000A40108488038006808B10020EEE701204F
:103D900002F004FD00200349091F08600120E5E747
:103DA000040C0140A48121420080214210B50E483C
:103DB000006820F0F0000C4908600846006840F0F8
:103DC000300008600020094908600949C1F8A401D1
:103DD000012002F0E3FC0120044908600449C1F815
:103DE000A40102F0DBFC10BD040C0140A0812142C3
:103DF0000080214210B500241548006820F0F00032
:103E0000134908600846006840F0800008600120FF
:103E10001049086002F0C2FC01200F49C1F8A0015E
:103E200002F0BCFC0AE0601CC4B2322C03DDFFF7D8
:103E3000BDFF002010BD012002F0B0FC0548803815
:103E400000680028EFD10349091F08600120F1E74D
:103E5000040C0140A48121420080214270B5054636
:103E60000E46144631462846FFF793FE2070012087
:103E700070BDF8B506460F4614461D466A463946DB
:103E80003046FFF7EBFF2DB10120A0409DF8001058
:103E9000084305E00120A0409DF8001021EA000041
:103EA000C0B200909DF800203946304600F036F848
:103EB000F8BD2DE9F8430746884614461D46089E7E
:103EC0006A4641463846FFF7C9FF28B3601CFF2108
:103ED00001FA00F0C4F108012944491EFF220A41F9
:103EE000104300F0FF09C5F1080006FA00F0C6B261
:103EF000C4F1070006419DF8000000EA09000090A7
:103F00009DF80000304300909DF80020414638465F
:103F100000F004F8BDE8F8830020FBE737B504465D
:103F20000D4602AB01222946204600F001F83EBDB5
:103F30002DE9F04180460D4616461F460024FFF746
:103F400001FF4046FFF7CCFEFFF754FF2846FFF77E
:103F5000C7FEFFF74FFF00BF06E0385DFFF7C0FE6A
:103F6000FFF748FF601CC4B2B442F6DBFFF71EFF48
:103F70000120BDE8F081000000B585B0002001906F
:103F800002900390049000BF1E48806940F0080032
:103F90001C4988610846806900F00800009000BF55
:103FA00000BF00BF0846806940F0100088610846E5
:103FB000806900F01000009000BF00BF0120019058
:103FC00000200290012003900220049001A90E48D5
:103FD000FDF7B0FA4FF40050019001A90B48FDF72E
:103FE000A9FA4FF48040019001A90848FDF7A2FA10
:103FF0004FF40040019001A90448FDF79BFA05B079
:1040000000BD000000100240000801400010014007
:1040100001464906084A926942F00102064B9A613C
:10402000064A526822F0E062044B5A601A4652680F
:104030000A435A607047000000100240000001402F
:1040400000B585B00020019002900390049000BF5D
:104050000D48806940F004000B498861084680697A
:1040600000F00400009000BF00BF2020019000205D
:104070000290012003900220049001A90348FDF75B
:1040800059FA05B000BD00000010024000080140D0
:104090002DE9F05F05460C46894E8A4F4FF07C585B
:1040A0004FF0010988480168204606F035FC834638
:1040B00086480168584606F027FB82468448016816
:1040C000504606F021F9824908608248416830462E
:1040D00006F022FC82467F488168504606F01CFCB0
:1040E0007D4908607B48C06880F00040486079489E
:1040F000C06880F0004088600846C760086873495F
:10410000096806F001FB824672480168504606F0D5
:10411000FBF870490860704948686C49096806F006
:10412000F3FA82466B484168504606F0EDF869495B
:104130004860694988686549096806F0E5FA824679
:1041400064488168504606F0DFF862498860624939
:10415000C8685E49096806F0D7FA82465D48C168BA
:10416000504606F0D1F85B49C860594801682846B6
:1041700006F0D2FB59490860484606F07DFA8246AF
:1041800054480168504606F0BFFA55490860484651
:1041900006F072FA82464F488168504606F0B4FA3B
:1041A00050490860484606F067FA83464C48016863
:1041B000584606F0A9FA8246414606F0A5F84A4953
:1041C0000860084601684648006806F00BF9474950
:1041D0000860454801684348006806F003F944490F
:1041E00008603F48006843490860484606F044FAC2
:1041F000824638484168504606F086FA3E490860D3
:104200003C4801683948006806F07EFA8246314829
:104210000168504606F075FB2E4908603648016873
:104220003248006806F070FA82462A4841685046D3
:1042300006F067FB274948602E4801682C48006853
:1042400006F062FA824623488168504606F059FB20
:1042500020498860284801682548006806F054FA1B
:1042600082461C48C168504606F04BFB1949C8609D
:104270001A4801681D48006806F046FA824614484C
:104280000168504606F040F811490860134801687B
:104290001748006806F038FA82460B480168504615
:1042A00006F032F80849086008460168204606F022
:1042B00033FB1249086006480068BDE8F09F000023
:1042C0006F12833AA69B443B540100204801002012
:1042D00050010020780100203813002058010020F0
:1042E0005C010020600100206401002068010020C2
:1042F0006C01002070010020740100204C0100209E
:104300002DE9F05F05460C46894E8A4F4FF07C58E8
:104310004FF0010988480168204606F0FDFA8346FF
:1043200086480168584606F0EFF9824684480168DD
:10433000504605F0E9FF82490860824841683046EE
:1043400006F0EAFA82467F488168504606F0E4FAB1
:104350007D4908607B48C06880F00040486079482B
:10436000C06880F0004088600846C76008687349EC
:10437000096806F0C9F9824672480168504605F09E
:10438000C3FF70490860704948686C49096806F0C5
:10439000BBF982466B484168504605F0B5FF694954
:1043A0004860694988686549096806F0ADF9824640
:1043B00064488168504605F0A7FF624988606249F9
:1043C000C8685E49096806F09FF982465D48C16881
:1043D000504605F099FF5B49C86059480168284676
:1043E00006F09AFA59490860484606F045F98246AF
:1043F00054480168504606F087F955490860484618
:1044000006F03AF982464F488168504606F07CF93A
:1044100050490860484606F02FF983464C48016829
:10442000584606F071F98246414605F06DFF4A494B
:104430000860084601684648006805F0D3FF474910
:104440000860454801684348006805F0CBFF4449CF
:1044500008603F48006843490860484606F00CF988
:10446000824638484168504606F04EF93E49086099
:104470003C4801683948006806F046F982463148F0
:104480000168504606F03DFA2E490860364801683A
:104490003248006806F038F982462A48416850469A
:1044A00006F02FFA274948602E4801682C4800681A
:1044B00006F02AF9824623488168504606F021FA20
:1044C00020498860284801682548006806F01CF9E2
:1044D00082461C48C168504606F013FA1949C86064
:1044E0001A4801681D48006806F00EF98246144813
:1044F0000168504605F008FF11490860134801683B
:104500001748006806F000F982460B4801685046DB
:1045100005F0FAFE0849086008460168204606F0E2
:10452000FBF91249086006480068BDE8F09F0000EA
:104530006F12833AA69B443B94010020480100205F
:1045400090010020B80100204813002098010020AD
:104550009C010020A0010020A4010020A80100204F
:10456000AC010020B0010020B40100208C0100202B
:1045700010B501F01FFF0446012C0CD1064800784D
:1045800008B9012000E000200349087008460178BE
:1045900002A0FBF761FE10BD06000020466C6167BB
:1045A0005F53746F703A25640D0A000018B900213A
:1045B000094A11600FE009490968491C074A11605E
:1045C000814208D104490968C943054AC2F8B411B7
:1045D0000021024A11607047B40122429C00002071
:1045E0000000224210B5022000F010F8032000F075
:1045F00021F8002000F014F8002000F037F8002027
:1046000000F02BF8002000F01FF810BD38B504466C
:10461000032302226B21D0200094FFF74AFC38BD0F
:1046200038B50446022304221C21D0200094FFF751
:1046300040FC38BD38B50446022304221B21D0209B
:104640000094FFF736FC38BD10B50446234601221E
:104650003721D020FFF70DFC10BD10B504462346CE
:1046600005226A21D020FFF704FC10BD10B50446D6
:10467000234606226B21D020FFF7FBFB10BD000074
:104680000EB5002000900190029012481249086077
:10469000002111488160017301754FF46021C161EF
:1046A00000200D49486001210B480161FCF7FCFC2A
:1046B00008B1FCF7C2F90920009001200190002008
:1046C000029069460448FCF73FFC08B1FCF7B5F9D5
:1046D0000EBD000000240140600200200EB5002045
:1046E0000090019002901248124908600021114880
:1046F0008160017301754FF46021C16100200D4993
:10470000486001210B480161FCF7CEFC08B1FCF7C1
:1047100094F9082000900120019000200290694641
:104720000448FCF711FC08B1FCF787F90EBD000046
:10473000002801409002002000B585B000200190C3
:1047400002900390049000BF3A48806940F0100046
:10475000384988610846806900F01000009000BF69
:1047600000BF00BF0846806940F02000886108460D
:10477000806900F02000009000BF00BF00BF084625
:10478000806940F0040088610846806900F00400F8
:10479000009000BF00BF00BF0846806940F00800DD
:1047A00088610846806900F00800009000BF00BFE3
:1047B00000224FF460412048FDF754F8002248F2EF
:1047C00010011E48FDF74EF800224FF238311C4808
:1047D000FDF748F848F210000190012002900020F7
:1047E00003900220049001A91448FCF7A3FE4FF2A5
:1047F00038300190012002900020039002200490A4
:1048000001A90F48FCF796FE4FF4805001900D4827
:1048100002900020039001A90848FCF78BFE0122BA
:1048200002212820FDF7D0F82820FDF79BF805B0DD
:1048300000BD0000001002400010014000080140CF
:10484000000C01400000111000B591B000200F9045
:1048500010901C2108A8FBF7D1FD20216846FBF72A
:10486000CDFD2B482B4908600020486000212948D5
:10487000816041F61F41C1600021016141618021D9
:104880008161FEF79AFA08B1FCF7D7F800200F9083
:1048900010900FA91F48FDF72DFD08B1FCF7CDF8CA
:1048A00060200890002009900A900B900C900D90C9
:1048B0000E90002208A91748FEF7FDF908B1FCF791
:1048C000BCF80C2208A91348FEF7F5F908B1FCF76B
:1048D000B4F80020009001900290039004904FF4EF
:1048E000005005900020079069460A48FDF7C8FC73
:1048F00008B1FCF7A2F800210648FEF7ABFA0C213C
:104900000448FEF7A7FA0348FEF7A8F911B000BD66
:10491000002C0140C002002000B587B000200590A7
:10492000069001900290039004904FF080401A4945
:104930000860472048600021174881604FF6FF71EA
:10494000C160002101618161FDF78FFF08B1FCF7B3
:1049500074F800200590069005A90F48FDF7CAFCE1
:1049600008B1FCF76AF800200190012002900020B5
:1049700003900490042201A90748FDF707FF08B13E
:10498000FCF75BF804210448FDF7ECFF0248FDF753
:10499000F3FC07B000BD00000803002000B58BB099
:1049A000242102A8FBF72AFD0020009001901C485A
:1049B0001C4908600020486000211A4881604FF6B9
:1049C000FF71C1600021016181610320029000201C
:1049D000039001200490002005900690079001208C
:1049E0000890002009900A9002A90E48FDF700FDEA
:1049F00008B1FCF722F800200090019069460948B0
:104A0000FDF778FC08B1FCF718F800210548FDF720
:104A1000C7FD04210348FDF7C3FD0BB000BD000036
:104A2000000400405003002000B58BB0242102A8F0
:104A3000FBF7E4FC0020009001901C481C49086032
:104A40000020486000211A4881604FF6FF71C16064
:104A50000021016181610320029000200390012068
:104A600004900020059006900790012008900020F7
:104A700009900A9002A90E48FDF7BAFC08B1FBF7AD
:104A8000DCFF00200090019069460948FDF732FCE8
:104A900008B1FBF7D2FF00210548FDF781FD042195
:104AA0000348FDF77DFD0BB000BD0000000800408D
:104AB0009803002010B50B480B4908604FF4E13013
:104AC0004860002108488160C16001610C2141619A
:104AD00000218161C161FEF7DFFB08B1FBF7ADFF8B
:104AE00010BD000000380140E003002010B50D4863
:104AF0000D4908604FF41650486000210A48816053
:104B0000C16001610C21416100218161C161FEF739
:104B1000C3FB08B1FBF791FF012204490248FEF7ED
:104B2000BFFC10BD0048004070040020A20000201F
:104B300000BFFEE700BFFEE703461846884200DDDF
:104B40000846904200DA10467047704708B5084999
:104B50000968C9084FF47A72B1FBF2F14143009140
:104B600000BF00BF00994A1E00920029F9D108BD7C
:104B7000880000202DE9F04F8FB00CA889490DABBB
:104B800008AACDE900108849884801F0AFFF8548A0
:104B9000008800F4807000287ED0089805F054FD4D
:104BA00004464FF09D4105F01DFC814908600998BD
:104BB00005F04AFD04464FF09D4105F013FC7D4988
:104BC00008600A9805F040FD04464FF09D4105F04D
:104BD00009FC794908600B9805F036FD04464FF052
:104BE0009D4105F0FFFB75490860714801684FF071
:104BF000804005F089FD06906F480168069805F031
:104C000083FD82466B4801684FF0404005F07CFD13
:104C100006906A480168069805F076FD834651467D
:104C200005F072FB079005F043FB804601F0ACF8FD
:104C300006464FF06632624B05F02AF8044604F04F
:104C400051FD604908605C4801684FF0804005F004
:104C50005BFD039058480168039805F055FD8246B6
:104C6000544801684FF0404005F04EFD0390514814
:104C70000168039805F048FD8346514605F04CFE57
:104C800081464FF07E5105F03FFB044605F010FBD6
:104C9000CDE90401464800E081E001684FF0804022
:104CA00005F032FD834643480168584605F02CFD67
:104CB0008146414801684FF0804005F025FD83465C
:104CC0003E480168584605F01FFD8246494605F0FA
:104CD0001BFB044605F0ECFA0746DDE9042301F06E
:104CE0009BFA4FF06632364BCDE9060104F0D0FF57
:104CF000054604F0F7FC3449086030480168006854
:104D000005F002FD03902C480168006805F0FCFCEA
:104D1000029028480168006805F0F6FC83462448A4
:104D20000168006805F0F0FC5946019005F0ECFAC6
:104D30008246029905F0F0FD8146039905F0ECFDED
:104D4000044605F0B5FACDE904011C48016818488D
:104D5000006805F0D9FC82461748016815480068CC
:104D600005F0D2FC8346514605F0CEFA81464FF05D
:104D7000804105F0C9FC044605F09AFA0746DDE9D2
:104D8000042301F049FA4FF066320D4BCDE90601DC
:104D900004F07EFF054604F0A5FC0C4908600FB046
:104DA000BDE8F08F04020020FE010020F801002081
:104DB00014020020180200201C0200202002002003
:104DC00066A64C40080200200C02002010020020C1
:104DD00010B50120164908600F2001F0DFFC00200B
:104DE0001449C1F88C011448007800F08000E8B143
:104DF0001148007800F03F0010490860084600881C
:104E000000040860084600680D49098808440B49F9
:104E1000086008460068AA2148434FF47A71B0FB45
:104E2000F1F00649086000200349088010BD000029
:104E30008C01214200002142740000203800002033
:104E4000760000200146032902D004290ED106E095
:104E5000084A126810B20022064B1A6008E0064A9F
:104E6000126810B20022044B1A6001E0002000BF5B
:104E700000BF704724040040240800402DE9F05F83
:104E80004221D020FEF785FE05464121D020FEF7C5
:104E900080FE05EB0024204605F0D6FB82464FF04D
:104EA0008E41504605F0FCFC05D24FF08F41504634
:104EB00005F032FD82460D49504605F093FA8346CF
:104EC00005F0F6F980460A4A0A4B04F03DFC064616
:104ED0000022094B04F0DCFE044604F003FC824689
:104EE000504605F075FBBDE8F09F00000000AA43A6
:104EF000A4703D0AD74342400000244070470000A0
:104F00002DE9F0478AB04FF0000AFBF725FFBE48B5
:104F1000007860B9BD48007848B9BD48007830B91C
:104F2000BC48007818B90020BB4908608FE0B6483B
:104F3000007801280CD1B548007848B9B448007809
:104F400030B9B448007818B9B448B34908607EE075
:104F5000AD48007868B9AD480078012809D1AC485F
:104F6000007830B9AB48007818B9AD48AA49086054
:104F70006DE0A548007870B9A448007858B9A448F5
:104F80000078012807D1A348007820B94FF07F505E
:104F9000A14908605BE09C48007870B99B480078A4
:104FA00058B99B48007840B99A480078012804D144
:104FB0009B4840429849086049E09348007801289E
:104FC0000ED19248007801280AD19148007838B96A
:104FD0009048007820B94FF040408F49086036E093
:104FE0008948007870B98948007858B988480078AD
:104FF000012807D187480078012803D18007864916
:10500000086024E08048007870B980480078012862
:105010000AD17F480078012806D17E48007818B967
:1050200000207D49086012E07748007801280ED101
:105030007648007801280AD175480078012806D101
:1050400074480078012802D1002073490860724832
:10505000006874490860704801687348006805F08A
:1050600053F971490860714801686B48006805F0A0
:1050700053FC6F4908606F496B48006805F010FCED
:1050800002D26C48684908606B496748006805F0BF
:1050900007FB02D26848644908606548006805F06B
:1050A00007F904460D466548006805F001F9804699
:1050B0000022634B04F004FC064622462B4604F013
:1050C000E7FDCDE906015848006805F0F1F804460F
:1050D0000D465C48006805F0EBF806460022584B88
:1050E00004F0EEFB804622462B4604F0D1FDCDE9CC
:1050F00002014C48006805F0DBF804460D465248B2
:10510000006805F0D5F8064600224D4B04F0D8FBA8
:10511000804622462B4604F0BBFDCDE90001DDE9C7
:10512000022304F011FBCDE90401DDE9062304F0BC
:105130000BFBCDE9080104F0D5FA82463648006839
:105140003A4908603448006805F0B2F821F000419F
:10515000044600224FF0804304F098FE19D83B48E3
:10516000007868BB3A4800683A4908600846006819
:1051700005F09EF804464FF06632374B04F088FD88
:10518000064604F0AFFA3249086001202F49087042
:1051900016E02148006805F08BF821F00041044634
:1051A00000224FF0804304F037FD09D227480078F1
:1051B00030B128480068264908600020234908705B
:1051C0002648008805F058FA0446514605F068FA6A
:1051D00004D22248008805F04FFA82461F48008812
:1051E000404205F031FA0446514605F059FB05D21C
:1051F0001A480088404205F027FA8246504605F0DA
:10520000E7F90AB0BDE8F0876000002061000020E7
:10521000620000206300002048020020000040C01F
:105220000000C0BF50020020540200204C020020A9
:10523000580200200000F0410000F0C16C00002086
:105240000000594068000020640000205C0200203B
:1052500070000020400200206666E63F4402002005
:1052600000B503460A46002B07DD012016490860F9
:1052700000201649C1F8BC0106E000201249086070
:1052800001201249C1F8BC01184603F081FC104905
:105290000860002A08DD01200B49091F0860002072
:1052A0000A49C1F8B00107E000200749091F08605A
:1052B00001200649C1F8B001104603F069FC044919
:1052C0000C31086000BD0000B881214200802142FD
:1052D000342C014010B5FCF7D1FA10BD00B593B0E5
:1052E000282109A8FBF78AF8142104A8FBF786F8FF
:1052F000002000900190029003900120099000048A
:105300000A9000200B9001200D9002201090C10304
:1053100011914FF4E011129109A8FCF763FD08B157
:10532000FBF78BFB0F2004900220059000200690D5
:105330004FF48060079000200890022104A8FCF739
:105340002DFC08B1FBF779FB02200090800302904E
:105350006846FCF78BFB08B1FBF76FFB13B000BD91
:105360007047000010B50248FDF7ACFB10BD00000F
:105370000803002010B50248FDF7A4FB10BD000093
:105380005003002010B50248FDF79CFB10BD000043
:105390009803002010B50268184B984208D0B0F16D
:1053A000804F05D0164B984202D0164B984203D13D
:1053B00022F070024B681A43104B984208D0B0F1AB
:1053C000804F05D00E4B984202D00E4B984203D12D
:1053D00022F44072CB681A4322F080034C6943EAFE
:1053E000040202608B68C3620B688362034B9842BD
:1053F00001D10B6903630123436110BD002C0140FF
:10540000000400400008004030B501F01F050124F1
:1054100004FA05F3046A9C430462046A01F01F0560
:1054200002FA05F52C43046230BD000030B5026A73
:10543000056A25F0010505624368846924F070045B
:1054400024F003040D682C4322F002028D682A43E5
:105450000D4DA84206D100BF22F00802CD682A43B4
:1054600022F00402084DA84207D123F4807323F4EC
:1054700000734D692B438D692B43436084614D68F4
:105480004563026230BD0000002C014030B5026A65
:10549000056A25F0100505624368846924F4E04438
:1054A00024F440740D6844EA052422F020028D683B
:1054B00042EA05120E4DA84207D100BF22F0800239
:1054C000CD6842EA051222F04002094DA84209D1F6
:1054D00023F4806323F400634D6943EA85038D69F7
:1054E00043EA8503436084614D688563026230BD91
:1054F000002C014030B5026A056A25F4807505620A
:105500004368C46924F0700424F003040D682C433C
:1055100022F400728D6842EA05220F4DA84207D19D
:1055200000BF22F40062CD6842EA052222F48062C4
:10553000094DA84209D123F4805323F400534D6947
:1055400043EA05138D6943EA05134360C4614D685E
:10555000C563026230BD0000002C014030B5036A13
:10556000056A25F4805505624468C26922F4E04268
:1055700022F440720D6842EA052223F400538D683C
:1055800043EA0533064DA84204D124F480444D6912
:1055900044EA85144460C2614D680564036230BD0D
:1055A000002C014070B50C461546026A066A26F0CA
:1055B000010606628169124EB04208D0B0F1804FF8
:1055C00005D0104EB04202D00F4EB04201D101269C
:1055D00000E000261EB121F00301294301E041F063
:1055E000010121F0F001F02606EA0316314322F012
:1055F0000A0204F00A0632438161026270BD0000B3
:10560000002C0140000400400008004070B50C462A
:105610001546026A066A26F010060662816921F4C0
:10562000407141EA052121F470414FF4704606EAC9
:105630000336314322F0A002A02606EA04163243C4
:105640008161026270BD70B50C461546026A066A39
:1056500026F480760662C16921F00301294321F016
:10566000F001F02606EA0316314322F400724FF4EB
:10567000007606EA04263243C161026270BD70B54D
:105680000C461546026A066A26F480560662C1690F
:1056900021F4407141EA052121F470414FF4704634
:1056A00006EA0336314322F400524FF4005606EA6C
:1056B00004363243C161026270BD70B505466C6A42
:1056C0000020E085E0842046FDF773FC70BD00BF3C
:1056D00000BF02680C3252E8002F22F49071026879
:1056E0000C3242E80013002BF3D100BF00BF00BF13
:1056F0000268143252E8002F22F0010102681432CD
:1057000042E80013002BF3D100BF016B01290ED139
:1057100000BF00BF02680C3252E8002F22F01001D7
:1057200002680C3242E80013002BF3D100BF2021A5
:1057300080F8421000210163704710B504462068CC
:10574000C06820F040002168C860202084F8410033
:105750002046FEF71BFA002010BDF8B5044694F869
:105760004200222875D1A068B0F5805F0CD1206975
:1057700050B90025A66A20684068C0F30800308050
:10578000A06A801CA06215E0A56A0026A068B0F59A
:10579000805F03D0A06828B9206918B920684068E4
:1057A000287004E02068406800F07F002870A06A3C
:1057B000401CA062E08D401E80B2E085002846D1EA
:1057C0002068C06820F020002168C8602068C06898
:1057D00020F480702168C8602068406920F00100D2
:1057E00021684861202084F8420000206063206B1B
:1057F000012826D10020206300BF00BF21680C31A2
:1058000051E8001F21F0100021680C3141E800022E
:10581000002AF3D100BF2068006800F010001028B3
:105820000AD100BF00200090206800680090206826
:105830004068009000BF00BFA18D2046FDF7B8FB77
:1058400002E02046FDF742FE0020F8BD01E0002006
:10585000FBE70220F9E7000070B5044621680969FA
:1058600021F44051E2681143226811612269A16864
:105870001143626941EA02052168C96841F20C627C
:10588000914329432268D1602168496921F440711C
:10589000A2691143226851612D4A2168914202D1C7
:1058A000FCF758FA01E0FCF745FA00EBC00101EB08
:1058B000001162689200B1FBF2F100EBC00202EB52
:1058C000001263689B00B2FBF3F26423B2FBF3F2B5
:1058D00002EBC20303EB0212A1EB8201322202EBC4
:1058E00001116422B1FBF2F101F0F00100EBC00202
:1058F00002EB001263689B00B2FBF3F26423B2FB7D
:10590000F3F201EB021200EBC00101EB001163683E
:105910009B00B1FBF3F100EBC00303EB00136668DF
:10592000B600B3FBF6F36426B3FBF6F303EBC30652
:1059300006EB0313A1EB8301322303EB0111642374
:10594000B1FBF3F101F00F0111442268916070BDC9
:105950000038014010B5034699629A85DA85002027
:105960005864222083F84200186928B11868C0687A
:1059700040F480701C68E0601868406940F00100E5
:105980001C6860611868C06840F020001C68E06016
:10599000002010BD014691F84100212828D18868D7
:1059A000B0F5805F0BD1086948B90A6A1088C0F366
:1059B00008000B685860086A801C086205E00B6AE2
:1059C000581C086218780B685860C88C401E80B25A
:1059D000C88458B90868C06820F080000B68D86097
:1059E0000868C06840F040000B68D860002070472D
:1059F0000220FCE710B50248FDF7DCFA10BD0000FC
:105A0000E003002010B50248FDF7D4FA10BD0000F5
:105A10002804002010B50248FDF7CCFA10BD0000A4
:105A20007004002000BFFEE72DE9FC5F04468946B4
:105A300004EB090004F008FE05464FF0804142489F
:105A4000006804F061FE0646294604F065FF3F4900
:105A500008603F48006804F02BFC07463D4A3E4B77
:105A600004F016F9054603F03DFE39490860374851
:105A7000006804F01DFC0746384A394B04F008F969
:105A800005460E463248006804F012FC82462A465B
:105A9000334603F059FECDE9000103F023FE2C4903
:105AA0000860084601682F48006804F02DFC2D4965
:105AB00008602D4801682B48006804F025FC29493E
:105AC00008602A492748006804F0EAFE02D2274805
:105AD0002449086026492348006804F0E1FD02D209
