:020000040800F2
:10000000580B0020D1010008CD4600082D3700080C
:10001000C946000845070008055700080000000011
:10002000000000000000000000000000214A00085D
:10003000450A000800000000E3460008054F0008DC
:10004000EB010008EB010008EB010008EB010008E0
:10005000EB010008EB010008EB010008EB010008D0
:10006000EB010008EB010008EB010008EB010008C0
:10007000EB010008EB010008EB010008EB010008B0
:10008000EB010008EB010008EB010008EB010008A0
:10009000EB010008EB010008EB010008EB01000890
:1000A000EB010008EB010008EB010008EB01000880
:1000B000954F0008A54F0008B54F0008EB01000858
:1000C000EB010008EB010008EB010008EB01000860
:1000D000EB010008B9560008C9560008D9560008B7
:1000E000470A0008EB010008EB01000800F002F8E5
:1000F00000F05FF80AA090E8000C82448344AAF163
:100100000107DA4501D100F054F8AFF2090EBAE860
:100110000F0013F0010F18BFFB1A43F0010318473B
:10012000E8B2000008B300000A444FF0000C10F8D9
:10013000013B13F0070408BF10F8014B1D1108BF65
:1001400010F8015B641E05D010F8016B641E01F805
:10015000016BF9D113F0080F1EBF10F8014BAD1C55
:100160000C1B09D16D1E58BF01F801CBFAD505E073
:1001700014F8016B01F8016B6D1EF9D59142D6D3CD
:10018000704700000023002400250026103A28BFF5
:1001900078C1FBD8520728BF30C148BF0B607047F9
:1001A000642900F09980002070471FB51FBD10B56D
:1001B00010BD00F05FFA1146FFF7F7FF07F0F8F9FE
:1001C00000F07DFA03B4FFF7F2FF03BC05F02CFC4E
:1001D0000948804709480047FEE7FEE7FEE7FEE7DB
:1001E000FEE7FEE7FEE7FEE7FEE7FEE70448054917
:1001F000054A064B70470000914F0008ED000008CB
:1002000058050020580B00205807002058070020F0
:1002100010B54C1084EA530404D54042C1F10001EA
:1002200038BF491E1B4204D55242C3F1000338BFF8
:100230005B1E00F00DF914F0804F04D04042C1F174
:10024000000138BF491E14F0004F04D05242C3F1E0
:10025000000338BF5B1E10BD0FB4044910B503AADC
:10026000029800F0D1F910BC5DF814FB800000206A
:100270002DE9F0410E460446002020622046E16848
:10028000884730B3252805D0D4E901219047206A5A
:10029000401CF2E7E168204600278847050018D097
:1002A000A5F14100192802D820354FF400673246E5
:1002B000294620462760FFF773FF40B1012804D08C
:1002C000F61D26F007060836D8E7361DD6E728467D
:1002D000DAE7206ABDE8F0812DE9F0410646002406
:1002E00010687529314616A510D0AFF3008000289C
:1002F00002DA404213A507E031688A0701D512A54A
:1003000002E0490704D511A5012401E0AFF3008004
:1003100000210A2206F1240709E0B0FBF2FCB0FB41
:10032000F2F302FB1C00303078541846491C0028B8
:10033000F3D123462A463046BDE8F04100F00AB921
:10034000000000002D0000002B0000002000000035
:1003500040EA010310B59B070FD1042A0DD310C842
:1003600008C9121F9C42F8D020BA19BA884201D994
:10037000012010BD4FF0FF3010BD1AB1D30703D0DC
:10038000521C07E0002010BD10F8013B11F8014B92
:100390001B1B07D110F8013B11F8014B1B1B01D1AE
:1003A000921EF1D1184610BD02F0FF0343EA03226A
:1003B00042EA024200F002B84FF000020429C0F005
:1003C000128010F0030C00F01B80CCF1040CBCF187
:1003D000020F18BF00F8012BA8BF20F8022BA1EBD9
:1003E0000C0100F00DB85FEAC17C24BF00F8012BBE
:1003F00000F8012B48BF00F8012B70474FF00002B6
:1004000000B5134694469646203922BFA0E80C500A
:10041000A0E80C50B1F12001BFF4F7AF090728BFE5
:10042000A0E80C5048BF0CC05DF804EB890028BF61
:1004300040F8042B08BF704748BF20F8022B11F08A
:10044000804F18BF00F8012B704770477047704706
:1004500053EA020C00F069802DE9F04B4FF00006E2
:10046000002B1FBFB3FA83F503FA05F424FA05F64F
:100470005E4012BF1643B2FA82F502FA05F4C5F1E6
:1004800020051EBF22FA05FC44EA0C04203556EA7A
:10049000044C4FEA144418BF641C4FF000084FF09E
:1004A0000009904271EB030C39D3002919BFB1FA4E
:1004B00081F701FA07F6B0FA80F700FA07F6C7F1FC
:1004C00020071EBF20FA07FC46EA0C062037B6FBC1
:1004D000F4FCA7EB0507103F07F01F0BCBF120063C
:1004E0000CFA0BFB2CFA06F644BFB3460026202F6D
:1004F000A4BF5E464FF0000B5BEA060C08BF4FF04E
:10050000010B19EB0B09ABFB027C48EB0608C01B87
:1005100006FB02CC0BFB03CC71EB0C01C1E70B46D5
:10052000024641464846BDE8F08B13B54FF0000047
:100530004FF00001AFF30080BDE81C40704710B5DC
:1005400000F074F8006810BD10B5044600F06EF8B5
:10055000046010BD2DE9F0470D46994692460446C9
:1005600000F124080168880604D5E06921F0100133
:10057000216000E00120A84201DD471B00E00027C8
:10058000A1697A1902EB0900081AA0612078C00657
:1005900002D42046AFF30080002608E0D4E9012110
:1005A0001AF806009047206A401C761C20624E45CF
:1005B000F4DB2078C0060AD52046AFF3008006E0C1
:1005C000D4E9012130209047206A401C2062381E67
:1005D000A7F10107F4DC07E0D4E9012118F80500D0
:1005E0009047206A401C2062281EA5F10105F3DC1B
:1005F0002046AFF300802078000602D50220BDE837
:10060000F0870120FBE70000074B70B50D467B44E7
:1006100000F015F80446284600F024F810B14FF019
:10062000FF3070BD204670BD07680000004870476D
:10063000F804002001694A1C02610878704700B57F
:100640008FB0CDE901310021059105497944CDE90B
:10065000031011466846FFF70BFE0FB000BD000007
:10066000E5FFFFFF007B00F0800070470048704707
:10067000F80400207546FFF7F9FFAE46050069460D
:10068000534620F00700854618B020B5FFF7AEFDB1
:10069000BDE820404FF000064FF000074FF0000883
:1006A0004FF0000B21F00701AC46ACE8C009ACE804
:1006B000C009ACE8C009ACE8C0098D46704710B568
:1006C0000446AFF300802046BDE81040FFF77ABD36
:1006D00070B5044600252068806800F0010018B35A
:1006E0002068806820F001002168886001F092F89D
:1006F000054613E001F08EF8401B02280ED9206851
:10070000806800F0010048B1A06A40F01000A062CB
:10071000E06A40F00100E062012070BD206880685E
:1007200000F001000028E5D10020F6E710B56423B1
:1007300023220249024802F09FFF10BDA8000020BA
:100740006004002000BFFEE72DE9F05F05460C467F
:10075000124E13480168204609F044FD83461148B3
:100760000168584609F03EFB804631464FF07E5006
:1007700009F040FE8246414609F034FD0746314605
:10078000284609F02FFD8146394609F02BFB054923
:10079000086008460068BDE8F09F00000AD7A33C47
:1007A00034010020740100202DE9F05F05460C465D
:1007B000124E13480168204609F014FD8346114883
:1007C0000168584609F00EFB804631464FF07E50D6
:1007D00009F010FE8246414609F004FD0746314605
:1007E000284609F0FFFC8146394609F0FBFA054925
:1007F000086008460068BDE8F09F00000AD7A33CE7
:1008000034010020B401002038B500200090012000
:10081000384908706B4601227521682006F022FED7
:1008200035A0FFF719FD9DF8000068281DD000BF16
:1008300000BF00BF00BF00BFBFF34F8F00BF00BFAE
:1008400000BF3648006800F4E06035490843001DE9
:100850003249086000BF00BF00BFBFF34F8F00BF29
:1008600000BF00BF00BF00BFFDE707F04DF8002844
:100870003CD1782007F052FE10B91FA0FFF7ECFC26
:10088000782006F02FFF10B926A0FFF7E5FCC8205E
:1008900007F0F6FD10B92DA0FFF7DEFC05F058FEBD
:1008A00010B934A0FFF7D8FC3F4806F046FE0446D6
:1008B00006F0A8F810B93DA0FFF7CEFC40F2731087
:1008C00005F0EEFC10B943A0FFF7C6FCC82005F008
:1008D000C9FF10B949A0FFF7BFFC08F0BBFB01201E
:1008E00007F0CAFC10B94EA0FFF7B6FC0120014981
:1008F000087038BD070000206D70755F7365745F08
:1009000073656E736F7220636F6D706C65746520B4
:100910002E2E2E2E2E2E0D0A000000000CED00E0D3
:100920000000FA056D70755F636F6E6669677572BA
:10093000655F6669666F20636F6D706C65746520B6
:100940002E2E2E2E2E2E0D0A000000006D70755FCB
:100950007365745F73616D706C655F72617465203F
:10096000636F6D706C657465202E2E2E2E2E2E0DED
:100970000A000000646D705F6C6F61645F6D6F747E
:10098000696F6E5F6472697665725F6669726D77B2
:1009900061726520636F6D706C657465202E2E2EFC
:1009A0002E2E2E0D0A00000010020020646D705FD4
:1009B0007365745F6F7269656E746174696F6E20C0
:1009C000636F6D706C657465202E2E2E2E2E2E0D8D
:1009D0000A000000646D705F656E61626C655F6641
:1009E00065617475726520636F6D706C65746520E8
:1009F0002E2E2E2E2E2E0D0A00000000646D705F2C
:100A00007365745F6669666F5F7261746520636F9A
:100A10006D706C657465202E2E2E2E2E2E0D0A0004
:100A20006D70755F7365745F646D705F737461740E
:100A30006520636F6D706C657465202E2E2E2E2ED2
:100A40002E0D0A00704710B54FF4805000F036FDAF
:100A500010BD72B600BFFEE72DE9F04F91B08046A1
:100A600003F09EFFB4490860B8F1010F1BD103F0F9
:100A70004DFEB2480068B2490860B249B1F90000C1
:100A800009F050FBB0490860AE49B1F9040009F023
:100A900049FBAE490860AE49B1F9040009F042FBD8
:100AA000AC49086044E14421D02002F041FE834675
:100AB0004321D02002F03CFE0BEB0020099009F00E
:100AC00031FB06464621D02002F032FE8346452106
:100AD000D02002F02DFE0BEB0020099009F022FB44
:100AE0000A904821D02002F023FE83464721D020DF
:100AF00002F01EFE0BEB0020099009F013FB0746E5
:100B00003C21D02002F014FE83463B21D02002F08D
:100B10000FFE0BEB0020099009F004FB0D903E2125
:100B2000D02002F005FE83463D21D02002F000FED9
:100B30000BEB0020099009F0F5FA82464021D02005
:100B400002F0F6FD83463F21D02002F0F1FD0BEBD1
:100B50000020099009F0E6FA05464FF08E41304634
:100B600009F00CFC05D24FF08F41304609F042FCF1
:100B700006464FF08E410A9809F000FC05D24FF06E
:100B80008F410A9809F036FC0A904FF08E413846A2
:100B900009F0F4FB05D24FF08F41384609F02AFCEA
:100BA00007464FF08E410D9809F0E8FB05D24FF053
:100BB0008F410D9809F01EFC0D904FF08E4150466C
:100BC00009F0DCFB05D24FF08F41504609F012FCD2
:100BD00082464FF08E41284609F0D0FB05D24FF0F7
:100BE0008F41284609F006FC054686F0004056492C
:100BF0000860284609F0CAF8CDE90201504609F01C
:100C0000C5F8CDE90001DDE9022305F0ABF90022CA
:100C1000514BCDE9040108F0A9FD504A504BCDE9F4
:100C2000060108F0BBFBCDE9080108F0C9FA0C90F9
:100C3000284609F0ABF8CDE902010D9809F0A6F8B5
:100C4000CDE90001DDE9022305F08CF90022424BD9
:100C5000CDE9040108F08AFD404A414BCDE9060187
:100C600008F09CFBCDE9080108F0AAFA0B904FF0C0
:100C70008D410D9809F024F910904FF08D415046A8
:100C800009F01EF90F904FF08D41284609F018F930
:100C90000E90304609F07AF84FF06632314BCDE9CC
:100CA000060108F07BFBCDE9080108F089FA8146CE
:100CB0000A9809F06BF84FF066322A4BCDE906012D
:100CC00008F06CFBCDE9080108F07AFA04462648E2
:100CD0000078022810D149460C9802F0C1FF80F03C
:100CE00000401649086021460B9803F0F1F880F0A7
:100CF00000401E49086013E01B48007803280FD10C
:100D000049460C98FFF720FD80F000400B49086031
:100D100021460B98FFF748FD80F00040134908601A
:100D200006480068064908600848076009480560E9
:100D300011B0BDE8F08F000010000020F801002085
:100D40001C000020E40100202000002024000020DE
:100D5000EA0100204000002000806640F1D4C85322
:100D6000FB2109406666304000000020F4010020AD
:100D700010B50121104800F03FFD104908704FF4F4
:100D800000510F4800F038FD0E49087020210E4830
:100D900000F032FD0D4908704FF48041084800F022
:100DA0002BFD0B4908704FF40041054800F024FD6D
:100DB0000849087010BD00000008014060000020D4
:100DC0000010014061000020000C01406200002082
:100DD00063000020640000202DE9F04F87B08346B7
:100DE0008A46584608F06EFC00222E4BCDE90001E1
:100DF00008F0BCFC064600222B4B08F0CFFA8046D8
:100E000000222A4B08F0CAFA04460022284B08F0B8
:100E1000C5FACDE9020108F0D3F90590059808F06C
:100E2000B5FF8046234A244B08F0A0FC064600226A
:100E3000224B08F09BFC044608F0C2F920490860E8
:100E4000504608F03FFC0022164BCDE9000108F0A7
:100E50008DFC80460022144B08F0A0FA06460022C2
:100E6000124B08F09BFA0022114BCDE9020108F069
:100E700095FA044608F0A4F90490049808F086FF57
:100E800006460C4A0C4B08F071FC044600220B4B42
:100E900008F06CFC804608F093F90A49086007B036
:100EA000BDE8F08F000069400000104000003E40A7
:100EB00000002A40F1D4C853FB21094000C0504033
:100EC000200200202402002038B502460023002022
:100ED000009000BF92F82400012801D1022038BD03
:100EE000012082F8240000BF4868072812D2106849
:100EF000406B0C79641E04EB84051F24AC40A043B6
:100F00000D796D1E05EB85050C68AC402043146817
:100F1000606327E048680D2812D21068006B0C79D6
:100F2000E41F04EB84051F24AC40A0430D79ED1FA2
:100F300005EB85050C68AC4020431468206311E084
:100F40001068C06A0C790D3C04EB84051F24AC408A
:100F5000A0430D790D3D05EB85050C68AC402043A1
:100F60001468E06208680A2812D31068C0680C7818
:100F70000A3C04EB44050724AC40A0430D780A3D2D
:100F800005EB45058C68AC4020431468E0600FE039
:100F9000106800690C7804EB44050724AC40A043BA
:100FA0000D7805EB45058C68AC4020431468206142
:100FB0000868102802D00868112827D1174C10683B
:100FC000A0421ED11068806800F40000F0B91068DB
:100FD000806840F400001468A0600868102815D1EB
:100FE0000F4800680F4CB0FBF4F000EB80004000AD
:100FF000009002E00098401E009000980028F9D16F
:1010000004E0906A40F020009062012300BF0020BD
:1010100082F8240000BF184661E700000024014068
:101020009000002040420F002DE9F04104460027C7
:1010300000250026A84614B90120BDE8F081A0686B
:1010400010B1207D00B100BFA06A30B90020E0627D
:1010500084F82400204600F089F82046FFF738FB8A
:101060000746A06A00F01000002873D1002F71D14C
:10107000A06A20F4885040F00200A062E169606834
:101080000843217B40EA41000643A068B0F5807F19
:1010900002D0A068012802D14FF4807000E0002047
:1010A0000543207D012811D1207B38B9A069401E5D
:1010B0004FF4006141EA4030054307E0A06A40F088
:1010C0002000A062E06A40F00100E0622068406811
:1010D00020F46940284321684860206880682149DD
:1010E0000840304321688860A068B0F5807F02D056
:1010F000A068012802D14FF4807000E00020B0F514
:10110000807F03D1208A401E4FEA00582068C06AC1
:1011100020F4700040EA08002168C86220688068F6
:1011200011490840B04208D10020E062A06A20F0D6
:10113000020040F00100A06211E0A06A20F002006D
:1011400040F01000A062E06A40F00100E062012778
:1011500005E0FFE7A06A40F01000A06201273846D2
:101160006BE70000FDF7E1FFFE0E1FFF10B586B034
:1011700004460020029003900490059028492068BE
:10118000884223D100BF2748806940F40070254978
:1011900088610846806900F40070019000BF00BFBC
:1011A00000BF0846806940F00800886108468069F1
:1011B00000F00800019000BF00BF02200290032051
:1011C000039002A9184800F087F926E01749206823
:1011D000884222D100BF1348806940F480601149E1
:1011E00088610846806900F48060019000BF00BFFC
:1011F00000BF0846806940F00800886108468069A1
:1012000000F00800019000BF00BF01200290032001
:10121000039002A9044800F05FF906B010BD000079
:101220000024014000100240000C01400028014051
:101230000146002291F82100022808D0042088638A
:1012400000BF002081F8200000BF0120704708681F
:10125000006820F00E000B6818600868006820F035
:1012600001000B68186091F8403001209840CB6B6A
:101270005860012081F8210000BF002081F8200083
:1012800000BF1046E2E7000070B50446002594F860
:101290002100022803D00420A063012548E0206833
:1012A000006820F00E00216808602068006820F0C7
:1012B0000100216808601F492068884201D101208F
:1012C00026E01C4914312068884201D110201FE01B
:1012D000184928312068884201D1801518E0154945
:1012E0003C312068884201D1801411E0114950310D
:1012F0002068884202D14FF4803009E00D49643102
:101300002068884202D14FF4801001E04FF08070D5
:10131000084908394860012084F8210000BF0020F6
:1013200084F8200000BF606B10B12046616B8847D5
:10133000284670BD080002402DE9F0470446B4F588
:10134000805F7DD14E48007808B9012000E0002080
:101350004B4908704B480078FFF77EFB032003F0F1
:1013600003FB49490860042003F0FEFA4042474964
:1013700008600846016844480068FFF72DFD4448AE
:10138000007801280ED143480078401C414908707C
:10139000084600780A2805D1002008703C490870EA
:1013A0003D49087002F0CCFE3848016836480068B4
:1013B00004F0AAF903F036FB3849086008460068D3
:1013C00008F0B0FE81463648008808F0C3FE824629
:1013D000344908F075FD0746494608F003FF064604
:1013E0003148006808F09EFE8046314609F002F858
:1013F000054608F05BFE2D4908602848006808F0A3
:1014000091FE81462648008808F0A4FE82462549C0
:1014100008F056FD0746494608F0E4FE0646224815
:10142000006808F07FFE8046314608F0DBFC054688
:1014300008F03CFE1E4908601E4A51421B4800E06D
:101440001BE0006803F044F918490860194A51424A
:101450001748006803F03CF9154908601648007801
:10146000012804D10021084603F012FD05E01048D0
:1014700001680E48006803F00BFDBDE8F08700002E
:10148000F000002000000020DC000020E000002030
:10149000440000204500002028000020EC0000202F
:1014A0007800002000007A44E800002008000020B6
:1014B0000C0000200CE5FFFF0600002010B50446DC
:1014C00004480068204020B1024804602046FFF72D
:1014D00033FF10BD140401402DE9F84703460022F4
:1014E00094466EE14FF0010808FA02F4D1F800804A
:1014F00008EA0400A0427DD1DFF8DCA2D1F8048024
:10150000A8EB0A09D0453AD014DCB8F1030F50D04B
:1015100009DCB8F1000F31D0B8F1010F1CD0B8F1DF
:10152000020F49D120E0B8F1110F18D0B8F1120F15
:1015300042D11EE0B9F5881F25D006DCB9F5803F01
:1015400020D0B9F5801F37D11AE0B9F5001F18D0A7
:10155000B9F5041F30D117E0D1F80CC02DE0D1F857
:101560000C8008F1040C28E0D1F80C8008F1080C7C
:1015700023E0D1F80C8008F10C0C1EE000BF00BF86
:1015800000BF00BF00BF00BFD1F80880B8F1000F56
:1015900002D14FF0040C0BE0D1F80880B8F1010F34
:1015A00003D14FF0080C1C6102E04FF0080C5C61A5
:1015B00003E04FF0000C00E000BF00BFFF2801D89F
:1015C000984601E003F104084646FF2802D84FEA96
:1015D000820803E0A2F108084FEA88084746D6F8D7
:1015E00000804FF00F0909FA07F928EA09080CFAF8
:1015F00007F900E088E048EA0908C6F80080D1F859
:10160000048008F08058B8F1805F7DD100BFDFF81A
:10161000CC81D8F8188048F00108DFF8C091C9F8EB
:101620001880C846D8F8188008F00108CDF8008066
:1016300000BF00BF4FEAB9384FEA920958F8295065
:101640004FEA82784FEA18794FF00F0808FA09F844
:1016500025EA0805DFF88881434502D14FF00008EC
:1016600016E0DFF88081434502D14FF001080FE01A
:10167000DFF87481434502D14FF0020808E0DFF83B
:101680006C81434502D14FF0030801E04FF004089C
:101690004FEA82794FEA197908FA09F848EA05050C
:1016A000DFF84C814FEA920948F82950D1F80480BC
:1016B00008F48018B8F5801F0AD1DFF83881D8F80F
:1016C000008048EA0008DFF82C91C9F8008009E0A2
:1016D000DFF82081D8F8008028EA0008DFF81491AC
:1016E000C9F80080D1F8048008F40018B8F5001F8C
:1016F00010D1DFF8008108F10408D8F8008048EA2A
:101700000008DFF8F09000E05AE009F10409C9F898
:1017100000800DE0DFF8DC8008F10408D8F80080D4
:1017200028EA0008DFF8CC9009F10409C9F8008024
:10173000D1F8048008F40038B8F5003F0ED1DFF886
:10174000B480A8F10408D8F8008048EA0008DFF85F
:10175000A490A9F10409C9F800800DE0DFF8948095
:10176000A8F10408D8F8008028EA0008DFF884907F
:10177000A9F10409C9F80080D1F8048008F4803880
:10178000B8F5803F0ED1DFF86C80A8F10808D8F8D2
:10179000008048EA0008DFF85C90A9F10809C9F860
:1017A00000800DE0DFF84C80A8F10808D8F8008030
:1017B00028EA0008DFF83C90A9F10809C9F8008080
:1017C000521CD1F8008028FA02F8B8F1000F7FF41B
:1017D00089AEBDE8F887000000001110001002403B
:1017E00000080140000C01400010014000140140BD
:1017F0000800014008040140024693680B400BB109
:10180000012000E0002070470AB1016101E00B04F3
:1018100003617047014800687047000084000020A1
:101820000348006803490978084401490860704783
:10183000840000208C00002010B50848006840F0AB
:10184000100006490860032000F0CEF8002000F0E8
:1018500007F800F02BF8002010BD00000020024027
:1018600070B504460E4800784FF47A71B1FBF0F081
:101870000C490968B1FBF0F5284600F0B7FC08B147
:10188000012070BD102C07D200222146501E00F00E
:101890006DF80548046001E00120F2E70020F0E760
:1018A0008C000020900000208800002008B500BFB8
:1018B0001348806940F00100114988610846806939
:1018C00000F00100009000BF00BF00BF0846C069E3
:1018D00040F08050C8610846C06900F08050009018
:1018E00000BF00BF052000F07FF800BF0549486831
:1018F00020F0E06040F08060486000BF08BD00005C
:10190000001002400000014010B5014608460028C2
:1019100017DB00F01F0301229A400B4B440943F8E8
:10192000242000BF00BF00BFBFF34F8F00BF00BF28
:1019300000BF00BF00BF00BFBFF36F8F00BF00BF7D
:1019400000BF00BF10BD000080E100E00146084676
:10195000002809DB00F01F0301229A4043099B0085
:1019600003F1E023C3F8002100BF70472DE9F05FC9
:1019700080460D461646002703F0C2FF074639464B
:101980002A46334601F00700C0F1070ABAF1040FF6
:1019900002D94FF0040A01E0C0F1070AD14600F174
:1019A000040ABAF1070F02D24FF0000A01E0A0F1D9
:1019B000030AD4464FF0010A0AFA09FAAAF1010A09
:1019C0000AEA020A0AFA0CFA4FF0010B0BFA0CFBB6
:1019D000ABF1010B0BEA030B4AEA0B04214640462C
:1019E00003F096FFBDE8F09F00BF00F00702064B32
:1019F00019684FF6FF031940044B0B4343EA0221D9
:101A0000014B196000BF70470CED00E00000FA05C3
:101A1000F8B5044600260025207800F001000028D3
:101A20006BD000274348C06900F0805070B900BFF8
:101A30004048C06940F080503E49C8610846C069CE
:101A400000F08050009000BF00BF01273A480068B6
:101A500000F48070B0B93848006840F480703649AE
:101A60000860FFF7D7FE064606E0FFF7D3FE801BAF
:101A7000642801D90320F8BD2F48006800F4807065
:101A80000028F2D02B48006A00F440752DB3A088DE
:101A900000F44070A84220D02648006A20F4407527
:101AA000012026490860002008602248056205F0F0
:101AB000010090B1FFF7AEFE064608E0FFF7AAFE70
:101AC000801B41F28831884201D90320D3E71948AD
:101AD000006A00F002000028F0D01648006A20F4E6
:101AE00040706168084313490862012F04D1084619
:101AF000C06920F08050C86100BF207800F002006B
:101B0000022807D10B48406820F44040A1680843F0
:101B100008494860207800F01000102807D10548D7
:101B2000406820F48000E1680843024948600020D2
:101B3000A1E7000000100240007000404004424253
:101B400070B504460D460CB9012070BD5A480068B6
:101B500000F00700A8420ED25748006820F00700A6
:101B60002843554908600846006800F00700A8426D
:101B700001D00120E9E7207800F0020002281DD101
:101B8000207800F00400042805D14C48406840F457
:101B9000E0604A494860207800F00800082805D134
:101BA0004648406840F460504449486043484068B3
:101BB00020F0F000A168084340494860207800F018
:101BC000010078B36068012806D13C48006800F441
:101BD000003090B90120B8E76068022806D1374884
:101BE000006800F0007040B90120AEE7334800689B
:101BF00000F0020008B90120A7E73048406820F053
:101C00000300616808432D494860FFF703FE06465C
:101C100009E0FFF7FFFD801B41F28831884202D9BD
:101C2000032092E707E02548406800F00C00616857
:101C3000B0EB810FEDD12048006800F00700A8420A
:101C40000ED91D48006820F0070028431A49086093
:101C50000846006800F00700A84201D0012074E7A0
:101C6000207800F00400042807D11448406820F4CC
:101C7000E060E168084311494860207800F00800FE
:101C8000082808D10D48406820F46050216940EAD6
:101C9000C1000A49486000F03FF808494968C1F3AB
:101CA0000311074A515CC8400649086006480068AD
:101CB000FFF7D6FD002048E7002002400010024058
:101CC000E0A500089000002088000020014800687E
:101CD000704700009000002000B5FFF7F7FF0449AF
:101CE0004968C1F30221034A515CC84000BD0000AD
:101CF00000100240F0A5000800B5FFF7E7FF044917
:101D00004968C1F3C221034A515CC84000BD0000CC
:101D100000100240F0A5000870B500210022002448
:101D200000230020134D696801F00C05F5B1042D66
:101D300002D0082D19D101E00F4819E00F4DC1F371
:101D40008346AB5D01F4803555B10A4D6D68C5F32E
:101D500040450B4E725D084D5D43B5FBF2F402E069
:101D6000084D03FB05F4204602E000BF024800BF17
:101D700000BF70BD0010024000127A00CEA500081E
:101D8000DEA5000800093D00F8B504460CB90120A5
:101D9000F8BD207800F00100002878D0F8484068AD
:101DA00000F00C0004280CD0F548406800F00C004E
:101DB000082811D1F248406800F48030B0F5803F27
:101DC0000AD1EF48006800F4003000285FD0606856
:101DD00000285CD10120DBE700BF6068B0F5803FE0
:101DE00006D1E748006840F48030E549086028E003
:101DF000606858B9E248006820F48030E049086023
:101E00000846006820F4802008601AE06068B0F599
:101E1000A02F0BD1DA48006840F48020D849086030
:101E20000846006840F4803008600AE0D448006842
:101E300020F48030D24908600846006820F48020F1
:101E4000086000BF606888B1FFF7E4FC054606E063
:101E5000FFF7E0FC401B642801D9032098E7C8483D
:101E6000006800F400300028F2D010E0FFF7D2FC48
:101E7000054606E0FFF7CEFC401B642801D903208D
:101E800086E7BF48006800F400300028F2D12078CF
:101E900000F00200022857D1B948406800F00C0059
:101EA00050B1B748406800F00C00082818D1B44879
:101EB000406800F4803098B9B148006800F0020032
:101EC00020B12069012801D0012061E7AC480068F9
:101ED00020F0F800616940EAC100A949086033E0D8
:101EE0002069E8B10120A7490860FFF793FC054687
:101EF00006E0FFF78FFC401B022801D9032047E7CB
:101F00009F48006800F002000028F2D09C4800685A
:101F100020F0F800616940EAC1009949086013E0C7
:101F2000002098490860FFF775FC054606E0FFF7BA
:101F300071FC401B022801D9032029E79048006862
:101F400000F002000028F2D1207800F008000828F4
:101F50002DD1A069B8B101208B490860FFF75AFC68
:101F6000054606E0FFF756FC401B022801D9032076
:101F70000EE78348406A00F002000028F2D00120FA
:101F800002F0B0FB13E000207F490860FFF742FC3D
:101F9000054606E0FFF73EFC401B022801D903205E
:101FA000F6E67748406A00F002000028F2D1207877
:101FB00000F00400042873D100277148C06900F0C4
:101FC000805070B900BF6E48C06940F080506C49C5
:101FD000C8610846C06900F08050009000BF00BF93
:101FE00001276A48006800F48070B0B9674800684B
:101FF00040F4807065490860FFF70CFC054606E078
:10200000FFF708FC401B642801D90320C0E65F48A5
:10201000006800F480700028F2D000BFE06801285A
:1020200006D15748006A40F001005549086227E090
:10203000E06858B95248006A20F00100504908622F
:102040000846006A20F00400086219E0E0680528EC
:102050000BD14B48006A40F0040049490862084629
:10206000006A40F0010008620AE04548006A20F07A
:102070000100434908620846006A20F00400086233
:1020800000BFE068A0B1FFF7C5FB054609E0FFF718
:10209000C1FB401B41F28831884202D9032077E618
:1020A00022E03748006A00F002000028EFD012E07A
:1020B000FFF7B0FB054608E0FFF7ACFB401B41F221
:1020C0008831884201D9032062E62D48006A00F079
:1020D00002000028F0D1012F05D12948C06920F065
:1020E00080502749C86100BFE069C8B324484068F0
:1020F00000F00C00082860D0E069022848D10020D8
:1021000020490866FFF786FB054606E0FFF782FBDD
:10211000401B022801D903203AE61948006800F064
:1021200000700028F2D1206AB0F5803F07D1144832
:10213000406820F40030A168084311494860D4E9A0
:10214000080108430E49496821F4741108430C49F9
:10215000486001200B490866FFF75CFB054607E075
:102160003DE0FFF757FB401B022801D903200FE693
:102170000348006800F000700028F2D02FE0000053
:1021800000100240000042428004424200700040C1
:10219000002014490866FFF73DFB054606E0FFF7FF
:1021A00039FB401B022801D90320F1E50E480068E5
:1021B00000F000700028F2D111E0E069012800D1A0
:1021C000E6E50948466806F48031206A814204D178
:1021D00006F47011606A814201D00120D8E5002028
:1021E000D6E50000000042420010024070B50446EF
:1021F0002546681EB0F1807F01D301200FE0681EE4
:102200004FF0E02148610F214FF0FF3003F080FBD9
:1022100000204FF0E021886107200861002070BD98
:102220007047704710B50346002200BF93F83C008A
:10223000012801D1022010BD012083F83C0000BF1D
:1022400022F0FF00CC6840EA040222F440708C685F
:1022500040EA040222F480604C6840EA040222F45E
:1022600000600C6840EA040222F480500C6940EAE5
:10227000040222F400504C6940EA040222F4804037
:10228000CC6940EA04021868426400BF002083F869
:102290003C0000BF00BFCEE730B502460B4600BF92
:1022A00092F83C00012801D1022030BD012082F8C3
:1022B0003C0000BF022082F83D00106844681068AE
:1022C000816824F070041868044310684460104D5D
:1022D0001068A8420BD01068B0F1804F07D00D4DA8
:1022E0001068A84203D00C4D1068A84205D121F017
:1022F00080015868014310688160012082F83D0028
:1023000000BF002082F83C0000BF00BFCDE7000006
:10231000002C01400004004000080040014691F8F4
:102320003D00012801D001207047022081F83D00C6
:102330000868C06840F001000B68D860124B08685C
:1023400098420BD00868B0F1804F07D00F4B086857
:10235000984203D00E4B086898420CD108688068F8
:1023600000F00702062A0CD00868006840F001005F
:102370000B68186005E00868006840F001000B6811
:1023800018600020D0E70000002C0140000400404D
:10239000000800402DE9F04104460D4614B9012023
:1023A000BDE8F08194F83D0028B9002084F83C0095
:1023B000204600F051F8022084F83D002068806833
:1023C00044F20701884321688860211D206802F0DB
:1023D000F9FD2068D0F80880206886692068076ABF
:1023E000286840EA080840F203308643A969A868D3
:1023F00040EA0120064340F60C4086434FF2F000CD
:102400008643E969E86840EA01200643286900013B
:10241000296A40EA0130064327F0220769696868A3
:1024200040EA011007432068C0F8088020688661F0
:1024300020680762012084F8460084F83E000121EC
:102440003F200155012084F842004320015501201E
:1024500084F83D000020A3E710B586B004460020B4
:1024600002900390049005903149206888422CD155
:1024700000BF3048C06940F002002E49C8610846DC
:10248000C06900F00200019000BF00BF00BF084615
:10249000806940F0040088610846806900F004000B
:1024A000019000BF00BFC020029000200390049064
:1024B00002A92148FFF710F8012211461D20FFF75D
:1024C00055FA1D20FFF742FA2FE01C492068884288
:1024D0002BD100BF1748C06940F004001549C861FE
:1024E0000846C06900F00400019000BF00BF00BFB3
:1024F0000846806940F0080088610846806900F05D
:102500000800019000BF00BFC0200290002003908F
:10251000049002A90A48FEF7DFFF012211461E209F
:10252000FFF724FA1E20FFF711FA06B010BD0000D5
:102530000004004000100240000801400008004074
:10254000000C01402DE9F04304460D4694F83E602E
:102550003F20075D94F84280432010F804906DB945
:10256000012E02D1B8F1010F02D00120BDE8F083A5
:10257000022084F83E0084F8420025E0042D0CD1AE
:10258000012F02D1B9F1010F01D00120EEE70221A4
:102590003F2001554320015516E0012E07D1012FA0
:1025A00005D1B8F1010F02D1B9F1010F01D001201D
:1025B000DCE7022084F83E0002213F200155022082
:1025C00084F842004320015515B1042D0CD105E0DB
:1025D00001220021206802F02FFD10E001220421D9
:1025E000206802F029FD0AE001220021206802F0A3
:1025F00023FD01220421206802F01EFD00BF00BF60
:102600002068006840F00100216808600020ADE704
:1026100010B504464348844243D14348007800F053
:10262000800000287DD14048007800F04000C8B309
:102630003D48008840F080003B490880042139482B
:1026400000F06EFC3949088000BF36480068006A17
:1026500041F21111084068B932480068006A8910D7
:10266000084038B92F480068006820F001002D4963
:102670000968086000BF2B480068006A20F0A000CD
:1026800028490968086227480068006A25490968DE
:10269000086224480068006840F001002149096888
:1026A00008603EE0FFE700201F4908801F490880BE
:1026B0001D48008840F040001B49088000BF1948B1
:1026C0000068006A41F21111084068B915480068B5
:1026D000006A8910084038B912480068006820F084
:1026E000010010490968086000BF00200D49096811
:1026F00048620C480068006A20F0A0000949096897
:10270000086208480068006A40F02000054909682E
:10271000086204480068006840F001000149096847
:10272000086010BDF80200207A0000207C00002024
:102730002DE9F04104460D461646002700BF94F8E7
:102740003C00012802D10220BDE8F081012084F87C
:102750003C0000BF96B9EB68D5E90012206802F092
:1027600039FD2068806920F00C00216888612068AC
:102770008069A96808432168886141E0042E13D16B
:10278000EB68D5E90012206802F058FD20688069E6
:1027900020F440602168886120688069A96840EA67
:1027A0000120216888612BE0082E12D1EB68D5E961
:1027B0000012206802F05FFD2068C06920F00C0064
:1027C0002168C8612068C069A96808432168C86198
:1027D00016E00C2E13D1EB68D5E90012206802F048
:1027E00066FD2068C06920F440602168C8612068E7
:1027F000C069A96840EA01202168C86100E001279A
:1028000000BF002084F83C0000BF38469CE710B5AC
:1028100004460CB9012010BD94F83D0028B90020F1
:1028200084F83C00204600F025F8022084F83D00A2
:10283000211D206802F0C6FB012084F8460000BF7D
:1028400084F83E0001213F200155402001554120E0
:10285000015500BF00BF012084F84200432001550C
:10286000442001554520015500BF012084F83D005A
:102870000020D0E710B586B00446002002900390F7
:10288000049005902068B0F1804F37D100BF1C48FC
:10289000C06940F001001A49C8610846C06900F0EB
:1028A0000100019000BF00BF00BF0846806940F0F2
:1028B000040088610846806900F00400019000BFB0
:1028C00000BF0220029000200390049002A90D484E
:1028D000FEF702FE012211461C20FFF747F81C20DC
:1028E000FFF734F8082002900120039000200490A4
:1028F0000320059002A90348FEF7EEFD06B010BDC7
:1029000000100240000801402DE9F04304460D4646
:10291000002615B994F83E000BE0042D02D13F20AB
:10292000005D06E0082D02D14020005D01E041205D
:10293000005D804615B994F842000BE0042D02D1E9
:102940004320005D06E0082D02D14420005D01E037
:102950004520005D8146B8F1010F02D1B9F1010FA8
:1029600002D00120BDE8F0831DB9022084F83E00AA
:102970000EE0042D03D102213F20015508E0082D6F
:1029800003D102214020015502E0022141200155DE
:102990001DB9022084F842000EE0042D03D102216B
:1029A0004320015508E0082D03D1022144200155A0
:1029B00002E002214520015535B1042D0BD0082D30
:1029C00010D00C2D1CD114E02068C06840F002002B
:1029D0002168C86016E02068C06840F004002168E3
:1029E000C8600FE02068C06840F008002168C86037
:1029F00008E02068C06840F010002168C86001E06D
:102A0000012600BF00BF06BB01222946206802F054
:102A100013FB1249206888420BD02068B0F1804F28
:102A200007D00F492068884203D00E4920688842A9
:102A30000CD12068806800F00707062F0CD02068B2
:102A4000006840F001002168086005E02068006827
:102A500040F0010021680860304683E7002C014007
:102A6000000400400008004010B5044620680069DA
:102A7000C0F34000D8B12068C068C0F34000B0B1D6
:102A80006FF00200216808610120207720688069CA
:102A900000F0030018B12046FFF7BAFD05E020461C
:102AA00000F0DAF8204600F0A5F900202077206831
:102AB0000069C0F38000D8B12068C068C0F380000E
:102AC000B0B16FF00400216808610220207720680F
:102AD000806900F4407018B12046FFF799FD05E0C9
:102AE000204600F0B9F8204600F084F90020207755
:102AF00020680069C0F3C000D8B12068C068C0F386
:102B0000C000B0B16FF00800216808610420207790
:102B10002068C06900F0030018B12046FFF778FD77
:102B200005E0204600F098F8204600F063F9002008
:102B3000207720680069C0F30010D8B12068C06811
:102B4000C0F30010B0B16FF01000216808610820D8
:102B500020772068C06900F4407018B12046FFF764
:102B600057FD05E0204600F077F8204600F042F9D6
:102B7000002020772068006900F0010058B120682B
:102B8000C06800F0010030B16FF0010021680861F9
:102B9000204600F09BF920680069C0F3C01058B1CE
:102BA0002068C068C0F3C01030B16FF080002168A9
:102BB00008612046FFF734FB20680069C0F38010ED
:102BC00058B12068C068C0F3801030B16FF0400089
:102BD00021680861204600F0BCF920680069C0F354
:102BE000401058B12068C068C0F3401030B16FF099
:102BF0002000216808612046FFF713FB10BD00008C
:102C000010B586B004460020029003900490059011
:102C10000E492068884217D100BF0D48806940F0F6
:102C200004000B4988610846806900F004000190A7
:102C300000BF00BF4FF41060029002200390059087
:102C400002A90448FEF748FC06B010BD002C014064
:102C5000001002400008014070472DE9F041044691
:102C60000D461646002700BF94F83C00012802D10B
:102C70000220BDE8F081012084F83C0000BF36B19D
:102C8000042E1BD0082E31D00C2E5ED145E02946F3
:102C9000206802F0E3F92068806940F008002168AC
:102CA00088612068806920F00400216888612068BC
:102CB0008069296908432168886148E029462068BD
:102CC00002F0FCF92068806940F4006021688861A6
:102CD0002068806920F480602168886120688069AC
:102CE000296940EA01202168886130E0294620688E
:102CF00002F018FA2068C06940F008002168C86135
:102D00002068C06920F004002168C8612068C0699B
:102D1000296908432168C86119E02946206802F042
:102D200035FA2068C06940F400602168C8612068F5
:102D3000C06920F480602168C8612068C069296981
:102D400040EA01202168C86101E0012700BF00BFFF
:102D500000BF002084F83C0000BF384689E710B56A
:102D600004460CB9012010BD94F83D0028B900209C
:102D700084F83C00204600F025F8022084F83D004D
:102D8000211D206802F01EF9012084F8460000BFD2
:102D900084F83E0001213F2001554020015541208B
:102DA000015500BF00BF012084F8420043200155B7
:102DB000442001554520015500BF012084F83D0005
:102DC0000020D0E708B5094A016891420DD100BF43
:102DD0000749896941F40061054A91611146896991
:102DE00001F40061009100BF00BF08BD002C01404C
:102DF000001002407047000070B504460D4615B93A
:102E000094F83E000BE0042D02D13F20005D06E067
:102E1000082D02D14020005D01E04120005D012825
:102E200001D0012070BD1DB9022084F83E000EE0E3
:102E3000042D03D102213F20015508E0082D03D1C4
:102E400002214020015502E00221412001550122CA
:102E50002946206802F0F0F819492068884201D11B
:102E6000012000E0002028B12068406C40F40040C0
:102E7000216848641249206888420BD02068B0F16C
:102E8000804F07D00F492068884203D00E49206840
:102E900088420CD12068806800F00706062E0CD00E
:102EA0002068006840F001002168086005E02068A3
:102EB000006840F00100216808600020B2E70000CF
:102EC000002C0140000400400008004011498842E5
:102ED0001FD11149097801F08001D1B90E49097853
:102EE00001F04001A9B10C49097801F03F013F29E7
:102EF0000AD10949098841F08001074A11804FF63B
:102F0000FF71064A118004E003490988491C024AFE
:102F100011807047F80200207A0000207C00002019
:102F20000246002031B1042907D0082908D00C2915
:102F30000CD108E01368586B09E01368986B06E041
:102F40001368D86B03E01368186C00E000BF00BF83
:102F500070477047704770472DE9F84F0446206866
:102F600005682068C668206847694FF00009CA46AE
:102F700005F00F09B9F1000F0AD105F0200038B1B2
:102F800006F0200020B1204602F0FFF9BDE8F88FDE
:102F9000B9F1000F7BD007F0010018B906F490706A
:102FA000002874D005F0010030B106F4807018B12B
:102FB000606C40F00100606405F0040030B107F07F
:102FC000010018B1606C40F00200606405F002007E
:102FD00030B107F0010018B1606C40F0040060648B
:102FE00005F0080048B106F0200010B907F0010014
:102FF00018B1606C40F008006064606C002845D037
:1030000005F0200028B106F0200010B1204602F0A3
:10301000BCF920684069C0F3801A606C00F00800B9
:1030200010B9BAF1000F2CD0204602F068F92068E0
:10303000406900F0400000B300BF00BF21681431B8
:1030400051E8001F21F040002168143141E80002DE
:10305000002AF3D100BFE06B50B17748E16B4863C1
:10306000E06BFEF711F988B1E06B416B88470DE02A
:103070002046FFF770FF09E009E02046FFF76BFFED
:1030800004E02046FFF767FF002060647EE7206BC6
:10309000012877D105F01000002873D006F0100049
:1030A0000028FAD000BF002000902068006800903F
:1030B00020684068009000BF00BF2068406900F0B1
:1030C000400000285FD0E06B006840681FFA80F87D
:1030D000B8F1000F55D0A08D404552DDA4F82E80E8
:1030E000E06B8069202843D000BF00BF21680C310D
:1030F00051E8001F21F4807021680C3141E8000282
:10310000002AF3D100BF00BF00BF2168143151E88D
:10311000001F21F001002168143141E80002002A5B
:10312000F3D100BF00BF00BF2168143151E8001F78
:1031300021F040002168143141E80002002AF3D157
:1031400000BF202084F842000020206300BF00BFA1
:1031500021680C3151E8001F21F0100021680C316A
:1031600041E80002002AF3D100BFE06BFEF760F8EF
:1031700002206063A08DE28D801A81B22046FFF7A5
:10318000E9FE03E742E0A08DE18D401A1FFA80F8C6
:10319000E08DD0B3B8F1000F37D000BF00BF216879
:1031A0000C3151E8001F21F4907021680C3141E886
:1031B0000002002AF3D100BF00BF00BF2168143114
:1031C00051E8001F21F001002168143141E800029C
:1031D000002AF3D100BF202084F8420000202063A1
:1031E00000BF00BF21680C3151E8001F21F0100022
:1031F00021680C3141E80002002AF3D100BF02200F
:10320000606341462046FFF7A5FEBFE605F080005B
:1032100030B106F0800018B1204602F0D3F9B5E6CF
:1032200005F0400030B106F0400018B1204602F031
:103230009CF8ABE600BFA9E6EB52000810B50446C7
:103240000CB9012010BDA06900B100E000BF94F8E6
:10325000410028B9002084F84000204600F02AF8F8
:10326000242084F841002068C06820F400502168C0
:10327000C860204602F008F92068006920F49040F8
:10328000216808612068406920F02A0021684861AF
:103290002068C06840F400502168C8600020606465
:1032A000202084F8410084F842000020606300BFC1
:1032B000C8E7000010B586B00446002002900390D5
:1032C0000490059059492068884237D100BF58487A
:1032D000806940F48040564988610846806900F45E
:1032E0008040019000BF00BF00BF0846806940F0E9
:1032F000040088610846806900F00400019000BF66
:1033000000BF48150290022003900320059002A9F7
:103310004848FEF7E1F84FF48060029000200390E7
:10332000049002A94348FEF7D7F801221146252050
:10333000FEF71CFB2520FEF709FB75E03E492068DF
:10334000884236D100BF3A48C06940F4003038495D
:10335000C8610846C06900F40030019000BF00BF9A
:1033600000BF0846806940F0040088610846806913
:1033700000F00400019000BF00BF04200290022072
:1033800003900320059002A92A48FEF7A5F808201B
:10339000029000200390049002A92648FEF79CF8B2
:1033A000012211462620FEF7E1FA2620FEF7CEFA8A
:1033B0003AE022492068884236D100BF1C48C069E3
:1033C00040F480201A49C8610846C06900F4802092
:1033D000019000BF00BF00BF0846806940F00800B0
:1033E00088610846806900F00800019000BF00BFB6
:1033F00008150290022003900320059002A91048AE
:10340000FEF76AF84FF400600290002003900490E9
:1034100002A90B48FEF760F8012211462720FEF7AB
:10342000A5FA2720FEF792FA06B010BD0038014039
:1034300000100240000801400044004000480040E5
:10344000000C014070B504460D46164694F8420043
:1034500020280BD105B10EB9012070BD00202063DA
:1034600032462946204602F08DF8F6E70220F4E7BE
:103470002DE9F04786B082466B49DAF800008842B1
:103480007ED16A4800786A49086008460078694930
:10349000087008460078312807D16748007808B9D5
:1034A000012000E0002064490870624800787B2811
:1034B00002D10120614908705E4800787D2802D160
:1034C00002205E4908705D48007801280AD15948F9
:1034D00000785B495B4A127888545A480078401C4F
:1034E000584908705548007802286FD15448C07870
:1034F000502803D101205449087080E0504840789A
:1035000023287CD04F4800785049087035E04D4959
:1035100009784E4A1278881A06F0D4F802460B460B
:10352000CDE9000100204A4905F0A8F806460F46FB
:1035300046490978491E424A515CA1F1300006F023
:10354000C1F832463B46CDE9020106F00FF90446C8
:103550000D464048006806F019FC804622462B467E
:1035600005F060FECDE9040105F02AFE3949086046
:1035700036480078401E354908703448007800E02D
:103580004FE00428C3DA01202F4908702C48407806
:103590003038092832D2DFE800F0050A0F141A1F6C
:1035A000262F30002B4800682B49086026E0294868
:1035B00000682A49086021E0264800682849086018
:1035C0001CE0244800682749086017E024E02148EF
:1035D00000682549086011E01E48006806F082FD79
:1035E000224908800AE01B48006821490860084613
:1035F000006802F079F801E000E000BF00BF0020A1
:103600000E4908700F490870104908701149086088
:1036100032210B48FCF7D0FE012204491548FFF780
:1036200011FF06B0BDE8F08700480040A60000206A
:10363000CC000020A700002006000020D0000020C1
:10364000A8040020D10000203C000020D20000206F
:1036500000002440D400002050000020540000202E
:10366000680000206C00002070000020780000201E
:1036700074000020600400202DE9F84F04460E4637
:10368000174699464FF0000A94F8410020284AD185
:1036900006B117B90120BDE8F88F00206064212031
:1036A00084F84100FEF7B6F88246A784E784A06854
:1036B000B0F5805F04D1206910B90025B04602E062
:1036C00035464FF000081BE053460022802120467B
:1036D000CDF8009001F0A6FF08B10320DBE745B963
:1036E000B8F80000C0F308002168486008F102083B
:1036F00003E02878216848606D1CE08C401EE0845F
:10370000E08C0028E0D15346002240212046CDF82D
:10371000009001F087FF08B10320BCE7202084F867
:1037200041000020B7E70220B5E7704700BFFEE781
:1037300070B505460E46002400F0D4F8284600F087
:103740009FF8641C00F026F9304600F099F8641CDC
:1037500000F020F900F0C6F8691CC8B200F090F83B
:10376000641C00F017F9002000F052F8044600F045
:10377000EDF8204670BD000010B500200E4908602D
:103780000E48006820F0F0000C4908600846006808
:1037900040F03000086000200949C1F8A401012070
:1037A00002F03AFD01200449086002F035FD0020D6
:1037B0000349C1F8A00110BDA0812142040C0140C1
:1037C0000080214210B500200E4908600E480068B4
:1037D00020F0F0000C4908600846006840F0300016
:1037E000086001200949C1F8A40102F015FD01207B
:1037F0000449086002F010FD00200449C1F8A0014E
:1038000010BD0000A0812142040C01400080214233
:1038100070B5054600241748006820F0F0001549EF
:1038200008600846006840F080000860002616E046
:10383000002011490860022002F0EEFC01200F492F
:10384000C1F8A0016006040E0B487C38006808B17E
:10385000601CC4B2022002F0DFFC701CC6B2082E4D
:10386000E6DB15B1FFF788FF01E0FFF7ABFF20466D
:1038700070BD0000040C0140A08121420080214263
:1038800070B504461448006820F0F0001249086042
:103890000846006840F03000086000200F490860CA
:1038A000002516E0E0090D49091D08606006040EB8
:1038B000012002F0B1FC01200949C1F8A00102F089
:1038C000ABFC002005490860012002F0A5FC681C43
:1038D000C5B2082DE6DB70BD040C0140A081214279
:1038E0000080214210B51648006820F0F00014490D
:1038F00008600846006840F0300008600120114967
:1039000008601148D0F8240108B9002010BD01203A
:103910000C49091F086002F07FFC00200A49C1F829
:10392000A40108488038006808B10020EEE70120B3
:1039300002F072FC00200349091F08600120E5E73E
:10394000040C0140A48121420080214210B50E48A0
:10395000006820F0F0000C4908600846006840F05C
:10396000300008600020094908600949C1F8A40135
:10397000012002F051FC0120044908600449C1F80B
:10398000A40102F049FC10BD040C0140A0812142B9
:103990000080214210B500241548006820F0F00096
:1039A000134908600846006840F080000860012064
:1039B0001049086002F030FC01200F49C1F8A00155
:1039C00002F02AFC0AE0601CC4B2322C03DDFFF7CF
:1039D000BDFF002010BD012002F01EFC054880380C
:1039E00000680028EFD10349091F08600120F1E7B2
:1039F000040C0140A48121420080214270B505469B
:103A00000E46144631462846FFF792FE20700120EC
:103A100070BDF8B506460F4614461D466A4639463F
:103A20003046FFF7EBFF2DB10120A0409DF80010BC
:103A3000084305E00120A0409DF8001021EA0000A5
:103A4000C0B200909DF800203946304600F036F8AC
:103A5000F8BD2DE9F8430746884614461D46089EE2
:103A60006A4641463846FFF7C9FF28B3601CFF216C
:103A700001FA00F0C4F108012944491EFF220A415D
:103A8000104300F0FF09C5F1080006FA00F0C6B2C5
:103A9000C4F1070006419DF8000000EA090000900B
:103AA0009DF80000304300909DF8002041463846C4
:103AB00000F004F8BDE8F8830020FBE737B50446C2
:103AC0000D4602AB01222946204600F001F83EBD1A
:103AD0002DE9F04180460D4616461F460024FFF7AB
:103AE00001FF4046FFF7CCFEFFF754FF2846FFF7E3
:103AF000C7FEFFF74FFF00BF06E0385DFFF7C0FECF
:103B0000FFF748FF601CC4B2B442F6DBFFF71EFFAC
:103B10000120BDE8F081000000B585B000200190D3
:103B200002900390049000BF2848806940F0040090
:103B3000264988610846806900F00400009000BFB3
:103B400000BF00BF0846806940F008008861084651
:103B5000806900F00800009000BF00BF00BF084669
:103B6000806940F0100088610846806900F010000C
:103B7000009000BF00BF0120019000200290039040
:103B80000220049001A91248FDF7A6FC4FF4005052
:103B9000019001A90F48FDF79FFC2020019001A989
:103BA0000D48FDF799FC4FF48040019001A90948A8
:103BB000FDF792FC4FF40040019001A90548FDF784
:103BC0008BFC00200549087005B000BD00100240C4
:103BD0000008014000100140000C014035020020A7
:103BE00001464906084A926942F00102064B9A6171
:103BF000064A526822F0E062044B5A601A46526844
:103C00000A435A6070470000001002400000014063
:103C100000B585B00020019002900390049000BF91
:103C20000D48806940F004000B49886108468069AE
:103C300000F00400009000BF00BF20200190002091
:103C40000290012003900220049001A90348FDF78F
:103C500043FC05B000BD0000001002400008014018
:103C60002DE9F05F05460C46894E8A4F4FF07C588F
:103C70004FF0010988480168204606F0BBFB8346E7
:103C800086480168584606F0ADFA824684480168C5
:103C9000504606F0A7F882490860824841683046DD
:103CA00006F0A8FB82467F488168504606F0A2FBDA
:103CB0007D4908607B48C06880F0004048607948D2
:103CC000C06880F0004088600846C7600868734993
:103CD000096806F087FA824672480168504606F085
:103CE00081F870490860704948686C49096806F0B5
:103CF00079FA82466B484168504606F073F8694984
:103D00004860694988686549096806F06BFA824627
:103D100064488168504606F065F8624988606249E7
:103D2000C8685E49096806F05DFA82465D48C16868
:103D3000504606F057F85B49C86059480168284664
:103D400006F058FB59490860484606F003FA8246D7
:103D500054480168504606F045FA554908604846FF
:103D600006F0F8F982464F488168504606F03AFA64
:103D700050490860484606F0EDF983464C48016812
:103D8000584606F02FFA8246414606F02BF84A497B
:103D90000860084601684648006806F091F84749FF
:103DA0000860454801684348006806F089F84449BE
:103DB00008603F48006843490860484606F0CAF971
:103DC000824638484168504606F00CFA3E49086081
:103DD0003C4801683948006806F004FA82463148D8
:103DE0000168504606F0FBFA2E4908603648016823
:103DF0003248006806F0F6F982462A484168504683
:103E000006F0EDFA274948602E4801682C48006802
:103E100006F0E8F9824623488168504606F0DFFA4A
:103E200020498860284801682548006806F0DAF9CA
:103E300082461C48C168504606F0D1FA1949C8604C
:103E40001A4801681D48006806F0CCF982461448FB
:103E50000168504605F0C6FF114908601348016823
:103E60001748006806F0BEF982460B4801685046C4
:103E700005F0B8FF0849086008460168204606F0CA
:103E8000B9FA1249086006480068BDE8F09F0000D2
:103E90006F12833AA69B443B40010020340100206E
:103EA0003C01002064010020C804002044010020DF
:103EB000480100204C010020500100205401002046
:103EC000580100205C010020600100203801002022
:103ED0002DE9F05F05460C46894E8A4F4FF07C581D
:103EE0004FF0010988480168204606F083FA8346AE
:103EF00086480168584606F075F98246844801688C
:103F0000504605F06FFF824908608248416830469C
:103F100006F070FA82467F488168504606F06AFAD9
:103F20007D4908607B48C06880F00040486079485F
:103F3000C06880F0004088600846C7600868734920
:103F4000096806F04FF9824672480168504605F04C
:103F500049FF70490860704948686C49096806F073
:103F600041F982466B484168504605F03BFF69497C
:103F70004860694988686549096806F033F98246EE
:103F800064488168504605F02DFF624988606249A7
:103F9000C8685E49096806F025F982465D48C1682F
:103FA000504605F01FFF5B49C86059480168284624
:103FB00006F020FA59490860484606F0CBF88246D8
:103FC00054480168504606F00DF9554908604846C6
:103FD00006F0C0F882464F488168504606F002F964
:103FE00050490860484606F0B5F883464C480168D9
:103FF000584606F0F7F88246414605F0F3FE4A4976
:104000000860084601684648006805F059FF4749BE
:104010000860454801684348006805F051FF44497D
:1040200008603F48006843490860484606F092F837
:10403000824638484168504606F0D4F83E49086048
:104040003C4801683948006806F0CCF8824631489F
:104050000168504606F0C3F92E49086036480168E9
:104060003248006806F0BEF882462A484168504649
:1040700006F0B5F9274948602E4801682C480068C9
:1040800006F0B0F8824623488168504606F0A7F94A
:1040900020498860284801682548006806F0A2F891
:1040A00082461C48C168504606F099F91949C86013
:1040B0001A4801681D48006806F094F882461448C2
:1040C0000168504605F08EFE1149086013480168EA
:1040D0001748006806F086F882460B48016850468B
:1040E00005F080FE0849086008460168204606F091
:1040F00081F91249086006480068BDE8F09F000099
:104100006F12833AA69B443B8001002034010020BB
:104110007C010020A4010020D8040020840100209C
:10412000880100208C0100209001002094010020D3
:10413000980100209C010020A001002078010020AF
:1041400010B501F0DDFF0446012C0CD106480078C3
:1041500008B9012000E000200349087008460178F2
:1041600002A0FCF779F810BD06000020466C6167DC
:104170005F53746F703A25640D0A000010B5022079
:1041800000F010F8032000F021F8002000F014F8EF
:10419000002000F037F8002000F02BF8002000F09D
:1041A0001FF810BD38B50446032302226B21D0202E
:1041B0000094FFF74EFC38BD38B5044602230422B4
:1041C0001C21D0200094FFF744FC38BD38B50446CC
:1041D000022304221B21D0200094FFF73AFC38BDB3
:1041E00010B50446234601223721D020FFF711FCE9
:1041F00010BD10B50446234605226A21D020FFF7E2
:1042000008FC10BD10B50446234606226B21D020C1
:10421000FFF7FFFB10BD00000EB5002000900190DD
:104220000290124812490860002111488160017310
:1042300001754FF46021C16100200D4948600121E2
:104240000B480161FCF7F0FE08B1FCF702FC092005
:104250000090012001900020029069460448FCF77C
:1042600033FE08B1FCF7F5FB0EBD00000024014051
:10427000500200200EB500200090019002901248DC
:1042800012490860002111488160017301754FF4E3
:104290006021C16100200D49486001210B48016186
:1042A000FCF7C2FE08B1FCF7D4FB08200090012007
:1042B00001900020029069460448FCF705FE08B111
:1042C000FCF7C7FB0EBD0000002801408002002063
:1042D00000B585B00020019002900390049000BFCB
:1042E0003A48806940F01000384988610846806982
:1042F00000F01000009000BF00BF00BF08468069BA
:1043000040F0200088610846806900F0200000909D
:1043100000BF00BF00BF0846806940F0040088610C
:104320000846806900F00400009000BF00BF00BF95
:104330000846806940F0080088610846806900F0FE
:104340000800009000BF00BF00224FF460412048E9
:10435000FDF75AFA002248F210011E48FDF754FA00
:1043600000224FF238311C48FDF74EFA48F2100097
:10437000019001200290002003900220049001A9E6
:104380001448FDF7A9F84FF238300190012002904F
:10439000002003900220049001A90F48FDF79CF82B
:1043A0004FF4805001900D4802900020039001A925
:1043B0000848FDF791F8012202212820FDF7D6FADE
:1043C0002820FDF7A1FA05B000BD00000010024052
:1043D0000010014000080140000C014000001110D5
:1043E00000B591B000200F9010901C2108A8FCF798
:1043F00005F820216846FCF701F82B482B49086096
:104400000020486000212948816041F61F41C160B9
:1044100000210161416180218161FEF7A0FC08B1AA
:10442000FCF717FB00200F9010900FA91F48FDF715
:1044300033FF08B1FCF70DFB6020089000200990C5
:104440000A900B900C900D900E90002208A917482E
:10445000FEF703FC08B1FCF7FCFA0C2208A913488C
:10446000FEF7FBFB08B1FCF7F4FA00200090019086
:104470000290039004904FF40050059000200790A4
:1044800069460A48FDF7CEFE08B1FCF7E2FA0021C2
:104490000648FEF7B1FC0C210448FEF7ADFC0348CA
:1044A000FEF7AEFB11B000BD002C0140B0020020B1
:1044B00000B587B00020059006900190029003900F
:1044C00004904FF080401A4908604720486000215E
:1044D000174881604FF6FF71C16000210161816161
:1044E000FEF795F908B1FCF7B4FA002005900690A4
:1044F00005A90F48FDF7D0FE08B1FCF7AAFA002085
:10450000019001200290002003900490042201A950
:104510000748FEF70DF908B1FCF79BFA042104489F
:10452000FEF7F2F90248FDF7F9FE07B000BD000002
:10453000F802002000B58BB0242102A8FBF75EFF33
:104540000020009001901C481C4908600020486031
:1045500000211A4881604FF6FF71C160002101619E
:10456000816103200290002003900120049000202C
:1045700005900690079001200890002009900A906D
:1045800002A90E48FDF706FF08B1FCF762FA002009
:104590000090019069460948FDF77EFE08B1FCF7DE
:1045A00058FA00210548FDF7CDFF04210348FDF727
:1045B000C9FF0BB000BD0000000400404003002014
:1045C00000B58BB0242102A8FBF718FF0020009053
:1045D00001901C481C4908600020486000211A48CE
:1045E00081604FF6FF71C16000210161816103208C
:1045F0000290002003900120049000200590069076
:10460000079001200890002009900A9002A90E4806
:10461000FDF7C0FE08B1FCF71CFA002000900190E5
:1046200069460948FDF738FE08B1FCF712FA002187
:104630000548FDF787FF04210348FDF783FF0BB012
:1046400000BD0000000800408803002010B50B48A2
:104650000B4908604FF4E130486000210848816050
:10466000C16001610C21416100218161C161FEF7DE
:10467000E5FD08B1FCF7EDF910BD00000038014080
:10468000D003002010B50D480D4908604FF41650B6
:10469000486000210A488160C16001610C214161CC
:1046A00000218161C161FEF7C9FD08B1FCF7D1F9B4
:1046B000012204490248FEF7C5FE10BD0048004033
:1046C00060040020A600002000BFFEE700BFFEE758
:1046D00003461846884200DD0846904200DA10463C
:1046E0007047704708B508490968C9084FF47A72DD
:1046F000B1FBF2F14143009100BF00BF00994A1E97
:1047000000920029F9D108BD900000202DE9F04F5A
:104710008FB00CA889490DAB08AACDE900108849D3
:10472000884801F021FF8548008800F48070002847
:104730007ED0089805F0F6FC04464FF09D4105F048
:10474000BFFB81490860099805F0ECFC04464FF076
:104750009D4105F0B5FB7D4908600A9805F0E2FC33
:1047600004464FF09D4105F0ABFB794908600B987A
:1047700005F0D8FC04464FF09D4105F0A1FB7549BA
:104780000860714801684FF0804005F02BFD0690ED
:104790006F480168069805F025FD82466B48016860
:1047A0004FF0404005F01EFD06906A4801680698EB
:1047B00005F018FD8346514605F014FB079005F0FF
:1047C000E5FA804601F086F906464FF06632624B04
:1047D00004F0CCFF044604F0F3FC604908605C4838
:1047E00001684FF0804005F0FDFC039058480168D7
:1047F000039805F0F7FC8246544801684FF04040AA
:1048000005F0F0FC039051480168039805F0EAFCBC
:104810008346514605F0EEFD81464FF07E5105F08E
:10482000E1FA044605F0B2FACDE90401464800E099
:1048300081E001684FF0804005F0D4FC8346434896
:104840000168584605F0CEFC8146414801684FF0AA
:10485000804005F0C7FC83463E480168584605F095
:10486000C1FC8246494605F0BDFA044605F08EFAC1
:104870000746DDE9042301F075FB4FF06632364B45
:10488000CDE9060104F072FF054604F099FC3449B5
:10489000086030480168006805F0A4FC03902C48CB
:1048A0000168006805F09EFC0290284801680068D5
:1048B00005F098FC834624480168006805F092FCE6
:1048C0005946019005F08EFA8246029905F092FD54
:1048D0008146039905F08EFD044605F057FACDE9AF
:1048E00004011C4801681848006805F07BFC8246FA
:1048F000174801681548006805F074FC8346514666
:1049000005F070FA81464FF0804105F06BFC0446DB
:1049100005F03CFA0746DDE9042301F023FB4FF0E4
:1049200066320D4BCDE9060104F020FF054604F088
:1049300047FC0C4908600FB0BDE8F08FF001002083
:10494000EA010020E401002000020020040200200F
:10495000080200200C02002066A64C40F401002052
:10496000F8010020FC0100200146032902D004299F
:104970000ED106E0084A126810B20022064B1A60F7
:1049800008E0064A126810B20022044B1A6001E0E7
:10499000002000BF00BF70472404004024080040EE
:1049A0002DE9F05F4221D020FEF7C2FE05464121ED
:1049B000D020FEF7BDFE05EB0024204605F0B2FB3B
:1049C00082464FF08E41504605F0D8FC05D24FF09C
:1049D0008F41504605F00EFD82460D49504605F0C8
:1049E0006FFA834605F0D2F980460A4A0A4B04F072
:1049F00019FC06460022094B04F0B8FE044604F0F8
:104A0000DFFB8246504605F051FBBDE8F09F0000F9
:104A10000000AA43A4703D0AD7434240000024404E
:104A2000704700002DE9F04F8BB0002009900890EE
:104A3000FCF79EF9F9480078012815D1F84800786C
:104A4000012811D1F748007801280DD1F6480078E7
:104A5000012809D1F5480078012805D106200890E1
:104A600000200BB0BDE8F08FEC480078012822D17F
:104A7000EB48007801281ED1EA48007801281AD1B5
:104A8000E9480078B8B9E9480078A0B9E848007862
:104A900058B9E7480078401CE54908700020E5490E
:104AA0000860E5490860E5490860E548E5490860AF
:104AB00004200890E7E0D9480078B8B9D8480078D1
:104AC000A0B9D8480078012810D1D748007801282B
:104AD0000CD1D6480078012808D1DB48D9490860B4
:104AE000042008900020D9490870CCE0CB48007819
:104AF000B8B9CB480078A0B9CA480078012810D1CD
:104B0000C948007868B9C948007850B90020CD4933
:104B10000860032008900020CC490870C64908604E
:104B2000B1E0BE48007898B9BD48007801280FD19F
:104B3000BC48007801280BD1BB48007840B9BB487D
:104B4000007828B9C248BF490860022008909AE05E
:104B5000B248007898B9B248007880B9B148007876
:104B600001280CD1B0480078012808D1AF4800785E
:104B700028B9B848B34908600220089083E0A748E4
:104B80000078012812D1A648007801280ED1A54846
:104B9000007858B9A448007840B9A448007828B9EA
:104BA000A748A8490860042008906CE09B4800785A
:104BB00098B99B48007880B99A48007868B99A48B3
:104BC0000078012809D199480078012805D19E482C
:104BD0009C4908600420089055E09048007808BB84
:104BE0008F480078F0B98F480078D8B98E4800789F
:104BF000C0B98E480078A8B90620089000219648D0
:104C0000006805F0BBFA03D28D488E4908603AE08F
:104C100000219148006805F0B1FB34D28A488949E7
:104C2000086030E0002400257C48007808B1C83CCA
:104C30006D1C7B48007808B1643C6D1C7948007895
:104C400008B100BF6D1C7848007808B164346D1C51
:104C50007648007808B1C8346D1C002D0DDD28465B
:104C600005F060FA0646204605F05CFA0746314634
:104C700005F026F97349086002E0002071490860D8
:104C80000520089000BF089805287DDC6D48006865
:104C9000684908606B4801686748006805F0A2F839
:104CA000654908606C4801686648006805F0A2FB29
:104CB0006249086069496048006805F05FFB02D8F6
:104CC00066485D49086066495B48006805F056FA29
:104CD00002D86348584908605848006805F056F8FB
:104CE00004460D465F48006805F050F880460022F3
:104CF0005D4B04F053FB064622462B4604F036FD7E
:104D0000CDE904014C48006805F040F804460D4622
:104D10005648006805F03AF880460022524B04F0ED
:104D20003DFB064622462B4604F020FD82468B467C
:104D30004048006805F02AF804460D464C480068D3
:104D400005F024F806460022474B04F027FB804676
:104D500022462B4604F00AFD52465B46CDE900018F
:104D600004F060FACDE90201DDE9042304F05AFA07
:104D7000CDE9060104F024FA09903248006836496A
:104D800008603048006800E080E004F0FFFF21F098
:104D9000004104460022344B04F0E6FD1ED23548A3
:104DA0000078B8BB00213448006805F04BF903D106
:104DB00032480068304908602F48006804F0E6FF78
:104DC00006462F4A2F4B04F0D1FC044604F0F8F9B4
:104DD0002A4908600120274908701BE0194800682B
:104DE00004F0D4FF21F0004104460022264B04F0D9
:104DF00081FC0FD21F48007860B100211E48006876
:104E000005F0BCFA06D21C4800681C490860002066
:104E100018490870099805F049F922E66000002059
:104E20006100002062000020630000206400002078
:104E30003602002044020020480200204C020020DC
:104E40000000FAC23C0200200000FA4237020020B3
:104E500000007AC200007A424002002000C05A4599
:104E600000C05AC570000020000059406C000020AE
:104E700068000020390200202C020020740000206D
:104E80009A9999999999E93F000049400020E8E5ED
:104E900000B503460A46002B07DD002016490860CE
:104EA00001201649C1F8BC0106E001201249086042
:104EB00000201249C1F8BC01184603F0D7FB104985
:104EC0000860002A08DD00200B49091F0860012046
:104ED0000A49C1F8B00107E001200749091F08602D
:104EE00000200649C1F8B001104603F0BFFB044999
:104EF0000C31086000BD0000B881214200802142D1
:104F0000342C014010B5FCF78BFC10BD00B593B0FC
:104F1000282109A8FBF772FA142104A8FBF76EFAFE
:104F2000002000900190029003900120099000045D
:104F30000A9000200B9001200D9002201090C103D8
:104F400011914FF4E011129109A8FCF71DFF08B16F
:104F5000FBF77FFD0F2004900220059000200690B3
:104F60004FF48060079000200890022104A8FCF70D
:104F7000E7FD08B1FBF76DFD022000908003029071
:104F80006846FCF745FD08B1FBF763FD13B000BDB3
:104F90007047000010B50248FDF766FD10BD000027
:104FA000F802002010B50248FDF75EFD10BD0000BC
:104FB0004003002010B50248FDF756FD10BD00006B
:104FC0008803002010B50268184B984208D0B0F151
:104FD000804F05D0164B984202D0164B984203D111
:104FE00022F070024B681A43104B984208D0B0F17F
:104FF000804F05D00E4B984202D00E4B984203D101
:1050000022F44072CB681A4322F080034C6943EAD1
:10501000040202608B68C3620B688362034B984290
:1050200001D10B6903630123436110BD002C0140D2
:10503000000400400008004030B501F01F050124C5
:1050400004FA05F3046A9C430462046A01F01F0534
:1050500002FA05F52C43046230BD000030B5026A47
:10506000056A25F0010505624368846924F070042F
:1050700024F003040D682C4322F002028D682A43B9
:105080000D4DA84206D100BF22F00802CD682A4388
:1050900022F00402084DA84207D123F4807323F4C0
:1050A00000734D692B438D692B43436084614D68C8
:1050B0004563026230BD0000002C014030B5026A39
:1050C000056A25F0100505624368846924F4E0440C
:1050D00024F440740D6844EA052422F020028D680F
:1050E00042EA05120E4DA84207D100BF22F080020D
:1050F000CD6842EA051222F04002094DA84209D1CA
:1051000023F4806323F400634D6943EA85038D69CA
:1051100043EA8503436084614D688563026230BD64
:10512000002C014030B5026A056A25F480750562DD
:105130004368C46924F0700424F003040D682C4310
:1051400022F400728D6842EA05220F4DA84207D171
:1051500000BF22F40062CD6842EA052222F4806298
:10516000094DA84209D123F4805323F400534D691B
:1051700043EA05138D6943EA05134360C4614D6832
:10518000C563026230BD0000002C014030B5036AE7
:10519000056A25F4805505624468C26922F4E0423C
:1051A00022F440720D6842EA052223F400538D6810
:1051B00043EA0533064DA84204D124F480444D69E6
:1051C00044EA85144460C2614D680564036230BDE1
:1051D000002C014070B50C461546026A066A26F09E
:1051E000010606628169124EB04208D0B0F1804FCC
:1051F00005D0104EB04202D00F4EB04201D1012670
:1052000000E000261EB121F00301294301E041F036
:10521000010121F0F001F02606EA0316314322F0E5
:105220000A0204F00A0632438161026270BD000086
:10523000002C0140000400400008004070B50C46FE
:105240001546026A066A26F010060662816921F494
:10525000407141EA052121F470414FF4704606EA9D
:105260000336314322F0A002A02606EA0416324398
:105270008161026270BD70B50C461546026A066A0D
:1052800026F480760662C16921F00301294321F0EA
:10529000F001F02606EA0316314322F400724FF4BF
:1052A000007606EA04263243C161026270BD70B521
:1052B0000C461546026A066A26F480560662C169E3
:1052C00021F4407141EA052121F470414FF4704608
:1052D00006EA0336314322F400524FF4005606EA40
:1052E00004363243C161026270BD70B505466C6A16
:1052F0000020E085E0842046FDF72DFE70BD00BF54
:1053000000BF02680C3252E8002F22F4907102684C
:105310000C3242E80013002BF3D100BF00BF00BFE6
:105320000268143252E8002F22F0010102681432A0
:1053300042E80013002BF3D100BF016B01290ED10D
:1053400000BF00BF02680C3252E8002F22F01001AB
:1053500002680C3242E80013002BF3D100BF202179
:1053600080F8421000210163704710B504462068A0
:10537000C06820F040002168C860202084F8410007
:105380002046FEF7D2F9002010BDF8B5044694F887
:105390004200222875D1A068B0F5805F0CD1206949
:1053A00050B90025A66A20684068C0F30800308024
:1053B000A06A801CA06215E0A56A0026A068B0F56E
:1053C000805F03D0A06828B9206918B920684068B8
:1053D000287004E02068406800F07F002870A06A10
:1053E000401CA062E08D401E80B2E085002846D1BE
:1053F0002068C06820F020002168C8602068C0686C
:1054000020F480702168C8602068406920F00100A5
:1054100021684861202084F8420000206063206BEE
:10542000012826D10020206300BF00BF21680C3175
:1054300051E8001F21F0100021680C3141E8000202
:10544000002AF3D100BF2068006800F01000102887
:105450000AD100BF002000902068006800902068FA
:105460004068009000BF00BFA18D2046FDF772FD8F
:1054700002E02046FDF7FCFF0020F8BD01E000201F
:10548000FBE70220F9E7000070B5044621680969CE
:1054900021F44051E2681143226811612269A16838
:1054A0001143626941EA02052168C96841F20C6250
:1054B000914329432268D1602168496921F44071F0
:1054C000A2691143226851612D4A2168914202D19B
:1054D000FCF712FC01E0FCF7FFFB00EBC00101EB65
:1054E000001162689200B1FBF2F100EBC00202EB26
:1054F000001263689B00B2FBF3F26423B2FBF3F289
:1055000002EBC20303EB0212A1EB8201322202EB97
:1055100001116422B1FBF2F101F0F00100EBC002D5
:1055200002EB001263689B00B2FBF3F26423B2FB50
:10553000F3F201EB021200EBC00101EB0011636812
:105540009B00B1FBF3F100EBC00303EB00136668B3
:10555000B600B3FBF6F36426B3FBF6F303EBC30626
:1055600006EB0313A1EB8301322303EB0111642348
:10557000B1FBF3F101F00F0111442268916070BD9D
:105580000038014010B5034699629A85DA850020FB
:105590005864222083F84200186928B11868C0684E
:1055A00040F480701C68E0601868406940F00100B9
:1055B0001C6860611868C06840F020001C68E060EA
:1055C000002010BD014691F84100212828D18868AB
:1055D000B0F5805F0BD1086948B90A6A1088C0F33A
:1055E00008000B685860086A801C086205E00B6AB6
:1055F000581C086218780B685860C88C401E80B22E
:10560000C88458B90868C06820F080000B68D8606A
:105610000868C06840F040000B68D8600020704700
:105620000220FCE72DE9F04104460D461746984656
:10563000069E34E0701C88B32EB1FCF7EBF8A0EBAB
:105640000800B0422BD900BF00BF21680C3151E8DF
:10565000001F21F4D07021680C3141E80002002ABB
:10566000F3D100BF00BF00BF2168143151E8001F13
:1056700021F001002168143141E80002002AF3D131
:1056800000BF202084F8410084F8420000BF0020C1
:1056900084F8400000BF0320BDE8F081FFE72068E8
:1056A00000682840A84201D1012000E00020B84253
:1056B000C0D00020F0E7000010B50248FDF74CFC18
:1056C00010BD0000D003002010B50248FDF744FCD7
:1056D00010BD00001804002010B50248FDF73CFC86
:1056E00010BD000060040020034908600349086001
:1056F0000021034A117070472C0200207400002022
:105700003902002000BFFEE72DE9FC5F0446894610
:105710005D480078022814D15C480068C82810D978
:105720005A480068B0F5FA7F0BD25948007804F067
:1057300011FD054629465748006804F0C1FB56494B
:10574000086051480078022812D150480068C828E3
:105750000ED24F48007804F0FDFC06464D48006824
:1057600080F000453146284604F0AAFB4A4908600B
:1057700004EB090004F0D6FC05464FF08041454893
:10578000006804F02FFD0646294604F033FE434925
:1057900008604348006804F0F9FA0746414A424B62
:1057A00003F0E4FF054603F00BFD3D4908603B486C
:1057B000006804F0EBFA05463C4A3D4B03F0D6FF87
:1057C000074688463648006804F0E0FA82463A46C2
:1057D000434603F027FDCDE9000103F0F1FC304919
:1057E0000860084601683348006804F0FBFA314954
:1057F0000860294801682F48006804F0F3FA2D4931
:1058000008602D492B48006804F0B8FD02D22A48F0
:105810002849086029492748006804F0AFFC02D2F3
:10582000264824490860264801682248006804F098
:10583000D9FC0746234904F043FB05461848006895
:1058400080F0004820480168404604F0CBFC074641
:105850001C4904F035FB0646294604F0CBFD1B49E4
:1058600008601B480078012802D100201149086017
:105870001648006804F01AFC1649086013480068CE
:1058800004F014FCBDE8FC9F290000203800002033
:10589000050000207400002000010020F800002016
:1058A000FC00002085EB51B81E85EB3FEC51B81E83
:1058B00085EBC13F0401002000007A4500007AC555
:1058C000540000200000C84250000020F4000020D6
:1058D00006000020E8000020490050EAC12018BF5F
:1058E00004204A0D18BF40F0010040F2FF72B2EBF5
:1058F000515F08BF40F00200012808BF0520704733
:1059000002480068C0F30220704700000CED00E080
:1059100010B5002804DB0A07130E054A135406E0ED
:105920000A07140E034A00F00F031B1FD45410BDC6
:1059300000E400E018ED00E02DE9F0414F1E00EB1F
:10594000C7010446D1E9000115461E4637F006029C
:105950000DD02A46334603F009FF7F1E04EBC70330
:10596000D3E9002303F05EFC37F00602F1D1022FE9
:1059700025D0042F13D0062F18BFBDE8F0812A468A
:10598000334603F0F3FED4E90A2303F04BFC2A4626
:10599000334603F0EBFED4E9082303F043FC2A4628
:1059A000334603F0E3FED4E9062303F03BFC2A462A
:1059B000334603F0DBFED4E9042303F033FC2A462C
:1059C000334603F0D3FED4E9022303F02BFC2A462E
:1059D000334603F0CBFED4E90023BDE8F04103F0E9
:1059E00021BC0000002213461046014903F0D6BC3A
:1059F0000000F03F012204F0A4BD03F013BC00221C
:105A000013461046114603F0C9BC40F20132002093
:105A10004FF0E04104F095BD024A0020110704F068
:105A200090BD000001FDFFFF00BF70472DE9FE4F54
:105A300006460F460025684601F0FCF9002442E0C6
:105A400056F8240057F82410A0EB010ABAF1000F11
:105A500001DB514601E0CAF10001084604F062FB97
:105A600083464FF08F4104F02BFA80465DF8240006
:105A7000002104F0E7FA16D05DF82410404604F047
:105A80001FFA82464FF07E5104F0B4FC814629F0A3
:105A9000004A0F48416A504604F070FC12D20120BF
:105AA000A04005430EE00A48C169404604F066FB89
:105AB00005D30748016A404604F060FC02D2012089
:105AC000A0400543641C032CBADB2846BDE8FE8FCA
:105AD00020A600082DE9F04D8D4F21F0004A86B038
