:020000040800F2
:10000000681D0020D1010008EF380008232D0008EA
:10001000ED38000885070008FD42000800000000D8
:10002000000000000000000000000000293D000862
:10003000410A000800000000AB3A0008813D0008BA
:10004000EB010008EB010008EB010008EB010008E0
:10005000EB010008EB010008EB010008EB010008D0
:10006000EB010008EB010008EB010008EB010008C0
:10007000EB010008EB010008EB010008EB010008B0
:10008000EB010008EB010008EB010008EB010008A0
:10009000EB010008EB010008EB010008EB01000890
:1000A000EB010008EB010008EB010008EB01000880
:1000B000013E00080D3E0008193E0008EB01000853
:1000C000EB010008EB010008EB010008EB01000860
:1000D000EB010008D9420008E5420008F14200089F
:1000E000430A0008EB010008EB01000800F002F8E9
:1000F00000F05FF80AA090E8000C82448344AAF163
:100100000107DA4501D100F054F8AFF2090EBAE860
:100110000F0013F0010F18BFFB1A43F0010318473B
:10012000E8960000089700000A444FF0000C10F811
:10013000013B13F0070408BF10F8014B1D1108BF65
:1001400010F8015B641E05D010F8016B641E01F805
:10015000016BF9D113F0080F1EBF10F8014BAD1C55
:100160000C1B09D16D1E58BF01F801CBFAD505E073
:1001700014F8016B01F8016B6D1EF9D59142D6D3CD
:10018000704700000023002400250026103A28BFF5
:1001900078C1FBD8520728BF30C148BF0B607047F9
:1001A000642900F09980002070471FB51FBD10B56D
:1001B00010BD00F05FFA1146FFF7F7FF05F08CFE67
:1001C00000F07DFA03B4FFF7F2FF03BC04F008FA75
:1001D0000948804709480047FEE7FEE7FEE7FEE7DB
:1001E000FEE7FEE7FEE7FEE7FEE7FEE70448054917
:1001F000054A064B70470000FD3D0008ED00000871
:1002000068170020681D0020681900206819002068
:1002100010B54C1084EA530404D54042C1F10001EA
:1002200038BF491E1B4204D55242C3F1000338BFF8
:100230005B1E00F00DF914F0804F04D04042C1F174
:10024000000138BF491E14F0004F04D05242C3F1E0
:10025000000338BF5B1E10BD0FB4044910B503AADC
:10026000029800F0D1F910BC5DF814FB5800002092
:100270002DE9F0410E460446002020622046E16848
:10028000884730B3252805D0D4E901219047206A5A
:10029000401CF2E7E168204600278847050018D097
:1002A000A5F14100192802D820354FF400673246E5
:1002B000294620462760FFF773FF40B1012804D08C
:1002C000F61D26F007060836D8E7361DD6E728467D
:1002D000DAE7206ABDE8F0812DE9F0410646002406
:1002E00010687529314616A510D0AFF3008000289C
:1002F00002DA404213A507E031688A0701D512A54A
:1003000002E0490704D511A5012401E0AFF3008004
:1003100000210A2206F1240709E0B0FBF2FCB0FB41
:10032000F2F302FB1C00303078541846491C0028B8
:10033000F3D123462A463046BDE8F04100F00AB921
:10034000000000002D0000002B0000002000000035
:1003500040EA010310B59B070FD1042A0DD310C842
:1003600008C9121F9C42F8D020BA19BA884201D994
:10037000012010BD4FF0FF3010BD1AB1D30703D0DC
:10038000521C07E0002010BD10F8013B11F8014B92
:100390001B1B07D110F8013B11F8014B1B1B01D1AE
:1003A000921EF1D1184610BD02F0FF0343EA03226A
:1003B00042EA024200F002B84FF000020429C0F005
:1003C000128010F0030C00F01B80CCF1040CBCF187
:1003D000020F18BF00F8012BA8BF20F8022BA1EBD9
:1003E0000C0100F00DB85FEAC17C24BF00F8012BBE
:1003F00000F8012B48BF00F8012B70474FF00002B6
:1004000000B5134694469646203922BFA0E80C500A
:10041000A0E80C50B1F12001BFF4F7AF090728BFE5
:10042000A0E80C5048BF0CC05DF804EB890028BF61
:1004300040F8042B08BF704748BF20F8022B11F08A
:10044000804F18BF00F8012B704770477047704706
:1004500053EA020C00F069802DE9F04B4FF00006E2
:10046000002B1FBFB3FA83F503FA05F424FA05F64F
:100470005E4012BF1643B2FA82F502FA05F4C5F1E6
:1004800020051EBF22FA05FC44EA0C04203556EA7A
:10049000044C4FEA144418BF641C4FF000084FF09E
:1004A0000009904271EB030C39D3002919BFB1FA4E
:1004B00081F701FA07F6B0FA80F700FA07F6C7F1FC
:1004C00020071EBF20FA07FC46EA0C062037B6FBC1
:1004D000F4FCA7EB0507103F07F01F0BCBF120063C
:1004E0000CFA0BFB2CFA06F644BFB3460026202F6D
:1004F000A4BF5E464FF0000B5BEA060C08BF4FF04E
:10050000010B19EB0B09ABFB027C48EB0608C01B87
:1005100006FB02CC0BFB03CC71EB0C01C1E70B46D5
:10052000024641464846BDE8F08B13B54FF0000047
:100530004FF00001AFF30080BDE81C40704710B5DC
:1005400000F074F8006810BD10B5044600F06EF8B5
:10055000046010BD2DE9F0470D46994692460446C9
:1005600000F124080168880604D5E06921F0100133
:10057000216000E00120A84201DD471B00E00027C8
:10058000A1697A1902EB0900081AA0612078C00657
:1005900002D42046AFF30080002608E0D4E9012110
:1005A0001AF806009047206A401C761C20624E45CF
:1005B000F4DB2078C0060AD52046AFF3008006E0C1
:1005C000D4E9012130209047206A401C2062381E67
:1005D000A7F10107F4DC07E0D4E9012118F80500D0
:1005E0009047206A401C2062281EA5F10105F3DC1B
:1005F0002046AFF300802078000602D50220BDE837
:10060000F0870120FBE70000074B70B50D467B44E7
:1006100000F015F80446284600F024F810B14FF019
:10062000FF3070BD204670BDEF520000004870479B
:100630000417002001694A1C02610878704700B560
:100640008FB0CDE901310021059105497944CDE90B
:10065000031011466846FFF70BFE0FB000BD000007
:10066000E5FFFFFF007B00F0800070470048704707
:10067000041700207546FFF7F9FFAE4605006946EE
:10068000534620F00700854618B020B5FFF7AEFDB1
:10069000BDE820404FF000064FF000074FF0000883
:1006A0004FF0000B21F00701AC46ACE8C009ACE804
:1006B000C009ACE8C009ACE8C0098D46704710B568
:1006C0000446AFF300802046BDE81040FFF77ABD36
:1006D00070B5044600688168C943C90717D18168AD
:1006E00021F00101816000F08BFE05460AE000BFA9
:1006F00000F086FE401B022804D920688068C043B1
:10070000C00706D020688068C043C007F0D0002032
:1007100070BDA06A40F01000A062E06A40F00100E5
:10072000E062012070BD000070B5044610480D461F
:10073000006807F035FF214608F034F80D490446FB
:1007400085F00040096807F057FF0B4907F02AFEC3
:1007500005460B480949006807F024FE214607F0CA
:100760004BFF294608F01EF8BDE8704007F0DCBEDC
:100770003C000020100000200000C8420000C8C259
:100780000C000020FEE700002DE9F0410D4C0A4668
:1007900007460B4E1046216807F02EFF216B07F02D
:1007A00099FD0146084807F027FF054631463846BF
:1007B00007F022FF294607F08DFD2063BDE8F08198
:1007C0000AD7A33C0801002048E17A3F2DE9F04117
:1007D0000D4C0A4607460B4E1046216807F00CFFE9
:1007E000216E07F077FD0146084807F005FF054632
:1007F0003146384607F000FF294607F06BFD2066BA
:10080000BDE8F0810AD7A33C0801002048E17A3F07
:10081000F8B50020364F012600903E706B463246F8
:100820007521682005F0D2FA32A0FFF715FD9DF87A
:10083000000068280CD0BFF34F8F37480168374A53
:1008400001F4E06111430160BFF34F8F00BFFDE78A
:1008500005F056FC002848D1782006F00FF910B9B1
:1008600024A0FFF7F9FC782005F07CFB10B92CA040
:10087000FFF7F2FCC82006F0C1F810B932A0FFF76C
:10088000EBFC04F0D9FC10B939A0FFF7E5FC4548B2
:10089000044605F0FDFA0546E01C05F0F9FA45EAC4
:1008A000C005A01D05F0F4FA45EA801080B204F0FE
:1008B00083FE10B93CA0FFF7CFFC40F2731004F0A8
:1008C00093FB10B942A0FFF7C7FCC82004F0DCFD81
:1008D00010B949A0FFF7C0FC06F048FE012005F062
:1008E000B3FF10B94DA0FFF7B7FC3E70F8BD000094
:1008F000030000206D70755F7365745F73656E73C0
:100900006F7220636F6D706C657465202E2E2E2EB5
:100910002E2E0D0A000000000CED00E00400FA0588
:100920006D70755F636F6E6669677572655F666926
:10093000666F20636F6D706C657465202E2E2E2E91
:100940002E2E0D0A000000006D70755F7365745FD8
:1009500073616D706C655F7261746520636F6D703B
:100960006C657465202E2E2E2E2E2E0D0A00000092
:10097000646D705F6C6F61645F6D6F74696F6E5FE3
:100980006472697665725F6669726D7761726520FF
:10099000636F6D706C657465202E2E2E2E2E2E0DBD
:1009A0000A000000E4010020646D705F7365745FED
:1009B0006F7269656E746174696F6E20636F6D70BC
:1009C0006C657465202E2E2E2E2E2E0D0A00000032
:1009D000646D705F656E61626C655F66656174759C
:1009E000726520636F6D706C657465202E2E2E2EDF
:1009F0002E2E0D0A00000000646D705F7365745F39
:100A00006669666F5F7261746520636F6D706C6597
:100A10007465202E2E2E2E2E2E0D0A006D70755F01
:100A20007365745F646D705F737461746520636F68
:100A30006D706C657465202E2E2E2E2E2E0D0A00E4
:100A400070474FF4805000F0D9BB72B6FEE700004B
:100A50002DE9FC5F044603F037F98E49DFF8388250
:100A60008E4F0860012C7DD04421D02002F05AF92D
:100A700004464321D02002F055F904EB002007F092
:100A8000A7FD06464621D02002F04CF90446452138
:100A9000D02002F047F904EB002007F099FD009008
:100AA0004821D02002F03EF904464721D02002F030
:100AB00039F904EB002007F08BFD05463C21D020DE
:100AC00002F030F904463B21D02002F02BF904EB70
:100AD000002007F07DFD83463E21D02002F022F960
:100AE00004463D21D02002F01DF904EB002007F060
:100AF0006FFD82464021D02002F014F904463F21C8
:100B0000D02002F00FF904EB002007F061FD4FF058
:100B10008E4904464E4505DD4FF08F41304607F0C3
:100B200041FE06460098484504DD4FF08F4107F02E
:100B300039FE00904D4505DD4FF08F41284607F006
:100B400031FE05465846CB4504DD4FF08F4107F096
:100B500029FE83465046CA4506DD4FF08F4107F017
:100B600021FE00E058E082464C4505DD4FF08F4104
:100B7000204607F017FE044686F000412046C8F8DC
:100B8000001007F07BFB80468946504607F076FB55
:100B900042464B4603F0AEFFDFF804A10022534665
:100BA00007F05CF83F4A404B06F05EFE06F06EFD33
:100BB0000190584607F062FB42464B4603F09AFF0D
:100BC0000022534607F04AF8364A374B06F04CFEEF
:100BD00006F05CFD8246304607F050FBDFF8CC8023
:100BE0004FF066363246434606F03EFE06F04EFDB6
:100BF0008146009807F042FB3246434606F034FE39
:100C000006F044FD06462A48DFF8A880007802284E
:100C10001DD0032827D035E002F048FF2648274C96
:100C200039680160B4F9000007F0BAFCC8F80000A8
:100C3000B4F9040007F0B4FC214908602148B0F978
:100C4000040007F0ADFC20490860BDE8FC9F494660
:100C5000019802F055FA80F0004038603146504665
:100C600002F0FCFA0AE049460198FFF78DFD80F09A
:100C70000040386031465046FFF7A8FD80F0004143
:100C8000C8F800100C48396801600D4805600E482E
:100C90000460DAE73400002044000020D001002086
:100CA00000806640F1D4C853FB210940666630409D
:100CB00000000020CC01002040000020D8010020CE
:100CC00048000020DE010020500000202DE9F05FE8
:100CD0008B4606F05DFF274C0022234606F0BEFF40
:100CE0006FF001052A4607F004FE234E002233462A
:100CF00006F0BAFD214F00223B4606F0B5FD06F096
:100D0000C5FC07F0BBFADFF87880DFF878A0424630
:100D1000534606F0A3FFDFF8709000224B4606F022
:100D20009DFF06F0B3FC19490860584606F030FFF5
:100D30000022234606F092FF2A4607F0DAFD002241
:100D4000334606F091FD00223B4606F08DFD06F08D
:100D50009DFC07F093FA4246534606F07FFF0022BF
:100D60004B4606F07BFF06F091FC09490860BDE8A0
:100D7000F09F00000000694000003E4000002A4053
:100D8000F1D4C853FB21094000C05040F4010020B9
:100D9000F8010020F8B50024009490F8242025469E
:100DA000012A12D0012280F824204A681F23072A32
:100DB0000DD20668776B521E02EB820293409F436E
:100DC0000B6893401F43776319E00220F8BD066863
:100DD0000D2A0AD2376BD21F02EB820293409F4347
:100DE0000B6893401F43376309E0F76A0D3A02EB43
:100DF000820293409F430B6893401F43F7620A6847
:100E0000072306680A2A0AD3F7680A3A02EB420265
:100E100093409F438B6893401F43F76008E0376916
:100E200002EB420293409F438B6893401F4337611C
:100E30000A68102A01D0112A20D1124B02689A4266
:100E400017D193681B0219D4936843F4000393608D
:100E50000968102912D10C490C4A0968B1FBF2F15A
:100E600001EB8101490000E0491E00910029FBD1FE
:100E700004E0816A41F020018162012480F824505D
:100E80002046F8BD002401406800002040420F00C9
:100E90002DE9F0414FF0000704003D467ED0A06AE6
:100EA000002628B9E66284F82460204600F07EF827
:100EB0002046FFF70DFCA16AC90600D420B1A06A44
:100EC00040F01000A06269E0A16A21F4885141F06D
:100ED0000201A1626268E169237B0A4347EA430198
:100EE0000A43A1684FF48077B94209D0012907D09D
:100EF0005FF0000194F814C0BCF1010F02D00AE0C9
:100F00003946F7E7F3B1A36A43F02003A362E36A2B
:100F100043F00103E3622368D3F804C02CF4694C66
:100F20004CEA010CC3F804C021688B68DFF870C07C
:100F300003EA0C0313438B60A168B9420BD001296B
:100F400009D00CE0DFF85CC0A3690CEB43330B4322
:100F500043F40061DFE7218A0D05A5F580152168BE
:100F6000CB6A23F470032B43CB62216889680E4B54
:100F70001940914208D1E662A16A21F0020141F0D4
:100F80000101A162BDE8F081A06A20F0020040F0FA
:100F90001000A062E06A40F00100E0620120F1E789
:100FA000FDF7E1FF00E0FFFFFE0E1FFF10B586B06A
:100FB000002100910191029103911A4C03681A4992
:100FC00003221A48A34211D18B6943F400738B6149
:100FD0008B6903F4007304938B6943F008038B61FE
:100FE000896901F008010491022113E0104CA34229
:100FF00015D18B6943F480638B618B6903F4806343
:1010000004938B6943F008038B61896901F008013F
:1010100004910121CDE90012694600F0FBF806B009
:1010200010BD00000024014000100240000C0140EF
:101030000028014010B590F821100022022905D0A7
:101040000421816380F82020012010BD01680B6815
:1010500023F00E030B6001680B6823F001030B60A3
:1010600090F84030C46B012101FA03F3636080F80B
:10107000211080F82020104610BD000010B590F817
:1010800021100024022903D00421816301243DE0C2
:1010900001680A6822F00E020A6001680A6822F0FC
:1010A00001020A601A4A0168914201D1012121E03E
:1010B000174A1432914201D110211BE0144A283200
:1010C000914201D1891515E0114A3C32914201D17A
:1010D00089140FE00E4A5032914202D14FF4803110
:1010E00008E00B4A6432914202D14FF4801101E0D2
:1010F0004FF08071064A083A5160012180F82110B2
:10110000002180F82010416B01B18847204610BDB6
:10111000080002402DE9F041B0F5805F56D12C481F
:101120000178B1B1002101702A480078FFF790FCE6
:10113000032002F0B7FD4642042002F0B3FD454211
:1011400029463046FFF7C2FD23490878012802D01E
:101150000DE00121E7E7214A1078401C107010785B
:101160000A2804D10020107008701D4908701D481D
:101170000078012801D0022801D102F06FFD02F0B1
:101180001BF91948016819480068FFF7CDFA0746AE
:101190002946304603F0B4F839180819144D091BD4
:1011A000144B154C2860664219602246314602F005
:1011B00075FC286022463146186802F06FFC186002
:1011C000BDE8F0410021084602F0B0BDBDE8F08165
:1011D000C8000020000000200500002006000020BC
:1011E0004C000020040000204400002040000020AB
:1011F0002C000020300000200CE5FFFF044910B552
:101200000A68024202D00860FFF784FF10BD0000A8
:10121000140401402DE9F84FDFF8B8910024A9F13A
:10122000040B23460F2709F1040AABF1040EC9E0B1
:101230000125A5402A40AA427DD1674ED1F804C0BD
:10124000ACEB0608B44532D014DCBCF1030F3AD045
:1012500009DCBCF1000F2AD0BCF1010F1CD0BCF19D
:10126000020F31D11DE0BCF1110F17D0BCF1120FEC
:101270002AD119E0B8F5881F19D006DCB8F5803FEF
:1012800015D0B8F5801F1FD111E0B8F5001F0ED0A2
:10129000B8F5041F18D10AE0CB6815E0CB681B1D18
:1012A00012E0CB6808330FE0CB680C330CE08B689E
:1012B0002BB1012B4FF0080303D0456104E0042358
:1012C00002E0056100E00023FF2A01D8064601E0A4
:1012D00000F104064FEA840501D9A5F12005D6F8EE
:1012E000008007FA05FC28EA0C0803FA05F548EA2D
:1012F0000508C6F800804D68ED0062D5374DAE692F
:1013000046F00106AE61AD6924F0030605F0010563
:101310000095334D06EB050CDCF80850A607360F98
:1013200007FA06F825EA0805DFF8B880404503D13A
:101330004FF0000817E044E0DFF8AC80404502D1F0
:101340004FF001080FE0DFF8A480404502D14FF0D4
:10135000020808E0DFF89880404502D14FF003080A
:1013600001E04FF0040808FA06F848EA0508CCF84E
:1013700008804D68D9F80060ED024D4601D516434E
:1013800000E096432E604D68DAF80060AD025546E5
:1013900001D5164300E096432E604D68DBF80060EF
:1013A000AD035D4601D5164300E096432E604D68BF
:1013B000DEF80060ED03754601D5164300E0964364
:1013C0002E60641C0D682A46E5407FF431AFBDE80D
:1013D000F88F0000080401400000111000100240C6
:1013E0000000014000080140000C014000100140D5
:1013F000001401400AB1016170470904FBE70000D5
:1014000001488068704700005C0000200248816845
:1014100002781144816070475C000020074810B5D5
:10142000016841F010010160032000F089F80020FC
:1014300000F006F800F024F8002010BD0020024063
:1014400070B50D4D04464FF47A712878B1FBF0F079
:101450000A490968B1FBF0F000F066FB48B9102CAE
:1014600007D200222146501E00F04AF800206C608E
:1014700070BD012070BD00005C00002068000020ED
:101480000E4808B5816941F001018161816901F06F
:1014900001010091C16941F08051C161C06900F052
:1014A00080500090052000F04BF80548416821F07D
:1014B000E06141F08061416008BD00000010024021
:1014C0000000014000280DDB00F01F0201219140C7
:1014D0004009800000F1E020C0F88011BFF34F8F79
:1014E000BFF36F8F7047002809DB00F01F02012156
:1014F00091404009800000F1E020C0F800117047E1
:10150000F0B40E4B1B680C46C3F30223C3F107056E
:10151000042D00D90425191D072901D2002300E05C
:10152000DB1E012606FA05F1491E214099409E4026
:10153000761E16403143F0BC02F0CABF0CED00E04D
:10154000064900F0070208684FF6FF03184040EA1A
:101550000220034A10430860704700000CED00E0D1
:101560000000FA052DE9F84305460078354CC00720
:1015700054D0E0690026C00008D4E06940F08050F3
:10158000E061E069012600F0805000902E4801687B
:10159000C90512D40168804641F480710160FFF7EB
:1015A0002FFF074605E000BFFFF72AFFC01B642896
:1015B00023D8D8F80000C005F6D5206A10F4407092
:1015C00021D0A98801F4407181421CD0206A1F49B2
:1015D000012220F440700A6000220A602062C007E5
:1015E00011D0FFF70DFF074641F2883808E000BF31
:1015F000FFF706FFC11B414502D90320BDE8F88370
:10160000206A8007F4D5206A696820F44070084396
:1016100020621EB1E06920F08050E06128788007E8
:1016200005D56068A96820F44040084360602878C8
:10163000C00605D56068E96820F480000843606052
:101640000020DBE7001002400070004040044242EE
:101650002DE9F0470F46050061D0434E306800F099
:101660000700B84209D2306820F0070038433060E4
:10167000306800F00700B84251D128683B4C810720
:1016800012D5400703D5606840F4E06060602878B8
:10169000000703D5606840F4605060606068A96826
:1016A00020F0F000084360602878C00728D0686800
:1016B000012810D02168022810D0890700292EDACD
:1016C000616821F0030101436160FFF799FE8046E4
:1016D00041F288390DE021688903EFE78901EDE7E0
:1016E000FFF78EFEA0EB0801494502D90320BDE8B3
:1016F000F0876068696800F00C00B0EB810FEFD1F3
:10170000306800F00700B8420BD9306820F00700BD
:1017100038433060306800F00700B84201D0012043
:10172000E5E72878400705D56068E96820F4E060BF
:10173000084360602878000706D56068296920F4AE
:10174000605040EAC100606000F038F86168084A03
:10175000C1F30311515CC84006490860064800689F
:10176000FFF76EFE0020C2E700200240001002409A
:10177000DC8900086800002060000020044805495A
:1017800000684968044AC1F30221515CC8407047AF
:101790006800002000100240EC8900080448054958
:1017A00000684968044AC1F3C221515CC8407047CF
:1017B0006800002000100240EC8900080E4A5168C1
:1017C0000E4801F00C03042B11D0082B0FD10C484C
:1017D000C1F38343C903C05C0AD55168084AC1F309
:1017E0004041921E515C054A5043B0FBF1F07047F6
:1017F00004494843704700000010024000127A007C
:10180000CC89000800093D002DE9F84F040070D094
:101810002078C04DC00749D06868C0F38100012816
:1018200007D06868C0F38100022809D16868C00346
:1018300006D52868800339D560680028E7D035E0F0
:101840006068B0F5803F0BD010B1B0F5A02F11D07B
:10185000286820F480302860286820F4802002E086
:10186000286840F480302860606890B1FFF7C8FDB8
:1018700006460AE0286840F480202860F0E700BFB0
:10188000FFF7BEFD801B642873D828688003F7D556
:101890000CE0FFF7B5FD064605E000BFFFF7B0FD21
:1018A000801B6428F0D828688003F7D420789A4EEB
:1018B00080074FF001094FF0000839D5686810F033
:1018C0000C0F07D06868C0F38100022809D168684E
:1018D000C00306D42868800714D52069012808D1E0
:1018E00010E02069B0B1C6F80090FFF789FD074607
:1018F00005E00AE1FFF784FDC01B0228C4D8286870
:101900008007F7D52868616920F0F80040EAC10037
:1019100028600DE0C6F80080FFF772FD074604E07E
:10192000FFF76EFDC01B022823D828688007F7D474
:10193000207800072CD57948A169D9B1C0F800906A
:10194000FFF75EFD074604E0FFF75AFDC01B0228C3
:101950000FD8686A8007F7D571484FF4FA510068CC
:10196000B0FBF1F0009000BF0098411E0091FAD248
:101970000EE080E0C0F80080FFF742FD074604E07B
:10198000FFF73EFDC01B022875D8686A8007F7D4B0
:101990002078400760D5E8690027C00008D4E869CE
:1019A00040F08050E861E869012700F08050009025
:1019B0005C480168C90513D40168834641F480710D
:1019C0000160FFF71DFD824606E000BFFFF718FD2E
:1019D000A0EB0A0064284ED8DBF80000C005F5D55E
:1019E000E06801280AD008B1052813D0286A20F041
:1019F00001002862286A20F0040002E0286A40F012
:101A000001002862E06841F2883B98B1FFF7F8FCDA
:101A100082460BE0286A40F004002862EEE700BF2F
:101A2000FFF7EEFCA0EB0A0159455AD8286A800757
:101A3000F6D50CE0FFF7E4FC824605E0FFF7E0FC9A
:101A4000A0EB0A0159454CD8286A8007F6D41FB18B
:101A5000E86920F08050E861E06988B36968C1F303
:101A60008101022944D00228C6F8608004D0FFF723
:101A7000C7FC044638E034E0FFF7C2FC074604E048
:101A8000FFF7BEFCC01B02282BD828688001F7D4C2
:101A9000206AB0F5803F05D16868A16820F4003065
:101AA00008436860D4E908010843696821F47411A7
:101AB00008436860C6F86090FFF7A2FC044606E0A1
:101AC00025E000BFFFF79CFC001B022809D828680E
:101AD0008001F7D51BE000BFFFF792FC001B022836
:101AE00002D90320BDE8F88F28688001F4D40EE005
:101AF0000128F7D06868226A00F48031914204D14D
:101B0000616A00F47010884201D00120EAE70020E9
:101B1000E8E7000000100240000042428004424218
:101B2000680000200070004010B5401EB0F1807FBA
:101B300001D3012010BD4FF0E02460610F21601738
:101B400002F0C6FC0020A06107202061002010BD2B
:101B50007047704710B590F83C20012A22D001222E
:101B600080F83C20CA688C6822F4407222434C689A
:101B700022F4806222430C6822F4006222430C6942
:101B800022F4805222434C6922F400522243C96954
:101B9000002322F480420A4301684A6480F83C3002
:101BA000002010BD022010BD70B590F83C20012A25
:101BB00026D0012480F83C40022280F83D200368B2
:101BC0005A689D6822F070060A6832435A600D4BCD
:101BD00002689A4208D0B2F1804F05D00A4B9A426F
:101BE00002D00A4B9A4204D1496825F08003194378
:101BF000916080F83D40002180F83C10084670BD9F
:101C0000022070BD002C014000040040000800408C
:101C100090F83D10012901D001207047022180F881
:101C20003D100168CA6842F00102CA6000680B49B1
:101C3000884208D0B0F1804F05D00949884202D0CF
:101C40000849884204D1816801F00701062903D0C0
:101C5000016841F00101016000207047002C014043
:101C600000040040000800402DE9F0410D4604004A
:101C700003D094F83D0018B108E00120BDE8F081E0
:101C8000002084F83C00204600F040F8022084F850
:101C90003D002068816844F2070291438160211D64
:101CA000206802F0BFF8226890689169166A2B6874
:101CB000AF69034340F20330814341EA0721A8683A
:101CC000EF6908434FF6FC418843E96840EA072082
:101CD000014328692F6A000140EA07300843696818
:101CE0006D6926F0220646EA0515294393602268AD
:101CF000906154F8460B0162012004F81F09E07559
:101D00002076E0762077A0750020B7E700B585B093
:101D100000210091019102910391224B0268224817
:101D2000C0219A421BD1C26942F00202C261C2695B
:101D300002F002020492826942F004028261806928
:101D4000009100F00400049069461848FFF762FA19
:101D5000012211461D20FFF7D3FB1D201DE0144B6F
:101D60009A421CD1C26942F00402C261C26902F007
:101D700004020492826942F0080282618069009143
:101D800000F00800049069460A48FFF743FA012270
:101D900011461E20FFF7B4FB1E20FFF7A4FB05B081
:101DA00000BD000000040040001002400008014097
:101DB00000080040000C014070B590F83E600446F9
:101DC00090F83F5090F8423090F84320022021B123
:101DD00004290ED0012E1BD114E0012E18D1012BA5
:101DE00016D184F83E0084F84200012200212068C8
:101DF00020E0012D0CD1012A0AD184F83F0084F89B
:101E0000430014E0012D03D1012B01D1012A01D09F
:101E1000012070BD84F83E0084F83F0084F8420041
:101E200084F8430001220021206802F031F80122E9
:101E30000421206802F02CF82068016841F00101BB
:101E40000160002070BD00002DE9F041254CA0424A
:101E500045D1254D2888010641D4410641F211168D
:101E600040F244471BD540F08000288004212046E2
:101E700000F096FB68802068016A314206D1016A51
:101E8000394203D1016821F0010101602068016A33
:101E900021F0A00101622068016A01621BE00021BB
:101EA0006980402028802068026A324206D1026A96
:101EB0003A4203D1026822F00102026020684162C6
:101EC0002068016A21F0A00101622068016A41F0E6
:101ED000200101622068016841F001010160BDE854
:101EE000F0810000A4020020540000202DE9F04100
:101EF000054690F83C0000260C46012810D0012031
:101F000085F83C0072B1042A1CD0082A2CD00C2A77
:101F100050D00126002085F83C003046BDE8F08115
:101F20000220FBE7D4E90012E368286802F060F8B9
:101F30002868816921F00C01816128688169A268A3
:101F400011430FE0D4E90012E368286802F07CF83E
:101F50002868816921F44061816128688169A268EB
:101F600041EA02218161D5E72868D4E9002C277B6A
:101F7000036A016A21F480710162C16923F400736C
:101F800021F0030141EA0C0121F0F00C39074FF474
:101F900000774CEA116107EA02221A43C16102622A
:101FA0002868C16921F00C01C1612868C169A26873
:101FB00011432BE02868D4E90021E768036AD0F8D0
:101FC00020C02CF4805CC0F820C0D0F81CC023F4E2
:101FD00000532CF4407C4CEA012121F4704C4FF664
:101FE000FF7101EA07314FF4005741EA0C0107EA9B
:101FF00002321A43C16102622868C16921F440615A
:10200000C1612868C169A26841EA0221C16181E712
:1020100010B5040003D094F83D0010B107E0012092
:1020200010BD002084F83C00204600F01FF802207C
:1020300084F83D00211D206801F0F4FE012084F8A1
:10204000460084F83E0084F83F0084F8400084F89D
:10205000410084F8420084F8430084F8440084F886
:10206000450084F83D00002010BD000030B585B06B
:10207000002400940194029403940068B0F1804F0E
:102080002AD11648C16941F00101C161C16901F05D
:1020900001010491816941F0040181618069104D61
:1020A00000F0040004900220009069462846FFF7E3
:1020B000B1F8012211461C20FFF722FA1C20FFF77D
:1020C00012FA082000900120CDE9010403200390BA
:1020D00069462846FFF79EF805B030BD0010024063
:1020E0000008014030B50446002551B104290DD047
:1020F000082910D094F8410094F84520012811D106
:102100000EE094F83E0094F84220F7E794F83F0080
:1021100094F84320F2E794F8400094F84420EDE767
:10212000012A01D0012030BD022059B1042912D06A
:10213000082919D084F8410084F845000C2938D0CA
:10214000012534E084F83E0084F842002068C2682B
:1021500042F0020210E084F83F0084F84300206857
:10216000C26842F0040207E084F8400084F84400AA
:102170002068C26842F00802C2600122206801F0B3
:1021800087FE0E492068884208D0B0F1804F05D004
:102190000B49884202D00B49884204D1816801F082
:1021A0000701062903D0016841F0010101602846BA
:1021B00030BD2068C26842F01002DDE7002C01400B
:1021C000000400400008004070B504460068016942
:1021D0004FF00005C943890715D4C168C943890771
:1021E00011D4E91E016101202077206880698007F1
:1021F000204602D0FFF728FE04E000F0BFF820469A
:1022000000F064F9257720680169C943490717D4AC
:10221000C168C943490713D46FF00401016102206A
:1022200020772068806910F4407F204602D0FFF7B5
:102230000BFE04E000F0A2F8204600F047F92577F5
:1022400020680169C943090716D4C168C943090751
:1022500012D46FF008010161042020772068C06962
:102260008007204602D0FFF7EFFD04E000F086F87B
:10227000204600F02BF9257720680169C943C9067B
:1022800017D4C168C943C90613D46FF010010161A6
:10229000082020772068C06910F4407F204602D0D3
:1022A000FFF7D2FD04E000F069F8204600F00EF9D7
:1022B000257720680169C943C90708D1C168C943A6
:1022C000C90704D1891E0161204600F04FF920683A
:1022D0000169C943090609D4C168C943090605D47F
:1022E0006FF0800101612046FFF732FC2068016930
:1022F000C943490609D4C168C943490605D46FF0EA
:1023000040010161204600F060F920680169C9437D
:1023100089060BD4C168C943890607D46FF0200130
:1023200001612046BDE87040FFF713BC70BD00009E
:1023300000B585B0002100910191029103910068E0
:102340000B49884212D10B48816941F00401816137
:102350008069694600F0040004904FF4106000901A
:102360000220019003900448FEF754FF05B000BD21
:10237000002C01400010024000080140704770B579
:10238000044690F83C0000260D4601280FD001209D
:1023900084F83C006AB1042A1DD0082A2FD00C2AE8
:1023A0003FD00126002084F83C00304670BD02205A
:1023B00070BD206801F07AFD2068816941F0080154
:1023C00081612068816921F004018161206881694F
:1023D0002A69114311E0206801F090FD20688169AD
:1023E00041F4006181612068816921F4806181612B
:1023F000206881692A6941EA02218161D2E7206867
:1024000001F0A8FD2068C16941F00801C1612068A0
:10241000C16921F00401C1612068C1692A691143C1
:1024200011E0206801F0C2FD2068C16941F400613B
:10243000C1612068C16921F48061C1612068C169FE
:102440002A6941EA0221C161ACE710B5040003D05A
:1024500094F83D0010B107E0012010BD002084F881
:102460003C00204600F01EF8022084F83D00211DAB
:10247000206801F0D7FC012084F8460084F83E0073
:1024800084F83F0084F8400084F8410084F842005A
:1024900084F8430084F8440084F8450084F83D0043
:1024A000002010BD08B500680649884208D10648DA
:1024B000816941F400618161806900F400600090ED
:1024C00008BD0000002C01400010024070470000D1
:1024D00010B50446022249B104290ED0082913D0B0
:1024E00094F84100012816D0012010BD94F83E0058
:1024F0000128F9D184F83E200FE094F83F0001282C
:10250000F2D184F83F2008E094F840000128EBD194
:1025100084F8402001E084F841200122206801F085
:10252000B7FC0F492068884203D1426C42F4004254
:1025300042642068884208D0B0F1804F05D0094934
:10254000884202D00849884204D1816801F007011D
:10255000062903D0016841F001010160002010BD8F
:10256000002C014000040040000800400A49884255
:102570000AD10A4801880A0606D44A0604D5CA4385
:10258000920602D0491C0180704741F08001018011
:102590004FF6FF7141807047A402002054000020D4
:1025A0000246002041B1042909D008290AD00C298B
:1025B00001D11068006C70471068406B704710685C
:1025C000806B70471068C06B7047704770477047EA
:1025D000F8B5016804460868CA684B6910F00F0F27
:1025E0004FF0000559D003F0010602F4907737430D
:1025F00065D0C10705D0D10503D5616C41F001015B
:102600006164410705D5D90703D0616C41F002012F
:102610006164810705D5D90703D0616C41F00401DD
:102620006164010707D502F02001314303D0616CDA
:1026300041F008016164616C00293AD0800604D53C
:10264000900602D5204601F06EFD20684069616C5D
:10265000C0F38010090700D460B3204601F03CFDB0
:1026600020684069400621D52068143050E8001FDA
:1026700021F0400140E80012002AF5D1E06BA8B13A
:102680006D494163E06BFEF7F9FC002811D0E06B67
:10269000416B01B0BDE8F040084783060FD59306B3
:1026A0000DD52046BDE8F84001F03DBD2046FFF7BE
:1026B0008EFFF8BD2046FFF78AFF6564F8BD266BE4
:1026C0002023012E7CD1C6067AD5D60678D5086897
:1026D0004868009048694FF00206400640D5E16B1B
:1026E000086840680004000CE8D0A28D8242E5D959
:1026F000E085886920282DD020680C3050E8001F24
:1027000021F4807140E80012002AF5D120681430CD
:1027100050E8001F21F0010140E80012002AF5D125
:102720002068143050E8001F21F0400140E80012FA
:10273000002AF5D184F84230256320680C3050E837
:10274000001F21F0100140E80012002AF5D1E06BD3
:10275000FEF770FC6663A08DE18D401A81B22AE01D
:10276000A08DE18D401A81B2E08D0028A6D000290D
:10277000A4D022680C3252E8000F20F4907042E896
:102780000007002FF5D12068143050E8002F22F008
:10279000010240E80027002FF5D184F8423025637C
:1027A00020680C3050E8002F22F0100240E800238F
:1027B000002BF5D166632046FFF708FFF8BDFFE761
:1027C00005062BD5150629D594F841002128F5D109
:1027D000A068B0F5805F01D12069B0B1206A411CCA
:1027E0002162216800784860E08C401E0004000CE3
:1027F000E084E3D12068C16821F08001C1602068D5
:10280000C16841F04001C160D8E7206A0088C0F388
:1028100008004860206A801C2062E5E74006CDD5AC
:102820005006CBD5CA68204622F04002CA6084F820
:10283000413000F075FAC1E7C940000870B50400E6
:1028400004D094F84100002510B106E0012070BDCD
:1028500084F84050204600F023F8242084F84100FA
:102860002068C16821F40051C160204601F0BCFC21
:102870002068016921F4904101612068416921F0DB
:102880002A0141612068C16841F40051C16065645A
:10289000202084F8410084F842006563002070BD68
:1028A000F0B585B000240094019402940394036869
:1028B000424F022042490322424D4602BB4225D1EB
:1028C0008B6943F480438B618B6903F480430493E9
:1028D0008B6943F004038B618969039201F0040161
:1028E00004910102CDE9001069462846FEF792FCEA
:1028F000CDE90064694628460294FEF78BFC01226C
:1029000011462520FEF7FCFD252028E02E4FBB4276
:1029100029D1CB6943F40033CB61CB6903F4003395
:1029200004938B6943F004038B618969039201F07E
:10293000040104910421CDE9001069462846FEF700
:1029400069FC0820CDE90004694628460294FEF798
:1029500061FC012211462620FEF7D2FD2620FEF75B
:10296000C2FD05B0F0BD194DAB42FAD1CB6943F4BD
:102970008023CB61CB6903F4802304938B6943F0FC
:1029800008038B618969124D01F00801CDE903212B
:10299000CDE9006069462846FEF73CFCE814CDE925
:1029A0000004694628460294FEF734FC01221146D1
:1029B0002720FEF7A5FD2720D1E7000000380140C1
:1029C0000010024000080140004400400048004060
:1029D000000C014090F84230202B01D002207047BB
:1029E00021B11AB10023036301F05ABC01207047E2
:1029F0002DE9F05F0068B64A01210025B54C4FF083
:102A0000020A904279D1E01DDFF8CCC20078E06084
:102A1000B24AB34BB34EB44F2072592816D058283F
:102A200017D00A281BDD5A282ED041283ED0452831
:102A30002FD0422831D043282FD044282DD04628EB
:102A400030D047282ED048282CD004E08CF800A0A5
:102A500001E08CF8001015701D7035703D700A286B
:102A60002ADA5FEA000C0FD001281FD0052810D009
:102A700002281DD003281BD0042819D0062828D0EE
:102A8000072826D0082824D015701D7003E03D705B
:102A900012E0157019703570F9E715701D703570FA
:102AA0003970DCE715701D703170D7E71170ECE7F5
:102AB00015701D7035703970864A8C4B7B285278A2
:102AC0000BD07D280ED02678012E07D0022E0BD0F9
:102AD00065E015701D703170D9E721709854521C53
:102AE00062705CE084F800A0D878502806D058784E
:102AF00023284CD0A27099462AE055E07C4801700A
:102B000045E06178081A05F043F802460B460020BC
:102B1000784904F03FF80646A0780F4680464844BE
:102B200010F8010C303805F033F832463B4605F01A
:102B300095F806460F46206905F0A0FB32463B4655
:102B400004F0D6FD04F0A2FD2061A8F10100A07000
:102B5000A0780428D5D299F801003038062816D27A
:102B6000DFE800F00306090C0F12634920690DE04D
:102B7000624920690AE06249206907E061492069E9
:102B800004E06149206901E060492069086025701E
:102B90006570A570322155482561FDF70DFC4D4942
:102BA0000122C91D5A488DE05A4A904272D1DFF87D
:102BB00024C148480CF106069CF804209CF805B096
:102BC000E778554B801D36780BEB4B0C0CEB03096B
:102BD0000078164407F1010CF6B20CF0FF0C3A2F06
:102BE0006CD2DFE807F01D232A34373C3F42454AC8
:102BF00042454A42454A42454A42454A42454A427E
:102C0000454A42454A42454A42454A42454A42456A
:102C10004A42454A42454A42454A42454A53585D1E
:102C2000A5280CD11870E170A5320EE05A2806D103
:102C3000587084F803A05A3207E03A2801D0E570B2
:102C40003BE098700320E0703A32227136E0D87091
:102C5000042023E01871052020E026712EE0587131
:102C600006201BE09871072018E089F8070001E0B2
:102C700089F8080084F803C0EFE789F8090084F8B0
:102C800003C026710BF10100607117E083F8370073
:102C9000382003E01AE083F838003920E070DCE7E0
:102CA00083F83900E5706571904202D102F036F880
:102CB00003E03A211848FDF77FFB25710549012201
:102CC0001648891DBDE8F05FFFF784BEBDE8F09FA0
:102CD000004800407800002001000020280000206B
:102CE000290000202A0000202B000020540800208A
:102CF0004D000020000024400C00002010000020A7
:102D000014000020180000201C00002020000020DB
:102D10000C04002000440040900F0020C403002059
:102D20007047FEE770B50D46044600F0C1F8204636
:102D300000F08EF800F004F9284600F089F800F061
:102D4000FFF800F0B5F8641CE0B200F081F800F084
:102D5000F7F8002000F046F8044600F0D1F82046CD
:102D600070BD000070B50D4C0025C4F8A0510C4892
:102D7000016821F0F0010160016841F0300101605B
:102D8000C4F8A451012004F5D07402F0F5F8012034
:102D9000206002F0F1F8256070BD00000080214243
:102DA000040C014070B50D4C0025C4F8A0510C482E
:102DB000016821F0F0010160016841F0300101601B
:102DC0000126C4F8A461304604F5D07402F0D4F8AA
:102DD0002660012002F0D0F8256070BD00802142FD
:102DE000040C01402DE9F047814617480024016892
:102DF00021F0F0010160016841F080010160134E93
:102E0000254627464FF00108C6F8A071022002F0BF
:102E1000B3F8C6F8A0816006040ED6F8240108B104
:102E2000641CE4B2022002F0A7F86D1CEDB2082D7C
:102E3000EAD3B9F1000F02D0FFF794FF01E0FFF7EA
:102E4000B1FF2046BDE8F087040C0140008021421C
:102E50002DE9F04106461448016821F0F0010160B7
:102E6000016841F030010160104C0027C4F8A071E6
:102E70003D464FF00108F009C4F8A4017006060EA3
:102E8000012002F079F8C4F8A081012002F074F862
:102E9000C4F8A071012002F06FF86D1CEDB2082D8E
:102EA000E9D3BDE8F0810000040C0140008021421C
:102EB00070B51148016821F0F0010160016841F02E
:102EC000300101600D4C0120C4F8A401D4F8241194
:102ED00049B1C4F8A00102F04FF80025C4F8A4518C
:102EE000D4F8240108B1002070BD012002F044F89C
:102EF000C4F8A051012070BD040C014000802142A3
:102F00000D4810B5016821F0F0010160016841F041
:102F100030010160094C0020C4F8A001C4F8A401EC
:102F2000012004F5D07402F027F8012020606060D1
:102F3000BDE8104002F020B8040C0140008021429E
:102F400070B513480024016821F0F00101600168A8
:102F500041F0800101600F4D0126C5F8A4613046A3
:102F600002F00AF8C5F8A06107E0641CE4B2322C54
:102F700003D9FFF7C5FF002070BD012001F0FCFF61
:102F8000D5F824010028F0D1C5F8A001012070BDBA
:102F9000040C01400080214210B51446FFF7C2FE28
:102FA0002070012010BDF8B515461C460E46074698
:102FB0006A46FFF7F1FF01209DF80010A8400CB110
:102FC000084301E021EA0000C2B28DF8002031463A
:102FD000384600F02BF8F8BD2DE9F84314461D469D
:102FE0000F4680466A46089EFFF7D6FF00281BD092
:102FF000611CFF20C4F1080200FA01F12A44521EAC
:10300000D0400143C5F108008640F2B2C4F1070088
:10301000C2409DF80000084010438DF80000C2B285
:103020003946404600F002F8BDE8F88307B502AB28
:10303000012200F001F80EBD2DE9F0411E461546B3
:10304000884607460024FFF733FF3846FFF700FFA6
:10305000FFF776FF4046FFF7FBFEFFF771FF06E044
:10306000305DFFF7F5FEFFF76BFF641CE4B2AC4286
:10307000F6D3FFF745FF0120BDE8F08110B586B01B
:1030800000241248019402940394816941F00801DC
:103090008161816901F008010491816941F01001A9
:1030A00081618069694600F010000490042000905E
:1030B0000748FEF7AFF84FF46040CDE900046946D9
:1030C00004480294FEF7A6F806B010BD00100240B6
:1030D000000C01400010014041060748826942F09F
:1030E000010282610548426822F0E0624260426863
:1030F0000A43426070470000001002400000014097
:103100002DE9F34F524D8DB00846E9684F4E0891B6
:1031100005F048FB2968009105F06EFAA96805F0F2
:10312000D9F805F16404069067683046394605F021
:1031300039FBD4F80890494605F034FB454908604E
:10314000E268904682F00046434A4E60C1E902625E
:10315000009905F051FA216805F0BCF88346304625
:10316000009905F049FA0646394605F0B3F882465B
:103170003046494605F0AEF881463748009905F0DB
:103180003BFA414605F0A6F8804606990D9805F0F1
:1031900009FB039059464FF07E5005F02DFA064684
:1031A00049464FF07E5005F027FA049031464FF023
:1031B0007E5005F021FA4FF07C5105F08BF8074660
:1031C0000146304605F0EEF801903946049805F0C6
:1031D000E9F8009051464FF07E5005F00DFA074691
:1031E0003146019805F008FA594605F0D1FA2060F9
:1031F0003946019805F000FA514605F0C9FA6060B9
:103200003146009805F0F8F9494605F0C1FAA0608A
:103210003946009805F0F0F9414605F0B9FAE0604A
:103220000399019805F0E8F9069905F053F8A860AC
:1032300004460399009805F0DFF9089905F04AF86B
:10324000E8600FB02046BDE8F08F00006F12833AAF
:1032500008010020D4160020A69B443B2DE9F34F23
:10326000524D8DB00846E96B4F4E089105F09AFA21
:103270002968009105F0C0F9A96B05F02BF805F15C
:103280007404069067683046394605F08BFAD4F826
:103290000890494605F086FA45490860E26890467C
:1032A00082F00046434A4E60C1E90262009905F08F
:1032B000A3F9216805F00EF883463046009905F021
:1032C0009BF90646394605F005F8824630464946E0
:1032D00005F000F881463748009905F08DF9414620
:1032E00004F0F8FF804606990D9805F05BFA03900C
:1032F00059464FF07E5005F07FF9064649464FF09B
:103300007E5005F079F9049031464FF07E5005F07B
:1033100073F94FF07C5104F0DDFF0746014630465B
:1033200005F040F801903946049805F03BF800900C
:1033300051464FF07E5005F05FF90746314601983F
:1033400005F05AF9594605F023FA206039460198EC
:1033500005F052F9514605F01BFA606031460098BD
:1033600005F04AF9494605F013FAA060394600987D
:1033700005F042F9414605F00BFAE0600399019827
:1033800005F03AF9069904F0A5FFA86304460399ED
:10339000009805F031F9089904F09CFFE8630FB03C
:1033A0002046BDE8F08F00006F12833A080100202C
:1033B000E4160020A69B443B10B5322001F068FCC7
:1033C000012804D10948017859B10021017000F0A9
:1033D00011F8012804D10648017821B100210170BB
:1033E00010BD0121F2E70121F9E7000002000020F1
:1033F000030000200C48002142891AB90B4BD3F876
:1034000014310BB101810AE003895B1C9BB203817B
:10341000C82B04D901224281018110467047012A3C
:1034200000D14181002070476C0000200000214243
:1034300010B5022000F011F8032000F020F8002061
:1034400000F014F8002000F02FF8002000F026F81B
:10345000BDE81040002000F01BB808B50323009021
:1034600002226B21D020FFF7B7FD08BD08B502236B
:10347000009004221C21D020FFF7AEFD08BD08B546
:103480000223009004221B21D020FFF7A5FD08BDD8
:10349000034601223721D020FFF785BD03460522D0
:1034A0006A21D020FFF77FBD034606226B21D02082
:1034B000FFF779BD3EB500241148009401940294B1
:1034C0000E498460016004730475012505614FF4A1
:1034D00060214460C161FDF7DBFC08B1FDF7B5FA7E
:1034E0000920CDE90005694602940548FDF752FC24
:1034F000002801D0FDF7A9FA3EBD000000240140DC
:10350000FC0100203EB5002411480094019402946F
:103510000E498460016004730475012505614FF450
:1035200060214460C161FDF7B3FC08B1FDF78DFA7D
:103530000820CDE90005694602940548FDF72AFCFC
:10354000002801D0FDF781FA3EBD000000280140AF
:103550002C0200202DE9F04385B00024354800946A
:10356000019402940394816941F0100181618169A1
:1035700001F010010491816941F0200181618169AC
:1035800001F020010491816941F0040181618169A8
:1035900001F004010491816941F0080181618069B1
:1035A000002200F0080004904FF460412248FDF72B
:1035B00021FFDFF8889048F210050022294648468E
:1035C000FDF718FFDFF878804FF2383700223946D0
:1035D0004046FDF70FFF0095022601250396CDE931
:1035E000015469464846FDF715FE2020CDE9000448
:1035F000694648460294FDF70DFE00970396CDE913
:10360000015469464046FDF705FE280300900D4829
:10361000CDE9010469464846FDF7FCFD012202217F
:103620002820FDF76DFF2820FDF74CFF05B0BDE811
:10363000F08300000010024000100140000801402B
:10364000000C01400000111010B592B000240F943E
:103650001C2168461094FCF7D1FE202107A8FCF736
:10366000CDFE28482649C0E9001441F61F41C0E9B3
:10367000024180210461C0E90541FEF7E6FE08B180
:10368000FDF7E3F90F940FA91E481094FEF78CFA8A
:1036900008B1FDF7DAF96020CDE900040294039443
:1036A000049405940022694616480694FEF767FEC6
:1036B00008B1FDF7CAF90C2269461248FEF75FFE11
:1036C00008B1FDF7C2F90794089409944FF400502B
:1036D0000A94CDE90B4007A90A480E94FEF73AFA7E
:1036E00008B1FDF7B2F900210648FEF7F1FE0C2102
:1036F0000448FEF7EDFE0348FEF71AFE12B010BDB7
:10370000002C01405C02002010B586B000241B484C
:10371000059404940094019402944FF08041039422
:1037200001604721C0E901144FF6FF71C0E903149D
:103730008461FEF76DFC08B1FDF787F9049404A9D4
:103740000E480594FEF730FA08B1FDF77EF9012026
:10375000CDE9004002940422694608480394FEF72C
:10376000C5FB08B1FDF771F904210448FEF7BAFC66
:103770000248FEF74DFA06B010BD0000A40200207A
:1037800010B58CB024216846FCF738FE0024194897
:10379000099417490A94C0E900144FF6FF71C0E973
:1037A0000241046184610320CDE900040120CDE9D8
:1037B00002040494CDE90540079469460D48089435
:1037C000FEF752FA08B1FDF740F9099409A9094832
:1037D0000A94FEF7E9F908B1FDF737F90021054829
:1037E000FEF7EAFA04210348FEF7E6FA0CB010BD32
:1037F00000040040EC02002010B58CB02421684683
:10380000FCF7FCFD00241948099417490A94C0E903
:1038100000144FF6FF71C0E9024104618461032086
:10382000CDE900040120CDE902040494CDE905406E
:10383000079469460D480894FEF716FA08B1FDF79B
:1038400004F9099409A909480A94FEF7ADF908B1E9
:10385000FDF7FBF800210548FEF7AEFA0421034806
:10386000FEF7AAFA0CB010BD000800403403002097
:103870000C4810B50A4901604FF4E1314160002164
:1038800081600C22C160C0E904128161C161FEF750
:10389000D5FF002803D0BDE81040FDF7D6B810BD15
:1038A000003801407C0300200E4810B50C4901602F
:1038B0004FF416514160002181600C22C160C0E9C3
:1038C00004128161C161FEF7B9FF08B1FDF7BDF8CF
:1038D000BDE81040012204490248FFF77BB8000010
:1038E000004800400C0400207F000020FEE7FEE7B7
:1038F00010B40021084B0A465FF0000003EBC0043F
:10390000401CC0B262548028F8D3491CC9B20829AF
:10391000F2D310BC00F078B85404002010B5394C34
:103920000020C4F88C01642004F5C67401F00AFB81
:10393000012020600021AE2000F08CF80021D5206D
:1039400000F088F80021502000F084F80021A82021
:1039500000F080F800213F2000F07CF80021D32007
:1039600000F078F80021084600F074F800214020AB
:1039700000F070F800218D2000F06CF80021142078
:1039800000F068F80021202000F064F800210220F7
:1039900000F060F80021A12000F05CF80021C020B8
:1039A00000F058F80021DA2000F054F8002112202D
:1039B00000F050F80021812000F04CF80021EF20A9
:1039C00000F048F80021D92000F044F80021F1204F
:1039D00000F040F80021DB2000F03CF8002130200E
:1039E00000F038F80021A42000F034F80021A620CF
:1039F00000F030F80021AF2000F02CF8BDE81040B6
:103A0000FFF776BF0080214270B5114E002400BF41
:103A100004F1B000C0B2002100F01CF800210846FB
:103A200000F018F80021102000F014F85FF00005F5
:103A300006EBC5000121005D00F00CF86D1CEDB235
:103A4000802DF5D3641CE4B2082CE1D370BD0000D6
:103A50005404002070B50F4C0025012211B1C4F8A8
:103A6000BC2101E0C4F8BC510B4B0021C3F89451B8
:103A7000060602D5C3F8902101E0C3F89051C3F8BF
:103A800094214006491C000EC9B20829EED3C4F89F
:103A9000BC2170BD0000214200802142884200DD2F
:103AA0000846904200DA1046704770472DE9F04F03
:103AB00089B0684C07A8CDE9004004F1260106ABA7
:103AC00002AA881F01F0C2FB2088C0057ED502989B
:103AD00004F066FD6FF01D06314604F038FF8046A5
:103AE0006060039804F05CFD314604F030FF074647
:103AF000A060049804F054FD314604F028FF054608
:103B0000E060059804F04CFD314604F020FF0646C5
:103B100020610121404604F01AFF294604F06CFDA3
:103B200005464FF040484146384604F065FD3146B1
:103B300004F062FD294604F0CDFB04F09FFB00F089
:103B400091FDDFF814A14FF066394A46534604F060
:103B500085F803F09BFD6061E0680121054604F0F3
:103B6000F6FE8346294604F047FD0546A068414617
:103B7000064604F041FD314604F03EFD294604F0BE
:103B800011FE4FF07E5104F0A5FB04F077FB0746D1
:103B90000D460121606804F0DAFE314604F02CFD88
:103BA00006465846216904F027FD314604F092FB91
:103BB00004F064FB3A462B4600F09CFF4A4653460D
:103BC00004F04CF803F062FDA06100E03FE02169E1
:103BD0000191084604F010FDE1680746084600918F
:103BE00004F00AFDA16806468B46584604F004FD21
:103BF000616805468846404604F0FEFC294604F00C
:103C000069FB314604F0CEFD394604F0CBFD04F0EB
:103C100035FB06460D464046019904F0EDFC07468B
:103C20005846009904F0E8FC394604F053FB0121A2
:103C300004F08DFE04F022FB32462B4600F05AFFC2
:103C40004A46534604F00AF803F020FDE06109B04B
:103C5000BDE8F08FB801002066A64C4010B50E4CB0
:103C60000120C4F88C010F2004F5C67401F084F91A
:103C700000222260094801880B060CD54488890679
:103C800004EB9121AA2461434FF47A74B1FBF4F15F
:103C9000034B1960028010BD000021425400002037
:103CA000080000200021032803D0042803D00020AE
:103CB0007047034A00E0034A1068116000B2704781
:103CC000240400402408004010B54221D020FFF712
:103CD00029F804464121D020FFF724F804EB002006
:103CE00004F076FCB0F18E4F03DD4FF08F4104F00D
:103CF00059FD094904F056FB04F0C0FA074A084B85
:103D000003F0F6FC0022074B03F0A8FF03F0BEFC13
:103D1000BDE8104004F008BC0000AA43A4703D0AAE
:103D2000D7434240000024407047000030B50023D4
:103D30000124114A002804DDC2F8B841C2F8BC31A0
:103D400003E0C2F8B831C2F8BC4102F01DFF0B4DD0
:103D50002860002904DDC2F8B441C2F8B03103E0A4
:103D6000C2F8B431C2F8B041084602F00DFF034971
:103D70000C31086030BD000000802142342C01402D
:103D8000FDF744BB30B593B028216846FCF736FBFD
:103D900014210AA8FCF732FB002501200F9510958D
:103DA0001195010412958DE8230004904FF4E01062
:103DB000CDE90810022407946846FDF725FD08B1F7
:103DC00072B6FEE70AA90F2081E831004FF4806047
:103DD000CDE90D0502210AA8FDF73AFC08B172B63B
:103DE000FEE74FF4004011900F940FA8FDF7BAFBC7
:103DF000002801D072B6FEE713B030BD7047000056
:103E00000148FEF7E1B90000A40200200148FEF7D6
:103E1000DBB90000EC0200200148FEF7D5B9000034
:103E200034030020F0B50268164B174C174D4FF0C5
:103E30008047984205D0B84203D0A04201D0A842A2
:103E400003D122F070064A683243984205D0B84246
:103E500003D0A04201D0A84203D122F44074CA6822
:103E600022434C6922F08002224302608A68C262C7
:103E70000A688262984201D10969016301214161A6
:103E8000F0BD0000002C014000040040000800408C
:103E900010B501F01F030121046A99408C430462AC
:103EA000016A9A401143016210BD000030B5036AF7
:103EB000026A22F0010202624268846924F07305FA
:103EC0000C682C4323F002058B682B430A4DA84253
:103ED0000BD123F00805CB6822F440722B434D69C7
:103EE00023F0040315438A692A43426084614968C8
:103EF0004163036230BD0000002C014030B5026A0E
:103F0000036A23F010030362436884690D6824F494
:103F1000E64444EA05248D6822F0200242EA0512B4
:103F20000B4DA8420ED1CD6822F0800242EA051264
:103F30004D6923F4406343EA85038D6922F0400212
:103F400043EA85034360846149688163026230BD4E
:103F5000002C014030B5036A026A22F480720262CA
:103F60004268C46923F4007324F073050C682C4381
:103F70008D6843EA05230C4DA8420ED1CD6823F489
:103F8000006343EA05234D6922F4405242EA0512D8
:103F90008D6923F4806342EA05124260C461496876
:103FA000C163036230BD0000002C014030B5046ADB
:103FB000026A22F4805202624268C3690D6823F4E7
:103FC000E64343EA05238D6824F4005444EA0534AB
:103FD000064DA84204D14D6922F4804242EA85127E
:103FE0004260C36149680164046230BD002C014035
:103FF00070B5056A046A24F00104046284690F4EF6
:10400000B04208D0B0F1804F05D00D4EB04202D082
:104010000C4EB04203D124F00304144301E044F0F9
:1040200001041A0724F0F00444EA126225F00A039E
:1040300001F00A0119438261016270BD002C014048
:10404000000400400008004030B5046A056A25F00D
:1040500010050562856925F4407545EA022222F4BF
:1040600070454FF6FF7202EA033224F0A0032A43A0
:10407000A02404EA011119438261016230BD0000ED
:104080000D4A904209D80D4A904206DC0C4800784F
:10409000012802D0B1F57A7F0BDA0A4A012000210B
:1040A000C2F8B811C2F8BC11C2F8B411C2F8B0110C
:1040B0007047002070470000000020C2000020422E
:1040C000020000200080214210B5406A0021C18515
:1040D000C184FEF77CFA10BD01680C3151E8002F55
:1040E00022F4907241E80023002BF5D101681431CD
:1040F00051E8002F22F0010241E80023002BF5D106
:10410000016B012909D101680C3151E8002F22F01F
:10411000100241E80023002BF5D1202180F8421045
:1041200000210163704708B590F84210222901D0A0
:10413000022008BD82684FF480539A4201D1016980
:1041400021B1816A9A421BD04AB10AE00268816AB1
:104150005268C2F308020A80816A891C08E0026979
:1041600072B10268526802F07F020A70816A491CCB
:104170008162C18D491E0904090CC18503D01BE071
:1041800002685268F1E70168CA6822F02002CA603A
:104190000168CA6822F48072CA6001684A6922F024
:1041A00001024A61202180F8421000214163026B24
:1041B000012A03D0FEF71CFC002008BD0163016842
:1041C0000C3151E8002F22F0100241E80023002BAF
:1041D000F5D101680A68D20602D50A6849680091DB
:1041E000818DFEF7F3F9E7E770B5044600680169D1
:1041F000E26821F44051114301612169A06808433C
:10420000616908432168CA6841F20C639A4302431A
:10421000CA6020684169A26921F44071114341617B
:104220001E492068884202D1FDF7B8FA01E0FDF787
:10423000A5FA00EBC00101EB001260686421800068
:10424000B2FBF0F3B3FBF1F36FF018067343B2FB6C
:10425000F0F5B2FBF0F605EB8305322303EB051511
:10426000B5FBF1F5B6FBF1F605F0F00505EB06152B
:10427000B2FBF0F6B2FBF0F0B0FBF1F06FF0180219
:10428000504306EB800003EB0010B0FBF1F0216817
:1042900000F00F002844886070BD00000038014025
:1042A00081628285C28500214164222180F842100A
:1042B000016921B10168CA6842F48072CA6001686C
:1042C0004A6942F001024A610068C16841F0200178
:1042D000C1600020704700000148FEF779B9000076
:1042E0007C0300200148FEF773B90000C4030020DE
:1042F0000148FEF76DB900000C040020FEE7000045
:104300002DE9F35F554982465348D1F800B054492E
:104310000078DFF85C810D6852498BF00044022878
:104320000F7851490E7851490978894602D0012801
:104330001AD029E0A5F1C900B0F5957F0CD8012F5E
:104340000AD0012E08D0084604F042F9014658462A
:1043500004F028F8C8F82C00C82D15D2012F13D06E
:10436000012E11D0484607E0B5F5E17F0CD2012FB0
:104370000AD0012E08D0084604F02AF9014620464A
:1043800004F010F8C8F82C0001990AEB010004F0C1
:1043900007F904460121584604F0D9FA214604F0F1
:1043A00001FA0546C8F824004446D8F8280003F06E
:1043B00065FF304A304B03F051FC03F067F90746C4
:1043C000284603F05BFF2D4A2D4B03F047FC0546C2
:1043D0000E46384603F052FF2A46334603F088F96A
:1043E00003F054F905460146A062206B03F072FF0A
:1043F000E16A03F06FFF23492063884202DC22490F
:10440000884200D9216321480168206B04F0F4F848
:104410001F4903F0C7FF06461E480168284604F0FE
:10442000EBF81D4903F0BEFF314604F0BBF92062F2
:104430001A4801681A480068FFF722FE012803D0D5
:1044400018480078012801D100202063206ABDE8C7
:10445000FC5F04F069B80000040000202400002084
:10446000080000202A0000202B000020010000206E
:10447000C800002085EB51B81E85EB3FEC51B81EFB
:1044800085EBC13F00401C4600401CC618000020C0
:104490000000C842140000200000C8C238000020FC
:1044A0004000002002000020490050EAC12018BF4F
:1044B00004204A0D18BF40F0010040F2FF72B2EB39
:1044C000515F08BF40F00200012808BF0520704777
:1044D0000907090E002804DB00F1E02080F8001431
:1044E000704700F00F0000F1E02080F8141D7047C5
:1044F0002DE9F0414F1E00EBC7010446D1E9000150
:1045000015461E4637F006020DD02A46334603F004
:10451000A5FB7F1E04EBC703D3E9002303F0E8F8F3
:1045200037F00602F1D1022F25D0042F13D0062F29
:1045300018BFBDE8F0812A46334603F08FFBD4E96B
:104540000A2303F0D5F82A46334603F087FBD4E963
:10455000082303F0CDF82A46334603F07FFBD4E965
:10456000062303F0C5F82A46334603F077FBD4E967
:10457000042303F0BDF82A46334603F06FFBD4E969
:10458000022303F0B5F82A46334603F067FBD4E96B
:104590000023BDE8F04103F0ABB800000022134651
:1045A0001046014903F060B90000F03F012204F019
:1045B000A0B903F09DB8002213461046114603F03F
:1045C00053B940F2013200204FF0E04104F091B9BC
:1045D000024A0020110704F08CB9000001FDFFFF22
:1045E000704700002DE9FE4F07460E46002568463D
:1045F00001F0A2F900246FF00F0AE8464FF001091C
:1046000057F8240056F82410401A00D5404203F011
:10461000C7FF514604F09BF958F8241011F0FF4FE2
:104620000BD003F0BFFE4FF07E5104F0BBF80A49F7
:1046300020F00040884205DC07E0084908440849AA
:10464000884202D309FA04F00543641C032CD7DB2B
:104650002846BDE8FE8F0000295C0F3E666666C1F5
:104660009A99D9002DE9F04D8D4F21F0004A86B07E
:1046700005460C46BA452ADBAAEB070028430AD0B8
:104680008848824501DC1AD1CDB106B02846BDE884
:10469000F04DFFF78BBF844A844B284603F0DEFAC7
:1046A00007460E46824A834B2846214603F0D6FA37
:1046B00006B03A463346BDE8F04D03F019B8012084
:1046C000FBF742FF06B0BDE8F04DFFF774BF7A4834
:1046D000824542DABAF1795F0BDA2846FFF7E4FE49
:1046E000042808BFFFF774FF284606B02146BDE83E
:1046F000F08D2A460B46104603F0B0FA8346024678
:104700006E480E460B4606217844FFF7F1FE5A46E6
:10471000334603F0A3FA804669488A465A46334630
:1047200004217844FFF7E4FE5A46334603F096FA34
:1047300000223B4602F0DCFF02460B464046514653
:1047400003F092F82A46234603F088FA06B02A4678
:104750002346BDE8F04D02F0CBBF284624F00041CF
:1047600000223D463B4603F0ADFB4FF0FF3204F024
:10477000C0F80646024653480F460B4606217844C9
:10478000FFF7B6FE32463B4603F068FACDE900017A
:104790004D4832463B4604217844FFF7A9FE324695
:1047A0003B4603F05BFA00222B4602F0A1FF834652
:1047B00002913046394602F043FF804643480D4699
:1047C000504517DCDDE900015A46029B03F04CF826
:1047D00042462B4603F042FA42462B4602F088FF3F
:1047E000012204F086F8304A304B03F05DFC304A79
:1047F000304B4CE04FF0000A52460B46404602F068
:1048000077FFCDE9031052462B461046194603F0B8
:1048100025FA32463B4603F055FBDDE9033203F04F
:1048200023F806460F46DDE900015A46029B03F0D5
:104830001BF88346009101223046394604F059F8AE
:10484000194A1A4B03F03EFB06460F46012240462A
:10485000294604F04EF85A46009B03F0FFF9324611
:104860003B4603F021FC06460F46012250462946EE
:1048700004F03FF80E4DDFF858802A46434603F017
:1048800021FB32463B4603F01DFB2A46434603F01C
:1048900019FB002CD8BF81F0004106B0BDE8F08DB7
:1048A0000000F03F0000F07F075C143326A6913C27
:1048B000182D4454FB21F93F0000E03F344F000025
:1048C0004A4F0000BE4E0000D44E00003333EF3F8D
:1048D000FB21E93F2DE9F84F04460D4621F0004049
:1048E00000917349814211DC7249884201DC06D192
:1048F0002CB120462946BDE8F84FFFF757BE6E4859
:10490000002DCCBF6D496E49BDE8F88F6D498142DD
:1049100011DD6D498142D8BF4FF0FF366DDD204675
:104920002946FFF7C1FD042808BFFFF751FE2046C6
:104930002946BDE8F88F6549654F25F0004581425D
:1049400033DD6449814219DD002632464FF0804351
:104950002046294602F0CCFE80468A4601222046A7
:10496000294603F0C6FF00223B4603F09DFB42466A
:10497000534602F079FF04460D463EE00126002230
:10498000BA463B462046294602F0B2FE80460F4614
:10499000002253462046294603F086FB42463B460A
:1049A00002F062FF04460D4627E04B4981421BDDC1
:1049B000DFF828A10226002253462046294603F0AC
:1049C0004DF900223B4602F093FE80460F4600223E
:1049D00053462046294603F067FB42463B4602F019
:1049E00043FF04460D4608E0032622462B460020DE
:1049F0003B4902F039FF04460D4622462B4610463D
:104A0000194603F02BF98B46824602460B4603F00B
:104A100025F907460246334888460B460621784466
:104A2000FFF766FD52465B4603F018F982462E48B2
:104A30008B463A46434605217844FFF759FD3A46EE
:104A4000434603F00BF902460B46002E50465946EA
:104A50000CDA02F04DFE22462B4603F0FFF801B0BF
:104A600022462B46BDE8F04F03F02CBA02F040FE80
:104A700022462B4603F0F2F81C4A7A4402EBC603A6
:104A8000D3E9002303F010FB22462B4603F00CFB76
:104A9000174A7A4402EBC603D3E9002303F012FA63
:104AA000009A002AB8BF81F00041BDE8F88F0000ED
:104AB000000010440000F07F182D4454FB21F93F02
:104AC000FB21F9BF0000DC3F0000203E0000F33F67
:104AD0000000F03F0000E63F008003400000F83F88
:104AE0000000F0BF5E4D00001C4D0000BA4C0000FD
:104AF000824C00002DE9F04D9446CCF1000423F0E7
:104B000000464CEA0404594F46EAD4749A46884653
:104B100021F00042BC4206D8454240EA050442EA80
:104B2000D474BC4204D9BDE8F04D6246FFF741BDE4
:104B3000AAF14055A5F17F6555EA0C040BD002247B
:104B400004EAAA744A4DDFF82CE144EAD87452EA28
:104B5000000B04D00CE0BDE8F04DFFF7BBBE002C0D
:104B600014BF012CBDE8F08D022C30D0032C32D0C4
:104B700056EA0C0B0AD0BE4220D1BA4209D126F027
:104B8000804622F080423346114617E000291ADBA6
:104B900025E0DFF8E4B0FB44002C04BFDBE90001B2
:104BA000BDE8F08D012C02BFDBE9000181F000417E
:104BB000BDE8F08D022C0AD0032C0CD0BA4212D1E1
:104BC000B8F1000F0BDA2A482C49BDE8F08D2846D1
:104BD0002B49BDE8F08D28467146BDE8F08D24488C
:104BE0002849BDE8F08D921B12153C2AC4BF204F06
:104BF000244E10DCBAF1000FBEBF12F13C0F0027AB
:104C00003E4608DB624602F02FFE21F00041FFF72E
:104C100061FE07460E4694B1012C08BF86F000469F
:104C20000DD0194A194B022C3846314615D003F0E5
:104C30003BFA2A46BDE8F04D114B03F035BA00228D
:104C400013463846314602F067FF04BF0220FBF7E7
:104C50007BFC38463146BDE8F08D03F025FA2A4644
:104C6000BDE8F04D064B03F02DB900000000F07FC9
:104C7000182D4454FB2109C0164C0000FB21F9BF3C
:104C8000FB210940FB21F93F075C143326A6A13C18
:104C900030B5204BD3F814411F4900222CB1CA80F3
:104CA000D3F81451012425B106E0CC88641CCC80D3
:104CB000F6E70D7805B90C704D784DB90D78012DDA
:104CC00003D18D786D1C8D704C708C78022C04D0C3
:104CD000D3F81431012B04D005E08A708A800220B9
:104CE00030BD0A704A708B78012B11D18B885B1C08
:104CF0009BB28B80834206D9CB88834203D28A70D1
:104D00008A80012030BDCB88834201D98A708A8095
:104D1000002030BD000021426C0000202DE9F0434E
:104D200091B020216846FBF769FB7649764D01205A
:104D30000870A879697900EB012002F040FF734CFC
:104D40000022234602F090FD02F0A0FC074695F8F1
:104D5000380095F8371000EB012002F030FF0022F8
:104D6000234602F081FD02F091FC0446202108A8B0
:104D7000FBF744FB6648DFF89C81874207DD664805
:104D8000844204DA4146204603F0A4FA0446002691
:104D90002046394603F006FDF11E03F0D8FD81469A
:104DA00008AC304603F014FC0146484603F024FCEE
:104DB000394603F08FFA414644F82600884203DD65
:104DC00003F0F0FC44F82600761CF6B2082EE8D377
:104DD00000200BE0102860D2DFE800F00808131371
:104DE0001E1E292934343F3F4A4A555500EB4001E5
:104DF0002944009A0B7AC9791A4402EB01210091E7
:104E00004BE000EB40012944019A0B7AC9791A441E
:104E100002EB0121019140E000EB40012944029A9C
:104E20000B7AC9791A4402EB0121029135E000EBBB
:104E300040012944039A0B7AC9791A4402EB0121F3
:104E400003912AE000EB40012944049A0B7AC979C6
:104E50001A4402EB012104911FE000EB40012944B8
:104E6000059A0B7AC9791A4402EB0121059114E0E5
:104E700000EB40012944069A0B7AC9791A4402EBE7
:104E80000121069109E000EB40012944079A0B7AC1
:104E9000C9791A4402EB01210791401CC0B21028C5
:104EA00098D31E4A1E4900201378EC461D1801EBCA
:104EB000C50754F820607E605CF82060401C7608CE
:104EC000C0B221F835600828F0D30833D8B210708A
:104ED000E12813D30C4B002013F13C0301EBC00479
:104EE00003EBC00564686C6031F8304023F8304053
:104EF000401CC0B2E128F1D30020107011B0BDE811
:104F0000F08300004C000020900F0020000059406A
:104F10000000AF430000B443000050418C0000206B
:104F2000880800204FF0E020016921F004010161B0
:104F300003480921017042F2283141807047000086
:104F4000C40000200B49498848434FF0E0214861E4
:104F500000228A61086940F0010008610869C307FE
:104F600001D0C003FAD5086920F0010008618A6108
:104F700070470000C40000200B49097848434FF0F7
:104F8000E021486100228A61086940F0010008615F
:104F90000869C30701D0C003FAD5086920F00100F1
:104FA00008618A6170470000C400002008B560B144
:104FB00020208DF8000028208DF8010030208DF889
:104FC000020038208DF8030004E0A3220421684683
:104FD000FBF7EAF96A46042140F69E2001F0AAFD9B
:104FE00001F070FA08BD00003EB5044602208DF8BD
:104FF0000000CA208DF80100E3208DF8020009208E
:105000008DF803006A460421682001F093FDA32077
:105010008DF80000610609D5C0218DF80110C82166
:105020008DF80210C2218DF8031005E08DF8010003
:105030008DF802008DF8030014F4C07F09D0C4215C
:105040008DF80410CC218DF80510C6218DF80610BE
:1050500005E08DF804008DF805008DF806008DF848
:1050600008008DF807008DF809006A460A2140F60D
:10507000A72001F05FFDA0074FF0D80503D0202046
:105080008DF8000001E08DF800506A46012140F6DD
:10509000B62001F04FFDA00601D5012000E0002060
:1050A00000F08EF814F4C07F1ED0E0050AD5B220BF
:1050B0008DF800008B208DF80100B6208DF80200DD
:1050C0009B2009E0B0208DF8000080208DF80100C1
:1050D000B4208DF8020090208DF803006A46042168
:1050E00040F6A22001F026FDE1074FF40B6022D02C
:1050F000F8218DF800106A46012101F01BFDFA210C
:10510000072000F049FB072000F014FB012000F00D
:1051100031FB642000F0D4FB4FF4FA7000F0E0FBA8
:10512000C821254800F0CEFA282000F0E3FA0A2032
:1051300000F0F0FA05E08DF800506A46012101F018
:10514000F9FCA00703D5D9208DF8000001E08DF807
:1051500000506A46012140F23D7001F0EBFC60070F
:1051600001D5012000E0002000F048F8E00601D55C
:10517000012000E00020FFF719FF104D44F0080067
:10518000688101F09FF90020A873600601D5062010
:10519000A87314F4C07F02D0A87B801DA87314F0FC
:1051A000140F02D0A87B1030A873A00702D0A87BF0
:1051B000001DA87300203EBD09E3CA02F4160020BA
:1051C0000EB54FF4976310B106A107C901E008A21C
:1051D00007CA8DE807006A460921184601F0AAFCB3
:1051E0000EBD0000B8AAB38DB4980D355D00000067
:1051F000B8AAAAAAB088C3C5C700000008B560B1A4
:10520000C0208DF80000C2208DF80100C4208DF868
:105210000200C6208DF8030004E08B2204216846BA
:10522000FBF7C2F86A46042140F6982001F082FCA0
:1052300001F048F908BD0000C8234FF4806202491C
:1052400040F6F63001F020B8448A00082DE9FF4FFF
:1052500089B01746DDE916520024544E884681462F
:105260002C80A246B07B694601F0BAF84FF0FF3BB4
:1052700018B158460DB0BDE8F08F708910F0140FCA
:105280004CD0BDF800109DF8022049BA090441EA4B
:1052900002239DF803100B433B60BDF804109DF8FA
:1052A000062049BA090441EA02229DF807101B149E
:1052B0000A437A60BDF808109DF80A4049BA09040B
:1052C00041EA04219DF80B4012142143B960BDF856
:1052D0000C409DF80EC064BA240444EA0C2C9DF8DE
:1052E0000F4009144CEA040CC7F80CC04FEA2C47D5
:1052F0005B43494302FB023207FB071111441024B0
:10530000A1F17061B1F1007F04D901F0DBF8A5F8DB
:1053100000A0AEE7298841F48071298042066946E1
:1053200011D50A19A41D13885BBAA8F80030538858
:105330005BBAA8F80230928852BAA8F804202A88EA
:1053400042F008022A8010F4C07F11D00A19A41D6F
:1053500013885BBAA9F8003053885BBAA9F8023009
:10536000928852BAA9F804202A8842F070022A8052
:10537000800716D00C44E07800F0C00500F03F0133
:105380006078C00706D0C80801F007013268491CE0
:1053900002B190476078000703D5716809B1A80988
:1053A00088470C9801F0F4FB002063E7F416002016
:1053B0002DE9FF41044603A800F01CFEBDF80C00D7
:1053C000410CC3032F48008900F0030254F8225017
:1053D000420700D56D42C0F3C102860654F8222070
:1053E00000D55242C0F38116C00554F8264000D5BE
:1053F0006442A5FB0367E81700FB037005FB01008F
:10540000850045EA9670A2FB0367D51705FB037577
:1054100002FB0152950045EA9672A4FB0367E5176B
:1054200005FB037304FB01318B0043EA9671030E05
:105430008DF80030030C8DF80130030A8DF802302E
:105440008DF80300100E8DF80400100C8DF8050087
:10545000100A8DF80600080E8DF80800080C8DF86B
:105460000900080A8DF80A008DF807208DF80B1046
:105470006A460C214FF4257001F05CFB04B0BDE8D6
:10548000F0810000F416002030B5044613A285B068
:1054900007CA8DE807004FF0FF35C82C16D8C82082
:1054A000B0FBF4F1491E080A8DF80C008DF80D10C0
:1054B00003AA022140F2162001F03CFB30B96A46F3
:1054C0000C2140F6C12001F035FB10B1284605B093
:1054D00030BD054884810020F9E70000FEF2ABC42E
:1054E000AAF1DFDFBBAFDFDFF4160020F8B53049EB
:1054F000098901F0030250F822404A0700D56442AE
:10550000C1F3C1028B0650F8222000D55242C1F3EC
:10551000811350F82330C80500D55B42254984FB30
:105520000140850045EA947082FB0142A40F44EAE1
:10553000820483FB0121950F45EA8105010E8DF858
:105540000010010C8DF80110010A8DF802108DF881
:1055500003006A4604214FF4747001F0EBFA4FF037
:10556000FF3688B9200E8DF80000200C8DF8010060
:10557000200A8DF802008DF803406A4604214FF49A
:10558000757001F0D7FA08B13046F8BD280E8DF8D5
:105590000000280C8DF80100280A8DF802008DF813
:1055A00003506A4604214FF4767001F0C3FAF8BD47
:1055B000F416002009E3CA022DE9FF4104463CA08D
:1055C00004F00303006802903AA0006803903AA038
:1055D00006683AA0056802A8C15C8DF80010C4F303
:1055E000C101425C8DF80120C4F38112805C8DF80A
:1055F000020003A8C35C8DF80430415C8DF80510EF
:10560000805C8DF806006A46032140F2264001F0D6
:1056100091FA4FF0FF37E0BB01AA032140F22A4084
:1056200001F088FAA8BBCDE9006560070BD59DF8AD
:10563000000040F001008DF800009DF8040040F0EB
:1056400001008DF80400A0060BD59DF8010040F084
:1056500001008DF801009DF8050040F001008DF873
:105660000500E0050BD59DF8020040F001008DF823
:1056700002009DF8060040F001008DF806006A4621
:1056800003214FF4886001F055FA10B901AA0321F3
:1056900000E004E040F2314001F04CFA18B1384625
:1056A00004B0BDE8F081064804810020F8E700005E
:1056B0004CCD6C000CC92C00365676002646660090
:1056C000F41600204FF47A7290FBF2F008B54843CC
:1056D000010E8DF80010010C8DF80110010A8DF8F3
:1056E00002108DF803006A4604214FF4AE7001F0F9
:1056F00021FA08BD0521B0FBF1F008B5010A8DF8CB
:1057000000108DF801006A4602214FF4AD7001F0DF
:1057100011FA08BD0521B0FBF1F008B5010A8DF8BA
:1057200000108DF801006A4602214FF4AC7001F0C0
:1057300001FA08BD08B500218DF80010C10702D09C
:1057400030218DF80010810705D59DF8001041F03B
:105750000C018DF80010400705D59DF8000040F0C1
:1057600003008DF800006A4601214FF4A47001F097
:10577000E1F908BD08B560B1042800D90420401E35
:105780008DF800006A46012140F24F1001F0D2F975
:1057900008BD0120F3E700002DE9FC410546400764
:1057A0004FF0FF367CD0B1F5C86F79D8084602F0CB
:1057B0000FFF3E4902F0F6FD074601A800F0FCFB92
:1057C0009DF80400022806D004280DD008282ED009
:1057D000102865D134E00E21384603F0B8F802F005
:1057E000BFFE84B2324907E00D21384603F0AFF81E
:1057F00002F0B6FE2F4984B2384602F0FDFE02F0F8
:10580000AFFE210A8DF8001080B28DF80140010A28
:105810008DF802108DF80300E8076C4620D0224670
:1058200002214FF4EA7001F085F9C8BB11E00C21A8
:10583000384603F08CF802F093FE84B21E49DBE791
:105840000B21384603F083F802F08AFE84B21B492C
:10585000D2E7A21C02214FF4927001F06BF9F8B963
:10586000A8070DD56A4602214FF4EC7001F062F9E9
:10587000B0B9A21C02214FF4947001F05BF978B921
:10588000680710D56A4602214FF4EE7001F052F914
:1058900030B9A21C02214FF4967001F04BF910B1FF
:1058A0003046BDE8FC810020FBE7000000004843D3
:1058B000000040460000C045000040450000C044D4
:1058C0000521B0FBF1F008B5010A8DF800108DF844
:1058D00001006A4602214FF4EF7001F02BF908BD78
:1058E0000521B0FBF1F008B5010A8DF800108DF824
:1058F00001006A4602214FF4ED7001F01BF908BD6A
:105900000A4910B50A78C1B232B9094B1C6864065D
:10591000FCD5074B1B1D1960012A06D1054A1368E7
:105920005B06FCD5034A121D116010BD0300002068
:1059300000480040003801402DE9FE430646264855
:1059400001AB042240680D21007800F03FFA10B14D
:105950000720BDE8FE839DF804101C2000EAD10258
:105960009DF80710DFF87490C1F301131A438DF806
:1059700000209DF80520C1F3810300EAD2021A43FA
:105980008DF801209DF8062001F0030100EAD20005
:1059900008430024124F8DF80200A0466D46285D92
:1059A00010B146F824900AE046F824800DE000BFCC
:1059B00056F82400394602F01FFE46F82400285D00
:1059C000401E10F0FF002855F2D1641CE4B2032CF5
:1059D000E5D30020BDE700008C0100207B14AE3E23
:1059E0001D5A843F2DE9FE4F05460120C14E8DF81A
:1059F00000004FF000088DF8018030680C46174613
:105A0000817C70686B460222007800F017FA4FF034
:105A1000FF3A00287AD1C820FFF794FA8DF8008069
:105A200030686B460122C17B7068007800F006FA8E
:105A30000028EFD130686B46012241797068007808
:105A400000F0FCF90028E5D130686B460122817C2A
:105A50007068007800F0F2F90028DBD130686B46FE
:105A60000122C17D7068007800F0E8F90028D1D1EA
:105A700030686B46012201797068007800F0DEF929
:105A80000028C7D14FF00C098DF8009030686B46A4
:105A9000012201797068007800F0D0F9002835D132
:105AA0000F20FFF74FFAB06A6B460122407A8DF85B
:105AB0000000306881787068007800F0BFF9002835
:105AC00024D1B06A6B460122007A8DF8000030685C
:105AD00041787068007800F0B1F9002873D1B06A9D
