:020000040800F2
:10000000A01E0020D1010008374400085335000825
:100010003544000801080008A54F00080000000052
:10002000000000000000000000000000F14800088F
:100030007D0B000800000000F3450008714900082E
:10004000EB010008EB010008EB010008EB010008E0
:10005000EB010008EB010008EB010008EB010008D0
:10006000EB010008EB010008EB010008EB010008C0
:10007000EB010008EB010008EB010008EB010008B0
:10008000EB010008EB010008EB010008EB010008A0
:10009000EB010008EB010008EB010008EB01000890
:1000A000EB010008EB010008EB010008EB01000880
:1000B000F1490008FD490008094A0008EB01000861
:1000C000EB010008EB010008EB010008EB01000860
:1000D000EB010008814F00088D4F0008994F000880
:1000E000A10C0008EB010008EB01000800F002F889
:1000F00000F05FF80AA090E8000C82448344AAF163
:100100000107DA4501D100F054F8AFF2090EBAE860
:100110000F0013F0010F18BFFB1A43F0010318473B
:1001200040A4000060A400000A444FF0000C10F846
:10013000013B13F0070408BF10F8014B1D1108BF65
:1001400010F8015B641E05D010F8016B641E01F805
:10015000016BF9D113F0080F1EBF10F8014BAD1C55
:100160000C1B09D16D1E58BF01F801CBFAD505E073
:1001700014F8016B01F8016B6D1EF9D59142D6D3CD
:10018000704700000023002400250026103A28BFF5
:1001900078C1FBD8520728BF30C148BF0B607047F9
:1001A000642900F09980002070471FB51FBD10B56D
:1001B00010BD00F05FFA1146FFF7F7FF06F0FCFCF8
:1001C00000F07DFA03B4FFF7F2FF03BC05F078F806
:1001D0000948804709480047FEE7FEE7FEE7FEE7DB
:1001E000FEE7FEE7FEE7FEE7FEE7FEE70448054917
:1001F000054A064B70470000ED490008ED00000875
:10020000A0180020A01E0020A01A0020A01A002084
:1002100010B54C1084EA530404D54042C1F10001EA
:1002200038BF491E1B4204D55242C3F1000338BFF8
:100230005B1E00F00DF914F0804F04D04042C1F174
:10024000000138BF491E14F0004F04D05242C3F1E0
:10025000000338BF5B1E10BD0FB4044910B503AADC
:10026000029800F0D1F910BC5DF814FB6800002082
:100270002DE9F0410E460446002020622046E16848
:10028000884730B3252805D0D4E901219047206A5A
:10029000401CF2E7E168204600278847050018D097
:1002A000A5F14100192802D820354FF400673246E5
:1002B000294620462760FFF773FF40B1012804D08C
:1002C000F61D26F007060836D8E7361DD6E728467D
:1002D000DAE7206ABDE8F0812DE9F0410646002406
:1002E00010687529314616A510D0AFF3008000289C
:1002F00002DA404213A507E031688A0701D512A54A
:1003000002E0490704D511A5012401E0AFF3008004
:1003100000210A2206F1240709E0B0FBF2FCB0FB41
:10032000F2F302FB1C00303078541846491C0028B8
:10033000F3D123462A463046BDE8F04100F00AB921
:10034000000000002D0000002B0000002000000035
:1003500040EA010310B59B070FD1042A0DD310C842
:1003600008C9121F9C42F8D020BA19BA884201D994
:10037000012010BD4FF0FF3010BD1AB1D30703D0DC
:10038000521C07E0002010BD10F8013B11F8014B92
:100390001B1B07D110F8013B11F8014B1B1B01D1AE
:1003A000921EF1D1184610BD02F0FF0343EA03226A
:1003B00042EA024200F002B84FF000020429C0F005
:1003C000128010F0030C00F01B80CCF1040CBCF187
:1003D000020F18BF00F8012BA8BF20F8022BA1EBD9
:1003E0000C0100F00DB85FEAC17C24BF00F8012BBE
:1003F00000F8012B48BF00F8012B70474FF00002B6
:1004000000B5134694469646203922BFA0E80C500A
:10041000A0E80C50B1F12001BFF4F7AF090728BFE5
:10042000A0E80C5048BF0CC05DF804EB890028BF61
:1004300040F8042B08BF704748BF20F8022B11F08A
:10044000804F18BF00F8012B704770477047704706
:1004500053EA020C00F069802DE9F04B4FF00006E2
:10046000002B1FBFB3FA83F503FA05F424FA05F64F
:100470005E4012BF1643B2FA82F502FA05F4C5F1E6
:1004800020051EBF22FA05FC44EA0C04203556EA7A
:10049000044C4FEA144418BF641C4FF000084FF09E
:1004A0000009904271EB030C39D3002919BFB1FA4E
:1004B00081F701FA07F6B0FA80F700FA07F6C7F1FC
:1004C00020071EBF20FA07FC46EA0C062037B6FBC1
:1004D000F4FCA7EB0507103F07F01F0BCBF120063C
:1004E0000CFA0BFB2CFA06F644BFB3460026202F6D
:1004F000A4BF5E464FF0000B5BEA060C08BF4FF04E
:10050000010B19EB0B09ABFB027C48EB0608C01B87
:1005100006FB02CC0BFB03CC71EB0C01C1E70B46D5
:10052000024641464846BDE8F08B13B54FF0000047
:100530004FF00001AFF30080BDE81C40704710B5DC
:1005400000F074F8006810BD10B5044600F06EF8B5
:10055000046010BD2DE9F0470D46994692460446C9
:1005600000F124080168880604D5E06921F0100133
:10057000216000E00120A84201DD471B00E00027C8
:10058000A1697A1902EB0900081AA0612078C00657
:1005900002D42046AFF30080002608E0D4E9012110
:1005A0001AF806009047206A401C761C20624E45CF
:1005B000F4DB2078C0060AD52046AFF3008006E0C1
:1005C000D4E9012130209047206A401C2062381E67
:1005D000A7F10107F4DC07E0D4E9012118F80500D0
:1005E0009047206A401C2062281EA5F10105F3DC1B
:1005F0002046AFF300802078000602D50220BDE837
:10060000F0870120FBE70000074B70B50D467B44E7
:1006100000F015F80446284600F024F810B14FF019
:10062000FF3070BD204670BDCF5F000000487047AE
:100630004018002001694A1C02610878704700B523
:100640008FB0CDE901310021059105497944CDE90B
:10065000031011466846FFF70BFE0FB000BD000007
:10066000E5FFFFFF007B00F0800070470048704707
:10067000401800207546FFF7F9FFAE4605006946B1
:10068000534620F00700854618B020B5FFF7AEFDB1
:10069000BDE820404FF000064FF000074FF0000883
:1006A0004FF0000B21F00701AC46ACE8C009ACE804
:1006B000C009ACE8C009ACE8C0098D46704710B568
:1006C0000446AFF300802046BDE81040FFF77ABD36
:1006D00070B5044600688168C943C90717D18168AD
:1006E00021F00101816001F051FA05460AE000BFE6
:1006F00001F04CFA401B022804D920688068C043EE
:10070000C00706D020688068C043C007F0D0002032
:1007100070BDA06A40F01000A062E06A40F00100E5
:10072000E062012070BD0000F8B500260446009686
:1007300000688168C943C9072DD0816841F0010173
:100740008160164816490068B0FBF1F000E0401ED9
:1007500000900028FBD101F019FA054616E000BF11
:1007600001F014FA401B022810D920688068C043A9
:10077000C0070BD0A06A40F01000A062E06A40F011
:100780000100E06284F824600120F8BD20688068E0
:10079000C043C007E4D10020F8BD0000780000206D
:1007A00040420F0070B5044610480D46006808F03E
:1007B0009BFD214608F09AFE0D49044685F0004055
:1007C000096808F0BDFD0B4908F090FC05460B4890
:1007D0000949006808F08AFC214608F0B1FD294665
:1007E00008F084FEBDE8704008F042BD38000020EB
:1007F000100000200000C8420000C8C20C00002009
:10080000FEE7000030B5164885B0816941F0080167
:100810008161816901F008010491816941F004015D
:100820008161816901F004010491816941F0010154
:10083000816180690224012500F00100CDE90045B5
:10084000CDE903406946074801F0AAF8CDE9004523
:1008500069460548039401F0A3F805B030BD0000D7
:100860000010024000080140000C0140FFF7CABF21
:100870000E4810B50078062817D10D4800780128D9
:1008800013D00C48007801280FD00C490C4C0A48B2
:1008900008606078401CC0B26070042805D103F085
:1008A000A9FE00F003FA0020607010BD04000020D3
:1008B00026000020270000200000204250000020D9
:1008C000D80000202DE9F0410D4C0A4607460B4E9A
:1008D0001046216808F034FD216B08F09FFB0146AB
:1008E000084808F02DFD05463146384608F028FD39
:1008F000294608F093FB2063BDE8F0810AD7A33CAA
:100900004401002048E17A3F2DE9F0410D4C0A46B0
:1009100007460B4E1046216808F012FD216E08F0C4
:100920007DFB0146084808F00BFD05463146384678
:1009300008F006FD294608F071FB2066BDE8F0814D
:100940000AD7A33C4401002048E17A3FF8B50020D3
:10095000364F012600903E706B4632467521682066
:1009600006F0A4F832A0FFF777FC9DF80000682895
:100970000CD0BFF34F8F37480168374A01F4E0616C
:1009800011430160BFF34F8F00BFFDE706F02CFA63
:10099000002848D1782006F0E5FE10B924A0FFF722
:1009A0005BFC782006F052F910B92CA0FFF754FC3C
:1009B000C82006F097FE10B932A0FFF74DFC05F0F5
:1009C000ABFA10B939A0FFF747FC4548044606F0DA
:1009D000CFF80546E01C06F0CBF845EAC005A01D9F
:1009E00006F0C6F845EA801080B205F055FC10B953
:1009F0003CA0FFF731FC40F2731005F065F910B927
:100A000042A0FFF729FCC82005F0AEFB10B949A0B1
:100A1000FFF722FC07F01EFC012006F089FD10B94B
:100A20004DA0FFF719FC3E70F8BD00000300002048
:100A30006D70755F7365745F73656E736F7220633D
:100A40006F6D706C657465202E2E2E2E2E2E0D0A65
:100A5000000000000CED00E00400FA056D70755F09
:100A6000636F6E6669677572655F6669666F20633E
:100A70006F6D706C657465202E2E2E2E2E2E0D0A35
:100A8000000000006D70755F7365745F73616D7059
:100A90006C655F7261746520636F6D706C65746501
:100AA000202E2E2E2E2E2E0D0A000000646D705F5B
:100AB0006C6F61645F6D6F74696F6E5F647269768D
:100AC00065725F6669726D7761726520636F6D70C4
:100AD0006C657465202E2E2E2E2E2E0D0A00000021
:100AE00020020020646D705F7365745F6F726965CA
:100AF0006E746174696F6E20636F6D706C65746580
:100B0000202E2E2E2E2E2E0D0A000000646D705FFA
:100B1000656E61626C655F666561747572652063A0
:100B20006F6D706C657465202E2E2E2E2E2E0D0A84
:100B300000000000646D705F7365745F6669666FC6
:100B40005F7261746520636F6D706C657465202ED3
:100B50002E2E2E2E2E0D0A006D70755F7365745F3C
:100B6000646D705F737461746520636F6D706C6524
:100B70007465202E2E2E2E2E2E0D0A00704700009A
:100B80002DE9F04108F0A8FC0D4E0546B16908F0CA
:100B9000ADFC0C4908F0D4FB08F014FA07460C46EB
:100BA000284608F00FFA0022074B07F0FBFE3A46F2
:100BB000234608F01DF907F0DDFBB561BDE8F081C3
:100BC0009C0000200000C842000004C00020401C1F
:100BD0000A28FCDB704700003EB500211248009156
:100BE0000191104A02910260816001730175012434
:100BF0004FF460220461C261416000F0E7FB08B17C
:100C000000F052F80720CDE90140694606480094FB
:100C100000F058FB08B100F047F8034800F0E6FA8E
:100C20003EBD0000002401403803002070B5164886
:100C30000078072827D115480078012823D01448C8
:100C4000007801281FD0022000F0E4F8114CE06584
:100C5000012000F0DFF82066092000F0DBF8606674
:100C6000216EE36D01EBC10202EB011203EB820581
:100C7000C72202FB00521944084492FBF0F00749D6
:100C8000A0660548086070BD040000202600002012
:100C900027000020D8000020000020425000002043
:100CA0004FF4805000F070BE72B6FEE770B5344A63
:100CB0003449052410884C8203464E8A32F8165077
:100CC0009D4200D32B46761CB5B24D827B2DF4D3CA
:100CD00088834C824D8A32F81560864200D83046AF
:100CE0006D1CADB24D827B2DF4D388831844264B06
:100CF000C0F3470018704C824C8A32F8143083429B
:100D000012D902EB44035D8885420DD99D88854246
:100D10000AD9DD88854207D21D89854204D25B89C4
:100D2000834201D2CC8204E0641CA3B24B82762BB6
:100D3000E2D376238B829CB232F81430834212D2F3
:100D400002EB44035D8885420DD29D8885420AD21C
:100D5000DD88854207D91D89854204D95B89834294
:100D600001D90C8304E0641EA3B28B82052BE2D868
:100D7000088BC98A084405494008087070BD000006
:100D800038020020D80000204A000020490000203E
:100D90002DE9F04108F0A0FB194C05461949A06265
:100DA000206B884202DC1849884200D9216328461A
:100DB000616B08F09BFBA16808F0C2FA0646216B44
:100DC000E06808F0BDFA07466068294680F00040F8
:100DD00008F0B6FA394608F089FB314608F086FB80
:100DE0006563E062094801680948006803F09CFFF8
:100DF000012801D100202063E06ABDE8F0810000F5
:100E00009C00002000007A4400007AC434000020D6
:100E10003C0000203EB5694600900720029001206A
:100E200001900A4800F04EFA084800F03FFC1E21ED
:100E3000064800F09DFB054800F0C2FA800503D586
:100E4000024800F0BFFA84B220463EBD38030020BD
:100E50002DE9FC5F044603F01BFD8E49DFF8388264
:100E60008E4F0860012C7DD04421D02002F072FB0F
:100E700004464321D02002F06DFB04EB002008F073
:100E80004BFA06464621D02002F064FB0446452179
:100E9000D02002F05FFB04EB002008F03DFA009048
:100EA0004821D02002F056FB04464721D02002F012
:100EB00051FB04EB002008F02FFA05463C21D0201E
:100EC00002F048FB04463B21D02002F043FB04EB38
:100ED000002008F021FA83463E21D02002F03AFBA0
:100EE00004463D21D02002F035FB04EB002008F041
:100EF00013FA82464021D02002F02CFB04463F2109
:100F0000D02002F027FB04EB002008F005FA4FF098
:100F10008E4904464E4505DD4FF08F41304608F0BE
:100F2000E5FA06460098484504DD4FF08F4108F089
:100F3000DDFA00904D4505DD4FF08F41284608F061
:100F4000D5FA05465846CB4504DD4FF08F4108F0F1
:100F5000CDFA83465046CA4506DD4FF08F4108F072
:100F6000C5FA00E058E082464C4505DD4FF08F4160
:100F7000204608F0BBFA044686F000412046C8F837
:100F8000001008F01FF880468946504608F01AF80D
:100F900042464B4604F01EFCDFF804A100225346F3
:100FA00007F000FD3F4A404B07F0D2FA07F0E2F9A4
:100FB0000190584608F006F842464B4604F00AFCF9
:100FC0000022534607F0EEFC364A374B07F0C0FAD2
:100FD00007F0D0F98246304607F0F4FFDFF8CC8006
:100FE0004FF066363246434607F0B2FA07F0C2F9D0
:100FF0008146009807F0E6FF3246434607F0A8FA1C
:1010000007F0B8F906462A48DFF8A88000780228D9
:101010001DD0032827D035E003F02CFB2648274CB1
:1010200039680160B4F9000008F05EF9C8F8000002
:10103000B4F9040008F058F9214908602148B0F9D2
:10104000040008F051F920490860BDE8FC9F4946BA
:10105000019802F03FFC80F0004038603146504675
:1010600002F0E6FC0AE049460198FFF72BFC80F00D
:101070000040386031465046FFF746FC80F00041A2
:10108000C8F800100C48396801600D4805600E482A
:101090000460DAE730000020400000200C0200204D
:1010A00000806640F1D4C853FB2109406666304099
:1010B00000000020080200203C0000201402002054
:1010C000440000201A020020600000202DE9F05F9B
:1010D0008B4607F000FC274C0022234607F062FCF9
:1010E0006FF001052A4608F0A8FA234E0022334685
:1010F00007F02EFA214F00223B4607F029FA07F0AD
:1011000039F907F05FFFDFF87880DFF878A0424612
:10111000534607F047FCDFF8709000224B4607F07B
:1011200041FC07F027F919490860584607F0D3FB3E
:101130000022234607F036FC2A4608F07EFA0022F9
:10114000334607F005FA00223B4607F001FA07F0A4
:1011500011F907F037FF4246534607F023FC0022FF
:101160004B4607F01FFC07F005F909490860BDE888
:10117000F09F00000000694000003E4000002A404F
:10118000F1D4C853FB21094000C050403002002078
:101190003402002010B5114800F088FA32210F48BF
:1011A00000F0E6F90D4800F00DF980B207F0AAFB57
:1011B0004FF066320A4B07F0F5FB0022094B07F0AF
:1011C000F1FB0022084B07F0EDFB6FF00B0208F07B
:1011D00034FABDE8104007F04FBB00006803002060
:1011E00066660A400000264000005940F8B5002518
:1011F0000446009590F8240001280BD0012084F8C3
:1012000024002046FFF764FA2046FFF78DFA060017
:1012100002D050E00220F8BDA06A20F4885040F0CF
:101220000200A062022000F063FD25490968B1FBBD
:10123000F0F0400000E0401E00900028FBD1206844
:10124000816841F00801816000F0A0FC074608E0D9
:1012500000F09CFCC01B0A2803D9206880680007A6
:1012600015D4206880680007F2D42068816841F0B6
:101270000401816000F08AFC074612E000F086FC61
:10128000C01B0A280DD920688068400709D5A06ACC
:1012900020F0020040F01000A06284F824500120E9
:1012A000F8BD206880684007E8D4A06A20F00200FA
:1012B00040F00100A06284F824503046F8BD0000E0
:1012C00078000020F8B50024009490F824202546EA
:1012D000012A12D0012280F824204A681F23072AFD
:1012E0000DD20668776B521E02EB820293409F4339
:1012F0000B6893401F43776319E00220F8BD06682E
:101300000D2A0AD2376BD21F02EB820293409F4311
:101310000B6893401F43376309E0F76A0D3A02EB0D
:10132000820293409F430B6893401F43F7620A6811
:10133000072306680A2A0AD3F7680A3A02EB420230
:1013400093409F438B6893401F43F76008E03769E1
:1013500002EB420293409F438B6893401F433761E7
:101360000A68102A01D0112A20D1124B02689A4231
:1013700017D193681B0219D4936843F40003936058
:101380000968102912D10C490C4A0968B1FBF2F125
:1013900001EB8101490000E0491E00910029FBD1C9
:1013A00004E0816A41F020018162012480F8245028
:1013B0002046F8BD002401407800002040420F0084
:1013C000806A70470068C06C704700002DE9F041EA
:1013D0004FF0000704003D467ED0A06A002628B9E1
:1013E000E66284F82460204600F07EF82046FFF78D
:1013F0006FF9A16AC90600D420B1A06A40F01000BC
:10140000A06269E0A16A21F4885141F00201A16261
:101410006268E169237B0A4347EA43010A43A16802
:101420004FF48077B94209D0012907D05FF000015D
:1014300094F814C0BCF1010F02D00AE03946F7E776
:10144000F3B1A36A43F02003A362E36A43F001030C
:10145000E3622368D3F804C02CF4694C4CEA010C15
:10146000C3F804C021688B68DFF870C003EA0C037E
:1014700013438B60A168B9420BD0012909D00CE05D
:10148000DFF85CC0A3690CEB43330B4343F400610A
:10149000DFE7218A0D05A5F580152168CB6A23F4C5
:1014A00070032B43CB62216889680E4B194091422F
:1014B00008D1E662A16A21F0020141F00101A162B6
:1014C000BDE8F081A06A20F0020040F01000A062A8
:1014D000E06A40F00100E0620120F1E7FDF7E1FF82
:1014E00000E0FFFFFE0E1FFF10B586B00021009147
:1014F0000191029103911A4C03681A4903221A4878
:10150000A34211D18B6943F400738B618B6903F49F
:10151000007304938B6943F008038B61896901F0C0
:1015200008010491022113E0104CA34215D18B69EC
:1015300043F480638B618B6903F4806304938B694C
:1015400043F008038B61896901F0080104910121CE
:10155000CDE90012694600F023FA06B010BD000084
:101560000024014000100240000C0140002801400E
:101570002DE9F84300270D460446009700F006FBCE
:10158000804620688168C90508D5A06A40F020001F
:10159000A06284F824700120BDE8F8834168C90581
:1015A00003D4C06A10F4700F2AD0022000F0A0FB10
:1015B0003B490968B1FBF0F62068036939490B42E1
:1015C0004FEA61014FEAA1121FD1C3684FEA611CC3
:1015D00013EA0C0F19D103690B4225D1C0681042E0
:1015E00022D1142023E0681C0AD02DB100F0CEFADD
:1015F000A0EB0800A84203D920680068800725D521
:10160000206800688007EED52DE003690B4202D107
:10161000C168114206D0026923490A4206D1C06856
:10162000084203D1542002E0292000E0FC20464378
:10163000009816E0681C11D02DB100F0A7FAA0EBBD
:101640000800A8420AD90098B04207D2A06A40F028
:101650000400A06284F8247003209DE70098401CD9
:101660000090B042E6D321686FF012000860A06AD3
:1016700040F40070A06220688068C0F342400728F0
:101680000CD1207B50B9A06A20F48070A062A06ABF
:10169000C00403D4A06A40F00100A06200207BE7F0
:1016A00078000020244992244992240070B5044611
:1016B00090F8240001280DD0012084F82400204651
:1016C000FFF732F802004FF0000005D084F8240044
:1016D000104670BD022070BDA16A40F201239943FB
:1016E00041F48071A1621F4D23681F49AB4218D19C
:1016F0000E6816F4702F14D0A66A46F48016A662FF
:101700000E68760505D5A66A26F4005646F480567E
:10171000A662A66AF6040AD5E66A26F00606E6621E
:1017200006E0A66A26F48016A6625E68E9E7E06233
:1017300084F824006FF00200186020688368C3F307
:101740004243072B05D1A84208D1096811F4702F34
:1017500004D0816841F480118160B9E7816841F467
:10176000A001F9E7002801400424014010B590F8D9
:1017700021100022022905D00421816380F8202055
:10178000012010BD01680B6823F00E030B60016897
:101790000B6823F001030B6090F84030C46B01210B
:1017A00001FA03F3636080F8211080F820201046CE
:1017B00010BD000010B590F821100024022903D0BC
:1017C0000421816301243DE001680A6822F00E02D1
:1017D0000A6001680A6822F001020A601A4A016878
:1017E000914201D1012121E0174A1432914201D1E5
:1017F00010211BE0144A2832914201D1891515E0CD
:10180000114A3C32914201D189140FE00E4A503204
:10181000914202D14FF4803108E00B4A6432914288
:1018200002D14FF4801101E04FF08071064A083A6E
:101830005160012180F82110002180F82010416BB7
:1018400001B18847204610BD080002402DE9F04153
:10185000B0F5805F7CD13F4C2078B0B10020207083
:101860003D480078FFF7F4FA032002F0FFFF4742FB
:10187000042002F0FBFF464231463846FFF726FCC3
:1018800020780025012802D012E00120E7E7FFF7C9
:1018900081FC2062616A491C6162A26A6429104469
:1018A000A06205D190FBF1F02C490860A562656249
:1018B0002B49087801280AD12A480278521C027064
:1018C00002780A2A03D105700D7027480570274851
:1018D0000078012801D0022801D102F0A3FF02F014
:1018E00055F903F007F802F06FF902F0E7F902F09A
:1018F00063FAFEF7BDFFFFF799F91D4801681D481F
:101900000068FEF74FFF04463146384603F04CFBB3
:1019100005461948006803F0ABF961190D18174B1B
:10192000174C184E081A1D6077422060324639461F
:10193000284602F057FE186032463946206802F009
:1019400051FE014620601868BDE8F04102F0E6BF94
:10195000BDE8F081D8000020000000203400002005
:1019600005000020060000204800002004000020A0
:10197000400000203C0000204400002028000020FF
:101980002C0000200CE5FFFF044910B50A68024254
:1019900002D00860FFF75AFF10BD00001404014098
:1019A0002DE9F84FDFF8B8910024A9F1040B234684
:1019B0000F2709F1040AABF1040EC9E00125A54087
:1019C0002A40AA427DD1674ED1F804C0ACEB06088C
:1019D000B44532D014DCBCF1030F3AD009DCBCF1C1
:1019E000000F2AD0BCF1010F1CD0BCF1020F31D185
:1019F0001DE0BCF1110F17D0BCF1120F2AD119E074
:101A0000B8F5881F19D006DCB8F5803F15D0B8F5B9
:101A1000801F1FD111E0B8F5001F0ED0B8F5041FCC
:101A200018D10AE0CB6815E0CB681B1D12E0CB682B
:101A300008330FE0CB680C330CE08B682BB1012B23
:101A40004FF0080303D0456104E0042302E0056180
:101A500000E00023FF2A01D8064601E000F1040659
:101A60004FEA840501D9A5F12005D6F8008007FAD0
:101A700005FC28EA0C0803FA05F548EA0508C6F84B
:101A800000804D68ED0062D5374DAE6946F0010625
:101A9000AE61AD6924F0030605F001050095334DF4
:101AA00006EB050CDCF80850A607360F07FA06F817
:101AB00025EA0805DFF8B880404503D14FF000085B
:101AC00017E044E0DFF8AC80404502D14FF0010858
:101AD0000FE0DFF8A480404502D14FF0020808E093
:101AE000DFF89880404502D14FF0030801E04FF045
:101AF000040808FA06F848EA0508CCF808804D689A
:101B0000D9F80060ED024D4601D5164300E096433A
:101B10002E604D68DAF80060AD02554601D51643D7
:101B200000E096432E604D68DBF80060AD035D4633
:101B300001D5164300E096432E604D68DEF8006044
:101B4000ED03754601D5164300E096432E60641CF4
:101B50000D682A46E5407FF431AFBDE8F88F0000FC
:101B60000804014000001110001002400000014074
:101B700000080140000C0140001001400014014029
:101B80000AB1016170470904FBE700000148806861
:101B9000704700006C000020024881680278114400
:101BA000816070476C000020074810B5016841F063
:101BB00010010160032000F089F8002000F006F811
:101BC00000F024F8002010BD0020024070B50D4D3B
:101BD00004464FF47A712878B1FBF0F00A4909689D
:101BE000B1FBF0F000F0B8FB48B9102C07D200228E
:101BF0002146501E00F04AF800206C6070BD0120A4
:101C000070BD00006C000020780000200E4808B570
:101C1000816941F001018161816901F00101009157
:101C2000C16941F08051C161C06900F080500090ED
:101C3000052000F04BF80548416821F0E06141F0D3
:101C40008061416008BD00000010024000000140BA
:101C500000280DDB00F01F020121914040098000A7
:101C600000F1E020C0F88011BFF34F8FBFF36F8FFA
:101C70007047002809DB00F01F0201219140400954
:101C8000800000F1E020C0F800117047F0B40E4B66
:101C90001B680C46C3F30223C3F10705042D00D9CA
:101CA0000425191D072901D2002300E0DB1E0126AF
:101CB00006FA05F1491E214099409E40761E1640C5
:101CC0003143F0BC03F074BA0CED00E0064900F0BB
:101CD000070208684FF6FF03184040EA0220034A53
:101CE00010430860704700000CED00E00000FA05AA
:101CF00010B501460020234C012922D0022939D0F9
:101D000010291DD161682268D20119D51E48C1F37E
:101D10008342C903805C0AD561681B4AC1F3404114
:101D2000921E515C194AB2FBF1F1484301E0184997
:101D300048436168490203D440000321B0FBF1F03D
:101D400010BD226AC2F30121012903D1920701D5F6
:101D5000C80310BD022905D1626A920702D549F66F
:101D6000404010BD0329FCD121688903F9D54FF209
:101D7000244010BD00F02AF96168C1F38131491C8B
:101D80004900DBE7001002402697000800127A00A5
:101D900000093D002DE9F84305460078354CC007A1
:101DA00054D0E0690026C00008D4E06940F08050BB
:101DB000E061E069012600F0805000902E48016843
:101DC000C90512D40168804641F480710160FFF7B3
:101DD000DDFE074605E000BFFFF7D8FEC01B642804
:101DE00023D8D8F80000C005F6D5206A10F440705A
:101DF00021D0A98801F4407181421CD0206A1F497A
:101E0000012220F440700A6000220A602062C007AC
:101E100011D0FFF7BBFE074641F2883808E000BF4B
:101E2000FFF7B4FEC11B414502D90320BDE8F8838A
:101E3000206A8007F4D5206A696820F4407008435E
:101E400020621EB1E06920F08050E06128788007B0
:101E500005D56068A96820F4404008436060287890
:101E6000C00605D56068E96820F48000084360601A
:101E70000020DBE7001002400070004040044242B6
:101E80002DE9F0470F46050061D0434E306800F061
:101E90000700B84209D2306820F0070038433060AC
:101EA000306800F00700B84251D128683B4C8107E8
:101EB00012D5400703D5606840F4E0606060287880
:101EC000000703D5606840F4605060606068A968EE
:101ED00020F0F000084360602878C00728D06868C8
:101EE000012810D02168022810D0890700292EDA95
:101EF000616821F0030101436160FFF747FE8046FE
:101F000041F288390DE021688903EFE78901EDE7A7
:101F1000FFF73CFEA0EB0801494502D90320BDE8CC
:101F2000F0876068696800F00C00B0EB810FEFD1BA
:101F3000306800F00700B8420BD9306820F0070085
:101F400038433060306800F00700B84201D001200B
:101F5000E5E72878400705D56068E96820F4E06087
:101F6000084360602878000706D56068296920F476
:101F7000605040EAC100606000F038F86168084ACB
:101F8000C1F30311515CC840064908600648006867
:101F9000FFF71CFE0020C2E70020024000100240B4
:101FA000369700087800002070000020044805499A
:101FB00000684968044AC1F30221515CC840704777
:101FC00078000020001002404697000804480549A8
:101FD00000684968044AC1F3C221515CC840704797
:101FE0007800002000100240469700080E4A516811
:101FF0000E4801F00C03042B11D0082B0FD10C4814
:10200000C1F38343C903C05C0AD55168084AC1F3D0
:102010004041921E515C054A5043B0FBF1F07047BD
:1020200004494843704700000010024000127A0043
:102030001497000800093D002DE9F84F040070D006
:102040002078C04DC00749D06868C0F381000128DE
:1020500007D06868C0F38100022809D16868C0030E
:1020600006D52868800339D560680028E7D035E0B8
:102070006068B0F5803F0BD010B1B0F5A02F11D043
:10208000286820F480302860286820F4802002E04E
:10209000286840F480302860606890B1FFF776FDD2
:1020A00006460AE0286840F480202860F0E700BF78
:1020B000FFF76CFD801B642873D828688003F7D570
:1020C0000CE0FFF763FD064605E000BFFFF75EFD8D
:1020D000801B6428F0D828688003F7D420789A4EB3
:1020E00080074FF001094FF0000839D5686810F0FB
:1020F0000C0F07D06868C0F38100022809D1686816
:10210000C00306D42868800714D52069012808D1A7
:1021100010E02069B0B1C6F80090FFF737FD074620
:1021200005E00AE1FFF732FDC01B0228C4D8286889
:102130008007F7D52868616920F0F80040EAC100FF
:1021400028600DE0C6F80080FFF720FD074604E098
:10215000FFF71CFDC01B022823D828688007F7D48E
:10216000207800072CD57948A169D9B1C0F8009032
:10217000FFF70CFD074604E0FFF708FDC01B02282F
:102180000FD8686A8007F7D571484FF4FA51006894
:10219000B0FBF1F0009000BF0098411E0091FAD210
:1021A0000EE080E0C0F80080FFF7F0FC074604E096
:1021B000FFF7ECFCC01B022875D8686A8007F7D4CB
:1021C0002078400760D5E8690027C00008D4E86996
:1021D00040F08050E861E869012700F080500090ED
:1021E0005C480168C90513D40168834641F48071D5
:1021F0000160FFF7CBFC824606E000BFFFF7C6FC9C
:10220000A0EB0A0064284ED8DBF80000C005F5D525
:10221000E06801280AD008B1052813D0286A20F008
:1022200001002862286A20F0040002E0286A40F0D9
:1022300001002862E06841F2883B98B1FFF7A6FCF4
:1022400082460BE0286A40F004002862EEE700BFF7
:10225000FFF79CFCA0EB0A0159455AD8286A800771
:10226000F6D50CE0FFF792FC824605E0FFF78EFC06
:10227000A0EB0A0159454CD8286A8007F6D41FB153
:10228000E86920F08050E861E06988B36968C1F3CB
:102290008101022944D00228C6F8608004D0FFF7EB
:1022A00075FC044638E034E0FFF770FC074604E0B4
:1022B000FFF76CFCC01B02282BD828688001F7D4DC
:1022C000206AB0F5803F05D16868A16820F400302D
:1022D00008436860D4E908010843696821F474116F
:1022E00008436860C6F86090FFF750FC044606E0BB
:1022F00025E000BFFFF74AFC001B022809D8286828
:102300008001F7D51BE000BFFFF740FC001B02284F
:1023100002D90320BDE8F88F28688001F4D40EE0CC
:102320000128F7D06868226A00F48031914204D114
:10233000616A00F47010884201D00120EAE70020B1
:10234000E8E70000001002400000424280044242E0
:10235000780000200070004010B5401EB0F1807F72
:1023600001D3012010BD4FF0E02460610F21601700
:1023700002F01EFF0020A06107202061002010BD98
:102380007047704710B590F83C20012A22D00122F6
:1023900080F83C20CA688C6822F4407222434C6862
:1023A00022F4806222430C6822F4006222430C690A
:1023B00022F4805222434C6922F400522243C9691C
:1023C000002322F480420A4301684A6480F83C30CA
:1023D000002010BD022010BD70B590F83C20012AED
:1023E00026D0012480F83C40022280F83D2003687A
:1023F0005A689D6822F070060A6832435A600D4B95
:1024000002689A4208D0B2F1804F05D00A4B9A4236
:1024100002D00A4B9A4204D1496825F0800319433F
:10242000916080F83D40002180F83C10084670BD66
:10243000022070BD002C0140000400400008004054
:1024400090F83D10012901D001207047022180F849
:102450003D100168CA6842F00102CA6000680B4979
:10246000884208D0B0F1804F05D00949884202D097
:102470000849884204D1816801F00701062903D088
:10248000016841F00101016000207047002C01400B
:1024900000040040000800402DE9F0410D46040012
:1024A00003D094F83D0018B108E00120BDE8F081A8
:1024B000002084F83C00204600F040F8022084F818
:1024C0003D002068816844F2070291438160211D2C
:1024D000206802F09FFA226890689169166A2B685A
:1024E000AF69034340F20330814341EA0721A86802
:1024F000EF6908434FF6FC418843E96840EA07204A
:10250000014328692F6A000140EA073008436968DF
:102510006D6926F0220646EA051529439360226874
:10252000906154F8460B0162012004F81F09E07520
:102530002076E0762077A0750020B7E700B585B05B
:1025400000210091019102910391224B02682248DF
:10255000C0219A421BD1C26942F00202C261C26923
:1025600002F002020492826942F0040282618069F0
:10257000009100F00400049069461848FFF710FA33
:10258000012211461D20FFF781FB1D201DE0144B89
:102590009A421CD1C26942F00402C261C26902F0CF
:1025A00004020492826942F008028261806900910B
:1025B00000F00800049069460A48FFF7F1F901228B
:1025C00011461E20FFF762FB1E20FFF752FB05B0ED
:1025D00000BD00000004004000100240000801405F
:1025E00000080040000C014070B590F83E600446C1
:1025F00090F83F5090F8423090F84320022021B1EB
:1026000004290ED0012E1BD114E0012E18D1012B6C
:1026100016D184F83E0084F842000122002120688F
:1026200020E0012D0CD1012A0AD184F83F0084F862
:10263000430014E0012D03D1012B01D1012A01D067
:10264000012070BD84F83E0084F83F0084F8420009
:1026500084F8430001220021206802F011FA0122CF
:102660000421206802F00CFA2068016841F00101A1
:102670000160002070BD00002DE9F041254CA04212
:1026800045D1254D2888010641D4410641F2111655
:1026900040F244471BD540F08000288004212046AA
:1026A00000F096FB68802068016A314206D1016A19
:1026B000394203D1016821F0010101602068016AFB
:1026C00021F0A00101622068016A01621BE0002183
:1026D0006980402028802068026A324206D1026A5E
:1026E0003A4203D1026822F001020260206841628E
:1026F0002068016A21F0A00101622068016A41F0AE
:10270000200101622068016841F001010160BDE81B
:10271000F0810000E0030020640000202DE9F0417A
:10272000054690F83C0000260C46012810D00120F8
:1027300085F83C0072B1042A1CD0082A2CD00C2A3F
:1027400050D00126002085F83C003046BDE8F081DD
:102750000220FBE7D4E90012E368286802F040FA9F
:102760002868816921F00C01816128688169A2686B
:1027700011430FE0D4E90012E368286802F05CFA24
:102780002868816921F44061816128688169A268B3
:1027900041EA02218161D5E72868D4E9002C277B32
:1027A000036A016A21F480710162C16923F4007334
:1027B00021F0030141EA0C0121F0F00C39074FF43C
:1027C00000774CEA116107EA02221A43C1610262F2
:1027D0002868C16921F00C01C1612868C169A2683B
:1027E00011432BE02868D4E90021E768036AD0F898
:1027F00020C02CF4805CC0F820C0D0F81CC023F4AA
:1028000000532CF4407C4CEA012121F4704C4FF62B
:10281000FF7101EA07314FF4005741EA0C0107EA62
:1028200002321A43C16102622868C16921F4406121
:10283000C1612868C169A26841EA0221C16181E7DA
:1028400010B5040003D094F83D0010B107E001205A
:1028500010BD002084F83C00204600F01FF8022044
:1028600084F83D00211D206802F0D4F8012084F88E
:10287000460084F83E0084F83F0084F8400084F865
:10288000410084F8420084F8430084F8440084F84E
:10289000450084F83D00002010BD000030B585B033
:1028A000002400940194029403940068B0F1804FD6
:1028B0002AD11648C16941F00101C161C16901F025
:1028C00001010491816941F0040181618069104D29
:1028D00000F0040004900220009069462846FFF7AB
:1028E0005FF8012211461C20FFF7D0F91C20FFF7EA
:1028F000C0F9082000900120CDE9010403200390D5
:1029000069462846FFF74CF805B030BD001002407C
:102910000008014030B50446002551B104290DD00E
:10292000082910D094F8410094F84520012811D1CD
:102930000EE094F83E0094F84220F7E794F83F0048
:1029400094F84320F2E794F8400094F84420EDE72F
:10295000012A01D0012030BD022059B1042912D032
:10296000082919D084F8410084F845000C2938D092
:10297000012534E084F83E0084F842002068C268F3
:1029800042F0020210E084F83F0084F8430020681F
:10299000C26842F0040207E084F8400084F8440072
:1029A0002068C26842F00802C2600122206802F07A
:1029B00067F80E492068884208D0B0F1804F05D0F2
:1029C0000B49884202D00B49884204D1816801F04A
:1029D0000701062903D0016841F001010160284682
:1029E00030BD2068C26842F01002DDE7002C0140D3
:1029F000000400400008004070B50446006801690A
:102A00004FF00005C943890715D4C168C943890738
:102A100011D4E91E016101202077206880698007B8
:102A2000204602D0FFF728FE04E000F0BFF8204661
:102A300000F064F9257720680169C943490717D474
:102A4000C168C943490713D46FF004010161022032
:102A500020772068806910F4407F204602D0FFF77D
:102A60000BFE04E000F0A2F8204600F047F92577BD
:102A700020680169C943090716D4C168C943090719
:102A800012D46FF008010161042020772068C0692A
:102A90008007204602D0FFF7EFFD04E000F086F843
:102AA000204600F02BF9257720680169C943C90643
:102AB00017D4C168C943C90613D46FF0100101616E
:102AC000082020772068C06910F4407F204602D09B
:102AD000FFF7D2FD04E000F069F8204600F00EF99F
:102AE000257720680169C943C90708D1C168C9436E
:102AF000C90704D1891E0161204600F04FF9206802
:102B00000169C943090609D4C168C943090605D446
:102B10006FF0800101612046FFF732FC20680169F7
:102B2000C943490609D4C168C943490605D46FF0B1
:102B300040010161204600F060F920680169C94345
:102B400089060BD4C168C943890607D46FF02001F8
:102B500001612046BDE87040FFF713BC70BD000066
:102B600000B585B0002100910191029103910068A8
:102B70000B49884212D10B48816941F004018161FF
:102B80008069694600F0040004904FF410600090E2
:102B90000220019003900448FEF702FF05B000BD3B
:102BA000002C01400010024000080140704770B541
:102BB000044690F83C0000260D4601280FD0012065
:102BC00084F83C006AB1042A1DD0082A2FD00C2AB0
:102BD0003FD00126002084F83C00304670BD022022
:102BE00070BD206801F05AFF2068816941F008013A
:102BF00081612068816921F0040181612068816917
:102C00002A69114311E0206801F070FF2068816992
:102C100041F4006181612068816921F480618161F2
:102C2000206881692A6941EA02218161D2E720682E
:102C300001F088FF2068C16941F00801C161206886
:102C4000C16921F00401C1612068C1692A69114389
:102C500011E0206801F0A2FF2068C16941F4006121
:102C6000C1612068C16921F48061C1612068C169C6
:102C70002A6941EA0221C161ACE710B5040003D022
:102C800094F83D0010B107E0012010BD002084F849
:102C90003C00204600F01EF8022084F83D00211D73
:102CA000206801F0B7FE012084F8460084F83E0059
:102CB00084F83F0084F8400084F8410084F8420022
:102CC00084F8430084F8440084F8450084F83D000B
:102CD000002010BD08B500680649884208D10648A2
:102CE000816941F400618161806900F400600090B5
:102CF00008BD0000002C0140001002407047000099
:102D000010B50446022249B104290ED0082913D077
:102D100094F84100012816D0012010BD94F83E001F
:102D20000128F9D184F83E200FE094F83F000128F3
:102D3000F2D184F83F2008E094F840000128EBD15C
:102D400084F8402001E084F841200122206801F04D
:102D500097FE0F492068884203D1426C42F400423A
:102D600042642068884208D0B0F1804F05D00949FC
:102D7000884202D00849884204D1816801F00701E5
:102D8000062903D0016841F001010160002010BD57
:102D9000002C014000040040000800400A4988421D
:102DA0000AD10A4801880A0606D44A0604D5CA434D
:102DB000920602D0491C0180704741F080010180D9
:102DC0004FF6FF7141807047E0030020640000204F
:102DD0000246002041B1042909D008290AD00C2953
:102DE00001D11068006C70471068406B7047106824
:102DF000806B70471068C06B7047704770477047B2
:102E0000F8B5016804460868CA684B6910F00F0FEE
:102E10004FF0000559D003F0010602F490773743D4
:102E200065D0C10705D0D10503D5616C41F0010122
:102E30006164410705D5D90703D0616C41F00201F7
:102E40006164810705D5D90703D0616C41F00401A5
:102E50006164010707D502F02001314303D0616CA2
:102E600041F008016164616C00293AD0800604D504
:102E7000900602D5204601F0AAFF20684069616CE7
:102E8000C0F38010090700D460B3204601F078FF3A
:102E900020684069400621D52068143050E8001FA2
:102EA00021F0400140E80012002AF5D1E06BA8B102
:102EB0006D494163E06BFEF77DFC002811D0E06BAB
:102EC000416B01B0BDE8F040084783060FD593067B
:102ED0000DD52046BDE8F84001F079BF2046FFF748
:102EE0008EFFF8BD2046FFF78AFF6564F8BD266BAC
:102EF0002023012E7CD1C6067AD5D60678D508685F
:102F00004868009048694FF00206400640D5E16BE2
:102F1000086840680004000CE8D0A28D8242E5D920
:102F2000E085886920282DD020680C3050E8001FEB
:102F300021F4807140E80012002AF5D12068143095
:102F400050E8001F21F0010140E80012002AF5D1ED
:102F50002068143050E8001F21F0400140E80012C2
:102F6000002AF5D184F84230256320680C3050E8FF
:102F7000001F21F0100140E80012002AF5D1E06B9B
:102F8000FEF7F4FB6663A08DE18D401A81B22AE062
:102F9000A08DE18D401A81B2E08D0028A6D00029D5
:102FA000A4D022680C3252E8000F20F4907042E85E
:102FB0000007002FF5D12068143050E8002F22F0D0
:102FC000010240E80027002FF5D184F84230256344
:102FD00020680C3050E8002F22F0100240E8002357
:102FE000002BF5D166632046FFF708FFF8BDFFE729
:102FF00005062BD5150629D594F841002128F5D1D1
:10300000A068B0F5805F01D12069B0B1206A411C91
:103010002162216800784860E08C401E0004000CAA
:10302000E084E3D12068C16821F08001C16020689C
:10303000C16841F04001C160D8E7206A0088C0F350
:1030400008004860206A801C2062E5E74006CDD574
:103050005006CBD5CA68204622F04002CA6084F8E8
:10306000413000F075FAC1E7714D000870B50400F9
:1030700004D094F84100002510B106E0012070BD95
:1030800084F84050204600F023F8242084F84100C2
:103090002068C16821F40051C160204601F0F8FEAB
:1030A0002068016921F4904101612068416921F0A3
:1030B0002A0141612068C16841F40051C160656422
:1030C000202084F8410084F842006563002070BD30
:1030D000F0B585B000240094019402940394036831
:1030E000424F022042490322424D4602BB4225D1B3
:1030F0008B6943F480438B618B6903F480430493B1
:103100008B6943F004038B618969039201F0040128
:1031100004910102CDE9001069462846FEF740FC03
:10312000CDE90064694628460294FEF739FC012285
:1031300011462520FEF7AAFD252028E02E4FBB4290
:1031400029D1CB6943F40033CB61CB6903F400335D
:1031500004938B6943F004038B618969039201F046
:10316000040104910421CDE9001069462846FEF7C8
:1031700017FC0820CDE90004694628460294FEF7B2
:103180000FFC012211462620FEF780FD2620FEF7C7
:1031900070FD05B0F0BD194DAB42FAD1CB6943F4D7
:1031A0008023CB61CB6903F4802304938B6943F0C4
:1031B00008038B618969124D01F00801CDE90321F3
:1031C000CDE9006069462846FEF7EAFBE814CDE940
:1031D0000004694628460294FEF7E2FB01221146EC
:1031E0002720FEF753FD2720D1E7000000380140DB
:1031F0000010024000080140004400400048004028
:10320000000C014090F84230202B01D00220704782
:1032100021B11AB10023036301F096BE012070476B
:103220002DE9F05F0068B64A01210025B54C4FF04A
:10323000020A904279D1E01DDFF8CCC20078E0604C
:10324000B24AB34BB34EB44F2072592816D0582807
:1032500017D00A281BDD5A282ED041283ED04528F9
:103260002FD0422831D043282FD044282DD04628B3
:1032700030D047282ED048282CD004E08CF800A06D
:1032800001E08CF8001015701D7035703D700A2833
:103290002ADA5FEA000C0FD001281FD0052810D0D1
:1032A00002281DD003281BD0042819D0062828D0B6
:1032B000072826D0082824D015701D7003E03D7023
:1032C00012E0157019703570F9E715701D703570C2
:1032D0003970DCE715701D703170D7E71170ECE7BD
:1032E00015701D7035703970864A8C4B7B2852786A
:1032F0000BD07D280ED02678012E07D0022E0BD0C1
:1033000065E015701D703170D9E721709854521C1A
:1033100062705CE084F800A0D878502806D0587815
:1033200023284CD0A27099462AE055E07C480170D1
:1033300045E06178081A05F0CEFA02460B460020F7
:10334000784904F09BFA0646A0780F468046484428
:1033500010F8010C303805F0BEFA32463B4605F055
:1033600021FB06460F46206905F02CFE32463B46FF
:1033700005F032F804F0FEFF2061A8F10100A07012
:10338000A0780428D5D299F801003038062816D242
:10339000DFE800F00306090C0F12634920690DE015
:1033A000624920690AE06249206907E061492069B1
:1033B00004E06149206901E06049206908602570E6
:1033C0006570A570322155482561FCF7F5FF4D4920
:1033D0000122C91D5A488DE05A4A904272D1DFF845
:1033E00024C148480CF106069CF804209CF805B05E
:1033F000E778554B801D36780BEB4B0C0CEB030933
:103400000078164407F1010CF6B20CF0FF0C3A2FCD
:103410006CD2DFE807F01D232A34373C3F42454A8F
:1034200042454A42454A42454A42454A42454A4245
:10343000454A42454A42454A42454A42454A424532
:103440004A42454A42454A42454A42454A53585DE6
:10345000A5280CD11870E170A5320EE05A2806D1CB
:10346000587084F803A05A3207E03A2801D0E5707A
:103470003BE098700320E0703A32227136E0D87059
:10348000042023E01871052020E026712EE05871F9
:1034900006201BE09871072018E089F8070001E07A
:1034A00089F8080084F803C0EFE789F8090084F878
:1034B00003C026710BF10100607117E083F837003B
:1034C000382003E01AE083F838003920E070DCE7A8
:1034D00083F83900E5706571904202D102F08EFAEE
:1034E00003E03A211848FCF767FF257105490122DE
:1034F0001648891DBDE8F05FFFF784BEBDE8F09F68
:103500000048004088000020010000202400002026
:103510002500002026000020270000209009002020
:103520005C000020000024400C000020100000205F
:1035300014000020180000201C00002020000020A3
:103540004805002000440040CC1000200005002069
:103550007047FEE770B50D46044600F0C1F82046FE
:1035600000F08EF800F004F9284600F089F800F029
:10357000FFF800F0B5F8641CE0B200F081F800F04C
:10358000F7F8002000F046F8044600F0D1F8204695
:1035900070BD000070B50D4C0025C4F8A0510C485A
:1035A000016821F0F0010160016841F03001016023
:1035B000C4F8A451012004F5D07402F04DFB0120A1
:1035C000206002F049FB256070BD000000802142B0
:1035D000040C014070B50D4C0025C4F8A0510C48F6
:1035E000016821F0F0010160016841F030010160E3
:1035F0000126C4F8A461304604F5D07402F02CFB17
:103600002660012002F028FB256070BD0080214269
:10361000040C01402DE9F047814617480024016859
:1036200021F0F0010160016841F080010160134E5A
:10363000254627464FF00108C6F8A071022002F087
:103640000BFBC6F8A0816006040ED6F8240108B171
:10365000641CE4B2022002F0FFFA6D1CEDB2082DEA
:10366000EAD3B9F1000F02D0FFF794FF01E0FFF7B2
:10367000B1FF2046BDE8F087040C014000802142E4
:103680002DE9F04106461448016821F0F00101607F
:10369000016841F030010160104C0027C4F8A071AE
:1036A0003D464FF00108F009C4F8A4017006060E6B
:1036B000012002F0D1FAC4F8A081012002F0CCFA76
:1036C000C4F8A071012002F0C7FA6D1CEDB2082DFC
:1036D000E9D3BDE8F0810000040C014000802142E4
:1036E00070B51148016821F0F0010160016841F0F6
:1036F000300101600D4C0120C4F8A401D4F824115C
:1037000049B1C4F8A00102F0A7FA0025C4F8A451F9
:10371000D4F8240108B1002070BD012002F09CFA09
:10372000C4F8A051012070BD040C0140008021426A
:103730000D4810B5016821F0F0010160016841F009
:1037400030010160094C0020C4F8A001C4F8A401B4
:10375000012004F5D07402F07FFA0120206060603F
:10376000BDE8104002F078BA040C0140008021420C
:1037700070B513480024016821F0F0010160016870
:1037800041F0800101600F4D0126C5F8A46130466B
:1037900002F062FAC5F8A06107E0641CE4B2322CC2
:1037A00003D9FFF7C5FF002070BD012002F054FAD5
:1037B000D5F824010028F0D1C5F8A001012070BD82
:1037C000040C01400080214210B51446FFF7C2FEF0
:1037D0002070012010BDF8B515461C460E46074660
:1037E0006A46FFF7F1FF01209DF80010A8400CB1D8
:1037F000084301E021EA0000C2B28DF80020314602
:10380000384600F02BF8F8BD2DE9F84314461D4664
:103810000F4680466A46089EFFF7D6FF00281BD059
:10382000611CFF20C4F1080200FA01F12A44521E73
:10383000D0400143C5F108008640F2B2C4F1070050
:10384000C2409DF80000084010438DF80000C2B24D
:103850003946404600F002F8BDE8F88307B502ABF0
:10386000012200F001F80EBD2DE9F0411E4615467B
:10387000884607460024FFF733FF3846FFF700FF6E
:10388000FFF776FF4046FFF7FBFEFFF771FF06E00C
:10389000305DFFF7F5FEFFF76BFF641CE4B2AC424E
:1038A000F6D3FFF745FF0120BDE8F0814106074848
:1038B000826942F0010282610548426822F0E062BA
:1038C000426042680A4342607047000000100240B4
:1038D000000001402DE9F34F524D8DB00846E968D4
:1038E0004F4E089105F002FE2968009105F028FD71
:1038F000A96805F093FB05F16404069067683046FB
:10390000394605F0F3FDD4F80890494605F0EEFD80
:1039100045490860E268904682F00046434A4E609E
:10392000C1E90262009905F00BFD216805F076FB04
:1039300083463046009905F003FD0646394605F0FA
:103940006DFB82463046494605F068FB81463748A4
:10395000009905F0F5FC414605F060FB80460699AC
:103960000D9805F0C3FD039059464FF07E5005F0C9
:10397000E7FC064649464FF07E5005F0E1FC049016
:1039800031464FF07E5005F0DBFC4FF07C5105F0E6
:1039900045FB07460146304605F0A8FB0190394635
:1039A000049805F0A3FB009051464FF07E5005F0BF
:1039B000C7FC07463146019805F0C2FC594605F0A0
:1039C0008BFD20603946019805F0BAFC514605F0A0
:1039D00083FD60603146009805F0B2FC494605F071
:1039E0007BFDA0603946009805F0AAFC414605F031
:1039F00073FDE0600399019805F0A2FC069905F0BB
:103A00000DFBA86004460399009805F099FC0899FD
:103A100005F004FBE8600FB02046BDE8F08F000021
:103A20006F12833A4401002010180020A69B443BEB
:103A30002DE9F34F524D8DB00846E96B4F4E08917A
:103A400005F054FD2968009105F07AFCA96B05F09A
:103A5000E5FA05F17404069067683046394605F0CA
:103A600045FDD4F80890494605F040FD45490860F9
:103A7000E268904682F00046434A4E60C1E9026225
:103A8000009905F05DFC216805F0C8FA83463046D0
:103A9000009905F055FC0646394605F0BFFA824606
:103AA0003046494605F0BAFA81463748009905F094
:103AB00047FC414605F0B2FA804606990D9805F09C
:103AC00015FD039059464FF07E5005F039FC06462F
:103AD00049464FF07E5005F033FC049031464FF0DC
:103AE0007E5005F02DFC4FF07C5105F097FA07460B
:103AF0000146304605F0FAFA01903946049805F07F
:103B0000F5FA009051464FF07E5005F019FC07463B
:103B10003146019805F014FC594605F0DDFC2060A3
:103B20003946019805F00CFC514605F0D5FC606063
:103B30003146009805F004FC494605F0CDFCA06034
:103B40003946009805F0FCFB414605F0C5FCE060F5
:103B50000399019805F0F4FB069905F05FFAA86354
:103B600004460399009805F0EBFB089905F056FA16
:103B7000E8630FB02046BDE8F08F00006F12833A73
:103B80004401002020180020A69B443B10B53220A1
:103B900001F0EEFE012804D10948017859B1002155
:103BA000017000F09DF9012804D10648017821B187
:103BB0000021017010BD0121F2E70121F9E70000A9
:103BC00002000020030000202DE9F05F2C480026B1
:103BD000354600783746032849D12A48007801281D
:103BE00045D029480078012841D0DFF8A0A0DFF8AF
:103BF000A0B0DFF8A090002409EBC400406800EBFF
:103C00000A035B4521D339F83480A8F10101B1F5ED
:103C1000AE7F1AD8204A761C2049F6B2C2F800803E
:103C2000884204DD1E4905F061FC294605E017497C
:103C30004942884204DA0146284605F0EFF9054674
:103C4000B8F1960F01D27F1CFFB2641CE4B2E12CE4
:103C5000D2D314480021144A082E01D2134B04E099
:103C600005D911600A2F04D9114B13600160BDE81A
:103C7000F09FB5F5000F01DB0E49F7E70E49F5E7B8
:103C80000400002026000020270000200000B8BD0E
:103C900001005301081100205800002000009B4340
:103CA0000000B44354000020500000200000F04108
:103CB0000000F0C100007AC400007A442DE9F0470A
:103CC0002F4800264FF6FF7500783746042850D15C
:103CD0002C48007801284CD02B480078012848D087
:103CE0002A4C2B4BDFF8AC90606D002140F2DB5882
:103CF00033F83120A2F1010CC44509D2761CF6B28A
:103D0000AA4205D203EBC10015464068C9F800205D
:103D1000491CC9B2E129EBD31F496065884203DD24
:103D20001E4905F0E3FB60658046A16D05F0DEFBF2
:103D30001B49884202DC1B49884201D93B2F01D133
:103D4000C4F85880DFF86080184F052E13D9284634
:103D500005F0E2FA164900F099F838600021606D2C
:103D6000FDF716F8C8F8000012483968814200DDF6
:103D70003860BDE8F08700203860C8F80000F8E738
:103D8000040000202600002027000020D80000208A
:103D90000811002058000020000034430000B44304
:103DA00000002041000020C15400002050000020ED
:103DB00000009643000070422DE9F047274A284949
:103DC000D08909780446052946D126490978012970
:103DD00042D02549097801293ED0254B2349254F5A
:103DE0001960DFF894C0254B254D00214FF4FA7976
:103DF00005EBC10676683E4466451DD2B3F80080E7
:103E0000C84510D235F8310008F1010800F1C806A4
:103E100016821FFA88F6A6F580781E80B8F1F3089E
:103E200001D1A3F8009035F83160B2F81080464512
:103E300002D23446134E3460491CC9B2E129D7D3AB
:103E4000D08105F069FA0546204605F065FA294655
:103E5000FCF796FE0C490860BDE8F087D80000200A
:103E60000400002026000020270000200000F04170
:103E700050000020FFFF71BDFFFF05004C00002037
:103E80000811002058000020540000202DE9F041C6
:103E900005F022FB0E4E0546716A05F027FB05F082
:103EA00091F80C4A0C4B04F07DFD07460C46284661
:103EB00005F088F84FF03332084B04F073FD3A46B2
:103EC000234604F095FF04F055FA7562BDE8F081D1
:103ED0009C0000209A9999999999B93F3333C3BFAF
:103EE0000C48002142891AB90B4BD3F814310BB19D
:103EF00001810AE003895B1C9BB20381C82B04D9B2
:103F000001224281018110467047012A00D141817E
:103F1000002070477C0000200000214210B50220E4
:103F200000F011F8032000F020F8002000F014F851
:103F3000002000F02FF8002000F026F8BDE8104027
:103F4000002000F01BB808B50323009002226B216B
:103F5000D020FFF759FC08BD08B5022300900422C9
:103F60001C21D020FFF750FC08BD08B502230090AB
:103F700004221B21D020FFF747FC08BD0346012285
:103F80003721D020FFF727BC034605226A21D02025
:103F9000FFF721BC034606226B21D020FFF71BBC94
:103FA0003EB5002411480094019402940E498460A7
:103FB000016004730475012505614FF460214460BC
:103FC000C161FDF703FA08B1FCF76EFE0920CDE9E7
:103FD0000005694602940548FDF774F9002801D0F0
:103FE000FCF762FE3EBD00000024014038030020C3
:103FF0003EB5002411480094019402940E49846057
:10400000016004730475012505614FF4602144606B
:10401000C161FDF7DBF908B1FCF746FE0820CDE9E8
:104020000005694602940548FDF74CF9002801D0C7
:10403000FCF73AFE3EBD0000002801406803002066
:104040002DE9F04F85B000243B4800940194029480
:104050000394816941F010018161816901F01001CF
:104060000491816941F020018161816901F02001A1
:104070000491816941F004018161816901F00401C9
:104080000491816941F0080181618069DFF8AC9099
:1040900000F008004FF4604504900022294648468D
:1040A000FDF76EFDDFF898B048F2100700223946A0
:1040B0005846FDF765FDDFF88CA04FF23838002236
:1040C00041465046FDF75CFD00950226012503960A
:1040D000CDE9015469464846FDF762FC0097039616
:1040E000CDE9015469465846FDF75AFC2020CDE938
:1040F0000004694658460294FDF752FCCDF8008052
:104100000396CDE9015469465046FDF749FC280362
:1041100000900D48CDE9010469465846FDF740FC82
:10412000012202212820FDF7B1FD2820FDF790FD96
:1041300005B0BDE8F08F0000001002400010014003
:1041400000080140000C01400000111010B592B0B1
:1041500000240F941C2168461094FCF74FF920218D
:1041600007A8FCF74BF928482649C0E9001441F696
:104170001F41C0E9024180210461C0E90541FEF709
:104180007CFD08B1FCF790FD0F940FA91E48109418
:10419000FEF722F908B1FCF787FD6020CDE90004A5
:1041A00002940394049405940022694616480694E8
:1041B000FEF7FDFC08B1FCF777FD0C2269461248BA
:1041C000FEF7F5FC08B1FCF76FFD0794089409941D
:1041D0004FF400500A94CDE90B4007A90A480E9409
:1041E000FEF7D0F808B1FCF75FFD00210648FEF7A6
:1041F00087FD0C210448FEF783FD0348FEF7B0FC61
:1042000012B010BD002C01409803002010B586B0FC
:1042100000241B48059404940094019402944FF0E8
:104220008041039401604721C0E901144FF6FF71FA
:10423000C0E903148461FEF703FB08B1FCF734FD09
:10424000049404A90E480594FEF7C6F808B1FCF7DB
:104250002BFD0120CDE90040029404226946084864
:104260000394FEF75BFA08B1FCF71EFD0421044835
:10427000FEF750FB0248FEF7E3F806B010BD000061
:10428000E003002010B58CB024216846FCF7B6F896
:1042900000241948099417490A94C0E900144FF6FC
:1042A000FF71C0E90241046184610320CDE900048B
:1042B0000120CDE902040494CDE905400794694644
:1042C0000D480894FEF7E8F808B1FCF7EDFC0994F6
:1042D00009A909480A94FEF77FF808B1FCF7E4FC45
:1042E00000210548FEF780F904210348FEF77CF918
:1042F0000CB010BD000400402804002010B58CB0A4
:1043000024216846FCF77AF80024194809941749D3
:104310000A94C0E900144FF6FF71C0E9024104613C
:1043200084610320CDE900040120CDE90204049456
:10433000CDE90540079469460D480894FEF7ACF8AE
:1043400008B1FCF7B1FC099409A909480A94FEF7E1
:1043500043F808B1FCF7A8FC00210548FEF744F932
:1043600004210348FEF740F90CB010BD00080040DE
:10437000700400200C4810B50A4901604FF4E13187
:104380004160002181600C22C160C0E9041281619A
:10439000C161FEF76BFE002803D0BDE81040FCF7BA
:1043A00083BC10BD00380140B80400200E4810B591
:1043B0000C4901604FF461314160002181600C22A1
:1043C000C160C0E904128161C161FEF74FFE08B10E
:1043D000FCF76AFCBDE81040012204490248FEF7E0
:1043E00011BF000000440040000500208E000020A6
:1043F0000E4810B50C4901604FF416514160002180
:1044000081600C22C160C0E904128161C161FEF7C4
:104410002DFE08B1FCF748FCBDE81040012204491C
:104420000248FEF7EFBE00000048004048050020AB
:104430008F000020FEE7FEE710B40021084B0A467B
:104440005FF0000003EBC004401CC0B2625480283F
:10445000F8D3491CC9B20829F2D310BC00F078B8CF
:104460009005002010B5394C0020C4F88C01642060
:1044700004F5C67401F0D6FB012020600021AE20B7
:1044800000F08CF80021D52000F088F800215020A1
:1044900000F084F80021A82000F080F800213F20DF
:1044A00000F07CF80021D32000F078F800210846C5
:1044B00000F074F80021402000F070F800218D20F9
:1044C00000F06CF80021142000F068F80021202092
:1044D00000F064F80021022000F060F80021A12023
:1044E00000F05CF80021C02000F058F80021DA202C
:1044F00000F054F80021122000F050F80021812033
:1045000000F04CF80021EF2000F048F80021D920FD
:1045100000F044F80021F12000F040F80021DB20F9
:1045200000F03CF80021302000F038F80021A420F1
:1045300000F034F80021A62000F030F80021AF2070
:1045400000F02CF8BDE81040FFF776BF0080214254
:1045500070B5114E002400BF04F1B000C0B20021BC
:1045600000F01CF80021084600F018F80021102087
:1045700000F014F85FF0000506EBC5000121005DB6
:1045800000F00CF86D1CEDB2802DF5D3641CE4B284
:10459000082CE1D370BD00009005002070B50F4CD1
:1045A0000025012211B1C4F8BC2101E0C4F8BC51BE
:1045B0000B4B0021C3F89451060602D5C3F8902195
:1045C00001E0C3F89051C3F894214006491C000E45
:1045D000C9B20829EED3C4F8BC2170BD0000214245
:1045E00000802142884200DD0846904200DA1046F1
:1045F000704770472DE9F04700261B4C3546314681
:10460000C4F88461194AC2F8846102F5C27204F5E3
:10461000C274FCF7DBFA01271760FCF7D7FA2160B8
:10462000FCF7D4FA2760A4F5C274FCF7CFFA116046
:10463000FCF7CCFADFF83890884600BFC4F88481D4
:10464000FCF7C4FA0220FCF7E5FB010929F8151074
:104650006D1CEDB2C4F88471FCF7B8FA761CF6B2A2
:10466000802EEBD3BDE8F08700002142008021427C
:10467000380200202DE9F04F89B0684C07A8CDE939
:10468000004004F1260106AB02AA881F01F04EFC8F
:104690002088C0057ED5029804F026FE6FF01D0626
:1046A000314604F0F8FF80466060039804F01CFE79
:1046B000314604F0F0FF0746A060049804F014FEB1
:1046C000314604F0E8FF0546E060059804F00CFE72
:1046D000314604F0E0FF064620610121404604F027
:1046E000DAFF294604F02CFE05464FF040484146CB
:1046F000384604F025FE314604F022FE294604F037
:104700008DFC04F05FFC00F01DFEDFF814A14FF0FB
:1047100066394A46534604F045F903F02BFE6061C2
:10472000E0680121054604F0B6FF8346294604F0FF
:1047300007FE0546A0684146064604F001FE3146E4
:1047400004F0FEFD294604F0D1FE4FF07E5104F046
:1047500065FC04F037FC07460D460121606804F053
:104760009AFF314604F0ECFD06465846216904F0F4
:10477000E7FD314604F052FC04F024FC3A462B4697
:1047800001F028F84A46534604F00CF903F0F2FD14
:10479000A06100E03FE021690191084604F0D0FDEE
:1047A000E16807460846009104F0CAFDA168064684
:1047B0008B46584604F0C4FD61680546884640466D
:1047C00004F0BEFD294604F029FC314604F08EFEBB
:1047D000394604F08BFE04F0F5FB06460D464046D4
:1047E000019904F0ADFD07465846009904F0A8FD74
:1047F000394604F013FC012104F04DFF04F0E2FB04
:1048000032462B4600F0E6FF4A46534604F0CAF80B
:1048100003F0B0FDE06109B0BDE8F08FF4010020C5
:1048200066A64C4010B50E4C0120C4F88C010F2038
:1048300004F5C67401F010FA0022226009480188CC
:104840000B060CD54488890604EB9121AA24614308
:104850004FF47A74B1FBF4F1034B1960028010BD80
:10486000000021426400002058000020002103289D
:1048700003D0042803D000207047034A00E0034A15
:104880001068116000B27047240400402408004002
:1048900010B54221D020FEF75DFE04464121D02014
:1048A000FEF758FE04EB002004F036FDB0F18E4F09
:1048B00003DD4FF08F4104F019FE094904F016FCA6
:1048C00004F080FB074A084B03F086FD0022074BEB
:1048D00004F068F803F04EFDBDE8104004F0C8BCD9
:1048E0000000AA43A4703D0AD74342400000244080
:1048F00070470000074801780748072904D00629B7
:1049000005D00021016070476FF00801FAE76FF0F1
:104910000301F7E7040000203800002030B5002331
:104920000124114A002804DDC2F8B841C2F8BC31A4
:1049300003E0C2F8B831C2F8BC4102F099FF0B4D58
:104940002860002904DDC2F8B441C2F8B03103E0A8
:10495000C2F8B431C2F8B041084602F089FF0349F9
:104960000C31086030BD000000802142342C014031
:10497000FDF712B930B593B028216846FBF73EFD2C
:1049800014210AA8FBF73AFD002501200F95109588
:104990001195010412958DE8230004904FF4E01066
:1049A000CDE90810022407946846FDF745FB08B1DD
:1049B00072B6FEE70AA90F2081E831004FF480604B
:1049C000CDE90D0502210AA8FDF75AFA08B172B621
:1049D000FEE74FF4004011900F940FA8FDF7DAF9AD
:1049E000002801D072B6FEE713B030BD704700005A
:1049F0000148FEF701B80000E00300200148FDF780
:104A0000FBBF0000280400200148FDF7F5BF0000AF
:104A100070040020F0B50268164B174C174D4FF08C
:104A20008047984205D0B84203D0A04201D0A842A6
:104A300003D122F070064A683243984205D0B8424A
:104A400003D0A04201D0A84203D122F44074CA6826
:104A500022434C6922F08002224302608A68C262CB
:104A60000A688262984201D10969016301214161AA
:104A7000F0BD0000002C0140000400400008004090
:104A800010B501F01F030121046A99408C430462B0
:104A9000016A9A401143016210BD000030B5036AFB
:104AA000026A22F0010202624268846924F07305FE
:104AB0000C682C4323F002058B682B430A4DA84257
:104AC0000BD123F00805CB6822F440722B434D69CB
:104AD00023F0040315438A692A43426084614968CC
:104AE0004163036230BD0000002C014030B5026A12
:104AF000036A23F010030362436884690D6824F499
:104B0000E64444EA05248D6822F0200242EA0512B8
:104B10000B4DA8420ED1CD6822F0800242EA051268
:104B20004D6923F4406343EA85038D6922F0400216
:104B300043EA85034360846149688163026230BD52
:104B4000002C014030B5036A026A22F480720262CE
:104B50004268C46923F4007324F073050C682C4385
:104B60008D6843EA05230C4DA8420ED1CD6823F48D
:104B7000006343EA05234D6922F4405242EA0512DC
:104B80008D6923F4806342EA05124260C46149687A
:104B9000C163036230BD0000002C014030B5046ADF
:104BA000026A22F4805202624268C3690D6823F4EB
:104BB000E64343EA05238D6824F4005444EA0534AF
:104BC000064DA84204D14D6922F4804242EA851282
:104BD0004260C36149680164046230BD002C014039
:104BE00070B5056A046A24F00104046284690F4EFA
:104BF000B04208D0B0F1804F05D00D4EB04202D087
:104C00000C4EB04203D124F00304144301E044F0FD
:104C100001041A0724F0F00444EA126225F00A03A2
:104C200001F00A0119438261016270BD002C01404C
:104C3000000400400008004030B5046A056A25F011
:104C400010050562856925F4407545EA022222F4C3
:104C500070454FF6FF7202EA033224F0A0032A43A4
:104C6000A02404EA011119438261016230BD0000F1
:104C70002DE9F04107462248244C06682148E56C9E
:104C8000017821480129007829D021490978012992
:104C90002BD0002060641F48007801282CD01E48CB
:104CA0000078012828D00021384604F049FB1B4F2A
:104CB000394604F01BFA05463146606C04F040FBAF
:104CC000394604F013FA294604F0A8F91449096892
:104CD00004F0A4F9A064BDE8F04104F0C9BA04F0FE
:104CE0001BFB014685F0004003E004F015FB014684
:104CF000284604F0FBF9CDE70A480168D4E7000034
:104D00001C0000202600002001000020D800002008
:104D10002700002024000020250000200000C842B9
:104D200054000020200000200D4A904209D80D4A6E
:104D3000904206DC0C480078012802D0B1F57A7F59
:104D40000BDA0A4A01200021C2F8B811C2F8BC11DE
:104D5000C2F8B411C2F8B0117047002070470000CB
:104D6000000020C2000020420200002000802142FA
:104D700010B5406A0021C185C184FEF740F810BD1E
:104D800001680C3151E8002F22F4907241E80023B1
:104D9000002BF5D10168143151E8002F22F00102F7
:104DA00041E80023002BF5D1016B012909D10168ED
:104DB0000C3151E8002F22F0100241E80023002BB3
:104DC000F5D1202180F8421000210163704708B519
:104DD00090F84210222901D0022008BD82684FF4C9
:104DE00080539A4201D1016921B1816A9A421BD054
:104DF0004AB10AE00268816A5268C2F308020A8076
:104E0000816A891C08E0026972B10268526802F086
:104E10007F020A70816A491C8162C18D491E0904A2
:104E2000090CC18503D01BE002685268F1E70168F4
:104E3000CA6822F02002CA600168CA6822F480723F
:104E4000CA6001684A6922F001024A61202180F8A3
:104E5000421000214163026B012A03D0FEF7E0F902
:104E6000002008BD016301680C3151E8002F22F0D9
:104E7000100241E80023002BF5D101680A68D20630
:104E800002D50A6849680091818DFDF7B7FFE7E711
:104E900070B5044600680169E26821F4405111438D
:104EA00001612169A0680843616908432168CA68F3
:104EB00041F20C639A430243CA6020684169A269C7
:104EC00021F44071114341611E492068884202D19A
:104ED000FDF77CF801E0FDF769F800EBC00101EB9C
:104EE0000012606864218000B2FBF0F3B3FBF1F3C1
:104EF0006FF018067343B2FBF0F5B2FBF0F605EB6A
:104F00008305322303EB0515B5FBF1F5B6FBF1F68E
:104F100005F0F00505EB0615B2FBF0F6B2FBF0F07C
:104F2000B0FBF1F06FF01802504306EB800003EB8A
:104F30000010B0FBF1F0216800F00F0028448860F9
:104F400070BD00000038014081628285C285002169
:104F50004164222180F84210016921B10168CA68C8
:104F600042F48072CA6001684A6942F001024A61F3
:104F70000068C16841F02001C16000207047000056
:104F80000148FDF73DBF0000B80400200148FDF7CF
:104F900037BF0000000500200148FDF731BF0000C9
:104FA00048050020FEE700002DE9F04781465C48F7
:104FB0005C4C8A460078012820D05B4800780128A4
:104FC0001CD05A4820645A4801785A480129007870
:104FD000804615D058480078012816D057480068F8
:104FE0005849A06356480D68574900780F785749CB
:104FF00002280E7813D0012833D035E05448E1E779
:1050000004F08AF90146206C06E0404604F084F979
:105010000146206C80F0004004F068F8E0E7A5F15C
:10502000C900B0F5957F0BD8012F09D0012E07D00C
:10503000404604F071F90146206C04F057F8A06373
:10504000C82D11D2012F0FD0012E0DD0404604F0F3
:1050500063F90146206C80F0004004F047F8A0633B
:1050600002E0B5F5E17FEDD309EB0A00404204F020
:105070003BF905462063606B03F0A4FF354A364BCD
:1050800003F090FC03F076F90746284603F09AFFF8
:10509000324A334B03F086FC05460E46384603F091
:1050A00091FF2A46334603F097F903F063F905466A
:1050B00001466063E06B03F0B1FFA16B03F0AEFF4C
:1050C0002849E063884202DC2749884200D9E1632D
:1050D00026480168E06B04F033F9254904F006F82E
:1050E000064624480168284604F02AF9224903F0BC
:1050F000FDFF314604F0FAF9E062204801682048DB
:105100000068FFF711FE012803D01E48007801282F
:1051100001D10020E063E06ABDE8F04704F0A8B8E0
:1051200007000020D80000200800002000004842AE
:105130002400002001000020250000205000002055
:105140000400002058000020260000202700002036
:105150000000F04185EB51B81E85EB3FEC51B81EC5
:1051600085EBC13F00401C4600401CC618000020D3
:105170000000C842140000200000C8C23400002013
:105180003C00002002000020490050EAC12018BF66
:1051900004204A0D18BF40F0010040F2FF72B2EB4C
:1051A000515F08BF40F00200012808BF052070478A
:1051B0000907090E002804DB00F1E02080F8001444
:1051C000704700F00F0000F1E02080F8141D7047D8
:1051D0002DE9F0414F1E00EBC7010446D1E9000163
:1051E00015461E4637F006020DD02A46334603F018
:1051F000D9FB7F1E04EBC703D3E9002303F0ECF8CF
:1052000037F00602F1D1022F25D0042F13D0062F3C
:1052100018BFBDE8F0812A46334603F0C3FBD4E94A
:105220000A2303F0D9F82A46334603F0BBFBD4E93E
:10523000082303F0D1F82A46334603F0B3FBD4E940
:10524000062303F0C9F82A46334603F0ABFBD4E942
:10525000042303F0C1F82A46334603F0A3FBD4E944
:10526000022303F0B9F82A46334603F09BFBD4E946
:105270000023BDE8F04103F0AFB800000022134660
:105280001046014903F064B90000F03F012204F028
:10529000D4B903F0A1B8002213461046114603F01A
:1052A00057B940F2013200204FF0E04104F0C5B997
:1052B000024A0020110704F0C0B9000001FDFFFF01
:1052C000704700002DE9FE4F07460E460025684650
:1052D00001F0A2F900246FF00F0AE8464FF001092F
:1052E00057F8240056F82410401A00D5404203F025
:1052F000FBFF514604F0CFF958F8241011F0FF4F8E
:105300000BD003F0F3FE4FF07E5104F0EFF80A49A2
:1053100020F00040884205DC07E0084908440849BD
:10532000884202D309FA04F00543641C032CD7DB3E
:105330002846BDE8FE8F0000295C0F3E666666C108
:105340009A99D9002DE9F04D8D4F21F0004A86B091
:1053500005460C46BA452ADBAAEB070028430AD0CB
:105360008848824501DC1AD1CDB106B02846BDE897
:10537000F04DFFF78BBF844A844B284603F012FBA5
:1053800007460E46824A834B2846214603F00AFB15
:1053900006B03A463346BDE8F04D03F01DB8012093
:1053A000FBF7D2F806B0BDE8F04DFFF774BF7A48BE
:1053B000824542DABAF1795F0BDA2846FFF7E4FE5C
:1053C000042808BFFFF774FF284606B02146BDE851
:1053D000F08D2A460B46104603F0E4FA8346024657
:1053E0006E480E460B4606217844FFF7F1FE5A46FA
:1053F000334603F0D7FA804669488A465A46334610
:1054000004217844FFF7E4FE5A46334603F0CAFA13
:1054100000223B4602F0E0FF02460B464046514662
:1054200003F096F82A46234603F0BCFA06B02A4653
:105430002346BDE8F04D02F0CFBF284624F00041DE
:1054400000223D463B4603F0E1FB4FF0FF3204F003
:10545000F4F80646024653480F460B4606217844A8
:10546000FFF7B6FE32463B4603F09CFACDE9000159
:105470004D4832463B4604217844FFF7A9FE3246A8
:105480003B4603F08FFA00222B4602F0A5FF83462D
:1054900002913046394602F047FF804643480D46A8
:1054A000504517DCDDE900015A46029B03F050F835
:1054B00042462B4603F076FA42462B4602F08CFF1A
:1054C000012204F0BAF8304A304B03F091FC304A24
:1054D000304B4CE04FF0000A52460B46404602F07B
:1054E0007BFFCDE9031052462B461046194603F0C8
:1054F00059FA32463B4603F089FBDDE9033203F0FB
:1055000027F806460F46DDE900015A46029B03F0E4
:105510001FF88346009101223046394604F08DF889
:10552000194A1A4B03F072FB06460F460122404609
:10553000294604F082F85A46009B03F033FA3246BB
:105540003B4603F055FC06460F46012250462946CD
:1055500004F073F80E4DDFF858802A46434603F0F6
:1055600055FB32463B4603F051FB2A46434603F0C7
:105570004DFB002CD8BF81F0004106B0BDE8F08D96
:105580000000F03F0000F07F075C143326A6913C3A
:10559000182D4454FB21F93F0000E03FAC4F0000C0
:1055A000C24F0000364F00004C4F00003333EF3F36
:1055B000FB21E93F2DE9F84F04460D4621F000405C
:1055C00000917349814211DC7249884201DC06D1A5
:1055D0002CB120462946BDE8F84FFFF757BE6E486C
:1055E000002DCCBF6D496E49BDE8F88F6D498142F1
:1055F00011DD6D498142D8BF4FF0FF366DDD204689
:105600002946FFF7C1FD042808BFFFF751FE2046D9
:105610002946BDE8F88F6549654F25F00045814270
:1056200033DD6449814219DD002632464FF0804364
:105630002046294602F0D0FE80468A4601222046B6
:10564000294603F0FAFF00223B4603F0D1FB424615
:10565000534602F07DFF04460D463EE0012600223F
:10566000BA463B462046294602F0B6FE80460F4623
:10567000002253462046294603F0BAFB42463B46E9
:1056800002F066FF04460D4627E04B4981421BDDD0
:10569000DFF828A10226002253462046294603F0BF
:1056A00081F900223B4602F097FE80460F46002219
:1056B00053462046294603F09BFB42463B4602F0F8
:1056C00047FF04460D4608E0032622462B460020ED
:1056D0003B4902F03DFF04460D4622462B4610464C
:1056E000194603F05FF98B46824602460B4603F0EB
:1056F00059F907460246334888460B460621784446
:10570000FFF766FD52465B4603F04CF982462E4891
:105710008B463A46434605217844FFF759FD3A4601
:10572000434603F03FF902460B46002E50465946C9
:105730000CDA02F051FE22462B4603F033F901B099
:1057400022462B46BDE8F04F03F060BA02F044FE5B
:1057500022462B4603F026F91C4A7A4402EBC60384
:10576000D3E9002303F044FB22462B4603F040FB21
:10577000174A7A4402EBC603D3E9002303F046FA42
:10578000009A002AB8BF81F00041BDE8F88F000000
:10579000000010440000F07F182D4454FB21F93F15
:1057A000FB21F9BF0000DC3F0000203E0000F33F7A
:1057B0000000F03F0000E63F008003400000F83F9B
:1057C0000000F0BFD64D0000944D0000324D0000A7
:1057D000FA4C00002DE9F04D9446CCF1000423F082
:1057E00000464CEA0404594F46EAD4749A46884667
:1057F00021F00042BC4206D8454240EA050442EA94
:10580000D474BC4204D9BDE8F04D6246FFF741BDF7
:10581000AAF14055A5F17F6555EA0C040BD002248E
:1058200004EAAA744A4DDFF82CE144EAD87452EA3B
:10583000000B04D00CE0BDE8F04DFFF7BBBE002C20
:1058400014BF012CBDE8F08D022C30D0032C32D0D7
:1058500056EA0C0B0AD0BE4220D1BA4209D126F03A
:10586000804622F080423346114617E000291ADBB9
:1058700025E0DFF8E4B0FB44002C04BFDBE90001C5
:10588000BDE8F08D012C02BFDBE9000181F0004191
:10589000BDE8F08D022C0AD0032C0CD0BA4212D1F4
:1058A000B8F1000F0BDA2A482C49BDE8F08D2846E4
:1058B0002B49BDE8F08D28467146BDE8F08D24489F
:1058C0002849BDE8F08D921B12153C2AC4BF204F19
:1058D000244E10DCBAF1000FBEBF12F13C0F0027BE
:1058E0003E4608DB624602F033FE21F00041FFF73E
:1058F00061FE07460E4694B1012C08BF86F00046B3
:105900000DD0194A194B022C3846314615D003F0F8
:105910006FFA2A46BDE8F04D114B03F069BA002238
:1059200013463846314602F06BFF04BF0220FAF7F7
:105930000BFE38463146BDE8F08D03F059FA2A4691
:10594000BDE8F04D064B03F061B900000000F07FA8
:10595000182D4454FB2109C08E4C0000FB21F9BFD7
:10596000FB210940FB21F93F075C143326A6A13C2B
:1059700030B5204BD3F814411F4900222CB1CA8006
:10598000D3F81451012425B106E0CC88641CCC80E6
:10599000F6E70D7805B90C704D784DB90D78012DED
:1059A00003D18D786D1C8D704C708C78022C04D0D6
:1059B000D3F81431012B04D005E08A708A800220CC
:1059C00030BD0A704A708B78012B11D18B885B1C1B
:1059D0009BB28B80834206D9CB88834203D28A70E4
:1059E0008A80012030BDCB88834201D98A708A80A9
:1059F000002030BD000021427C0000202DE9F04352
:105A000091B020216846FAF7F9FC7649764D0120DD
:105A10000870A879697900EB012002F073FF734CDC
:105A20000022234602F094FD02F0A4FC074695F8FC
:105A3000380095F8371000EB012002F063FF0022D8
:105A4000234602F085FD02F095FC0446202108A8BB
:105A5000FAF7D4FC6648DFF89C81874207DD664888
:105A6000844204DA4146204603F0D8FA0446002670
:105A70002046394603F03AFDF11E03F00CFE814644
:105A800008AC304603F048FC0146484603F058FC99
:105A9000394603F0C3FA414644F82600884203DD44
:105AA00003F024FD44F82600761CF6B2082EE8D355
:105AB00000200BE0102860D2DFE800F00808131384
:105AC0001E1E292934343F3F4A4A555500EB4001F8
:105AD0002944009A0B7AC9791A4402EB01210091FA
