:020000040800F2
:1000000090130020D1010008A3390008672F0008D1
:10001000A139000809090008D148000800000000C3
:10002000000000000000000000000000BD430008C8
:10003000510D00080000000031410008394400085B
:10004000EB010008EB010008EB010008EB010008E0
:10005000EB010008EB010008EB010008EB010008D0
:10006000EB010008EB010008EB010008EB010008C0
:10007000EB010008EB010008EB010008EB010008B0
:10008000EB010008EB010008EB010008EB010008A0
:10009000EB010008EB010008EB010008EB01000890
:1000A000EB010008EB010008EB010008EB01000880
:1000B000EB010008B9440008C5440008EB01000842
:1000C000EB010008EB010008EB010008EB01000860
:1000D000EB010008B9480008EB010008C54800081A
:1000E000B10D0008EB010008EB01000800F002F878
:1000F00000F05FF80AA090E8000C82448344AAF163
:100100000107DA4501D100F054F8AFF2090EBAE860
:100110000F0013F0010F18BFFB1A43F0010318473B
:1001200058A7000078A700000A444FF0000C10F810
:10013000013B13F0070408BF10F8014B1D1108BF65
:1001400010F8015B641E05D010F8016B641E01F805
:10015000016BF9D113F0080F1EBF10F8014BAD1C55
:100160000C1B09D16D1E58BF01F801CBFAD505E073
:1001700014F8016B01F8016B6D1EF9D59142D6D3CD
:10018000704700000023002400250026103A28BFF5
:1001900078C1FBD8520728BF30C148BF0B607047F9
:1001A000642900F09980002070471FB51FBD10B56D
:1001B00010BD00F05FFA1146FFF7F7FF05F010FFE2
:1001C00000F07DFA03B4FFF7F2FF03BC04F046FF32
:1001D0000948804709480047FEE7FEE7FEE7FEE7DB
:1001E000FEE7FEE7FEE7FEE7FEE7FEE70448054917
:1001F000054A064B70470000B5440008ED000008B2
:10020000900D002090130020900F0020900F0020F0
:1002100010B54C1084EA530404D54042C1F10001EA
:1002200038BF491E1B4204D55242C3F1000338BFF8
:100230005B1E00F00DF914F0804F04D04042C1F174
:10024000000138BF491E14F0004F04D05242C3F1E0
:10025000000338BF5B1E10BD0FB4044910B503AADC
:10026000029800F0D1F910BC5DF814FB7C0000206E
:100270002DE9F0410E460446002020622046E16848
:10028000884730B3252805D0D4E901219047206A5A
:10029000401CF2E7E168204600278847050018D097
:1002A000A5F14100192802D820354FF400673246E5
:1002B000294620462760FFF773FF40B1012804D08C
:1002C000F61D26F007060836D8E7361DD6E728467D
:1002D000DAE7206ABDE8F0812DE9F0410646002406
:1002E00010687529314616A510D0AFF3008000289C
:1002F00002DA404213A507E031688A0701D512A54A
:1003000002E0490704D511A5012401E0AFF3008004
:1003100000210A2206F1240709E0B0FBF2FCB0FB41
:10032000F2F302FB1C00303078541846491C0028B8
:10033000F3D123462A463046BDE8F04100F00AB921
:10034000000000002D0000002B0000002000000035
:1003500040EA010310B59B070FD1042A0DD310C842
:1003600008C9121F9C42F8D020BA19BA884201D994
:10037000012010BD4FF0FF3010BD1AB1D30703D0DC
:10038000521C07E0002010BD10F8013B11F8014B92
:100390001B1B07D110F8013B11F8014B1B1B01D1AE
:1003A000921EF1D1184610BD02F0FF0343EA03226A
:1003B00042EA024200F002B84FF000020429C0F005
:1003C000128010F0030C00F01B80CCF1040CBCF187
:1003D000020F18BF00F8012BA8BF20F8022BA1EBD9
:1003E0000C0100F00DB85FEAC17C24BF00F8012BBE
:1003F00000F8012B48BF00F8012B70474FF00002B6
:1004000000B5134694469646203922BFA0E80C500A
:10041000A0E80C50B1F12001BFF4F7AF090728BFE5
:10042000A0E80C5048BF0CC05DF804EB890028BF61
:1004300040F8042B08BF704748BF20F8022B11F08A
:10044000804F18BF00F8012B704770477047704706
:1004500053EA020C00F069802DE9F04B4FF00006E2
:10046000002B1FBFB3FA83F503FA05F424FA05F64F
:100470005E4012BF1643B2FA82F502FA05F4C5F1E6
:1004800020051EBF22FA05FC44EA0C04203556EA7A
:10049000044C4FEA144418BF641C4FF000084FF09E
:1004A0000009904271EB030C39D3002919BFB1FA4E
:1004B00081F701FA07F6B0FA80F700FA07F6C7F1FC
:1004C00020071EBF20FA07FC46EA0C062037B6FBC1
:1004D000F4FCA7EB0507103F07F01F0BCBF120063C
:1004E0000CFA0BFB2CFA06F644BFB3460026202F6D
:1004F000A4BF5E464FF0000B5BEA060C08BF4FF04E
:10050000010B19EB0B09ABFB027C48EB0608C01B87
:1005100006FB02CC0BFB03CC71EB0C01C1E70B46D5
:10052000024641464846BDE8F08B13B54FF0000047
:100530004FF00001AFF30080BDE81C40704710B5DC
:1005400000F074F8006810BD10B5044600F06EF8B5
:10055000046010BD2DE9F0470D46994692460446C9
:1005600000F124080168880604D5E06921F0100133
:10057000216000E00120A84201DD471B00E00027C8
:10058000A1697A1902EB0900081AA0612078C00657
:1005900002D42046AFF30080002608E0D4E9012110
:1005A0001AF806009047206A401C761C20624E45CF
:1005B000F4DB2078C0060AD52046AFF3008006E0C1
:1005C000D4E9012130209047206A401C2062381E67
:1005D000A7F10107F4DC07E0D4E9012118F80500D0
:1005E0009047206A401C2062281EA5F10105F3DC1B
:1005F0002046AFF300802078000602D50220BDE837
:10060000F0870120FBE70000074B70B50D467B44E7
:1006100000F015F80446284600F024F810B14FF019
:10062000FF3070BD204670BDF75300000048704792
:10063000300D002001694A1C02610878704700B53E
:100640008FB0CDE901310021059105497944CDE90B
:10065000031011466846FFF70BFE0FB000BD000007
:10066000E5FFFFFF007B00F0800070470048704707
:10067000300D00207546FFF7F9FFAE4605006946CC
:10068000534620F00700854618B020B5FFF7AEFDB1
:10069000BDE820404FF000064FF000074FF0000883
:1006A0004FF0000B21F00701AC46ACE8C009ACE804
:1006B000C009ACE8C009ACE8C0098D46704710B568
:1006C0000446AFF300802046BDE81040FFF77ABD36
:1006D00070B5044600688168C943C90717D18168AD
:1006E00021F00101816001F00DFB05460AE000BF29
:1006F00001F008FB401B022804D920688068C04331
:10070000C00706D020688068C043C007F0D0002032
:1007100070BDA06A40F01000A062E06A40F00100E5
:10072000E062012070BD0000F8B500260446009686
:1007300000688168C943C9072DD0816841F0010173
:100740008160164816490068B0FBF1F000E0401ED9
:1007500000900028FBD101F0D5FA054616E000BF55
:1007600001F0D0FA401B022810D920688068C043ED
:10077000C0070BD0A06A40F01000A062E06A40F011
:100780000100E06284F824600120F8BD20688068E0
:10079000C043C007E4D10020F8BD00008C00002059
:1007A00040420F002DE9F0473A48032186B0D0F8C7
:1007B00000904FEA4900A0F5B96090FBF1F7002FD7
:1007C00001DA002702E0642F00DD64273248006868
:1007D000804607F0C4FC314C314E2246334607F0C8
:1007E00025FD07F08DFC050000D545422D48006829
:1007F000824607F0B4FC2246334607F017FD07F0A7
:100800007FFC040000D544422749087898B10020B5
:10081000264E0870317801290FD02549096848B360
:1008200053464A4623A0CDF8008000BFFFF714FDD1
:1008300006B0BDE8F0870120EAE72248006808F02A
:100840005BF907462048006808F056F905461F483E
:10085000006808F051F900240146059402940394BD
:10086000049400943B462A4619A00194FFF7F4FC37
:100870003470DDE7A1F2DC5007F071FC1C4A1D4B1F
:1008800007F0D4FC07F03CFC0090EAB2E1B23B4632
:1008900019A0CBE74C000020280000209A999999D4
:1008A0009999F13F240000207D0100206A0000207A
:1008B000400000207B4225643A25643A25643A25AD
:1008C000647D2400100000200C0000201400002093
:1008D0007B4325643A25643A25643A25643A2564C5
:1008E0003A25643A25643A25643A25647D2400005B
:1008F0007B14AE47E17AC43F7B4125643A25643AD4
:1009000025643A25647D2400FEE700003EB5002101
:10091000124800910191104A0291026081600173B6
:10092000017501244FF460220461C261416000F04E
:10093000D7FD08B100F040FA0420CDE900040720FB
:1009400002906946054800F047FD08B100F034FA0E
:10095000024800F0D5FC3EBD00240140A802002062
:1009600070B5174886B0816941F0080181618169DD
:1009700001F008010491816941F0100181618169F0
:1009800001F010010491816941F0010181618069E8
:10099000012400F0010004900820CDE90004094E74
:1009A000022569460395304601F0B6F81020CDE9DE
:1009B000000469460395304601F0AEF806B070BDFC
:1009C000001002400010014010B5FFF7C9FFBDE85C
:1009D0001040FFF79BBF0000F8B5374F00260120FD
:1009E0000096387002466B467521682005F072FA51
:1009F00032A0FFF731FC9DF8000068280CD0BFF34F
:100A00004F8F37480168374A01F4E06111430160B4
:100A1000BFF34F8F00BFFDE705F004FC002848D16D
:100A2000782006F075F810B924A0FFF715FC78209F
:100A300005F02AFB10B92CA0FFF70EFCC82006F029
:100A400027F810B932A0FFF707FC04F02BFD10B90E
:100A500039A0FFF701FC4548044605F09DFA05461C
:100A6000E01C05F099FA45EAC005A01D05F094FACE
:100A700045EA801080B204F023FE10B93CA0FFF7D5
:100A8000EBFB40F2731004F0E5FB10B942A0FFF756
:100A9000E3FBC82004F07CFD10B949A0FFF7DCFBA4
:100AA00006F0DAFF012005F019FF10B94DA0FFF79D
:100AB000D3FB3E70F8BD0000040000206D70755F30
:100AC0007365745F73656E736F7220636F6D706CA6
:100AD000657465202E2E2E2E2E2E0D0A000000008D
:100AE0000CED00E00400FA056D70755F636F6E66D3
:100AF00069677572655F6669666F20636F6D706C9C
:100B0000657465202E2E2E2E2E2E0D0A000000005C
:100B10006D70755F7365745F73616D706C655F7226
:100B200061746520636F6D706C657465202E2E2E68
:100B30002E2E2E0D0A000000646D705F6C6F6164D4
:100B40005F6D6F74696F6E5F6472697665725F6600
:100B500069726D7761726520636F6D706C65746525
:100B6000202E2E2E2E2E2E0D0A00000074010020A5
:100B7000646D705F7365745F6F7269656E746174C4
:100B8000696F6E20636F6D706C657465202E2E2EFC
:100B90002E2E2E0D0A000000646D705F656E61627E
:100BA0006C655F6665617475726520636F6D706CEE
:100BB000657465202E2E2E2E2E2E0D0A00000000AC
:100BC000646D705F7365745F6669666F5F72617490
:100BD0006520636F6D706C657465202E2E2E2E2E31
:100BE0002E0D0A006D70755F7365745F646D705FC4
:100BF000737461746520636F6D706C657465202E0D
:100C00002E2E2E2E2E0D0A0070B516480068A0F26A
:100C1000DC5007F0ADFF012100F070F812480068C9
:100C200007F0A6FF022100F069F81048006807F0FD
:100C30009FFF032100F062F8032000F01FF80C4929
:100C400000220C4B88704A700B4C1D1D06E01E687C
:100C50007606FCD5A65C2E60521C4A70D2B2824247
:100C6000F5D370BD400000202400002028000020A3
:100C70007D01002000380140F40C00200A2839D8FA
:100C800090B31D4924220B280A7033D2DFE800F00C
:100C900032060A0E12161A1E22272D000520487150
:100CA00006207047092048720A2070470D204873BB
:100CB0000E20704711204874122070471520487587
:100CC00016207047192048761A2070471D20487753
:100CD0001E207047212081F8210022207047252006
:100CE00081F825002620704704E0292081F829009A
:100CF0002A20F8E70020F6E7F40C002003B50A29C3
:100D000012D8002910D00B290ED2DFE801F00D0611
:100D1000080E10121416181A1C00012200E00522F9
:100D20000A49684600F018F90CBD0922F8E70D22BF
:100D3000F6E71122F4E71522F2E71922F0E71D2267
:100D4000EEE72122ECE72522EAE70000F40C002080
:100D500070470020401C0A28FCDB70473EB500218C
:100D6000124800910191104A029102608160017362
:100D7000017501244FF460220461C261416000F0FA
:100D8000AFFB08B100F018F80720CDE901400420BE
:100D900000906946054800F01FFB08B100F00CF810
:100DA000024800F0ADFA3EBD00240140A802002038
:100DB0004FF4805000F0A4BE72B6FEE770B5344A1E
:100DC0003449052410884C8003464E8832F816506A
:100DD0009D4200D32B46761CB5B24D807B2DF4D3BB
:100DE00088814C804D8832F81560864200D83046A4
:100DF0006D1CADB24D807B2DF4D388811844264BF9
:100E0000C0F3470018704C804C8832F8143083428D
:100E100012D902EB44035D8885420DD99D88854235
:100E20000AD9DD88854207D21D89854204D25B89B3
:100E3000834201D2CC8004E0641CA3B24B80762BA9
:100E4000E2D376238B809CB232F81430834212D2E4
:100E500002EB44035D8885420DD29D8885420AD20B
:100E6000DD88854207D91D89854204D95B89834283
:100E700001D90C8104E0641EA3B28B80052BE2D85B
:100E80000889C988084405494008087070BD0000F9
:100E900080010020DC0000206900002068000020A4
:100EA0002DE9F0410A221449144803F0CBF9124C01
:100EB0004FF6FF71124D2088124E134F88420DD10C
:100EC00062888A420AD1A2888A4207D1E2888A428D
:100ED00004D10E48286030600D4809E007F060FE3C
:100EE0002860608807F05CFE3060A08807F058FE3C
:100EF0003860BDE8F08100008002002000E00008BA
:100F0000140000200C0000201000002000007041A0
:100F10000000E0400B4810B5006807F009FE0A4CDD
:100F200020800A48006807F003FE608008480068D7
:100F300007F0FEFDA0802146BDE810400A220548CA
:100F400003F0ACB914000020940200200C00002033
:100F50001000002000E0000803788B54114443780F
:100F60004B7082788A70C078C87070473EB5694609
:100F7000009007200290012001900A4800F02CFA0E
:100F8000084800F01DFC1E21064800F07BFB0548C8
:100F900000F0A0FA800503D5024800F09DFA84B263
:100FA00020463EBDA80200202DE9FC5F9848994EDE
:100FB000994D0178994A002031B39949096809B3DC
:100FC000984B01291C6813D002290FD0032919D08E
:100FD0001B68042983F0004312D005290ED0924AE1
:100FE00006290DD007290DD0082903D1346003E06C
:100FF00034602860BDE8FC9F2A60FBE73360F8E7B7
:101000003360F9E73060F4E788498B4CDFF82492CD
:101010000B788749E76A23B3884831600078403805
:1010200007F0A6FDA04606463946A06207F098FEE6
:1010300007F00CFC824A834B07F0F8F807460C4691
:10104000304607F003FC4A467F4B07F0EFF83A467C
:10105000234606F041FE06F00DFE2860C8F82C601D
:10106000C8E77A4B1B78E3B3794831600068C0F178
:10107000640007F07DFD82463946A06207F070FEED
:1010800007F0E4FB734F4E464A463B4607F0CEF866
:1010900080468946504607F0D9FB32463B4607F06A
:1010A000C5F806460F46504607F026FD05F0B6FD8A
:1010B000404207F05DFDA16A8A4607F085FD07F012
:1010C000C5FB654A654B07F0B1F832463B4607F071
:1010D000D3FA42464B4607F0CFFA06F0CBFD286024
:1010E00000E002E0C4F82CA084E75D4909780129FA
:1010F00080D15C4909780129B2D15B498046C1F8A9
:10110000B401DFF868915B495948C9F800200192A1
:1011100009680068C1F18007C0F180006FF0130119
:10112000884202DD142800DA00208F4202DD142FED
:1011300000DA002707F01CFDDFF83CA183466FF0C2
:101140000601DAF80000009007F0DFFE594607F0CC
:101150003BFD306010F1FF4F384604D207F008FD28
:101160000146464808E007F003FD06466FF0060119
:10117000019807F0CAFE314607F026FD2860404876
:10118000404A414D01680B2904D00C2920D084F835
:1011900001802FE72178491CC9B221701429A3D1FD
:1011A000C0F8008084F8008011465446009807F08B
:1011B00079FB36492060884200DD21604C46344886
:1011C000344906F057FD3449206088421DDA11E7A2
:1011D0006178491CC9B26170142985D1C0F80080BA
:1011E00084F8018011465446009807F0B9FD2B4958
:1011F0002060884200DA21604C462946284806F0E3
:1012000039FD284920608842C3DA2160F2E60000F7
:101210000100002030000020340000207CD9203F55
:101220002C000020140000207CD920BF03000020E7
:101230000000C8417B14AE47DC000020680000209D
:10124000C3F5285C8FC2B53FE17A843F02000020DD
:1012500078000020E17A743F2D431CEBE2362A3FF0
:101260000600002007000020008021421C00002012
:10127000580000205C000020180000207CD9A0BB92
:10128000640000200000A0402F1BD43F000020423B
:10129000FA211D3BC728EE3FDB0F493F000070419C
:1012A0000CBCC5897CD9A03E10B5114800F088FA65
:1012B00032210F4800F0E6F90D4800F00DF980B238
:1012C00006F064FF4FF066320A4B06F0AFFF0022D3
:1012D000094B06F0ABFF0022084B06F0A7FF6FF0AA
:1012E0000B0207F0E4FDBDE8104006F009BF000066
:1012F000D802002066660A400000264000005940DF
:10130000F8B500250446009590F8240001280BD07C
:10131000012084F824002046FFF7DAF92046FFF781
:1013200003FA060002D050E00220F8BDA06A20F4C3
:10133000885040F00200A062022000F091FD254993
:101340000968B1FBF0F0400000E0401E009000286A
:10135000FBD12068816841F00801816000F0D2FC77
:10136000074608E000F0CEFCC01B0A2803D920681D
:101370008068000715D4206880680007F2D42068D0
:10138000816841F00401816000F0BCFC074612E076
:1013900000F0B8FCC01B0A280DD9206880684007FF
:1013A00009D5A06A20F0020040F01000A06284F885
:1013B00024500120F8BD206880684007E8D4A06A66
:1013C00020F0020040F00100A06284F82450304672
:1013D000F8BD00008C000020F8B50024009490F8BF
:1013E00024202546012A12D0012280F824204A68B0
:1013F0001F23072A0DD20668776B521E02EB82026A
:1014000093409F430B6893401F43776319E002208A
:10141000F8BD06680D2A0AD2376BD21F02EB820292
:1014200093409F430B6893401F43376309E0F76A7B
:101430000D3A02EB820293409F430B6893401F4397
:10144000F7620A68072306680A2A0AD3F7680A3A85
:1014500002EB420293409F438B6893401F43F76027
:1014600008E0376902EB420293409F438B68934048
:101470001F4337610A68102A01D0112A20D1124B6C
:1014800002689A4217D193681B0219D4936843F4F7
:10149000000393600968102912D10C490C4A0968AD
:1014A000B1FBF2F101EB8101490000E0491E00911E
:1014B0000029FBD104E0816A41F02001816201240E
:1014C00080F824502046F8BD002401408C00002004
:1014D00040420F00806A70470068C06C704700008F
:1014E0002DE9F0414FF0000704003D467ED0A06A90
:1014F000002628B9E66284F82460204600F07EF8D1
:101500002046FFF7E5F8A16AC90600D420B1A06A19
:1015100040F01000A06269E0A16A21F4885141F016
:101520000201A1626268E169237B0A4347EA430141
:101530000A43A1684FF48077B94209D0012907D046
:101540005FF0000194F814C0BCF1010F02D00AE072
:101550003946F7E7F3B1A36A43F02003A362E36AD5
:1015600043F00103E3622368D3F804C02CF4694C10
:101570004CEA010CC3F804C021688B68DFF870C026
:1015800003EA0C0313438B60A168B9420BD0012915
:1015900009D00CE0DFF85CC0A3690CEB43330B43CC
:1015A00043F40061DFE7218A0D05A5F58015216868
:1015B000CB6A23F470032B43CB62216889680E4BFE
:1015C0001940914208D1E662A16A21F0020141F07E
:1015D0000101A162BDE8F081A06A20F0020040F0A4
:1015E0001000A062E06A40F00100E0620120F1E733
:1015F000FDF7E1FF00E0FFFFFE0E1FFF10B586B014
:10160000002100910191029103911A4C03681A493B
:1016100003221A48A34211D18B6943F400738B61F2
:101620008B6903F4007304938B6943F008038B61A7
:10163000896901F008010491022113E0104CA342D2
:1016400015D18B6943F480638B618B6903F48063EC
:1016500004938B6943F008038B61896901F00801E9
:1016600004910121CDE90012694600F055FA06B057
:1016700010BD00000024014000100240000C014099
:10168000002801402DE9F84300270D460446009745
:1016900000F038FB804620688168C90508D5A06A3B
:1016A00040F02000A06284F824700120BDE8F88397
:1016B0004168C90503D4C06A10F4700F2AD0022013
:1016C00000F0CEFB3B490968B1FBF0F620680369E6
:1016D00039490B424FEA61014FEAA1121FD1C36899
:1016E0004FEA611C13EA0C0F19D103690B4225D193
:1016F000C068104222D1142023E0681C0AD02DB10A
:1017000000F000FBA0EB0800A84203D920680068A5
:10171000800725D5206800688007EED52DE0036995
:101720000B4202D1C168114206D0026923490A4224
:1017300006D1C068084203D1542002E0292000E00D
:10174000FC204643009816E0681C11D02DB100F033
:10175000D9FAA0EB0800A8420AD90098B04207D2F3
:10176000A06A40F00400A06284F8247003209DE782
:101770000098401C0090B042E6D321686FF0120040
:101780000860A06A40F40070A06220688068C0F31E
:10179000424007280CD1207B50B9A06A20F4807009
:1017A000A062A06AC00403D4A06A40F00100A06255
:1017B00000207BE78C0000202449922449922400D9
:1017C00070B5044690F8240001280DD0012084F85B
:1017D00024002046FEF7A8FF02004FF0000005D0CD
:1017E00084F82400104670BD022070BDA16A40F24A
:1017F0000123994341F48071A1621F4D23681F4961
:10180000AB4218D10E6816F4702F14D0A66A46F4B5
:101810008016A6620E68760505D5A66A26F40056DF
:1018200046F48056A662A66AF6040AD5E66A26F051
:101830000606E66206E0A66A26F48016A6625E68E0
:10184000E9E7E06284F824006FF002001860206885
:101850008368C3F34243072B05D1A84208D1096826
:1018600011F4702F04D0816841F480118160B9E7D0
:10187000816841F4A001F9E70028014004240140F7
:1018800010B590F821100022022905D004218163AF
:1018900080F82020012010BD01680B6823F00E03A2
:1018A0000B6001680B6823F001030B6090F8403077
:1018B000C46B012101FA03F3636080F8211080F802
:1018C0002020104610BD000010B590F82110002413
:1018D000022903D00421816301243DE001680A68E4
:1018E00022F00E020A6001680A6822F001020A6012
:1018F0001A4A0168914201D1012121E0174A1432AC
:10190000914201D110211BE0144A2832914201D1A9
:10191000891515E0114A3C32914201D189140FE03A
:101920000E4A5032914202D14FF4803108E00B4A06
:101930006432914202D14FF4801101E04FF0807186
:10194000064A083A5160012180F82110002180F8F0
:101950002010416B01B18847204610BD08000240AD
:101960002DE9F047B0F5805F7ED1022002F01CFC2B
:101970004F4E40423060042002F016FCDFF83491F4
:101980004D4A4142C9F8001010784FF0000A012872
:101990000AD14A480178491CC9B201700A2903D109
:1019A00080F800A082F800A04548007818B102F045
:1019B000C1FBFFF703FA4348434C007800B304200F
:1019C000FFF7D4FA414D28600D20FFF7CFFA404FC2
:1019D00038600E20FFF7CAFA3E49C723086000EBC3
:1019E000C0012A6801EB001102EB8105396810443F
:1019F00003FB0153084493FBF0F03749E3630860AD
:101A0000FFF7D2FA354801683548006801F0D8FC84
:101A1000344D286802F034FE4FF08048A0B1002118
:101A2000084602F0CDFC40F2DC5100BFC8F834108B
:101A3000FFF73AFC2063616B491C6163A26B642968
:101A40001044A0631AD021E027480168306801F0F3
:101A500037FC264E306026480168D9F8000001F0B6
:101A600057FC244F386000E01FE002F033FF31687C
:101A7000386802F0A5FC20480168D7E7642190FB94
:101A8000F1F02860C4F838A0C4F834A01B480078EE
:101A900010B1012802D004E0642000E0002001F031
:101AA000FBFCBDE8F04701F06FBCBDE8F08700002B
:101AB00024000020280000205100002050000020B9
:101AC0000300002002000020DC0000206C00002049
:101AD00074000020700000207800002034000020F6
:101AE000300000204C00002044000020380000207E
:101AF000480000203C00002040000020040000209E
:101B0000044910B50A68024202D00860FFF728FFB6
:101B100010BD0000140401402DE9F84FDFF8B89122
:101B20000024A9F1040B23460F2709F1040AABF1A5
:101B3000040EC9E00125A5402A40AA427DD1674E86
:101B4000D1F804C0ACEB0608B44532D014DCBCF1CB
:101B5000030F3AD009DCBCF1000F2AD0BCF1010F11
:101B60001CD0BCF1020F31D11DE0BCF1110F17D018
:101B7000BCF1120F2AD119E0B8F5881F19D006DC84
:101B8000B8F5803F15D0B8F5801F1FD111E0B8F52A
:101B9000001F0ED0B8F5041F18D10AE0CB6815E07D
:101BA000CB681B1D12E0CB6808330FE0CB680C3309
:101BB0000CE08B682BB1012B4FF0080303D045617B
:101BC00004E0042302E0056100E00023FF2A01D8BD
:101BD000064601E000F104064FEA840501D9A5F1AB
:101BE0002005D6F8008007FA05FC28EA0C0803FA5D
:101BF00005F548EA0508C6F800804D68ED0062D595
:101C0000374DAE6946F00106AE61AD6924F00306BA
:101C100005F001050095334D06EB050CDCF8085086
:101C2000A607360F07FA06F825EA0805DFF8B88098
:101C3000404503D14FF0000817E044E0DFF8AC80E6
:101C4000404502D14FF001080FE0DFF8A480404585
:101C500002D14FF0020808E0DFF89880404502D139
:101C60004FF0030801E04FF0040808FA06F848EACC
:101C70000508CCF808804D68D9F80060ED024D46A3
:101C800001D5164300E096432E604D68DAF80060F7
:101C9000AD02554601D5164300E096432E604D68CF
:101CA000DBF80060AD035D4601D5164300E09643C6
:101CB0002E604D68DEF80060ED03754601D51643D1
:101CC00000E096432E60641C0D682A46E5407FF4D0
:101CD00031AFBDE8F88F000008040140000011108A
:101CE000001002400000014000080140000C0140CB
:101CF00000100140001401400AB10161704709045D
:101D0000FBE7000001488068704700008000002069
:101D10000248816802781144816070478000002089
:101D2000074810B5016841F010010160032000F080
:101D300085F80F2000F006F800F024F8002010BD10
:101D40000020024070B50D4D04464FF47A7128789A
:101D5000B1FBF0F00A490968B1FBF0F000F0B4FB08
:101D600048B9102C07D200222146501E00F046F838
:101D700000206C6070BD012070BD0000800000205C
:101D80008C0000200C4808B5816941F00101816197
:101D9000816901F001010091C16941F08051C16187
:101DA000C06900F0805000900448416821F0E06173
:101DB00041F08061416008BD001002400000014018
:101DC00000280DDB00F01F02012191404009800036
:101DD00000F1E020C0F88011BFF34F8FBFF36F8F89
:101DE0007047002809DB00F01F02012191404009E3
:101DF000800000F1E020C0F800117047F0B40E4BF5
:101E00001B680C46C3F30223C3F10705042D00D958
:101E10000425191D072901D2002300E0DB1E01263D
:101E200006FA05F1491E214099409E40761E164053
:101E30003143F0BC02F088BD0CED00E0064900F033
:101E4000070208684FF6FF03184040EA0220034AE1
:101E500010430860704700000CED00E00000FA0538
:101E600010B501460020234C012922D0022939D087
:101E700010291DD161682268D20119D51E48C1F30D
:101E80008342C903805C0AD561681B4AC1F34041A3
:101E9000921E515C194AB2FBF1F1484301E0184926
:101EA00048436168490203D440000321B0FBF1F0CC
:101EB00010BD226AC2F30121012903D1920701D585
:101EC000C80310BD022905D1626A920702D549F6FE
:101ED000404010BD0329FCD121688903F9D54FF298
:101EE000244010BD00F02AF96168C1F38131491C1A
:101EF0004900DBE7001002409A8F000800127A00C8
:101F000000093D002DE9F84305460078354CC0072F
:101F100054D0E0690026C00008D4E06940F0805049
:101F2000E061E069012600F0805000902E480168D1
:101F3000C90512D40168804641F480710160FFF741
:101F4000E1FE074605E000BFFFF7DCFEC01B64288A
:101F500023D8D8F80000C005F6D5206A10F44070E8
:101F600021D0A98801F4407181421CD0206A1F4908
:101F7000012220F440700A6000220A602062C0073B
:101F800011D0FFF7BFFE074641F2883808E000BFD6
:101F9000FFF7B8FEC11B414502D90320BDE8F88315
:101FA000206A8007F4D5206A696820F440700843ED
:101FB00020621EB1E06920F08050E061287880073F
:101FC00005D56068A96820F440400843606028781F
:101FD000C00605D56068E96820F4800008436060A9
:101FE0000020DBE700100240007000404004424245
:101FF0002DE9F0470F46050061D0434E306800F0F0
:102000000700B84209D2306820F00700384330603A
:10201000306800F00700B84251D128683B4C810776
:1020200012D5400703D5606840F4E060606028780E
:10203000000703D5606840F4605060606068A9687C
:1020400020F0F000084360602878C00728D0686856
:10205000012810D02168022810D0890700292EDA23
:10206000616821F0030101436160FFF74BFE804688
:1020700041F288390DE021688903EFE78901EDE736
:10208000FFF740FEA0EB0801494502D90320BDE857
:10209000F0876068696800F00C00B0EB810FEFD149
:1020A000306800F00700B8420BD9306820F0070014
:1020B00038433060306800F00700B84201D001209A
:1020C000E5E72878400705D56068E96820F4E06016
:1020D000084360602878000706D56068296920F405
:1020E000605040EAC100606000F038F86168084A5A
:1020F000C1F30311515CC8400649086006480068F6
:10210000FFF720FE0020C2E700200240001002403E
:10211000AA8F00088C000020840000200448054994
:1021200000684968044AC1F30221515CC840704705
:102130008C00002000100240BA8F000804480549B6
:1021400000684968044AC1F3C221515CC840704725
:102150008C00002000100240BA8F00080E4A51681F
:102160000E4801F00C03042B11D0082B0FD10C48A2
:10217000C1F38343C903C05C0AD55168084AC1F35F
:102180004041921E515C054A5043B0FBF1F070474C
:1021900004494843704700000010024000127A00D2
:1021A000888F000800093D002DE9F84F040070D029
:1021B0002078C04DC00749D06868C0F3810001286D
:1021C00007D06868C0F38100022809D16868C0039D
:1021D00006D52868800339D560680028E7D035E047
:1021E0006068B0F5803F0BD010B1B0F5A02F11D0D2
:1021F000286820F480302860286820F4802002E0DD
:10220000286840F480302860606890B1FFF77AFD5C
:1022100006460AE0286840F480202860F0E700BF06
:10222000FFF770FD801B642873D828688003F7D5FA
:102230000CE0FFF767FD064605E000BFFFF762FD13
:10224000801B6428F0D828688003F7D420789A4E41
:1022500080074FF001094FF0000839D5686810F089
:102260000C0F07D06868C0F38100022809D16868A4
:10227000C00306D42868800714D52069012808D136
:1022800010E02069B0B1C6F80090FFF73BFD0746AB
:1022900005E00AE1FFF736FDC01B0228C4D8286814
:1022A0008007F7D52868616920F0F80040EAC1008E
:1022B00028600DE0C6F80080FFF724FD074604E023
:1022C000FFF720FDC01B022823D828688007F7D419
:1022D000207800072CD57948A169D9B1C0F80090C1
:1022E000FFF710FD074604E0FFF70CFDC01B0228B6
:1022F0000FD8686A8007F7D571484FF4FA51006823
:10230000B0FBF1F0009000BF0098411E0091FAD29E
:102310000EE080E0C0F80080FFF7F4FC074604E020
:10232000FFF7F0FCC01B022875D8686A8007F7D455
:102330002078400760D5E8690027C00008D4E86924
:1023400040F08050E861E869012700F0805000907B
:102350005C480168C90513D40168834641F4807163
:102360000160FFF7CFFC824606E000BFFFF7CAFC22
:10237000A0EB0A0064284ED8DBF80000C005F5D5B4
:10238000E06801280AD008B1052813D0286A20F097
:1023900001002862286A20F0040002E0286A40F068
:1023A00001002862E06841F2883B98B1FFF7AAFC7F
:1023B00082460BE0286A40F004002862EEE700BF86
:1023C000FFF7A0FCA0EB0A0159455AD8286A8007FC
:1023D000F6D50CE0FFF796FC824605E0FFF792FC8D
:1023E000A0EB0A0159454CD8286A8007F6D41FB1E2
:1023F000E86920F08050E861E06988B36968C1F35A
:102400008101022944D00228C6F8608004D0FFF779
:1024100079FC044638E034E0FFF774FC074604E03A
:10242000FFF770FCC01B02282BD828688001F7D466
:10243000206AB0F5803F05D16868A16820F40030BB
:1024400008436860D4E908010843696821F47411FD
:1024500008436860C6F86090FFF754FC044606E045
:1024600025E000BFFFF74EFC001B022809D82868B2
:102470008001F7D51BE000BFFFF744FC001B0228DA
:1024800002D90320BDE8F88F28688001F4D40EE05B
:102490000128F7D06868226A00F48031914204D1A3
:1024A000616A00F47010884201D00120EAE7002040
:1024B000E8E700000010024000004242800442426F
:1024C0008C0000200070004010B5401EB0F1807FED
:1024D00001D3012010BD4FF0E02460610F2160178F
:1024E00002F032FA0020A06107202061002010BD18
:1024F0007047704710B590F83C20012A22D0012285
:1025000080F83C20CA688C6822F4407222434C68F0
:1025100022F4806222430C6822F4006222430C6998
:1025200022F4805222434C6922F400522243C969AA
:10253000002322F480420A4301684A6480F83C3058
:10254000002010BD022010BD70B590F83C20012A7B
:1025500026D0012480F83C40022280F83D20036808
:102560005A689D6822F070060A6832435A600D4B23
:1025700002689A4208D0B2F1804F05D00A4B9A42C5
:1025800002D00A4B9A4204D1496825F080031943CE
:10259000916080F83D40002180F83C10084670BDF5
:1025A000022070BD002C01400004004000080040E3
:1025B0002DE9F0410D46040003D094F83D0018B118
:1025C00008E00120BDE8F081002084F83C002046AE
:1025D00000F040F8022084F83D002068816844F251
:1025E000070291438160211D206801F071FF22687C
:1025F00090689169166A2B68AF69034340F2033013
:10260000814341EA0721A868EF6908434FF6FC417E
:102610008843E96840EA0720014328692F6A0001DE
:1026200040EA0730084369686D6926F0220646EAE9
:102630000515294393602268906154F8460B0162A6
:10264000012004F81F09E0752076E0762077A07558
:102650000020B7E700B585B00021009101910291FB
:102660000391224B02682248C0219A421BD1C269C1
:1026700042F00202C261C26902F00202049282695F
:1026800042F0040282618069009100F0040004902D
:1026900069461848FFF740FA002211461D20FFF74F
:1026A000ADFB1D201DE0144B9A421CD1C26942F0C3
:1026B0000402C261C26902F004020492826942F01B
:1026C000080282618069009100F008000490694668
:1026D0000A48FFF721FA002211461E20FFF78EFB61
:1026E0001E20FFF77EFB05B000BD00000004004087
:1026F000001002400008014000080040000C0140AA
:10270000704770B50446006801694FF00005C94381
:10271000890715D4C168C943890711D4E91E01612D
:1027200001202077206880698007204602D0FFF7CB
:10273000E7FF04E000F0CCF8204600F07BF92577B5
:1027400020680169C943490717D4C168C9434907CB
:1027500013D46FF0040101610220207720688069A2
:1027600010F4407F204602D0FFF7CAFF04E000F0DB
:10277000AFF8204600F05EF9257720680169C9436B
:10278000090716D4C168C943090712D46FF00801BC
:102790000161042020772068C0698007204602D0AC
:1027A000FFF7AEFF04E000F093F8204600F042F996
:1027B000257720680169C943C90617D4C168C94390
:1027C000C90613D46FF0100101610820207720683A
:1027D000C06910F4407F204602D0FFF791FF04E06B
:1027E00000F076F8204600F025F925772068016989
:1027F000C943C90708D1C168C943C90704D1891EA3
:102800000161204600F017F920680169C9430906F3
:1028100009D4C168C943090605D46FF0800101617C
:102820002046FFF765FE20680169C943490609D4BF
:10283000C168C943490605D46FF0400101612046D3
:1028400000F0FAF820680169C94389060BD4C16811
:10285000C943890607D46FF0200101612046BDE815
:102860007040FFF746BE70BD10B586B000210091E4
:10287000019102910391134C0368134902221348FA
:10288000A3420AD18B6943F004038B61896901F08B
:10289000040104914FF410610BE0B3F1804F0ED1AD
:1028A0008B6943F004038B61896901F00401049191
:1028B0000121CDE9001269460392FFF72DF906B018
:1028C00010BD0000002C0140001002400008014033
:1028D000704770B5044690F83C0000260D4601286C
:1028E0000FD0012084F83C006AB1042A1DD0082AC8
:1028F0002FD00C2A3FD00126002084F83C0030461F
:1029000070BD022070BD206801F018FE206881694A
:1029100041F0080181612068816921F00401816131
:10292000206881692A69114311E0206801F02EFEB8
:102930002068816941F4006181612068816921F426
:1029400080618161206881692A6941EA022181618F
:10295000D2E7206801F046FE2068C16941F0080115
:10296000C1612068C16921F00401C1612068C169A9
:102970002A69114311E0206801F060FE2068C169F6
:1029800041F40061C1612068C16921F48061C161C5
:102990002068C1692A6941EA0221C161ACE710B52A
:1029A000040003D094F83D0010B107E0012010BDF1
:1029B000002084F83C00204600F01EF8022084F835
:1029C0003D00211D206801F083FD012084F84600B0
:1029D00084F83E0084F83F0084F8400084F8410009
:1029E00084F8420084F8430084F8440084F84500E9
:1029F00084F83D00002010BD08B50C4A01680C4861
:102A0000914207D1816941F400618161806900F4DC
:102A1000006009E0B1F1804F07D1C16941F00101C7
:102A2000C161C06900F00100009008BD002C0140A8
:102A300000100240704770477047704770470000B1
:102A4000F8B5016804460868CA684B6910F00F0FB2
:102A50004FF0000559D003F0010602F49077374398
:102A600065D0C10705D0D10503D5616C41F00101E6
:102A70006164410705D5D90703D0616C41F00201BB
:102A80006164810705D5D90703D0616C41F0040169
:102A90006164010707D502F02001314303D0616C66
:102AA00041F008016164616C00293AD0800604D5C8
:102AB000900602D5204601F026FE20684069616C30
:102AC000C0F38010090700D460B3204601F0F4FD84
:102AD00020684069400621D52068143050E8001F66
:102AE00021F0400140E80012002AF5D1E06BA8B1C6
:102AF0006D494163E06BFEF7E7FE002811D0E06B03
:102B0000416B01B0BDE8F040084783060FD593063E
:102B10000DD52046BDE8F84001F0F5BD2046FFF791
:102B20008DFFF8BD2046FFF789FF6564F8BD266B71
:102B30002023012E7CD1C6067AD5D60678D5086822
:102B40004868009048694FF00206400640D5E16BA6
:102B5000086840680004000CE8D0A28D8242E5D9E4
:102B6000E085886920282DD020680C3050E8001FAF
:102B700021F4807140E80012002AF5D12068143059
:102B800050E8001F21F0010140E80012002AF5D1B1
:102B90002068143050E8001F21F0400140E8001286
:102BA000002AF5D184F84230256320680C3050E8C3
:102BB000001F21F0100140E80012002AF5D1E06B5F
:102BC000FEF75EFE6663A08DE18D401A81B22AE0B9
:102BD000A08DE18D401A81B2E08D0028A6D0002999
:102BE000A4D022680C3252E8000F20F4907042E822
:102BF0000007002FF5D12068143050E8002F22F094
:102C0000010240E80027002FF5D184F84230256307
:102C100020680C3050E8002F22F0100240E800231A
:102C2000002BF5D166632046FFF707FFF8BDFFE7ED
:102C300005062BD5150629D594F841002128F5D194
:102C4000A068B0F5805F01D12069B0B1206A411C55
:102C50002162216800784860E08C401E0004000C6E
:102C6000E084E3D12068C16821F08001C160206860
:102C7000C16841F04001C160D8E7206A0088C0F314
:102C800008004860206A801C2062E5E74006CDD538
:102C90005006CBD5CA68204622F04002CA6084F8AC
:102CA000413000F05FF9C1E7A946000870B50400A3
:102CB00004D094F84100002510B106E0012070BD59
:102CC00084F84050204600F023F8242084F8410086
:102CD0002068C16821F40051C160204601F074FDF4
:102CE0002068016921F4904101612068416921F067
:102CF0002A0141612068C16841F40051C1606564E6
:102D0000202084F8410084F842006563002070BDF3
:102D100070B586B000240094019402940394036873
:102D20002E482D4E022103220515B34226D1836978
:102D300043F480438361836903F48043049383698C
:102D400043F0040383618069254E00F00400049081
:102D50000802CDE90001039269463046FEF7DCFE29
:102D6000CDE90054694630460294FEF7D5FE0022B4
:102D700011462520FFF742F8252028E0194EB342DE
:102D800027D1C36943F48023C361C36903F480235B
:102D90000493836943F0080383618069CDE900519E
:102DA00000F00800CDE903200F4D69462846FEF7E4
:102DB000B3FEE814CDE90004694628460294FEF704
:102DC000ABFE002211462720FFF718F82720FFF757
:102DD00008F806B070BD0000003801400010024045
:102DE0000008014000480040000C014090F84230CB
:102DF000202B01D00220704721B11AB100230363B8
:102E000001F03EBD012070472DE9F04700684949B7
:102E1000884273D14848484C48490078241F2246CC
:102E2000E0700870A0F14106454D012345495278F4
:102E30004FF00009072E02D8761C2E6005E00A2804
:102E400001D2286001E05A2804D07B280AD07D28CE
:102E50000DD001E0C5F800902578012D03D0022D9A
:102E600007D05EE023708854521C627059E0022043
:102E70002070C878502807D0572807D048782328D2
:102E800043D0A27088462AE02F4800E02F48037004
:102E90003BE06178081A05F062F902460B46002013
:102EA0002B4904F0EDF8A778054608EB07000E461D
:102EB00010F8010C303805F052F92A46334605F077
:102EC000B5F905460E46A06805F0C0FC2A46334613
:102ED00004F002FF04F0CEFE7F1EA060A770A07871
:102EE0000428D6D298F80100303803280DD2DFE844
:102EF00000F0020609001749A06805E018E016492D
:102F0000A06801E01549A068086084F8009084F882
:102F1000019084F8029032210A48C4F80890FDF725
:102F20004BFABDE8F047012203490D48FFF75EBFA9
:102F3000BDE8F08700480040D000002020000020BD
:102F40002C000020C20C00206A0000200500002098
:102F500000002440140000200C000020100000207D
:102F6000700400207047FEE770B50D46044600F07F
:102F7000C1F8204600F08EF800F004F9284600F071
:102F800089F800F0FFF800F0B5F8641CE0B200F03A
:102F900081F800F0F7F8002000F046F8044600F051
:102FA000D1F8204670BD000070B50D4C0025C4F866
:102FB000A0510C48016821F0F0010160016841F066
:102FC00030010160C4F8A451012004F5D07402F06E
:102FD0000FF90120206002F00BF9256070BD0000A0
:102FE00000802142040C014070B50D4C0025C4F84E
:102FF000A0510C48016821F0F0010160016841F026
:10300000300101600126C4F8A461304604F5D07493
:1030100002F0EEF82660012002F0EAF8256070BDAB
:1030200000802142040C01402DE9F04781461748F9
:103030000024016821F0F0010160016841F0800185
:103040000160134E254627464FF00108C6F8A071CF
:10305000022002F0CDF8C6F8A0816006040ED6F872
:10306000240108B1641CE4B2022002F0C1F86D1C16
:10307000EDB2082DEAD3B9F1000F02D0FFF794FFAB
:1030800001E0FFF7B1FF2046BDE8F087040C0140E6
:10309000008021422DE9F04106461448016821F0E4
:1030A000F0010160016841F030010160104C00271F
:1030B000C4F8A0713D464FF00108F009C4F8A4011E
:1030C0007006060E012002F093F8C4F8A0810120DA
:1030D00002F08EF8C4F8A071012002F089F86D1C8E
:1030E000EDB2082DE9D3BDE8F0810000040C0140E9
:1030F0000080214270B51148016821F0F0010160A3
:10310000016841F0300101600D4C0120C4F8A401B8
:10311000D4F8241149B1C4F8A00102F069F80025DF
:10312000C4F8A451D4F8240108B1002070BD0120D6
:1031300002F05EF8C4F8A051012070BD040C0140FB
:10314000008021420D4810B5016821F0F0010160B6
:10315000016841F030010160094C0020C4F8A00171
:10316000C4F8A401012004F5D07402F041F8012054
:1031700020606060BDE8104002F03AB8040C0140E5
:103180000080214270B513480024016821F0F0014D
:103190000160016841F0800101600F4D0126C5F812
:1031A000A461304602F024F8C5F8A06107E0641C71
:1031B000E4B2322C03D9FFF7C5FF002070BD012017
:1031C00002F016F8D5F824010028F0D1C5F8A001C6
:1031D000012070BD040C01400080214210B514464E
:1031E000FFF7C2FE2070012010BDF8B515461C4641
:1031F0000E4607466A46FFF7F1FF01209DF80010D2
:10320000A8400CB1084301E021EA0000C2B28DF8E9
:1032100000203146384600F02BF8F8BD2DE9F84380
:1032200014461D460F4680466A46089EFFF7D6FFA5
:1032300000281BD0611CFF20C4F1080200FA01F134
:103240002A44521ED0400143C5F108008640F2B224
:10325000C4F10700C2409DF80000084010438DF8FB
:103260000000C2B23946404600F002F8BDE8F883DB
:1032700007B502AB012200F001F80EBD2DE9F041C7
:103280001E461546884607460024FFF733FF38469A
:10329000FFF700FFFFF776FF4046FFF7FBFEFFF763
:1032A00071FF06E0305DFFF7F5FEFFF76BFF641C72
:1032B000E4B2AC42F6D3FFF745FF0120BDE8F08150
:1032C00070B5441A204605F053FC0E49096805F014
:1032D0007BFC0D4D0646A869201A05F049FC0B49F8
:1032E000096805F071FC314605F0DCFA06466869AC
:1032F00005F03EFC314605F0D5FA05F0FDFBC5E9C9
:10330000050470BD10000020DC0000200C0000202F
:1033100070B5441A204605F02BFC0E49096805F0EB
:1033200053FC0D4D0646686A201A05F021FC0B4936
:10333000096805F049FC314605F0B4FA0646286AEA
:1033400005F016FC314605F0ADFA05F0D5FBC5E9F0
:10335000080470BD10000020DC0000200C000020DC
:1033600041060748826942F00102826105484268CD
:1033700022F0E062426042680A4342607047000007
:10338000001002400000014010B501F0A9FE012824
:1033900004D10948017859B10021017000F094F876
:1033A000012804D10548017821B10021017010BD28
:1033B0000121F2E70121F9E70800002004000020C4
:1033C0002DE9F34F83B00446049805F03FFA054613
:1033D000019104F01DFCDFF8A0904FF060484246D8
:1033E0004B4604F023FF4FF0FF3A524605F05FFDD5
:1033F000DFF888B042465B4604F02AFD0022204BED
:1034000004F06AFC06460F46204605F01FFA044603
:1034100032463B46009104F009FF04F071FE194961
:1034200008602846019904F0F3FB42464B4604F03D
:10343000FDFE524605F03BFD42465B4604F008FDAA
:1034400000220F4B05F026F802460B462046009955
:1034500004F0ECFE04F054FE0B4908600B4904989C
:1034600005F0B2FB0A4905F01DFA05F045FB0949D4
:10347000086005B0BDE8F08FCEF7C33FF97EC23FCC
:103480000000F03F440000204800002033B31B44FC
:103490000080BB444000002010B5094A002360B101
:1034A00008490C68641C0C60844205D1D2F8B40150
:1034B000C043C2F8B4010B6010BDC2F8B43110BDF6
:1034C00000802142A00000200C48002182891AB906
:1034D0000B4BD3F838310BB141810AE043895B1CB7
:1034E0009BB24381C82B04D90122828141811046BD
:1034F0007047012A00D18181002070479000002090
:103500000080214210B5022000F011F8032000F0E5
:1035100020F8002000F014F8002000F02FF8002020
:1035200000F026F8BDE81040002000F01BB808B5F8
:103530000323009002226B21D020FFF76FFE08BD0D
:1035400008B50223009004221C21D020FFF766FE5C
:1035500008BD08B50223009004221B21D020FFF7EC
:103560005DFE08BD034601223721D020FFF73DBE96
:10357000034605226A21D020FFF737BE0346062204
:103580006B21D020FFF731BE3EB5002411480094D6
:10359000019402940E49846001600473047501254E
:1035A00005614FF460214460C161FDF799FF08B1E6
:1035B000FDF702FC0920CDE90005694602940548A3
:1035C000FDF70AFF002801D0FDF7F6FB3EBD000025
:1035D00000240140A80200203EB5002411480094B8
:1035E000019402940E4984600160047304750125FE
:1035F00005614FF460214460C161FDF771FF08B1BE
:10360000FDF7DAFB0820CDE900056946029405487C
:10361000FDF7E2FE002801D0FDF7CEFB3EBD000025
:1036200000280140D80200202DE9F04F85B0002489
:103630003C480094019402940394816941F0100184
:103640008161816901F010010491816941F02001DB
:103650008161816901F020010491816941F00401D7
:103660008161816901F004010491816941F00801DF
:1036700081618069DFF8B09000F008004FF4604588
:103680000490002229464846FEF736FBDFF89CB03E
:1036900048F21407002239465846FEF72DFBDFF8A2
:1036A00090A04FF23838002241465046FEF724FBE6
:1036B0000095022601250396CDE901546946484646
:1036C000FEF72AFA00970396CDE901546946584659
:1036D000FEF722FA2020CDE90004694658460294FC
:1036E000FEF71AFACDF800800396CDE90154694639
:1036F0005046FEF711FA280300900E48CDE9010468
:1037000069465846FEF708FA002211462820FEF7BF
:1037100075FB2820FEF765FB2820FEF751FB05B05E
:10372000BDE8F08F00100240001001400008014089
:10373000000C01400000111010B592B000240F944D
:103740001C2168461094FCF759FE202107A8FCF7BD
:1037500055FE24482249C0E9001441F61F41C0E942
:10376000024180210461C0E90541FFF718F908B161
:10377000FDF722FB0F940FA91A481094FEF7E4FE00
:1037800008B1FDF719FB6020CDE900040294039411
:10379000049405940022694612480694FFF799F8AC
:1037A00008B1FDF709FB0C2269460E48FFF791F8B6
:1037B00008B1FDF701FB0794089409944FF40050F9
:1037C0000A94CDE90B4007A906480E94FEF792FE35
:1037D00008B1FDF7F1FA0348FFF746F812B010BD43
:1037E000002C01400803002010B58AB00024079483
:1037F0001C2168460894FCF701FE16484FF08041F2
:1038000001604721C0E9011442F20F71C0E90314BD
:1038100080218161FFF7C3F808B1FDF7CDFA079465
:1038200007A90C480894FEF78FFE08B1FDF7C4FA0B
:103830006020CDE900040294002269460548049402
:10384000FFF747F808B1FDF7B7FA0248FFF70CF8A1
:103850000AB010BD5003002010B58CB0242168467A
:10386000FCF7CCFD00241648099414490A94C0E9D9
:1038700000144FF6FF71C0E9024104618461032026
:10388000CDE900040120CDE902040494CDE905400E
:10389000079469460A480894FEF78AFE08B1FDF7C6
:1038A0008BFA099409A906480A94FEF74DFE0028F0
:1038B00001D0FDF781FA0CB010BD000000040040FB
:1038C0009803002010B58CB024216846FCF796FDC3
:1038D00000241648099414490A94C0E900144FF6CC
:1038E000FF71C0E90241046184610320CDE9000455
:1038F0000120CDE902040494CDE90540079469460E
:103900000A480894FEF754FE08B1FDF755FA0994E9
:1039100009A906480A94FEF717FE002801D0FDF712
:103920004BFA0CB010BD000000080040E00300207E
:103930000C4810B50A4901604FF4E13141600021A3
:1039400081600C22C160C0E904128161C161FFF78E
:10395000ADF9002803D0BDE81040FDF72DBA10BD29
:1039600000380140280400200C4810B50A490160C5
:103970004FF416514160002181600C22C160C0E902
:1039800004128161C161FFF791F9002803D0BDE8FD
:103990001040FDF711BA10BD00480040700400202F
:1039A000FEE7FEE710B40021084B0A465FF0000076
:1039B00003EBC004401CC0B262548028F8D3491CF9
:1039C000C9B20829F2D310BC00F0B0B8B804002086
:1039D00010B57F2816D83F2914D80723A3EBD103AD
:1039E00001F00701C1F107040121A140064CDBB23F
:1039F00004EBC000002AC25CC9B201D00A4300E057
:103A00008A43C25410BD0000B80400202DE9F041E3
:103A100016460D4607460024FFF7DAFF32462946D0
:103A20003846FFF7D5FF2819C1B232463846FFF7AE
:103A3000CFFF641CE4B2082CF5D3BDE8F081000090
:103A400010B5394C0020C4F8BC01642004F5DE74C4
:103A500001F0BAFB012020600021AE2000F04AF9FD
:103A60000021D52000F046F90021502000F042F955
:103A70000021A82000F03EF900213F2000F03AF993
:103A80000021D32000F036F90021084600F032F979
:103A90000021402000F02EF900218D2000F02AF9AD
:103AA0000021142000F026F90021202000F022F946
:103AB0000021022000F01EF90021A12000F01AF9D7
:103AC0000021C02000F016F90021DA2000F012F9E0
:103AD0000021122000F00EF90021812000F00AF9E7
:103AE0000021EF2000F006F90021D92000F002F9B2
:103AF0000021F12000F0FEF80021DB2000F0FAF8B0
:103B00000021302000F0F6F80021A42000F0F2F8A7
:103B10000021A62000F0EEF80021AF2000F0EAF826
:103B2000BDE81040FFF73EBF0000224270B5114EC5
:103B3000002400BF04F1B000C0B2002100F0DAF8A8
:103B40000021084600F0D6F80021102000F0D2F83D
:103B50005FF0000506EBC5000121005D00F0CAF82A
:103B60006D1CEDB2802DF5D3641CE4B2082CE1D3BA
:103B700070BD0000B80400202DE9FF4F203A1F4619
:103B80000C46894602F0FF0A0025DDF834B032E029
:103B90000C2F09D01A4901EB0A104FF00008465DBE
:103BA000300607D55A4609E016490AEB4A0001EBF0
:103BB0008000F2E7BBF1000F12D0002221460098EE
:103BC000FFF706FF7006641C060EE4B2A4EB0900C2
:103BD000B84207D100984C46401CC0B2009008E0A3
:103BE0000122EBE708F1010000F0FF08B8F1080F2F
:103BF000D6D36D1CEDB2BD42CAD3BDE8FF8F000025
:103C000036940008C28F00082DE9FF4F81B00026CE
:103C1000DDF838A01D469346814634464FF0010832
:103C20004FEA5A0727E0281B401EC1B20A2002F0C3
:103C3000F9FFBBFBF0F00A21B0FBF1F201FB12002F
:103C400026B9691E8C4201DA48B101263030C2B271
:103C500007FB0490C0B25346CDF8008006E007FB96
:103C60000490C0B253462022CDF800800299FFF79D
:103C700083FF641CE4B2AC42D5D305B0BDE8F08F3D
:103C8000F8B516460D460446012714E07A2C02D9F1
:103C900000241035EDB23A2D03D900242546FFF754
:103CA00081FE009732780C2329462046FFF764FFF7
:103CB0000834E4B2761C30780028E7D1F8BD000063
:103CC00070B50A4D0A4E002435F814003178884248
:103CD00001D2012200E0002200212046FFF796FEDB
:103CE000641CE4B2802CEFD370BD00008001002082
:103CF0006900002030B500230E4A012411B1C2F83A
:103D0000804101E0C2F880315FF00001C2F8B431B7
:103D1000050602D5C2F8B84101E0C2F8B831C2F8D0
:103D2000B4414006491C000EC9B20829EED3C2F8BE
:103D3000804130BD000022420020044902460A545E
:103D4000401CC0B20928FAD370470000B808002010
:103D50002DE9F84F01248246ADF800401D480027A8
:103D60004770ADF800401C4E1C4D81464FF6FF7861
:103D700026E000BFBDF8001011EA0A0F02D0C6F815
:103D8000984101E0C6F89871C5F89441052001F00A
:103D90002FFAC5F89471052001F02AFAC5F894416C
:103DA000D6F8140130B199F80110BDF80020114384
:103DB00089F80110BDF8000008EA4000ADF80000E5
:103DC000BDF80000FF28D5D9BDE8F84F102001F05C
:103DD0000FBA0000B8080020000021420000224273
:103DE00070B5FFF7A9FF00F0E9F80B480B4BB0F8EE
:103DF00003100A48083341800020012413F81050B2
:103E000000F101006D1E04FA05F20A42C0B202D0B0
:103E10001028F3D3002070BDB8080020A4000020B3
:103E200010B5154C0020C4F89C01102004F5CE7488
:103E300001F0DEF90120FFF78BFF4320FFF788FF39
:103E40000020FFF785FF0120FFF782FF0020FFF72A
:103E50007FFF0020FFF77CFF0020FFF779FF0020A5
:103E6000FFF776FF0020FFF773FF01202060BDE819
:103E70001040102001F0BCB90000214210B5154CD3
:103E80000020C4F89C01102004F5CE7401F0B0F9B4
:103E90000120FFF75DFF4320FFF75AFF0020FFF7E7
:103EA00057FF0020FFF754FF5A20FFF751FF5A2019
:103EB000FFF74EFF5A20FFF74BFF5A20FFF748FF4E
:103EC0005A20FFF745FF01202060BDE81040102078
:103ED00001F08EB900002142F0B585B000200190BC
:103EE00003901648816941F010018161816901F0F8
:103EF00010010491816941F0040181618069104FD2
:103F000000F00400202501240490694600950294E5
:103F10003846FDF701FEC020CDE9000403266946BE
:103F200003963846FDF7F8FDCDE90054694605488B
:103F30000396FDF7F1FD05B0F0BD00000010024052
:103F4000000801400010014010B5FFF749FF124979
:103F5000134B154C08601149CA791A60114B0A7A43
:103F60001A604B792360114B89790124196010493B
:103F7000104B042802D1187801280AD0486800287C
:103F800006D0762A04DA1878012801D10A4804708C
:103F900010BD4C60F5E7000064000020B808002068
:103FA00054000020580000205C0000206000002029
:103FB000A400002006000020070000202DE9FC4797
:103FC00000258DF800500124ADF80440254FC7F8B6
:103FD0009C51254E3078FFF7BBFE7078FFF7B8FE96
:103FE00002208DF80000214EDFF884904FF6FF7814
:103FF00030E000BFADF8044020E000BFC6F89441B7
:10400000052001F0F5F8C6F89451052001F0F0F80C
:10401000C6F89441D7F8140150B19DF80010BDF8CE
:10402000042019F8011011439DF8002009F802102E
:10403000BDF8041008EA4100ADF80400BDF8040022
:10404000FF28DBD9102001F0D3F89DF80000401CB8
:104050008DF800009DF800000928CBD3C7F89C41DB
:10406000BDE8FC8700002142A4000020000022429D
:10407000B808002010B500F00DF800F00BF800F0C3
:1040800009F8FFF7CDFE00F027F8BDE81040FFF774
:10409000F5BE000010B50F4C0020C4F89C011020A4
:1040A00004F5CE7401F0A4F80120FFF751FE422080
:1040B000FFF74EFE0020FFF74BFE0020FFF748FE03
:1040C0000020FFF745FE01202060BDE810401020D1
:1040D00001F08EB80000214210B5144C0020C4F845
:1040E0009C01012004F5CE74FFF732FE4420FFF757
:1040F0002FFE0020FFF72CFE0120FFF729FE0320F2
:10410000FFF726FE0020FFF723FE0020FFF720FE2A
:104110000020FFF71DFE0020FFF71AFE012020609F
:10412000BDE81040102001F063B8000000002142FB
:10413000704700002DE9F0470026194C35463146FE
:10414000C4F89061C4F88C6104F5C674FCF701FEF4
:1041500001272760FCF7FDFD6160FCF7FAFD676051
:10416000FCF7F7FD2160A4F5C674FCF7F2FDDFF85B
:1041700034908846C4F89081FCF7EBFD0420FCF7EE
:10418000F5FE010929F815106D1CEDB2C4F8907107
:10419000FCF7DFFD761CF6B2802EEBD3BDE8F0878E
:1041A00000002242800100200021022803D00428C0
:1041B00007D0002070474FF08042506A516200B231
:1041C0007047024A1068116000B27047240800402E
:1041D00070B5054645F6FF76304600F04DF80028EC
:1041E00012D10A4C206940F002002061656120690B
:1041F00040F040002061304600F03EF8012803D036
:10420000216921F00201216170BD000000200240FF
:104210000748C068C10701D001207047410701D598
:1042200002207047C00601D5032070470020704768
:10423000002002400248016941F08001016170479D
:104240000020024010B5002306E000BF30F8024B0A
:1042500021F813405B1C9BB29342F7D310BD0000C2
:1042600003480249416003494160704723016745A3
:1042700000200240AB89EFCD10B50446FFF7C8FF20
:10428000012803D0002C00D1FF2010BD012000F038
:10429000AFFF641E2404240CF0D1F5E72DE9F05F94
:1042A0001546A0F100628A468346B2F5803F53D29C
:1042B000FFF7D6FFC2F34806970AC6F50074A54279
:1042C00000D82C46DFF894904FF0006000EB872078
:1042D00080464FF400722149FFF7B4FF00204FF6EB
:1042E000FF7106E0331839F813208A4203D1401CCD
:1042F00080B2A042F6D3A04226D24046FFF768FF24
:104300000020494607E000BF3AF810208319401CFE
:1043100021F8132080B2A042F6D3104940464FF452
:10432000007200BF00F036F8A54211D0281B0AEB3E
:10433000440A0BEB440B002685B24FF400747F1C3B
:10434000A542C1D82C46BFE7224651465846E9E768
:10435000BDE8F05FFFF76EBFBDE8F09FC208002028
:1043600070B506460D46FF20FFF786FF00280ED1E8
:10437000074C206940F0010020613580FF20FFF7E5
:104380007BFF012803D0216921F00101216170BD6B
:10439000002002402DE9F04116460F460546002454
:1043A00008E000BF37F814102846FFF7D9FF641C57
:1043B000A4B2AD1CB442F5D3BDE8F0817047000053
:1043C00030B5194A1278012A03D0184A1278012A06
:1043D00005D1002800DD0020002900DD0021002398
:1043E0000124134A002804DDC2F8BC31C2F8B841E8
:1043F00003E0C2F8BC41C2F8B83102F00FFC0D4D29
:104400002860002904DDC2F8B431C2F8B04103E0ED
:10441000C2F8B441C2F8B031084602F0FFFB0549CA
:104420000C39086030BD00000200002003000020AD
:1044300000802142402C0140FDF76ABC30B593B0AA
:1044400028216846FBF7DAFF14210AA8FBF7D6FFFC
:10445000002501200F9510951195010412958DE806
:10446000230004904FF4E010CDE9081002240794D3
:104470006846FDF799FE08B172B6FEE70AA90F205B
:1044800081E831004FF48060CDE90D0502210AA8D2
:10449000FDF7AEFD08B172B6FEE74FF40040119093
:1044A0000F940FA8FDF72EFD002801D072B6FEE78D
:1044B00013B030BD704700000148FEF722B900007C
:1044C000980300200148FEF71CB90000E00300201B
:1044D000F0B50268164B174C174D4FF080479842C5
:1044E00005D0B84203D0A04201D0A84203D122F0A7
:1044F00070064A683243984205D0B84203D0A042C1
:1045000001D0A84203D122F44074CA6822434C6906
:1045100022F08002224302608A68C2620A688262D4
:10452000984201D10969016301214161F0BD000098
:10453000002C0140000400400008004030B5036A30
:10454000026A22F0010202624268846924F0730563
:104550000C682C4323F002058B682B430A4DA842BC
:104560000BD123F00805CB6822F440722B434D6930
:1045700023F0040315438A692A4342608461496831
:104580004163036230BD0000002C014030B5026A77
:10459000036A23F010030362436884690D6824F4FE
:1045A000E64444EA05248D6822F0200242EA05121E
:1045B0000B4DA8420ED1CD6822F0800242EA0512CE
:1045C0004D6923F4406343EA85038D6922F040027C
:1045D00043EA85034360846149688163026230BDB8
:1045E000002C014030B5036A026A22F48072026234
:1045F0004268C46923F4007324F073050C682C43EB
:104600008D6843EA05230C4DA8420ED1CD6823F4F2
:10461000006343EA05234D6922F4405242EA051241
:104620008D6923F4806342EA05124260C4614968DF
:10463000C163036230BD0000002C014030B5046A44
:10464000026A22F4805202624268C3690D6823F450
:10465000E64343EA05238D6824F4005444EA053414
:10466000064DA84204D14D6922F4804242EA8512E7
:104670004260C36149680164046230BD002C01409E
:1046800010B503F06CFD0022054B03F093FD05D33C
:1046900004480078012801D0002010BD012010BD81
:1046A000000025400800002010B5406A0021C185A7
:1046B000C184FEF7C3F910BD01680C3151E8002F29
:1046C00022F4907241E80023002BF5D101681431E7
:1046D00051E8002F22F0010241E80023002BF5D120
:1046E000016B012909D101680C3151E8002F22F03A
:1046F000100241E80023002BF5D1202180F8421060
:1047000000210163704708B590F84210222901D0BA
:10471000022008BD82684FF480539A4201D101699A
:1047200021B1816A9A421BD04AB10AE00268816ACB
:104730005268C2F308020A80816A891C08E0026993
:1047400072B10268526802F07F020A70816A491CE5
:104750008162C18D491E0904090CC18503D01BE08B
:1047600002685268F1E70168CA6822F02002CA6054
:104770000168CA6822F48072CA6001684A6922F03E
:1047800001024A61202180F8421000214163026B3E
:10479000012A03D0FEF738FB002008BD0163016841
:1047A0000C3151E8002F22F0100241E80023002BC9
:1047B000F5D101680A68D20602D50A6849680091F5
:1047C000818DFEF73AF9E7E770B5044600680169A4
:1047D000E26821F44051114301612169A068084356
:1047E000616908432168CA6841F20C639A43024335
:1047F000CA6020684169A26921F440711143416196
:104800001E492068884202D1FDF798FC01E0FDF7BF
:1048100085FC00EBC00101EB0012606864218000A0
:10482000B2FBF0F3B3FBF1F36FF018067343B2FB86
:10483000F0F5B2FBF0F605EB8305322303EB05152B
:10484000B5FBF1F5B6FBF1F605F0F00505EB061545
:10485000B2FBF0F6B2FBF0F0B0FBF1F06FF0180233
:10486000504306EB800003EB0010B0FBF1F0216831
:1048700000F00F002844886070BD0000003801403F
:1048800081628285C28500214164222180F8421024
:10489000016921B10168CA6842F48072CA60016886
:1048A0004A6942F001024A610068C16841F0200192
:1048B000C1600020704700000148FEF7C1B8000049
:1048C000280400200148FEF7BBB800007004002057
:1048D000FEE700000F4941F6F42042420B68934284
:1048E00001DA0A6002E0834200DD08600A490B68D1
:1048F000934201DA0A6002E0834200DD0860074863
:104900004FF47A720168914202DB5200914200DD5D
:1049100002607047380000203C000020400000206A
:10492000490050EAC12018BF04204A0D18BF40F0CA
:10493000010040F2FF72B2EB515F08BF40F002008D
:10494000012808BF052070470907090E002804DB6D
:1049500000F1E02080F80014704700F00F0000F133
:10496000E02080F8141D70472DE9F74F144694B0ED
:104970000021C4E902111599079121F00045C949A8
:104980008D4206DC1599C4E9000117B00020BDE88E
:10499000F08FC549DFF814A3A9423CDD0799C44E46
:1049A0000029C44FC44A1599534619DD03F064FE2B
:1049B000554506D0C14AC24B03F05EFEC4E9000172
:1049C0000AE04FF0D352BE4B03F056FE32463B4650
:1049D00003F052FEC4E9000117B00120BDE8F08FDA
:1049E00003F07AF9554506D0B44AB54B03F074F993
:1049F000C4E900010AE04FF0D352B14B03F06CF967
:104A000032463B4603F068F9C4E9000117B04FF0A5
:104A1000FF30BDE8F08FAB49A942159978DB21F052
:104A2000004183468846A84AA84B03F0FFFB0022BA
:104A3000A74B03F051F903F063FB099003F08FFBE0
:104A400006460F469C4A534603F0F0FB43465A463F
:104A500003F020FD80468A46984A994B30463946F5
:104A600003F0E4FB2A0D01250B924246534603F066
:104A700011FD032DC4E9000139D00B98C1F30A518F
:104A8000401A05EB45111139814230DA9148C3468D
:104A9000784400EB0510CDF80CA00C90D0E9002371
:104AA0003046394603F0C2FB02460B46049106909D
:104AB0005846039903F0E0FD80468A4602460B46BD
:104AC0005846039903F0D8FD049B069A03F0D4FDE1
:104AD00083460C9803913946D0E90223304603F00F
:104AE000A5FB5A46039B03F0C7FD6D1CBDE7079865
:104AF0000028A2BF099817B0BDE8F08F616881F067
:104B000000416160099817B04042BDE8F08FFFE7AF
:104B100084461598C1F31301C0F30A50A0F2F53092
:104B20004FEA601800F01F06C6F120001390002025
:104B30000690079041F4801E05206D4676B1664AC6
:104B400008EB00017A4452F8213002EB8101B340B6
:104B50004A68139922FA01F1194305E05F4908EB0D
:104B60000002794451F82210A1FB0E27A1FB0C137F
:104B70001A449A4234BF0123002303EB070A05EBD2
:104B80008003D3E901B70F448F4234BF01210021D4
:104B900093448B4411B1934502D903E0934501D26C
:104BA000012100E00021C3E901B7514445F820107C
:104BB000011EA0F10100C1DC0298059F00F1005028
:104BC000800F12900298DDE90356800003F0C7FAC7
:104BD000834628460D9103F0D9FA6FF01D0204F0C8
:104BE00066F9CDE90E01304603F0D0FA6FF03D02D0
:104BF00004F05DF980468A46384603F0C7FA6FF044
:104C00005D0204F054F9074642465346119103F001
:104C100063F8DDE90E2303F05FF85A460D9B03F0BD
:104C20005BF800250E465A4628460D9B03F024FDEE
:104C3000DDE90E2303F020FD4246534603F01CFD40
:104C40003A46119B03F026FCDFF898A0244A53460D
:104C500003F0ECFA07468846234A244B314628469F
:104C600003F0E4FA3A46434603F036F8074688462E
:104C70004FF0A84253463146284603F0D7FA3A4649
:104C8000434603F029F8159A12F0004F04D0129A07
:104C900081F0004152421292C4E90001129817B00B
:104CA000BDE8F08FFB21E93F7CD90240FB21F93FB1
:104CB0007370032E8A19A33B000040543163621ABB
:104CC00061B4D03DFB21394183C8C96D305FE43FF9
:104CD0000000E03F6C5C0000E85B0000CA5B000085
:104CE000182D4454FB21F93D3326A611460B113CE7
:104CF0002DE9F0414F1E00EBC7010446D1E9000148
:104D000015461E4637F006020DD02A46334603F0FC
:104D10008DFA7F1E04EBC703D3E9002302F0DCFF0A
:104D200037F00602F1D1022F25D0042F13D0062F21
:104D300018BFBDE8F0812A46334603F077FAD4E97C
:104D40000A2302F0C9FF2A46334603F06FFAD4E97A
:104D5000082302F0C1FF2A46334603F067FAD4E97C
:104D6000062302F0B9FF2A46334603F05FFAD4E97E
:104D7000042302F0B1FF2A46334603F057FAD4E980
:104D8000022302F0A9FF2A46334603F04FFAD4E982
:104D90000023BDE8F04102F09FBF00002DE9F04D77
:104DA00004468CB0904821F00047164698460D46C0
:104DB0000991874206DA2046294603F0A1F9002826
:104DC00000F0AE808948B8421CDC09980028BCBFBE
:104DD00085F0004588F00048854A864B20462946E4
:104DE00003F058FB04460D46324643468248834949
:104DF00003F042FC22462B4602F06EFF00260446DA
:104E00000D46B04622462B461046194603F00EFAD0
:104E10008B46824602460B4603F008FA024608908B
:104E200077480B46009106217844FFF761FFCDE9F2
:104E30000310744806217844009B089AFFF758FF36
:104E400052465B4603F0F2F9CDE9051052465B4647
:104E50002046294603F0EAF907910090DDE90310A6
:104E6000DDE9053202F038FF079B009A03F0DEF916
:104E70003246434602F030FF52465B4603F0D6F915
:104E80003246434602F028FF80460E465E4A5F4B9C
:104E90000799009803F0CAF94246334602F01CFF16
:104EA00082468B4622462B4602F016FF80464F482C
:104EB0000E46B84214985BDC03F051F907464246AF
:104EC0003346059102F008FFCDE901104246334612
:104ED0001046194603F0AAF9DDE9013202F0B8FFE5
:104EE00052465B4603F0C8FB22462B4603F0D2FA3B
:104EF000012203F0DCFF3A46059B03F0CBFA04469F
:104F00000D460998022101EAA070C0F1010003F0EA
:104F100026F90CB022462B46BDE8F04D03F086B9C9
:104F20001498401C384320430BD01498012812D009
:104F30000CB022462B46BDE8F04D0020344902F06B
:104F400087BF0CB025F000432246BDE8F04D00209D
:104F5000304902F07DBF20462946FFF7E1FC0428D6
:104F600008BF00F073F820460CB02946BDE8F08D6C
:104F7000012802BF40460CB0BDE8F08D00270B466B
:104F80003A462046294603F085FA52465B4603F02E
:104F900081FA04460D464246334600201C4902F081
:104FA00057FF83463A4688463346104603F03EF99B
:104FB0000022184B02F090FE06468A4622462B46F7
:104FC0003846414603F032F93246534602F084FE39
:104FD0005A46434603F02AF90CB03A464346BDE828
:104FE000F04D02F079BE00000000303E2894E53F0D
:104FF000182D4454FB21E93F075C143326A6813C5D
:105000009C590000BE590000635555555555D53F74
:105010000000F0BF0000F03F002213461046014997
:1050200002F016BF0000F03F012203F040BF02F083
:1050300053BE002213461046114602F009BF40F24B
:10504000013200204FF0E04103F031BF024A00205E
:10505000110703F02CBF000001FDFFFF70470000A7
:105060002DE9FE4F07460E460025684600F0E8FC95
:1050700000246FF00F0AE8464FF0010957F82400AA
:1050800056F82410401A00D5404203F071FD5146F5
:1050900003F03BFF58F8241011F0FF4F0BD003F042
:1050A00069FC4FF07E5103F05BFE0A4920F000409E
:1050B000884205DC07E0084908440849884202D3D1
:1050C00009FA04F00543641C032CD7DB2846BDE82D
:1050D000FE8F0000295C0F3E666666C19A99D90072
:1050E00009480A49C27812B1D1F8382122B1D1F861
:1050F0003811012904D005E00021C170012070475A
:105100000121C170002070479000002000802142E2
:1051100030B5204BD3F838411F4900222CB10A8109
:10512000D3F83851012425B106E00C89641C0C81A8
:10513000F6E70D7805B90C704D784DB90D78012D55
:1051400003D18D786D1C8D704C708C78022C04D03E
:10515000D3F83831012B04D005E08A70CA800220D0
:1051600030BD0A704A708B78012B11D1CB885B1C43
:105170009BB2CB80834206D90B89834203D28A70CB
:10518000CA80012030BD0B89834201D98A70CA8050
:10519000002030BD00802142900000204FF0E0212F
:1051A0000A6922F004020A610649C00800EB4002C5
:1051B0000870C2EBC0104FF6FF7202EAC0004880D0
:1051C00070470000D80000200849498848434FF044
:1051D000E02148610020886101220A610A69D30741
:1051E00001D0D203FAD5086188617047D800002049
:1051F0000849097848434FF0E02148610020886160
:1052000001220A610A69D30701D0D203FAD50861E5
:1052100088617047D800002008B560B120208DF863
:10522000000028208DF8010030208DF80200382081
:105230008DF8030004E0A32204216846FBF7B4F8CC
:105240006A46042140F69E2001F0BEFC01F084F97C
:1052500008BD00003EB5044602208DF80000CA20BB
:105260008DF80100E3208DF8020009208DF803007D
:105270006A460421682001F0A7FCA3208DF80000F5
:10528000610609D5C0218DF80110C8218DF80210E2
:10529000C2218DF8031005E08DF801008DF80200A1
:1052A0008DF8030014F4C07F09D0C4218DF80410D8
:1052B000CC218DF80510C6218DF8061005E08DF87B
:1052C00004008DF805008DF806008DF808008DF8B3
:1052D00007008DF809006A460A2140F6A72001F070
:1052E00073FCA0074FF0D80503D020208DF80000F4
:1052F00001E08DF800506A46012140F6B62001F029
:1053000063FCA00601D5012000E0002000F08EF82B
:1053100014F4C07F1ED0E0050AD5B2208DF800003D
:105320008B208DF80100B6208DF802009B2009E04B
:10533000B0208DF8000080208DF80100B4208DF899
:10534000020090208DF803006A46042140F6A22056
:1053500001F03AFCE1074FF40B6022D0F8218DF800
:1053600000106A46012101F02FFCFA21072000F00D
:1053700097FA072000F062FA012000F07FFA64201B
:1053800000F022FB4FF4FA7000F02EFBC8212548F4
:1053900000F01CFA282000F031FA0A2000F03EFA52
:1053A00005E08DF800506A46012101F00DFCA007D0
:1053B00003D5D9208DF8000001E08DF800506A4631
:1053C000012140F23D7001F0FFFB600701D5012093
:1053D00000E0002000F048F8E00601D5012000E0E0
:1053E0000020FFF719FF104D44F00800688101F01C
:1053F000B3F80020A873600601D50620A87314F442
:10540000C07F02D0A87B801DA87314F0140F02D0B7
:10541000A87B1030A873A00702D0A87B001DA8733A
:1054200000203EBD09E3CA02200D00200EB54FF456
:10543000976310B106A107C901E008A207CA8DE869
:1054400007006A460921184601F0BEFB0EBD0000A8
:10545000B8AAB38DB4980D355D000000B8AAAAAA09
:10546000B088C3C5C700000008B560B1C0208DF882
:105470000000C2208DF80100C4208DF80200C62073
:105480008DF8030004E08B2204216846FAF78CFFB4
:105490006A46042140F6982001F096FB01F05CF882
:1054A00008BD0000C8234FF48062024940F6F63080
:1054B00000F07CBF789A00082DE9FF41044603A85C
:1054C00000F02AFEBDF80C00410CC3032F480089F0
:1054D00000F0030254F82250420700D56D42C0F399
:1054E000C102860654F8222000D55242C0F381162C
:1054F000C00554F8264000D56442A5FB0367E817B1
:1055000000FB037005FB0100850045EA9670A2FBD5
:105510000367D51705FB037502FB0152950045EAA9
:105520009672A4FB0367E51705FB037304FB0131C7
:105530008B0043EA9671030E8DF80030030C8DF852
:105540000130030A8DF802308DF80300100E8DF83B
:105550000400100C8DF80500100A8DF80600080EE6
:105560008DF80800080C8DF80900080A8DF80A006B
:105570008DF807208DF80B106A460C214FF425702A
:1055800001F022FB04B0BDE8F0810000200D0020F6
:1055900030B5044613A285B007CA8DE807004FF066
:1055A000FF35C82C16D8C820B0FBF4F1491E080AF4
:1055B0008DF80C008DF80D1003AA022140F2162080
:1055C00001F002FB30B96A460C2140F6C12001F01F
:1055D000FBFA10B1284605B030BD05488481002093
:1055E000F9E70000FEF2ABC4AAF1DFDFBBAFDFDFFB
:1055F000200D0020F8B53049098901F0030250F868
:1056000022404A0700D56442C1F3C1028B0650F81C
:10561000222000D55242C1F3811350F82330C8052F
:1056200000D55B42254984FB0140850045EA947022
:1056300082FB0142A40F44EA820483FB0121950FFF
:1056400045EA8105010E8DF80010010C8DF801105E
:10565000010A8DF802108DF803006A4604214FF408
:10566000747001F0B1FA4FF0FF3688B9200E8DF852
:105670000000200C8DF80100200A8DF802008DF842
:1056800003406A4604214FF4757001F09DFA08B199
:105690003046F8BD280E8DF80000280C8DF801006A
:1056A000280A8DF802008DF803506A4604214FF451
:1056B000767001F089FAF8BD200D002009E3CA02D6
:1056C0002DE9FF4104463CA004F00303006802906A
:1056D0003AA0006803903AA006683AA0056802A8BC
:1056E000C15C8DF80010C4F3C101425C8DF801204B
:1056F000C4F38112805C8DF8020003A8C35C8DF8AE
:105700000430415C8DF80510805C8DF806006A4617
:10571000032140F2264001F057FA4FF0FF37E0BB7B
:1057200001AA032140F22A4001F04EFAA8BBCDE9BC
:10573000006560070BD59DF8000040F001008DF872
:1057400000009DF8040040F001008DF80400A00660
:105750000BD59DF8010040F001008DF801009DF887
:10576000050040F001008DF80500E0050BD59DF81F
:10577000020040F001008DF802009DF8060040F0A4
:1057800001008DF806006A4603214FF4886001F09D
:105790001BFA10B901AA032100E004E040F23140F5
:1057A00001F012FA18B1384604B0BDE8F08106489D
:1057B00004810020F8E700004CCD6C000CC92C00DF
:1057C0003656760026466600200D00204FF47A7289
:1057D00090FBF2F008B54843010E8DF80010010C63
:1057E0008DF80110010A8DF802108DF803006A4649
:1057F00004214FF4AE7001F0E7F908BD0521B0FBBC
:10580000F1F008B5010A8DF800108DF801006A4624
:1058100002214FF4AD7001F0D7F908BD0521B0FBAE
:10582000F1F008B5010A8DF800108DF801006A4604
:1058300002214FF4AC7001F0C7F908BD08B5002192
:105840008DF80010C10702D030218DF800108107BB
:1058500005D59DF8001041F00C018DF800104007AF
:1058600005D59DF8000040F003008DF800006A4661
:1058700001214FF4A47001F0A7F908BD08B560B18B
:10588000042800D90420401E8DF800006A4601213A
:1058900040F24F1001F098F908BD0120F3E7000035
:1058A0002DE9FC41054640074FF0FF367CD0B1F5AD
:1058B000C86F79D8084603F073F93E4903F05AF8E7
:1058C000074601A800F00AFC9DF80400022806D053
:1058D00004280DD008282ED0102865D134E00E21E0
:1058E000384603F012FB03F023F984B2324907E093
:1058F0000D21384603F009FB03F01AF92F4984B251
:10590000384603F061F903F013F9210A8DF800100D
:1059100080B28DF80140010A8DF802108DF8030065
:10592000E8076C4620D0224602214FF4EA7001F0CD
:105930004BF9C8BB11E00C21384603F0E6FA03F03E
:10594000F7F884B21E49DBE70B21384603F0DDFA95
:1059500003F0EEF884B21B49D2E7A21C02214FF4F7
:10596000927001F031F9F8B9A8070DD56A46022105
:105970004FF4EC7001F028F9B0B9A21C02214FF4E9
:10598000947001F021F978B9680710D56A460221B0
:105990004FF4EE7001F018F930B9A21C02214FF457
:1059A000967001F011F910B13046BDE8FC8100207D
:1059B000FBE7000000004843000040460000C045EF
:1059C000000040450000C0440521B0FBF1F008B5DF
:1059D000010A8DF800108DF801006A4602214FF48B
:1059E000EF7001F0F1F808BD0521B0FBF1F008B54A
:1059F000010A8DF800108DF801006A4602214FF46B
:105A0000ED7001F0E1F808BD0A4910B50A78C1B29D
:105A100032B9094B1C686406FCD5074B1B1D196085
:105A2000012A06D1054A13685B06FCD5034A121DFC
:105A3000116010BD04000020004400400038014007
:105A40002DE9FE430646264801AB042240680D219D
:105A5000007800F03FFA10B10720BDE8FE839DF802
:105A600004101C2000EAD1029DF80710DFF87490A2
:105A7000C1F301131A438DF800209DF80520C1F3EE
:105A8000810300EAD2021A438DF801209DF8062016
:105A900001F0030100EAD20008430024124F8DF800
:105AA0000200A0466D46285D10B146F824900AE039
:105AB00046F824800DE000BF56F82400394603F074
:105AC00083F846F82400285D401E10F0FF0028559A
:105AD000F2D1641CE4B2032CE5D30020BDE7000042
